:040000006EEF00F0AF
:100008004882FACF06F0FBCF07F0E9CF08F0EACF35
:1000180009F0E1CF0AF0E2CF0BF0D9CF0CF0DACF3C
:100028000DF0F3CF0EF0F4CF0FF0F6CF10F0F7CFBE
:1000380011F0F8CF12F0F5CF13F048C014F049C012
:1000480015F04AC016F04BC017F0F2B6F2A003D074
:1000580014EC1EF019D0F2BAF2A403D002EC15F099
:1000680013D0F2AC11D0A0B8A1A803D016EC1EF0A2
:100078000BD09DB89EA803D068EC1BF005D09DBAA4
:100088009EAA02D036EC1CF017C04BF016C04AF0FE
:1000980015C049F014C048F013C0F5FF12C0F8FFAE
:1000A80011C0F7FF10C0F6FF0FC0F4FF0EC0F3FF3A
:1000B8000DC0DAFF0CC0D9FF0BC0E2FF0AC0E1FF98
:1000C80009C0EAFF08C0E9FF07C0FBFF06C0FAFF46
:0800D80048921100B9EF14F089
:10060000001C0401000B3061003A19C000C9FC1045
:100610001128042D10E700001276600035250080B7
:10062000008483003003000000120000000100007D
:100630000C8006200004080C0010001400000018B4
:1006400000004423446344A344E307060504190A55
:100650000D0204060800803F72313FFE753E58636C
:100660003D951D3CC5AE3A79213994803793A73525
:1006700056153400000000803FF0FFBEE2A93E8323
:1006800076BEAE2B3E3CC3BDD2133D78D3BB4D618D
:100690007220313920323031380031323A32333A37
:1006A00034390000000E0001BA6F000EB96F000E61
:1006B000BE6F000EBD6F6C0E206E000E216E000E20
:1006C000236E450E226E29EC1DF0D1EC1DF00009C1
:1006D000D8B412003C503D103E103F10D8B4EED0BC
:1006E0003150321033103410D8B49AD02CC060F08E
:1006F0002DC061F0000E000161BFFF0E626F636FDD
:100700003150605D325061593350625934506359F1
:10071000D8B002D0010E01D0000E646F656B666B1D
:10072000676B641F651F661F671F642B000E6523C0
:100730006623672331506425686F32506521696FE5
:10074000335066216A6F345067216B6F68516911AD
:100750006A116B11D8A40AD02CC0B1F02DC0B2F030
:10076000000EB2BFFF0EB36FB46F08D031C0B1F04E
:1007700032C0B2F033C0B3F034C0B4F0B1C0BDF099
:10078000B2C0BEF0BEAF91D0BDC018F0BEC019F06F
:100790008BEC1CF018C060F019C061F0000E000175
:1007A00061BFFF0E626F636F60513C5C61513D58E9
:1007B00062513E5863513F58D8B016D03C50BD25C9
:1007C000606F3D50BE21616F60512C2661512D221A
:1007D0003CC060F03DC061F0601F611F604B612B49
:1007E00060C0BDF061C0BEF0BDC060F0BEC061F0D1
:1007F000060ED89060376137E82EFBD760C062F0F4
:1008000061C063F0000E63BFFF0E646F656F6251DD
:10081000E8276351E9236451EA236551EB2345D06E
:100820002CC060F02DC061F0000E000161BFFF0E12
:10083000626F636F3C50605D3D5061593E5062593C
:100840003F506359D8A009D03CC0B5F03DC0B6F0C8
:100850003EC0B7F03FC0B8F009D02CC0B5F02DC0F5
:10086000B6F0000EB6BFFF0EB76FB86FB5C02CF074
:10087000B6C02DF02CC060F02DC061F0060ED890EF
:1008800060376137E82EFBD760C062F061C063F06B
:10089000000E63BFFF0E646F656F6251E85F6351C6
:1008A000E95B6451EA5B6551EB5BEB51EA113EE1B8
:1008B000E805400EE959D8B039D023D00001DB510A
:1008C000D8B428D0E851405CE9514158EA51425827
:1008D000EB514358D8A01ED0400E4024E86F000EC4
:1008E0004120E96F000E4220EA6F000E4320EB6FBB
:1008F000EB51EA1106E1F00EE85D7F0EE959D8A050
:1009000015D0000EE86F400EE96F000EEA6F000E82
:10091000EB6F0CD03150321033103410D8A406D005
:10092000550E246E050E7AEC19F01200240E00010B
:100930006C6F050E6D6F540E6E6F400E6F6F000E74
:10094000BA6F000EB96F84D0000EBC6F000EBB6F83
:10095000BCBF06D0BC512CE1400EBB5DD8B028D046
:10096000040EBB25606F000EBC21616F6C0E60250C
:10097000D96E000E6121DA6EBBC062F0BCC063F0BC
:10098000000E63BFFF0E646F656FE8516225186E3D
:10099000E9516321196EEA5164211A6EEB51652108
:1009A0001B6EA2EC1DF0DF6E0001BB4BBC2BD0D741
:1009B000400EE827000EE923EA23EB23EB51EA116E
:1009C00006E1F00EE85D7F0EE959D8A008D0000ED0
:1009D000E86F400EE96F000EEA6F000EEB6F6C0ED1
:1009E000186E000E196E000E1B6E440E1A6EA3ECEC
:1009F00019F00001B06F6C0E196E000E1A6E000E29
:100A00001C6E450E1B6E9FEC1BF0315032103310E4
:100A10003410D8B41AD03C04FF0E3D58FF0E3E5897
:100A2000FF0E3F58D8B006D0010E3C26000E3D22E6
:100A30003E223F223150321033103410D8B405D04A
:100A40003106000E325A335A345A0001B94BBA2BD0
:100A50002C50B95DBA51800A606F2D50800A6059E0
:100A6000D8B0120071D702011B6F000E206E020E6B
:100A7000216E000E236E1B0E226E29EC1DF0240E3B
:100A80000201006F040E016F160E036F1B51D8A4F4
:100A90003AD0470E026F000E0001B26F040EB16F24
:100AA000350EF66E060EF76E0800F55083EC0DF06D
:100AB000B1C01CF2B2C01DF2B3C01EF2B4C01FF22E
:100AC000000E0001B26F040EB16F360EF66E060E08
:100AD000F76E0800F55083EC0DF0B1C020F2B2C003
:100AE00021F2B3C022F2B4C023F2000E0001B26FB3
:100AF000040EB16F370EF66E060EF76E0800F55055
:100B000083EC0DF040D002011B05D8A444D0460E62
:100B1000026F000E0001B26F040EB16F350EF66E5B
:100B2000060EF76E0800F550200983EC0DF0B1C0F9
:100B30001CF2B2C01DF2B3C01EF2B4C01FF2000E10
:100B40000001B26F040EB16F360EF66E060EF76E30
:100B50000800F550200983EC0DF0B1C020F2B2C0BE
:100B600021F2B3C022F2B4C023F2000E0001B26F32
:100B7000040EB16F370EF66E060EF76E0800F550D4
:100B8000200983EC0DF0B1C024F2B2C025F2B3C04D
:100B900026F2B4C027F2000E0201296F000E286F62
:100BA00029BF06D0295149E1040E285DD8B045D0AF
:100BB000000E2B6F000E2A6F2BBF06D02B513AE18F
:100BC000040E2A5DD8B036D02A5128250001CA6FFC
:100BD00002012B5129210001CB6F040ECA27000E00
:100BE000CB23000ECA25D96E020ECB21DA6E1C0E65
:100BF000CC6F020ECD6FD89002012835E16E2935F9
:100C0000E26ED890E136E2360001CC51E126CD51BA
:100C1000E222E6CF18F0E6CF19F0E6CF1AF0E6CFE1
:100C20001BF02AC21CF01CEC18F0DF6E02012A4BEC
:100C30002B2BC2D7284B292BB3D7000E186E020ED0
:100C4000196E000E1B6E1A0E1A6EA3EC19F002013B
:100C50001A6F000E196E020E1A6E000E1C6E1B0E1D
:100C60001B6E9FEC1BF01200000197519811991117
:100C7000D8A407D0000E976F800E986F3F0E996F23
:100C80001200720E186E310E196E440E1A6E97C055
:100C90001BF098C01CF099C01DF0DBEC15F0D8B02B
:100CA0000DD0000E0101736F220E726FFF0E000156
:100CB000976F7F0E986F7F0E996F120097C018F094
:100CC00098C019F099C01AF0490E1B6E3A0E1C6EAE
:100CD000C40E1D6EDBEC15F0D8B00DD0000E010176
:100CE000736F220E726F000E0001976F000E986FE7
:100CF000000E996F1200000199AF02D0010E01D0D1
:100D0000000E9F6F9F51D8B40ED097C018F098C0B6
:100D100019F099C01AF0D7EC1CF018C097F019C060
:100D200098F01AC099F097C069F098C06AF099C01D
:100D30006BF0AA0E00016C6FB80E6D6F3F0E6E6FF8
:100D400014EC10F069C097F06AC098F06BC099F08D
:100D500097C08FF098C090F099C091F075EC11F0A9
:100D60008FC09AF090C09BF091C09CF09AC078F030
:100D70009BC079F09CC07AF098EC0FF078C09DF0A1
:100D800079C09EF097C084F098C085F099C086F035
:100D90009DC020F09EC021F04CEC1BF020C087F0DD
:100DA00021C088F022C089F078EC1AF084C097F056
:100DB00085C098F086C099F097C084F098C085F0FF
:100DC00099C086F0550E0001876F060E886F000EE1
:100DD0008A6F090E896FE6EC11F084C08EF085C031
:100DE0008FF086C090F09DC091F09EC092F051ECC3
:100DF00012F08EC097F08FC098F090C099F000016B
:100E00009F51D8B425D097290EE17F0E98190BE198
:100E10007F0E9919D8A407D0000E976F000E986F17
:100E2000000E996F1200000E296E800E2A6E3F0E82
:100E30002B6E97C02CF098C02DF099C02EF08FEC3F
:100E400010F029C097F02AC098F02BC099F012003A
:100E500097C097F098C098F099C099F01200000ED2
:100E60000001DA6FD2D0040EE3651200010EE26FCA
:100E7000120063EC1CF0000E0001DC6F010EE36554
:100E80000DD034EC1AF00001DA6FDAC0CFF1240E85
:100E9000DA19D8A41200020EE26F1200000EE26FFF
:100EA0001200010EE365120034EC1AF00001E16F4C
:100EB000E1C0D0F1030EE26F1200010EE3651200F3
:100EC00034EC1AF00001E06FE0C0D1F1040EE26FE3
:100ED0001200010EE365120034EC1AF00001DF6F1E
:100EE000DFC0D2F1DF51D8A403D0060EE26F1200AA
:100EF000050EE26F1200DF51E35DD8A01200BB0EB9
:100F0000206E010E216E000E236E140E226E29EC4F
:100F10001DF0000E0001D96F000ED86F1ED034EC0A
:100F20001AF00001DA6FDC51D46FD56B040ED427B0
:100F3000000ED523CF0ED425D96E010ED521DA6E41
:100F4000DAC0DFFFDC2BBB0ED825D96E010ED9210C
:100F5000DA6EDAC0DFFFD84BD92BDF51D46FD56BF7
:100F6000D451D85DD951800AD66FD551800AD6594F
:100F7000D8A0D5D7060EE26F1200E351D8B4120004
:100F800034EC1AF00001DD6FCF0E186E010E196EF1
:100F9000040EDC251A6E1B6A000E1B22A3EC19F04E
:100FA0000001DE6FDE51DD19D8A403D0070EE26F19
:100FB0001200000EE26F1200FE0ED46FFF0ED56F0E
:100FC000E151D66FD76BD890D637D737D451D627C3
:100FD000D551D723E30ED625D96E010ED721DA6E6F
:100FE00001D80FD00500FA6EDE50FD6EDE50FE6EA9
:100FF000F850FF6EFA50BB0ED06F010ED16FE0516A
:101000001200000E0001E26F1200E251000AD8B493
:101010002AD7010AD8B42DD7030AD8B442D7010A77
:10102000D8B44BD7070AD8B454D7010AD8B463D779
:10103000030AD8B4A2D7010AD8A41200BDD726C08B
:10104000D9FF27C0DAFFDF500001656F264A272A43
:1010500065519FEC1CF0D8B0F2D7000E0001616F13
:10106000000E626F000E636F000E646F000E606F03
:101070002D0E6519D8A403D0010E606F04D02B0E7D
:101080006519D8A408D026C0D9FF27C0DAFFDF50E1
:10109000656F264A272A300E6519D8A42ED026C09F
:1010A000D9FF27C0DAFFDF50656F264A272A2A506A
:1010B0002B10D8B405D0100E2A182B10D8A415D098
:1010C000780E6519D8B404D0580E6519D8A40DD07F
:1010D000000E2B6E100E2A6E26C0D9FF27C0DAFF35
:1010E000DF50656F264A272A08D02A502B10D8A433
:1010F00004D0000E2B6E080E2A6E2A502B10D8A496
:1011000004D0000E2B6E0A0E2A6E655177EC1CF08F
:10111000D8A008D00001655184EC1DF0C90F000172
:10112000656F09D0000165510BEC1DF0D8A039D0D6
:10113000300E0001655F65512C6E2D6A2A502C5CC3
:101140002D50800A2E6E2B50800A2E58D8B029D0F0
:101150002AC01AF02BC01BF0000E1BBEFF0E1C6E27
:101160001D6E61C01EF062C01FF063C020F064C03D
:1011700021F026EC19F0000165511A24616F000E70
:101180001B20626F000E1C20636F000E1D20646F19
:1011900026C0D9FF27C0DAFFDF50656F264A272A0D
:1011A000B4D728502910D8B40ED0FF0E26242C6EA8
:1011B000FF0E27202D6E28C0D9FF29C0DAFF2CC0D2
:1011C000DEFF2DC0DDFF00016051D8B41AD061C030
:1011D0002CF062C02DF063C02EF064C02FF02C1EE6
:1011E0002D1E2E1E2F1E2C2A000E2D222E222F22C7
:1011F0002CC026F02DC027F02EC028F02FC029F0DB
:10120000120061C026F062C027F063C028F064C0FD
:1012100029F01200000E0001BB6F000EBA6F3B50A8
:10122000D8A473D0000EBC6F060EBC6501D01200AE
:10123000BC51010D4A0EF324F66E060EF420F76E33
:101240000800F5501EEC1CF018C0B3F019C0B4F043
:10125000000E0001A36F200EA46F410EA56F000EBB
:10126000A06F000EA16F400EA26FBCEC0AF0A0C0F0
:10127000B7F0A1C0B8F0A2C0B9F0C00E00016C6F09
:10128000500E6D6F450E6E6FB7C02CF0B8C02DF0CC
:10129000B9C02EF0B3C020F0B4C021F0E9EC1CF0CE
:1012A00020C029F021C02AF022C02BF08FEC10F0D2
:1012B00029C069F02AC06AF02BC06BF014EC10F062
:1012C00069C078F06AC079F06BC07AF098EC0FF0E2
:1012D00078C0BAF079C0BBF0BAC02DF0BBC02EF018
:1012E0000001BC292F6E9CEC0EF0030E0001B26FC2
:1012F0008A0EB16F550EE82EFED7B12FFCD7B22F54
:10130000FAD700D00001BC2B8FD73B04D8A4120021
:10131000E451010D4A0EF324F66E060EF420F76E2A
:101320000800F5501EEC1CF018C0B5F019C0B6F05E
:10133000000E0001A36F200EA46F410EA56F000EDA
:10134000A06F000EA16F400EA26FBCEC0AF0A0C00F
:10135000B7F0A1C0B8F0A2C0B9F0C00E00016C6F28
:10136000500E6D6F450E6E6FB7C02CF0B8C02DF0EB
:10137000B9C02EF0B5C020F0B6C021F0E9EC1CF0E9
:1013800020C029F021C02AF022C02BF08FEC10F0F1
:1013900029C069F02AC06AF02BC06BF014EC10F081
:1013A00069C078F06AC079F06BC07AF098EC0FF001
:1013B00078C0BAF079C0BBF0BAC02DF0BBC02EF037
:1013C000010E2F6E9CEC0EF012007AC07EF0000130
:1013D0007F6B806B79357E3701E37F817E51836F30
:1013E0007DC07EF07F6B806B7C357E3701E37F8133
:1013F0007E51826F8351D8B40BD08251835DD8B0B7
:101400000ED08351000882257E6F180E7E6507D0AE
:101410007BC078F07CC079F07DC07AF012008251F8
:10142000D8B40BD08351825DD8B00ED08251000861
:1014300083257E6F180E7E6507D078C078F079C05E
:1014400079F07AC07AF01200060E816F7ABF818F30
:101450007DBF818D798FFF0E7817FF0E7917000EF3
:101460007A177C8FFF0E7B17FF0E7C17000E7D17FF
:101470008251835DD8B01BD0D8907B377C377D37C5
:10148000820783518219D8B40DD0810781C07EF0C4
:10149000070E7E17D8B406D0EFD7D8907A337933B9
:1014A0007833832B82518319D8B41FD0F6D7835158
:1014B000825DD8B01AD0D890783779377A378307D9
:1014C00083518219D8B40DD0810781C07EF0070EF8
:1014D0007E17D8B406D0EFD7D8907D337C337B33DA
:1014E000822B82518319D8A4F7D781AF0CD0FF0E7D
:1014F000781BFF0E791BFF0E7A1B010E7827000E5A
:101500007923000E7A2381AD0CD0FF0E7B1BFF0EDA
:101510007C1BFF0E7D1B010E7B27000E7C23000E23
:101520007D23000E816F78517B2779517C237A517E
:101530007D237DAF0ED0FF0E7B1BFF0E7C1BFF0EAD
:101540007D1B010E7B27000E7C23000E7D23010EE8
:10155000816F7BC018F07CC019F07DC01AF083C089
:101560001BF081C01CF0CAEC13F018C078F019C051
:1015700079F01AC07AF01200000E0001AC6FA05191
:10158000A111A211D8A41DD0000E186E000E196E64
:10159000000E1A6EA3C01BF0A4C01CF0A5C01DF065
:1015A000DBEC15F0D8A005D0000E0101736F210E01
:1015B000726F000E0001A06F000EA16F000EA26FEF
:1015C0001200A351A411A511D8A407D0000EA06F3A
:1015D000800EA16F3F0EA26F1200A2AF43D0A3C036
:1015E00078F0A4C079F0A5C07AF098EC0FF078C03C
:1015F000ADF079C0AEF07AC0AFF07BC0B0F0ADC056
:1016000020F0AEC021F0AFC022F0B0C023F04AEC11
:1016100018F00001A351201807E1A451211804E19A
:10162000A5512218D8B40DD0000E0101736F210E00
:10163000726F000E0001A06F000EA16F000EA26F6E
:101640001200AD51010BAC6FA0C018F0A1C019F091
:10165000A2C01AF0D7EC1CF018C0A0F019C0A1F07D
:101660001AC0A2F0A0C08EF0A1C08FF0A2C090F06E
:10167000EEEC0CF08EC0A6F08FC0A7F090C0A8F0E2
:10168000A6C069F0A7C06AF0A8C06BF0A3C06CF058
:10169000A4C06DF0A5C06EF014EC10F069C0A9F004
:1016A0006AC0AAF06BC0ABF0A9C097F0AAC098F0CE
:1016B000ABC099F034EC06F097C0A0F098C0A1F050
:1016C00099C0A2F00001AC51D8B40FD0A0C018F05E
:1016D000A1C019F0A2C01AF0D7EC1CF018C0A0F0FD
:1016E00019C0A1F01AC0A2F01200A0C0A0F0A1C0C1
:1016F000A1F0A2C0A2F0120000017A6F000E00015A
:101700007C6F000E7D6F000E7E6F000E7F6F000EEF
:10171000806F000E816F000E826F000E836F000ECF
:10172000866F000E7B6F700E206E000E216E000E15
:10173000236E0A0E226E29EC1DF0000E0001866F4A
:10174000090E866501D01DD08651010DF350662526
:10175000D96EF4506721DA6EDF507B6F100E7B1963
:10176000D8A402D0862B0DD08651010D700EF32423
:10177000D96E000EF420DA6E7B51300FDF6E862BAF
:10178000DFD7700E266E000E276E000E286E000E3C
:10179000296E7A512A6E2B6A2ABE2B061FEC08F09E
:1017A00026C07CF027C07DF028C07EF029C07FF0E5
:1017B000700E206E000E216E000E236E0A0E226E39
:1017C00029EC1DF0000E0001856F000E846F85BFAF
:1017D00006D085512EE10A0E845DD8B02AD08651FC
:1017E00084256E6F000E85216F6F6E516625D96E50
:1017F0006F516721DA6EDF507B6F230E7B19D8B4EF
:1018000018D0700E8425D96E000E8521DA6E8651AF
:1018100084256E6F000E85216F6F6E516625E16E17
:101820006F516721E26EE750300FDF6E844B852BDE
:10183000CED7700E266E000E276E000E286E000E9C
:10184000296E7A512A6E2B6A2ABE2B061FEC08F0ED
:1018500026C080F027C081F028C082F029C083F024
:1018600020EE7CF000EE66F0070EDBCFEBFFE80623
:10187000FCE212000001CD6F010E186E0001CD5187
:10188000D8EC1AF0000E0001CE6F000EC86F000EEB
:10189000C96F000ECA6F000ECB6F000ECC6F0C0E1E
:1018A000CC6501D01200CC2900080D0FCE6FCE51AF
:1018B000D8B413D0CE05D8B410D0020ECE19D8B4F7
:1018C0000CD0040ECE19D8B408D0060ECE19D8B458
:1018D00004D00A0ECE19D8A464D0CD51D8A411D00A
:1018E000000EB26F040EB16FCE51010D350EF32410
:1018F000F66E060EF420F76E0800F55083EC0DF03E
:1019000015D00001CD05D8A419D0000EB26F040E79
:10191000B16FCE51010D350EF324F66E060EF42094
:10192000F76E0800F550200983EC0DF0B1C0C8F047
:10193000B2C0C9F0B3C0CAF0B4C0CBF00001C8292E
:1019400021E1C9291FE1CA291DE1CB29D8A41AD058
:10195000CC51040D010EF324F66E060EF420F76E42
:101960000900F5CF26F00900F5CF27F00900F5CFE3
:1019700028F00A00F5CF29F0030E2A6ECD5121EC94
:1019800014F029D0C8C026F0C9C027F0CAC028F07A
:10199000CBC029F0030E2A6E0001CD5121EC14F0CA
:1019A0001AD00001CC51040D010EF324F66E060E80
:1019B000F420F76E0900F5CF26F00900F5CF27F0E7
:1019C0000900F5CF28F00A00F5CF29F0030E2A6EA2
:1019D000CD5121EC14F00001CC2B61D7000190AF68
:1019E0000DD0000E0101736F210E726F000E000109
:1019F0008E6F000E8F6F000E906F12008E518F1140
:101A00009011D8A40DD0000E0101736F220E726FD9
:101A1000000E00018E6F000E8F6F000E906F12008F
:101A2000000E6C6F000E6D6F400E6E6F910E1B6E90
:101A3000000E1C6E8EC018F08FC019F090C01AF006
:101A400093EC15F018C069F019C06AF01AC06BF079
:101A500014EC10F069C078F06AC079F06BC07AF0CD
:101A6000000E00017B6F800E7C6FBF0E7D6FE5EC7A
:101A700009F078C08EF079C08FF07AC090F0000144
:101A80009107D8A092078EC084F08FC085F090C0D7
:101A900086F0730E876F060E886F000E8A6F080E31
:101AA000896FE6EC11F084C08EF085C08FF086C09F
:101AB00090F0720E00016C6F310E6D6F3F0E6E6F05
:101AC00091C020F092C021F04CEC1BF020C069F0D6
:101AD00021C06AF022C06BF014EC10F069C078F0FD
:101AE0006AC079F06BC07AF08EC07BF08FC07CF05A
:101AF00090C07DF0E5EC09F078C08EF079C08FF0F1
:101B00007AC090F012000001C26F000E0001C36F96
:101B1000000EC46F000EC56F000EC66FB151C25FDC
:101B2000000EC76F6DD0C751B56FB66B010EB527EC
:101B3000000EB623B51FB61FB54BB62BB151B52756
:101B4000B251B623D890B537B637D890B537B63737
:101B5000D890B537B637B5C020F0B6C021F04CEC00
:101B60001BF020C0BCF021C0BDF022C0BEF0BCC044
:101B7000A3F0BDC0A4F0BEC0A5F0000E0001A06F90
:101B8000000EA16F400EA26FBCEC0AF0A0C0BFF027
:101B9000A1C0C0F0A2C0C1F0BFC078F0C0C079F051
:101BA000C1C07AF098EC0FF078C0B8F079C0B9F005
:101BB0007AC0BAF07BC0BBF00001C251C72506EC69
:101BC0001EF00001B56FB5511A6E1B6A1C6A1D6AC2
:101BD000B8C01EF0B9C01FF0BAC020F0BBC021F0E1
:101BE00026EC19F00001C3511A10C36FC4511B1029
:101BF000C46FC5511C10C56FC6511D10C66FC72BD1
:101C0000C751B56FB66BB151B55DB651800AB76FAC
:101C1000B251800AB759D8A086D7C3C0B1F0C4C0AA
:101C2000B2F0C5C0B3F0C6C0B4F01200280E206EEA
:101C3000000E216E000E236E090E226E29EC1DF09F
:101C4000240E286E050E296E520E2A6E040E2B6E7F
:101C5000F00E186E3F0E196E000E1A6E000E1B6EFF
:101C6000010E1C6E1CEC18F02C6EF00E186E3F0E60
:101C7000196E000E1A6E000E1B6E000E1C6E1CEC10
:101C800018F02D6E40C024F041C025F042C026F06F
:101C900043C027F0241E251E261E271E242A000EC0
:101CA000252226222722F00E2424186E7F0E2520BE
:101CB000196E000E26201A6E000E27201B6E010ED4
:101CC0001C6E1CEC18F02E6E40C024F041C025F0B4
:101CD00042C026F043C027F0241E251E261E271EC4
:101CE000242A000E252226222722F00E2424186EF4
:101CF0007F0E2520196E000E26201A6E000E27205A
:101D00001B6E000E1C6E1CEC18F02F6E280E186E49
:101D1000000E196E000E1B6E080E1A6EA3EC19F061
:101D2000306E280E196E000E1A6E000E1C6E090E13
:101D30001B6E9FEC1BF012002F500001606F616B57
:101D40000C0ED89060376137E82EFBD760C062F088
:101D500061C063F062512D1263512E12D8900101BF
:101D60007435D96E7535DA6E7B0ED926010EDA22FE
:101D70002DC0DEFF2EC0DDFF744B752B74C160F0EB
:101D800075C161F0D890000160376137615104E19D
:101D9000400E605DD8A01200D1EC1DF00009D8B44F
:101DA000120040C01DF041C01EF042C01FF043C0F1
:101DB00020F07B0E216E010E226EB8EC12F0400E68
:101DC0004026000E4122422243224350421006E1A7
:101DD000F00E405C7F0E4158D8A018D0000E406E27
:101DE000400E416E000E426E000E436E010E000169
:101DF000DB6F400EE919E811EA11EB11D8A406D007
:101E0000400EE827000EE923EA23EB233104FF0EFE
:101E10003258FF0E3358FF0E3458D8B006D0010E9A
:101E20003126000E322233223422000E0101756F5A
:101E3000000E746F12000001896F070E01017861B6
:101E400061D087C066F088C067F00A0E7CEC0BF0AA
:101E500020EE8AF0070EEBCFDBFFE806FCE28AC03B
:101E600026F08BC027F08CC028F08DC029F0030E1F
:101E70002A6E0001895121EC14F000018951D8A487
:101E80001DD08AC021F08BC022F08CC023F08DC001
:101E900024F0350E8E25F66E060E8F21F76E0800A3
:101EA000F5CF25F0000E276E040E266E14EC1BF005
:101EB000480E246E040E7AEC19F021D00001890539
:101EC000D8A41DD08AC021F08BC022F08CC023F092
:101ED0008DC024F0350E8E25F66E060E8F21F76E1E
:101EE0000800F5502009256E000E276E040E266EA0
:101EF00014EC1BF0490E246E040E7AEC19F001016B
:101F0000782B1200000E786F00018951D8A406D0FA
:101F1000420E246E040E7AEC19F0120000018905BD
:101F2000D8A41200430E246E040E7AEC19F01200AD
:101F30007AC07CF000017D6B7E6B79357C3701E3E4
:101F40007D817C51866F8651D8A409D0000E786FB0
:101F5000000E796F000E7A6F000E7B6F1200170E65
:101F60007C6F78C07DF079C07EF07AC07FF07C29EC
:101F7000806F04D0D8907F337E337D33802FFAD7A3
:101F800000017D51816F798FFF0E7817FF0E791751
:101F9000000E7A177851826F7951836F7A51846F6E
:101FA000856B8E0E865F86AF16D08651800A8F0FA6
:101FB000D8B009D0000E786F000E796F000E7A6FDE
:101FC000000E7B6F1200D8908533843383338233C5
:101FD000863FF9D715D0170E86650FD0000E786FA3
:101FE000000E796F000E7A6F000E7B6F1200D89092
:101FF000823783378437853786078651D8A4F7D749
:102000008151D8B408D0851F841F831F826D000EB4
:1020100083238423852382C078F083C079F084C031
:102020007AF085C07BF012006BC06FF00001706B1E
:10203000716B6A356F3701E370816F51726F725146
:10204000D8A407D0000E696F000E6A6F000E6B6F88
:1020500012006EC06FF0706B716B6D356F3701E3FE
:1020600070816F51776F7751D8A407D0000E696FD8
:10207000000E6A6F000E6B6F120077517B0F722794
:102080006BC077F06E51771B800E77176A8F6D8F5C
:10209000FF0E6C17FF0E6D17000E6E17000E736F9C
:1020A000000E746F000E756F070E766F69A106D073
:1020B0006C5173276D5174236E517523D8906B3317
:1020C0006A336933D8906C376D376E37762FEED719
:1020D000090E766F69A106D06C5173276D51742378
:1020E0006E517523D8906B336A336933D89075334A
:1020F00074337333762FEED773C018F074C019F0B1
:1021000075C01AF072C01BF077C01CF0CAEC13F057
:1021100018C069F019C06AF01AC06BF012002BC029
:1021200060F00001616B626B2A34603701E361810A
:102130006051676F6751D8A407D0000E296E000E5A
:102140002A6E000E2B6E12002EC060F0616B626B67
:102150002D34603701E361816051686F6851D8A404
:1021600007D0000E296E000E2A6E000E2B6E120094
:10217000000E646F000E656F000E666F6851890F68
:10218000675F2BC068F02E50681B800E68172A8E80
:10219000FF0E2916FF0E2A16000E2B162D8EFF0E8F
:1021A0002C16FF0E2D16000E2E16180E636FD890EB
:1021B0006437653766372C50295C2D502A582E50CD
:1021C0002B58D8A007D02C50295E2D502A5A2E50BB
:1021D0002B5A6481D89029362A362B36632FE7D7BD
:1021E00064C018F065C019F066C01AF067C01BF033
:1021F00068C01CF0CAEC13F018C029F019C02AF00E
:102200001AC02BF01200240E0001606F020E616FE5
:10221000210E626F040E636F6EC169F06FC16AF0C8
:1022200070C16BF071C16CF0000E6E6F000E6D6FBF
:102230006EBF06D06E5142E1040E6D5DD8B03ED047
:10224000040E6D25256E000E6E21266E600E25246F
:10225000D96E000E2620DA6E69C018F06AC019F037
:102260006BC01AF06CC01BF00A0E1C6E000E1D6EC7
:10227000000E1E6E000E1F6E5AEC17F01850DF6E27
:1022800069C018F06AC019F06BC01AF06CC01BF07E
:102290000A0E1C6E000E1D6E000E1E6E000E1F6ECE
:1022A00069EC16F018C069F019C06AF01AC06BF03A
:1022B0001BC06CF000016D4B6E2BBAD7600E186E10
:1022C000000E196E000E1B6E080E1A6EA3EC19F0AC
:1022D0000001686F600E196E000E1A6E000E1C6E03
:1022E000090E1B6E9FEC1BF012008FC018F090C0FF
:1022F00019F091C01AF0950E1B6E000E1C6E93EC37
:1023000015F0000196AF10D091AF07D0000E8F6F7F
:10231000800E906FBF0E916F1200000E8F6F000E37
:10232000906F000E916F1200965104E1150E955DAD
:10233000D8A007D08FC08FF090C090F091C091F0DE
:1023400012008FC078F090C079F091C07AF098ECCC
:102350000FF078C087F079C088F07AC089F07BC030
:102360008AF0E8EC16F087C092F088C093F089C03C
:1023700094F08FC018F090C019F091C01AF092C07C
:102380001BF093C01CF094C01DF0DBEC15F0D8B02E
:1023900016D092C078F093C079F094C07AF0000E15
:1023A00000017B6F800E7C6FBF0E7D6FE5EC09F046
:1023B00078C08FF079C090F07AC091F0120092C08E
:1023C0008FF093C090F094C091F0120089C018F083
:1023D0008AC019F0000E1B6E030E1A6EB2EC1CF0D0
:1023E00087C02FF088C030F018502F2619503022A7
:1023F0002FC0F6FF30C0F7FF0900F5CF8BF00900C2
:10240000F5CF8CF00A00F5CF8DF03FD08BC06CF08B
:102410008CC06DF08DC06EF084C069F085C06AF02C
:1024200086C06BF014EC10F069C078F06AC079F0E7
:102430006BC07AF0000E1B6E030E1A6E0001890746
:10244000D8A08A0789C018F08AC019F0B2EC1CF035
:1024500087C02FF088C030F018502F261950302236
:102460002FC0F6FF30C0F7FF0900F5CF7BF0090061
:10247000F5CF7CF00A00F5CF7DF0E5EC09F078C0EF
:102480008BF079C08CF07AC08DF0000189518A11EF
:10249000D8A4BCD78BC084F08CC085F08DC086F0EA
:1024A000120000018E518F119011D8A407D0000E98
:1024B0008E6F000E8F6F000E906F120090517F0B89
:1024C000936F946BD890933794379351912794518D
:1024D00092238FAF03D0936B932B02D00001936BA9
:1024E00093519127000E922392AF0DD0000E01015F
:1024F000736F220E726F000E00018E6F000E8F6FD1
:10250000000E906F120092BF17D09205D8A014D081
:10251000000E0101736F220E726F000190AF06D0A2
:10252000FF0E8E6F7F0E8F6FFF0EEBD7FF0E8E6F3D
:102530007F0E8F6F7F0EE5D792359231946F913178
:10254000936F90519319800B9319906F91C093F0F2
:10255000010E9317933393338F5193197F0B931974
:102560008F6F8EC08EF08FC08FF090C090F01200F1
:10257000C00E236E7F0E246E1DC025F01EC026F0F7
:10258000235025162450261625C027F026C028F0F3
:10259000296A2A6A000EF2BE010E2B6E27501D1802
:1025A00044E128501E1841E129501F183EE12A50ED
:1025B0002018D8A412001DC018F01EC019F01FC0AA
:1025C0001AF020C01BF0D4EC1BF01FC0F8FF1EC097
:1025D000F7FF1DC0F6FF000E2C6E3F0E2C6401D0DD
:1025E00013D02C50010DF3502124D96EF450222029
:1025F000DA6EDF50F56E3F0E2C18D8A402D00C0016
:1026000001D00D002C2AE9D7A188A68EA69CA6840D
:10261000F29E550EA76EAA0EA76EA682A6942BB0A8
:1026200002D0F29E01D0F28E120012000001856FDE
:10263000010E0001806F000E816F000E826F000E90
:10264000836F600E206E000E216E38EC1DF0600E60
:10265000186E000E196E22C01AF023C01BF024C0A1
:102660001CF025C01DF078EC18F0000E0001846FFE
:102670001F0E846501D026D0000E186E8551FBEC2C
:1026800018F000018451010D600EF324D96E000E84
:10269000F420DA6EDF50D8B406D0010E186E8551E2
:1026A000D0EC18F006D0000E186E00018551D0EC69
:1026B00018F0010E186E00018551FBEC18F00001B6
:1026C000842BD6D7210EE82EFED700F0000E186E10
:1026D00000018551D0EC18F0000E186E00018551F4
:1026E000FBEC18F01200E00E2C6EFF0E2D6E460E65
:1026F0002E6E40C078F041C079F042C07AF043C0FD
:102700007BF00001781F791F7A1F7B1F782B000E4A
:1027100079237A237B23F00E7825206E7F0E792192
:10272000216E000E7A21226E000E7B21236E4AEC70
:1027300018F020C029F021C02AF022C02BF08FEC25
:1027400010F029C069F02AC06AF02BC06BF0000EAF
:1027500000016C6FC80E6D6F420E6E6F14EC10F0BE
:1027600069C07CF06AC07DF06BC07EF0000E186E10
:10277000960E196E420E1A6E7CC01BF07DC01CF0C6
:102780007EC01DF0DBEC15F0D8B002D0010E1200B7
:10279000000E12001B50D8B405D0185019101A1092
:1027A000D8A40CD0000E186E000E196E000E1A6E12
:1027B00012001B2AD8901A3219321832000E18143F
:1027C0001D6E000E19141E6EFE0E1A141F6E1D5083
:1027D0001E101F10D8B40CD0ECD71B2A010E1826DF
:1027E000000E1922000E1A22D8901A32193218320D
:1027F000000E18141D6E000E19141E6EFF0E1A1412
:102800001F6E1D501E101F10D8B406D0E6D71B0631
:10281000D890183619361A3619BE03D0020E1B602E
:10282000F6D71BA0199ED8901B321B501A121C50B1
:10283000D8A41A8E18C018F019C019F01AC01AF0CE
:1028400012002E6EF29E2E50D8B403D02E04D8A4BF
:1028500016D0000E186E2E50F6EC1AF026C022F09C
:1028600027C023F028C024F029C025F02E5016ECF4
:1028700013F0010E186E2E50F6EC1AF02DD0020E49
:102880002E18D8A429D0000E47EC1DF0010E2A24E2
:102890002C6E2D6A000E2D222DBE1BD02D5003E173
:1028A0002C04D8A016D026C018F027C019F028C0D4
:1028B0001AF029C01BF02C041C6E1CEC18F02B6EB7
:1028C0002BC01AF02E50A4EC18F02C06D8A02D0620
:1028D000E3D7010E47EC1DF0F28E1200000E00014E
:1028E000CC6FCC51800A7C0FD8B01200000EB26FB2
:1028F000020EB16FCC51010D510EF324F66E060E8F
:10290000F420F76E0800F550400983EC0DF0B1C0DB
:10291000CAF0B2C0CBF00001CA291DE1CB29D8A46E
:102920001AD0CC51020D420EF324F66E060EF4209E
:10293000F76E0900F5CFC8F00900F5CFC9F0C8C09F
:1029400026F0C9C027F0286A296A010E2A6E020EF5
:1029500021EC14F00BD0CAC026F0CBC027F0286AB7
:10296000296A010E2A6E020E21EC14F00001CC2B14
:10297000B8D7B00EF66E3B0EF76E000EF86E01EE95
:10298000E3F010EE0CF00900F5CFEEFFE550E1505A
:10299000FAE11C0EF66E3C0EF76E000EF86E00EEBD
:1029A000E8F010EE04F00900F5CFEEFFE550E1503D
:1029B000FAE1160EF66E3C0EF76E000EF86E00EEA3
:1029C00040F010EE06F00900F5CFEEFFE550E150C3
:1029D000FAE101EE00F0E30EEE6AE806FDE100EE3A
:1029E000DBF00D0EEE6AE806FDE100EE31F00F0EB1
:1029F000EE6AE806FDE148904892000EF86E00018C
:102A00008DEF17F0F2944750D76E46C0D6FF354A87
:102A1000362A35C001F036C002F0000E046E140EE6
:102A2000036E99EC1AF001500210D8A403D0010EE5
:102A30000001E76F35C001F036C002F0000E046EF1
:102A4000320E036E99EC1AF001500210D8A403D094
:102A5000010E0001E66F35C001F036C002F0010E34
:102A6000046E2C0E036E99EC1AF001500210D8A4DB
:102A700003D0010E0001E56F35C001F036C002F051
:102A8000010E046E2C0E036E99EC1AF001C035F0A5
:102A900002C036F01200000E2D6E000E2E6E000EDB
:102AA0002F6E000E306E240E206E000E216E000E72
:102AB000236E090E226E29EC1DF0240E246E020EE8
:102AC000256E220E266E040E276E8E0E2D6E060EBD
:102AD0002E6E000E2F6E000E306E2EC028F02DC010
:102AE00029F09A0E2D6E060E2E6E000E2F6E000E21
:102AF000306E2EC02AF02DC02BF0240E186E000E62
:102B0000196E000E1B6E080E1A6EA3EC19F02C6ED7
:102B1000240E196E000E1A6E000E1C6E090E1B6E2E
:102B20009FEC1BF01200185019101A10D8A40FD0E7
:102B30001BC0D9FF1CC0DAFF000EDE6E000EDD6E7A
:102B4000000E186E000E196E000E1A6E12001A504A
:102B50007F0B1D6E1E6AD8901D361E361BC0D9FF16
:102B60001CC0DAFF1DC0DEFF1EC0DDFF19AE03D0A2
:102B70001D6A1D2A01D01D6A1D501BC0D9FF1CC033
:102B8000DAFFDE12000EDD121BC0D9FF1CC0DAFF17
:102B9000820EDE26FF0EDD221A801A821A841A8621
:102BA0001A881A8A1A9C199E18C018F019C019F0B0
:102BB0001AC01AF012001AAE16D018C01EF019C0B2
:102BC0001FF01AC020F01E1E1F1E201E1E2A000EFF
:102BD0001F222022000E1E24186E000E1F20196EC8
:102BE000800E20201A6E1DAE16D01BC01EF01CC019
:102BF0001FF01DC020F01E1E1F1E201E1E2A000ECC
:102C00001F222022000E1E241B6E000E1F201C6E91
:102C1000800E20201D6E000E181A000E191A800E4C
:102C20001A1A000E1B1A000E1C1A800E1D1A1B50B9
:102C3000185C1C5019581D501A58D8B002D0D890A2
:102C40001200D88012000001D26F28D0D0C087F0C7
:102C5000D1C088F0000E1BEC0FF01200D0C087F03E
:102C6000D1C088F0010E1BEC0FF01200010EAAEC8F
:102C700016F01200000EAAEC16F01200D0C0C8F038
:102C8000D1C0C9F0010E33EC05F01200D0C0C8F07D
:102C9000D1C0C9F0000E33EC05F012000001D25192
:102CA000400AD8B41200010AD8B41200030AD8B4FA
:102CB000CDD7010AD8B4D2D7070AD8B4D7D7010ADA
:102CC000D8B4D8D7030AD8B4D9D7010AD8A41200E7
:102CD000DDD7000E206E000E216E000E226E000E5B
:102CE000236E1C501D101E101F10D8B42AD0010EC8
:102CF000246E06D0D8901C361D361E361F36242A68
:102D00001FAEF8D7D89020362136223623361C50F5
:102D1000185C1D5019581E501A581F501B58D8A027
:102D200009D01C50185E1D50195A1E501A5A1F50B7
:102D30001B5A2080D8901F321E321D321C32242E86
:102D4000E1D720C018F021C019F022C01AF023C02A
:102D50001BF012000001CF6F0001CF51D8A41AD090
:102D60004550D8A402D0010E01D0000E456E45504A
:102D7000D8B404D0CF513AEC0CF006D0000E186E47
:102D80000001CF51D8EC1AF0450E246E040E7AECF7
:102D900019F012000001CF05D8A412004450D8A4A5
:102DA00002D0010E01D0000E446E4450D8B404D0BD
:102DB000CF513AEC0CF006D0000E186E0001CF5146
:102DC000D8EC1AF0440E246E040E7AEC19F01200BE
:102DD000000E306E8E0E2F6E00018AAF11D08A1F4A
:102DE000891F881F876D000E882389238A23010E7F
:102DF000306E06D0D8908A338933883387332F2AB0
:102E0000000E87158B6F000E88158C6F000E8915CC
:102E10008D6FFF0E8A158E6F8B518C118D118E1157
:102E2000D8A4E8D787C018F088C019F089C01AF074
:102E30002FC01BF030C01CF0CAEC13F018C087F094
:102E400019C088F01AC089F01200000E2E6E000E14
:102E50002D6E2EBE06D02E5027E10A0E2D5CD8B066
:102E600023D08B80820E2C6EDE0EE82EFED72C2E09
:102E7000FCD78A88820E2C6EDE0EE82EFED72C2E12
:102E8000FCD78B90820E2C6EDE0EE82EFED72C2EF9
:102E9000FCD78A98820E2C6EDE0EE82EFED72C2EE2
:102EA000FCD72D4A2E2AD5D7140E246E010E7AECAB
:102EB00019F012001C501D101E101F10D8B424D081
:102EC000010E206E06D0D8901C361D361E361F36D9
:102ED000202A1FAEF8D71C50185C1D5019581E50E0
:102EE0001A581F501B58D8A008D01C50185E1D50EF
:102EF000195A1E501A5A1F501B5AD8901F321E3290
:102F00001D321C32202EE7D718C018F019C019F056
:102F10001AC01AF01BC01BF01200FCEC1DF079EC7B
:102F20001DF0F6EC1DF0030EBEEC17F02FEC07F0D1
:102F30000001E705D8A406D056EC1AF0000E0001F7
:102F4000E76FF4D7E605D8A410D062EC1DF073EC5F
:102F500013F0E806D8A403D0040EEDEC17F00AEC49
:102F600009F0000E0001E66FE1D7E505D8A4DED731
:102F7000F0EC1DF0000E0001E56FD8D71B6E000EBF
:102F80001D6E000E1C6E1B50186E196A18501C5CCA
:102F90001D50800A1A6E1950800A1A58D8B01200B3
:102FA0008B90020E196E040E186EBA0EE82EFED724
:102FB000182EFCD7192EFAD700D08B80020E196E6E
:102FC000040E186EBA0EE82EFED7182EFCD7192E56
:102FD000FAD700D01C4A1D2AD6D71B6E000E1D6ED4
:102FE000000E1C6E1B50186E196A18501C5C1D5088
:102FF000800A1A6E1950800A1A58D8B012008A989E
:10300000020E196E040E186EBA0EE82EFED7182E98
:10301000FCD7192EFAD700D08A88020E196E040E3A
:10302000186EBA0EE82EFED7182EFCD7192EFAD736
:1030300000D01C4A1D2AD6D71FD018501200195094
:1030400012001A501200000E18141D6E000E1914F2
:103050001E6E000E1A141F6EFF0E1B14206E190E2A
:1030600005D0D89020321F321E321D32E82EF9D7FB
:103070001D501200000E12001C50000AD8B4DDD7FB
:10308000010AD8B4DCD7030AD8B4DBD7010AD8B414
:10309000DAD7F0D78E0E286E06D0D890233222329F
:1030A00021322032282A000E2014246E000E211412
:1030B000256E000E2214266EFF0E2314276E245058
:1030C000251026102710D8A4E8D720C018F021C05A
:1030D00019F022C01AF028C01BF0000E1C6ECAECBA
:1030E00013F018C020F019C021F01AC022F012000D
:1030F000000E216E000E206E21BE06D0215023E16D
:10310000210E205CD8B01200010E20241E6E000E8D
:1031100021201F6E1E1E1F1E1E4A1F2A200E1E2645
:10312000000E1F221E501824D96E1F501920DA6E6F
:103130001A50010BDF6ED8901D321C321B321A322E
:10314000204A212AD9D712001C6E080E1B6E1AD0F5
:10315000010E186E1C50FBEC18F01AAE06D0010ED2
:10316000186E1C50D0EC18F005D0000E186E1C50D4
:10317000D0EC18F0000E186E1C50FBEC18F01B067B
:10318000D8901A361B50D8A4E3D7000E186E1C50E6
:10319000D0EC18F0000E186E1C50FBEC18F012006A
:1031A000196E1ED01804D8A402D08C8012001850BA
:1031B000D8A412008C9012001804D8A402D08B8AD4
:1031C00012001850D8A412008B9A12001804D8A428
:1031D00002D0898812001850D8A4120089981200D1
:1031E0001950000AD8B4DED7010AD8B4E5D7030ACB
:1031F000D8A41200EBD7196E1ED01804D8A402D0A0
:103200008B8612001850D8A412008B961200180456
:10321000D8A402D08B8812001850D8A412008B9822
:1032200012001804D8A402D0898612001850D8A41D
:103230001200899612001950000AD8B4DED7010A8C
:10324000D8B4E5D7030AD8A41200EBD7000E226E3B
:10325000000E236E000E246E000E256E1AA008D0FC
:103260001E5022261F502322205024222150252286
:10327000D8901E361F3620362136D8901D321C328B
:103280001B321A321A501B101C101D10D8A4E6D77E
:1032900022C01AF023C01BF024C01CF025C01DF072
:1032A0001200000E406E400E416E000E426E000E87
:1032B000436E000E0001E86F400EE96F000EEA6FEA
:1032C000000EEB6F000E316E000E326E000E336E8C
:1032D000000E346E7B0E206E010E216E000E236EEA
:1032E000200E226E29EC1DF0510E246E050E7AEC94
:1032F00019F01200256E260E206E000E216E000EB3
:10330000236E060E226E29EC1DF0240E266E25C0BB
:1033100027F024C028F0000E296E260E186E000E2D
:10332000196E000E1B6E050E1A6EA3EC19F02B6EB3
:10333000260E196E000E1A6E000E1C6E060E1B6E07
:103340009FEC1BF01200000E1E6E000E1D6E000E94
:10335000206E000E1F6E0ED01F501824D96E205004
:103360001920DA6EDF501C6E1C501D26000E1E2226
:103370001F4A202A1A501F5C2050800A1C6E1B50C6
:10338000800A1C58D8A0E8D7FF0E1D16000E1E1686
:103390001D5012000001D26F15D0D0C02CF0D1C04A
:1033A0002DF0EAEC1DF01200D0C02CF0D1C02DF0B1
:1033B00006EC1CF01200D0C02CF0D1C02DF0E4ECD3
:1033C0001DF012000001D251310AD8B4E6D7030A29
:1033D000D8B4EAD7010AD8A41200EDD7000E8D6E3A
:1033E000000E8C6E060E896E000E8A6E000E8B6EBD
:1033F000070E966EE10E926EEF0E936E800E946E37
:10340000F20E956E340E0F013A6F320E396FE40EE4
:103410003B6F070E3C6F2F0E386FC30E616EF19E2F
:10342000F28612000001D36F13D051EC19F0120094
:1034300016EC0EF01200D0C0D9FFD1C0DAFFDF5079
:103440000001D26FD2512C6E2D6A52EC03F01200A3
:103450000001D351510AD8B4E8D7030AD8B4E8D749
:10346000010AD8A41200E7D7000E1A6E000E196EDA
:103470000001E351D8A402D0195012003750010DB9
:10348000460EF324D96E010EF420DA6EDF50186E6A
:103490001850196E1A6A372A270E376402D0000EA8
:1034A000376E9D9AE3079D8A19501200010E0101A3
:1034B0006E27000E6F23702371236EC118F06FC149
:1034C00019F070C11AF071C11BF0800E1C6E430E12
:1034D0001D6E000E1E6E000E1F6E5AEC17F018C007
:1034E0006EF119C06FF11AC070F11BC071F11200BA
:1034F0000001875188118911D8B406D0000E871BAE
:10350000000E881B800E891B84C078F085C079F07E
:1035100086C07AF087C07BF088C07CF089C07DF0DF
:10352000E5EC09F078C084F079C085F07AC086F0C7
:10353000120003500410D8B418D0010E056E04D048
:10354000D89003360436052A04AEFAD70350015C3E
:1035500004500258D8A004D00350015E0450025A0F
:10356000D89004320332052EF1D701C001F002C019
:1035700002F01200186E0101F151D8B4FCD79DB8C9
:1035800003D018C0ADFF12D09D983A50010D000E27
:10359000F324D96E010EF420DA6E18C0DFFF3A2A48
:1035A000450E3A6402D0000E3A6EF1079D88120073
:1035B000196E14D01804D8A402D08B8212001850AF
:1035C000D8A412008B9212001804D8A402D08C84C4
:1035D00012001850D8A412008B9212001950000A41
:1035E000D8B4E8D7010AD8A41200EED7196E14D0C7
:1035F0001804D8A402D08B8412001850D8A412004A
:103600008B9412001804D8A402D08C861200185093
:10361000D8A412008C9612001950000AD8B4E8D72A
:10362000010AD8A41200EED726C029F015D021C077
:1036300018F022C019F023C01AF024C01BF029048E
:103640001C6E1CEC18F0286E28C01BF029500008D6
:103650002524BCEC1DF029062950D8B41200E7D768
:103660009D9A9D98080EB86E900EAB6E240EAC6EAF
:10367000100EAF6E000EB06E000E3A6E000E396E78
:10368000460E0101F16F000E386E000E376E000E0F
:103690000001E36F9D8A1200000E236E21AE06D05A
:1036A000206C211ED8B0212A010E236E20C018F0F4
:1036B00021C019F01A6A8E0E1B6E23C01CF0CAECD2
:1036C00013F018C020F019C021F01AC022F0120027
:1036D000460E0101F16112D03950010D000EF324A4
:1036E000D96E010EF420DA6EDF50AD6E392A450E28
:1036F000396402D0000E396EF12B12009D98000E35
:10370000396E000E3A6E1200196E000EF2BE010EF6
:103710001A6E19C0A9FF18C0A8FFA69EA69CA68471
:10372000F29E550EA76EAA0EA76EA682A6B2FED76F
:10373000A6941AB002D0F29E01D0F28E1200000EB2
:103740001F6E000E1E6E0BD01E501924D96E1F5016
:103750001A20DA6EDF50BAEC1AF01E4A1F2A1B50EC
:103760001E5C1F50800A1D6E1C50800A1D58D8B068
:103770001200EAD73C0ED76EAF0ED66ED650D7CF1A
:103780001AF01B6A1AC01BF01A6A1A10466E1B50F8
:10379000476EF294F28A000E186E000E196E01EC5C
:1037A0001EF0900ED56E1200000EF2BE010E1C6EC1
:1037B0001AC0F8FF19C0F7FF18C0F6FFA68EA69C26
:1037C000A684A688F29E550EA76EAA0EA76EA682A4
:1037D0001CB002D0F29E01D0F28E12000001D36F15
:1037E00006D025EC17F01200C3EC1DF0120000010A
:1037F000D351110AD8B4F8D7030AD8B41200010A79
:10380000D8B41200070AD8A41200EBD72CC0D9FFF5
:103810002DC0DAFFDF503B6E3B04D8A409D020EE68
:1038200001F02C50D9262D50DA22DF500001E46F30
:10383000320E246E030E7AEC19F012001C6E1CC0BE
:103840001AF01A461A46C2501A18830B1A18C26E7A
:10385000C280C282C2B2FED7C4501B6E1A6AC35065
:103860001A24186E000E1B20196E1200ABA202D093
:10387000AB98AB883850010D460EF324D96E010E7B
:10388000F420DA6EAECFDFFF382A270E386402D07C
:10389000000E386E0001E32B120018C01EF019C094
:1038A0001FF008D01EC0D9FF1FC0DAFF1AC0DFFF0B
:1038B0001E4A1F2A1C06D8A01D061C28F3E11D283D
:1038C000D8B41200EFD7000E0001DF6F000EDE6FDC
:1038D000000EDD6F000EDC6FCF0E206E010E216E2C
:1038E000000E236E140E226E29EC1DF012001D6EC8
:1038F000010E1C6E7B0E1D6003D0610E1D6007D093
:103900001D501AEC1DF0D8B002D0000E1C6E1CC069
:103910001BF01B30120019AE0DD018C01AF019C0E0
:103920001BF01A1E1B1E1A4A1B2A1AC018F01BC0B5
:1039300019F0120018C018F019C019F012001A6E10
:10394000010E196E200E1A18D8B408D00E0E1A6087
:1039500003D0090E1A6002D0000E196E19C018F0BB
:103960001830120018501A02F3CF1CF0F4CF1DF0DB
:1039700018501B02F3501D2619501A02F3501D2631
:103980001CC018F01DC019F012000001D36F06D042
:103990004BEC15F0120003EC11F012000001D351B2
:1039A000210AD8B4F8D7030AD8A41200F1D71850C6
:1039B00019101A10D8B406D0000E181A000E191AD1
:1039C000800E1A1A18C018F019C019F01AC01AF08F
:1039D000120020C018F021C019F01A6A8E0E1B6E5A
:1039E000000E1C6ECAEC13F018C020F019C021F0B4
:1039F0001AC022F012000001D26F07D0D0C02CF004
:103A0000D1C02DF0DEEC1DF012000001D251610A90
:103A1000D8A41200F3D71A6E000E196E3A0E1A606F
:103A200005D02F0E1A6402D0010E196E19C018F0BD
:103A3000183012001A6E000E196E5B0E1A6005D057
:103A4000400E1A6402D0010E196E19C018F0183019
:103A5000120020C018F021C019F0000E1B6E000EDD
:103A60001A6E22C01CF023C01DF04DEC1CF0120099
:103A700020C018F021C019F0000E1B6E000E1A6E47
:103A8000000E1D6E200E1C6E4DEC1CF01200186E08
:103A900004D089941200898412001850000AD8B406
:103AA000F8D7010AD8A41200F6D710EC1EF0EEECFD
:103AB00019F0CAEC1DF06EEC1DF0BAEC1BF030EC06
:103AC0001BF012008BB003D0186A182A01D0186AB4
:103AD0008B501818FE0B18188B6E1200050EC26E54
:103AE000000EC16E870EC06E000EC36E000EC46E57
:103AF0001200B4EC1DF012EC1EF0ABEC1DF098ECD3
:103B00001DF06EEC14F01200186E7B0E186004D0DD
:103B1000600E186401D0189A18501200186E18C060
:103B2000A9FFA69CA69EA68000F000F0A850120057
:103B3000000E01016E6F000E6F6F000E706F000EB1
:103B4000716F12001AC0F8FF19C0F7FF18C0F6FF16
:103B50000800F5501200800E626E000E3AEC0CF078
:103B6000010E3AEC0CF01200000E01017A6F000E0B
:103B70003B6E000E186E12001C6E1BC018F01C501D
:103B800084EC1BF01200110E246E010E7AEC19F079
:103B9000FF001200600ED36E040ED26E800E9B6E7C
:103BA0001200A6A201D002D0010E1200000E1200D7
:103BB000DC378A399433462C2434F639610E246E6E
:103BC000060E7AEC19F01200330E246E030E7AEC16
:103BD00019F01200310E246E030E7AEC19F0120067
:103BE000150E246E010E7AEC19F01200100E246EE0
:103BF000010E7AEC19F0120055EC1DF0F28EF28CE9
:103C0000120018C0EFF119C0F0F11200196E19502E
:103C10008EEC1DF012000040000001010040000089
:103C2000D09E1200D58E1200F2901200A1981200C0
:020000040020DA
:08000000FFFFFFFFFFFFFFFF00
:020000040030CA
:0E000000FF281838FFBF80FF0FC00FE00F4031
:00000001FF
