:040000006EEF00F0AF
:100008004882FACF06F0FBCF07F0E9CF08F0EACF35
:1000180009F0E1CF0AF0E2CF0BF0D9CF0CF0DACF3C
:100028000DF0F3CF0EF0F4CF0FF0F6CF10F0F7CFBE
:1000380011F0F8CF12F0F5CF13F048C014F049C012
:1000480015F04AC016F04BC017F0F2B6F2A003D074
:10005800A4EC21F019D0F2BAF2A403D0ACEC17F05A
:1000680013D0F2AC11D0A0B8A1A803D0F8EC21F0BD
:100078000BD09DB89EA803D032EC1FF005D09DBAD6
:100088009EAA02D01AEC20F017C04BF016C04AF016
:1000980015C049F014C048F013C0F5FF12C0F8FFAE
:1000A80011C0F7FF10C0F6FF0FC0F4FF0EC0F3FF3A
:1000B8000DC0DAFF0CC0D9FF0BC0E2FF0AC0E1FF98
:1000C80009C0EAFF08C0E9FF07C0FBFF06C0FAFF46
:0800D80048921100BDEF19F080
:10060000001C0401000B3061003A19C000C9FC1045
:100610001128042D10E700001276600035250080B7
:100620000084BF0008030000001200000001000069
:100630000C800620000000000004080C00100014CC
:10064000000000181C00000405060708090A0D191F
:100650004423446344A344E30204060800803F7239
:10066000313FFE753E58633D951D3CC5AE3A79213C
:100670003994803793A73556153400000000803F29
:10068000F0FFBEE2A93E8376BEAE2B3E3CC3BDD298
:10069000133D78D3BB4D6172203237203230313870
:0B06A0000031373A30313A31360000AB
:1006AC00000E0001606F000E616F000E626F000E95
:1006BC00636F640E206E000E216E000E236E120E00
:1006CC00226E1BEC21F0240E0001646F020E656F8C
:1006DC00220E666F0D0E676FD00E246EFF0E256E08
:1006EC009C0EF66E060EF76E0800F5CF26F0D00EB7
:1006FC002624186E196AFF0E1922030E1B6EE80EC3
:10070C001A6E82EC20F09F0EF66E060EF76E080045
:10071C00F550276E286A18502726195028229D0E4E
:10072C00F66E060EF76E0800F5CF29F0D00E2924D0
:10073C00186E196AFF0E1922000E1B6E640E1A6ECB
:10074C0082EC20F018502726195028229E0EF66EA7
:10075C00060EF76E0800F5CF2AF0D00E2A24186E7C
:10076C00196AFF0E1922000E1B6E0A0E1A6E82EC0D
:10077C0020F01850272619502822245027262550BF
:10078C00282228C027F0286A27500001686F9F0E86
:10079C00F66E060EF76E0800F5CF24F09E0EF66E80
:1007AC00060EF76E0800F550D00F0A0DF3CF25F0AA
:1007BC009D0EF66E060EF76E0800F5CF26F0D00EE5
:1007CC002624186E196AFF0E1922000E1B6E640E79
:1007DC001A6E82EC20F09C0EF66E060EF76E080078
:1007EC00F550D00FE80DF350182425242424D00FF5
:1007FC000001696F950EF66E060EF76E0800F5CFC8
:10080C006AF0960EF66E060EF76E0800F5CF6BF0DA
:10081C00970EF66E060EF76E0800F5CF6CF0990E7B
:10082C00F66E060EF76E300E0800F56005D0000E61
:10083C00776F000E766F17D0990EF66E060EF76E68
:10084C000800F5CF24F0D00E2424186E196AFF0E80
:10085C001922000E1B6E0A0E1A6E82EC20F018C0C4
:10086C0076F019C077F0D00E246EFF0E256E9A0E1E
:10087C00F66E060EF76E0800F55000017625266E12
:10088C00000E7721276E245026262550272227C0BC
:10089C0026F0276A26506D6F990EF66E060EF76ECF
:1008AC00300E0800F56005D0000E796F000E786FE1
:1008BC0017D0990EF66E060EF76E0800F5CF24F0E1
:1008CC00D00E2424186E196AFF0E1922000E1B6E0E
:1008DC000A0E1A6E82EC20F018C078F019C079F06C
:1008EC009A0EF66E060EF76E0800F550000178258C
:1008FC00D00F6E6FD00E246EFF0E256EA10EF66E0D
:10090C00060EF76E0800F5CF26F0D00E2624186ED2
:10091C00196AFF0E1922000E1B6E0A0E1A6E82EC5B
:10092C0020F0A20EF66E060EF76E0800F550182693
:10093C00000E1922245018262550192219C018F01F
:10094C00196A185000016F6FA20EF66E060EF76E44
:10095C000800F5CF24F0A10EF66E060EF76E080017
:10096C00F550D00F0A0DF3502424D00F706FD00E19
:10097C00246EFF0E256EA40EF66E060EF76E0800A2
:10098C00F5CF26F0D00E2624186E196AFF0E192208
:10099C00000E1B6E0A0E1A6E82EC20F0A50EF66E7F
:1009AC00060EF76E0800F5501826000E192224507A
:1009BC0018262550192219C018F0196A1850000170
:1009CC00716FA50EF66E060EF76E0800F5CF24F0CB
:1009DC00A40EF66E060EF76E0800F550D00F0A0D39
:1009EC00F3502424D00F726FD00E246EFF0E256EA0
:1009FC00A70EF66E060EF76E0800F5CF26F0D00E99
:100A0C002624186E196AFF0E1922000E1B6E0A0E90
:100A1C001A6E82EC20F0A80EF66E060EF76E080029
:100A2C00F5501826000E192224501826255019228C
:100A3C0019C018F0196A18500001736FA80EF66EE1
:100A4C00060EF76E0800F5CF24F0A70EF66E060E14
:100A5C00F76E0800F550D00F0A0DF3502424D00F78
:100A6C00746F640E186E000E196E000E1B6E110E54
:100A7C001A6E9CEC1DF00001756F640E196E000E61
:100A8C001A6E000E1C6E120E1B6E4EEC1FF0120036
:100A9C0002017A6F660E206E020E216E000E236E1E
:100AAC00140E226E1BEC21F0000E02017B6F000E67
:100ABC007C6F460E206E020E216E000E236E1D0EF4
:100ACC00226E1BEC21F0240E0201466F040E476FC0
:100ADC00170E496F7A51D8A464D0470E486F000E98
:100AEC000001B26F040EB16F390EF66E060EF76E82
:100AFC000800F550ACEC0FF0B1C066F2B2C067F272
:100B0C00B3C068F2B4C069F2000E0001B26F040EFB
:100B1C00B16F3A0EF66E060EF76E0800F550ACEC9F
:100B2C000FF0B1C06AF2B2C06BF2B3C06CF2B4C0D9
:100B3C006DF2000E0001B26F040EB16F3B0EF66E3B
:100B4C00060EF76E0800F550ACEC0FF0B1C06EF26B
:100B5C00B2C06FF2B3C070F2B4C071F2000E0001FB
:100B6C00B26F040EB16F3D0EF66E060EF76E0800F6
:100B7C00F550ACEC0FF0B1C072F2B2C073F2B3C06E
:100B8C0074F2B4C075F2000E0001B26F040EB16FB6
:100B9C00440EF66E060EF76E0800F550ACEC0FF036
:100BAC006CD002017A05D8A470D0460E486F000EA6
:100BBC000001B26F040EB16F390EF66E060EF76EB1
:100BCC000800F5502009ACEC0FF0B1C066F2B2C0D1
:100BDC0067F2B3C068F2B4C069F2000E0001B26FE4
:100BEC00040EB16F3A0EF66E060EF76E0800F55055
:100BFC002009ACEC0FF0B1C06AF2B2C06BF2B3C01A
:100C0C006CF2B4C06DF2000E0001B26F040EB16F45
:100C1C003B0EF66E060EF76E0800F5502009ACEC94
:100C2C000FF0B1C06EF2B2C06FF2B3C070F2B4C0CC
:100C3C0071F2000E0001B26F040EB16F3D0EF66E34
:100C4C00060EF76E0800F5502009ACEC0FF0B1C0A1
:100C5C0072F2B2C073F2B3C074F2B4C075F2000E8B
:100C6C000001B26F040EB16F440EF66E060EF76EF5
:100C7C000800F5502009ACEC0FF0B1C076F2B2C010
:100C8C0077F2B3C078F2B4C079F2000E02017B6F38
:100C9C00040E7B6501D032D0000E7C6F040E7C6597
:100CAC0001D02AD07B51040D660EF324D96E020EAE
:100CBC00F420DA6EDECF18F0DECF19F0DECF1AF0AA
:100CCC00DECF1BF07CC21CF015EC1CF00201636F34
:100CDC007B51050D7C51F326000EF422040EF326F5
:100CEC00000EF422460EF324D96E020EF420DA6EB6
:100CFC0063C2DFFF7C2BD2D77B2BCAD77A51D8B4F7
:100D0C0003D044C064F202D045C064F2656B64C287
:100D1C0061F2460E186E020E196E000E1B6E1C0E42
:100D2C001A6E9CEC1DF00201626F460E196E020EDB
:100D3C001A6E000E1C6E1D0E1B6E4EEC1FF0120078
:100D4C000001CC6F010E186E0001CC5186EC1EF028
:100D5C00000E0001CE6F000EC86F000EC96F000EA2
:100D6C00CA6F000ECB6F000ECD6F0D0ECD6501D08E
:100D7C001200CD2900080E0FCE6FCE51D8B413D06F
:100D8C00CE05D8B410D0020ECE19D8B40CD0040EA7
:100D9C00CE19D8B408D0060ECE19D8B404D00A0E89
:100DAC00CE19D8A4EBD0CC51D8A471D0000EB26F10
:100DBC00040EB16FCE51010D390EF324F66E060EF2
:100DCC00F420F76E0800F550ACEC0FF0B1C0C8F091
:100DDC00B2C0C9F0B3C0CAF0B4C0CBF00001C8298E
:100DEC0047E1C92945E1CA2943E1CB29D8A440D020
:100DFC00CD51040D010EF324F66E060EF420F76EA1
:100E0C000900F5CF29F00900F5CF2AF00900F5CF3C
:100E1C002BF00A00F5CF2CF0030E2D6ECC5102EC0A
:100E2C0018F00001CD51040D010EF324F66E060EE0
:100E3C00F420F76E0900F5CF21F00900F5CF22F070
:100E4C000900F5CF23F00A00F5CF24F0CE51010DA7
:100E5C00390EF324F66E060EF420F76E0800F5CF6B
:100E6C0025F0000E276E040E266EFAEC1EF0A0D0B4
:100E7C00C8C029F0C9C02AF0CAC02BF0CBC02CF0D6
:100E8C00030E2D6E0001CC5102EC18F091D0000134
:100E9C00CC05D8A48DD0000EB26F040EB16FCE511C
:100EAC00010D390EF324F66E060EF420F76E0800D1
:100EBC00F5502009ACEC0FF0B1C0C8F0B2C0C9F0CD
:100ECC00B3C0CAF0B4C0CBF00001C82948E1C929AD
:100EDC0046E1CA2944E1CB29D8A441D0CD51040D17
:100EEC00010EF324F66E060EF420F76E0900F5CF12
:100EFC0029F00900F5CF2AF00900F5CF2BF00A00F4
:100F0C00F5CF2CF0030E2D6ECC5102EC18F0000135
:100F1C00CD51040D010EF324F66E060EF420F76E7F
:100F2C000900F5CF21F00900F5CF22F00900F5CF2B
:100F3C0023F00A00F5CF24F0CE51010D390EF32425
:100F4C00F66E060EF420F76E0800F5502009256E9B
:100F5C00000E276E040E266EFAEC1EF029D0C8C0C7
:100F6C0029F0C9C02AF0CAC02BF0CBC02CF0030E5C
:100F7C002D6E0001CC5102EC18F01AD00001CD51AD
:100F8C00040D010EF324F66E060EF420F76E090024
:100F9C00F5CF29F00900F5CF2AF00900F5CF2BF099
:100FAC000A00F5CF2CF0030E2D6ECC5102EC18F08C
:100FBC000001CD2BDAD6000E0001BC6F000EBB6F0A
:100FCC00000EC06F000EB86F000EB76F000EBA6F38
:100FDC00000EB96F3D50D8A4A3D0000EC06F080E00
:100FEC00C06501D06DD0C051010D470EF324F66ED3
:100FFC00060EF420F76E0800F55002EC20F018C035
:10100C00B3F019C0B4F0000E0001A36F200EA46F52
:10101C00410EA56F000EA06F000EA16F400EA26FC7
:10102C0099EC0DF0A0C0BDF0A1C0BEF0A2C0BFF005
:10103C00C00E00016C6F500E6D6F450E6E6FBDC013
:10104C002CF0BEC02DF0BFC02EF0B3C020F0B4C049
:10105C0021F0B9EC20F020C029F021C02AF022C0E8
:10106C002BF0C5EC12F029C069F02AC06AF02BC035
:10107C006BF04AEC12F069C078F06AC079F06BC082
:10108C007AF0CEEC11F078C0BBF079C0BCF0BBC0EC
:10109C002DF0BCC02EF00001C0292F6E4CEC11F0CD
:1010AC00030E0001B26F8A0EB16F550EE82EFED7FB
:1010BC00B12FFCD7B22FFAD700D00001C02B8FD79D
:1010CC00B00E186E010E196E000E1B6E0C0E1A6E01
:1010DC001EEC1BF018C0B7F019C0B8F0B7C02DF05B
:1010EC00B8C02EF00001C0292F6E4CEC11F0A40EEC
:1010FC00186E010E196E000E1B6E0C0E1A6E1EEC85
:10110C001BF018C0B9F019C0BAF0B9C02DF0BAC0B4
:10111C002EF00001C051020F2F6E4CEC11F012009A
:10112C003D04D8A412000001F651010D470EF32422
:10113C00F66E060EF420F76E0800F55002EC20F067
:10114C0018C0B5F019C0B6F0000E0001A36F200E48
:10115C00A46F410EA56F000EA06F000EA16F400E84
:10116C00A26F99EC0DF0A0C0BDF0A1C0BEF0A2C062
:10117C00BFF0C00E00016C6F500E6D6F450E6E6FA0
:10118C00BDC02CF0BEC02DF0BFC02EF0B5C020F0FD
:10119C00B6C021F0B9EC20F020C029F021C02AF013
:1011AC0022C02BF0C5EC12F029C069F02AC06AF0FD
:1011BC002BC06BF04AEC12F069C078F06AC079F081
:1011CC006BC07AF0CEEC11F078C0BBF079C0BCF0FB
:1011DC001200000E0001E36F000EE26F87C066F094
:1011EC0088C067F00A0E59EC0EF020EED4F0070E12
:1011FC00EBCFDBFFE806FCE2D4C0E2F0D5C0E3F0B5
:10120C00C1EC21F00009D8B41200010130513111A8
:10121C0032113311D8A405D0550E246E050E73EC83
:10122C001DF0E2C089F0E3C08AF0000E00018ABF15
:10123C00FF0E8B6F8C6F010130510001895D010134
:10124C00315100018A590101325100018B590101C0
:10125C00335100018C59D8B00AD0E2C0DCF0E3C0A5
:10126C00DDF0000EDDBFFF0EDE6FDF6F08D030C18A
:10127C00DCF031C1DDF032C1DEF033C1DFF0DCC0B7
:10128C00E2F0DDC0E3F03EC0C8F13FC0C9F140C0A0
:10129C00CAF141C0CBF1000EE16F000EE06F8AD0B5
:1012AC000101C851C911CA11CB11D8B407D0400ED5
:1012BC00C85F000EC95BCA5BCB5B08D0B00EC86FB1
:1012CC007F0EC96F000ECA6F000ECB6F8F0E206E93
:1012DC00000E216E000E236E450E226E1BEC21F0CB
:1012EC00240E00018F6F050E906F540E916F400EFF
:1012FC00926F000EE56F000EE46FE5BF06D0E5516E
:10130C0034E1400EE45DD8B030D0040EE425896F92
:10131C00000EE5218A6F8F0E8925D96E000E8A2169
:10132C00DA6EE4C08BF0E5C08CF0000E8CBFFF0EC3
:10133C008D6F8E6F0101C85100018B25186E010154
:10134C00C95100018C21196E0101CA5100018D2176
:10135C001A6E0101CB5100018E211B6E93EC21F012
:10136C00DF6E0001E44BE52BC8D78F0E186E000E14
:10137C00196E000E1B6E440E1A6E9CEC1DF00001D3
:10138C00D36F8F0E196E000E1A6E000E1C6E450E6A
:10139C001B6E4EEC1FF0030E00018A6F080E896F56
:1013AC00770EE82EFED7892FFCD78A2FFAD70001AB
:1013BC00E04BE12BE251E05DE151800A896FE35192
:1013CC00800A8959D8B012006BD700019751981137
:1013DC009911D8A407D0000E976F800E986F3F0E0E
:1013EC00996F1200720E186E310E196E440E1A6E31
:1013FC0097C01BF098C01CF099C01DF0EEEC18F0D3
:10140C00D8B00DD0000E0101356F220E346FFF0ED7
:10141C000001976F7F0E986F7F0E996F120097C027
:10142C0018F098C019F099C01AF0490E1B6E3A0EBC
:10143C001C6EC40E1D6EEEEC18F0D8B00DD0000E64
:10144C000101356F220E346F000E0001976F000EF4
:10145C00986F000E996F1200000199AF02D0010E27
:10146C0001D0000E9F6F9F51D8B40ED097C018F0CA
:10147C0098C019F099C01AF0A7EC20F018C097F09A
:10148C0019C098F01AC099F097C069F098C06AF02A
:10149C0099C06BF0AA0E00016C6FB80E6D6F3F0E09
:1014AC006E6F4AEC12F069C097F06AC098F06BC08E
:1014BC0099F097C08FF098C090F099C091F08FEC94
:1014CC0014F08FC09AF090C09BF091C09CF09AC021
:1014DC0078F09BC079F09CC07AF0CEEC11F078C01B
:1014EC009DF079C09EF097C084F098C085F099C0AB
:1014FC0086F09DC020F09EC021F016EC1FF020C09D
:10150C0087F021C088F022C089F007EC1EF084C05F
:10151C0097F085C098F086C099F097C084F098C079
:10152C0085F099C086F05C0E0001876F060E886FFF
:10153C00000E8A6F090E896F6BEC15F084C08EF06B
:10154C0085C08FF086C090F09DC091F09EC092F047
:10155C00D6EC15F08EC097F08FC098F090C099F033
:10156C0000019F51D8B425D097290EE17F0E981910
:10157C000BE17F0E9919D8A407D0000E976F000EBF
:10158C00986F000E996F1200000E296E800E2A6E55
:10159C003F0E2B6E97C02CF098C02DF099C02EF0FA
:1015AC00C5EC12F029C097F02AC098F02BC099F026
:1015BC00120097C097F098C098F099C099F012005B
:1015CC00000E0001EF6FD3D0040EF5651200010E72
:1015DC00F46F120047EC20F0000E0001F06F010ECA
:1015EC00F5650DD0C3EC1DF00001EF6FEFC090F16D
:1015FC00240EEF19D8A41200020EF46F1200000E84
:10160C00F46F1200010EF5651200C3EC1DF0000121
:10161C00F36FF3C091F1030EF46F1200010EF56538
:10162C001200C3EC1DF00001F26FF2C092F1040E37
:10163C00F46F1200010EF5651200C3EC1DF00001F1
:10164C00F16FF1C093F1F151D8A403D0060EF46FF1
:10165C001200050EF46F1200F151F55DD8A01200C6
:10166C007C0E206E010E216E000E236E140E226E67
:10167C001BEC21F0000E0001EE6F000EED6F1ED082
:10168C00C3EC1DF00001EF6FF051E96FEA6B040E33
:10169C00E927000EEA23900EE925D96E010EEA2106
:1016AC00DA6EEFC0DFFFF02B7C0EED25D96E010E4C
:1016BC00EE21DA6EEFC0DFFFED4BEE2BF151E96F4F
:1016CC00EA6BE951ED5DEE51800AEB6FEA51800A4D
:1016DC00EB59D8A0D5D7060EF46F1200F551D8B43B
:1016EC001200C3EC1DF03B6E900E186E010E196EBD
:1016FC00040E0001F0251A6E1B6A000E1B229CECD6
:10170C001DF03C6E3C503B18D8A404D0070E0001D1
:10171C00F46F1200000E0001F46F1200FE0EE96F60
:10172C00FF0EEA6FF351EB6FEC6BD890EB37EC37A5
:10173C00E951EB27EA51EC23BC0EEB25D96E010ED7
:10174C00EC21DA6E01D80FD00500FA6EDE50FD6E7A
:10175C00DE50FE6EF850FF6EFA507C0EE66F010EF6
:10176C00E76FF2511200000E0001F46F1200F451F9
:10177C00000AD8B429D7010AD8B42CD7030AD8B494
:10178C0041D7010AD8B44AD7070AD8B453D7010AAB
:10179C00D8B462D7030AD8B4A1D7010AD8A41200CE
:1017AC00BDD726C0D9FF27C0DAFFDF500001656F17
:1017BC00264A272A65516FEC20F0D8B0F2D7000EDC
:1017CC000001616F000E626F000E636F000E646F9C
:1017DC00000E606F2D0E6519D8A403D0010E606F3A
:1017EC0004D02B0E6519D8A408D026C0D9FF27C069
:1017FC00DAFFDF50656F264A272A300E6519D8A408
:10180C002ED026C0D9FF27C0DAFFDF50656F264ADD
:10181C00272A2A502B10D8B405D0100E2A182B10BA
:10182C00D8A415D0780E6519D8B404D0580E651903
:10183C00D8A40DD0000E2B6E100E2A6E26C0D9FF28
:10184C0027C0DAFFDF50656F264A272A08D02A50B6
:10185C002B10D8A404D0000E2B6E080E2A6E2A5022
:10186C002B10D8A404D0000E2B6E0A0E2A6E6551D4
:10187C005BEC20F0D8A008D00001655175EC21F08C
:10188C00C90F0001656F09D000016551FDEC20F016
:10189C00D8A039D0300E0001655F65512C6E2D6AD1
:1018AC002A502C5C2D50800A2E6E2B50800A2E58FC
:1018BC00D8B029D02AC01AF02BC01BF0000E1BBECA
:1018CC00FF0E1C6E1D6E61C01EF062C01FF063C067
:1018DC0020F064C021F01FEC1DF0000165511A24AA
:1018EC00616F000E1B20626F000E1C20636F000ED8
:1018FC001D20646F26C0D9FF27C0DAFFDF50656F4B
:10190C00264A272AB4D728502910D8B40ED0FF0E57
:10191C0026242C6EFF0E27202D6E28C0D9FF29C03F
:10192C00DAFF2CC0DEFF2DC0DDFF00016051D8B402
:10193C001AD061C02CF062C02DF063C02EF064C0D0
:10194C002FF02C1E2D1E2E1E2F1E2C2A000E2D228B
:10195C002E222F222CC026F02DC027F02EC028F0CE
:10196C002FC029F0120061C026F062C027F063C0BE
:10197C0028F064C029F012007AC07EF000017F6B61
:10198C00806B79357E3701E37F817E51836F7DC01B
:10199C007EF07F6B806B7C357E3701E37F817E51DF
:1019AC00826F8351D8B40BD08251835DD8B00ED0E6
:1019BC008351000882257E6F180E7E6507D07BC090
:1019CC0078F07CC079F07DC07AF012008251D8B4E6
:1019DC000BD08351825DD8B00ED082510008832584
:1019EC007E6F180E7E6507D078C078F079C079F0DC
:1019FC007AC07AF01200060E816F7ABF818F7DBF9C
:101A0C00818D798FFF0E7817FF0E7917000E7A17DC
:101A1C007C8FFF0E7B17FF0E7C17000E7D178251FB
:101A2C00835DD8B01BD0D8907B377C377D3782074D
:101A3C0083518219D8B40DD0810781C07EF0070E76
:101A4C007E17D8B406D0EFD7D8907A337933783361
:101A5C00832B82518319D8B41FD0F6D78351825D62
:101A6C00D8B01AD0D890783779377A378307835122
:101A7C008219D8B40DD0810781C07EF0070E7E1775
:101A8C00D8B406D0EFD7D8907D337C337B33822B00
:101A9C0082518319D8A4F7D781AF0CD0FF0E781BD5
:101AAC00FF0E791BFF0E7A1B010E7827000E79238F
:101ABC00000E7A2381AD0CD0FF0E7B1BFF0E7C1B1E
:101ACC00FF0E7D1B010E7B27000E7C23000E7D2359
:101ADC00000E816F78517B2779517C237A517D23BD
:101AEC007DAF0ED0FF0E7B1BFF0E7C1BFF0E7D1BF4
:101AFC00010E7B27000E7C23000E7D23010E816FCF
:101B0C007BC018F07CC019F07DC01AF083C01BF0AC
:101B1C0081C01CF055EC17F018C078F019C079F0A2
:101B2C001AC07AF01200000E0001AC6FA051A11186
:101B3C00A211D8A41DD0000E186E000E196E000E46
:101B4C001A6EA3C01BF0A4C01CF0A5C01DF0EEECD7
:101B5C0018F0D8A005D0000E0101356F210E346F9E
:101B6C00000E0001A06F000EA16F000EA26F1200FC
:101B7C00A351A411A511D8A407D0000EA06F800EFC
:101B8C00A16F3F0EA26F1200A2AF43D0A3C078F09A
:101B9C00A4C079F0A5C07AF0CEEC11F078C0ADF00D
:101BAC0079C0AEF07AC0AFF07BC0B0F0ADC020F021
:101BBC00AEC021F0AFC022F0B0C023F043EC1CF05B
:101BCC000001A351201807E1A451211804E1A551EB
:101BDC002218D8B40DD0000E0101356F210E346FD0
:101BEC00000E0001A06F000EA16F000EA26F12007C
:101BFC00AD51010BAC6FA0C018F0A1C019F0A2C080
:101C0C001AF0A7EC20F018C0A0F019C0A1F01AC06F
:101C1C00A2F0A0C08EF0A1C08FF0A2C090F017EC83
:101C2C000FF08EC0A6F08FC0A7F090C0A8F0A6C091
:101C3C0069F0A7C06AF0A8C06BF0A3C06CF0A4C098
:101C4C006DF0A5C06EF04AEC12F069C0A9F06AC044
:101C5C00AAF06BC0ABF0A9C097F0AAC098F0ABC0CB
:101C6C0099F0EBEC09F097C0A0F098C0A1F099C0E6
:101C7C00A2F00001AC51D8B40FD0A0C018F0A1C094
:101C8C0019F0A2C01AF0A7EC20F018C0A0F019C0EF
:101C9C00A1F01AC0A2F01200A0C0A0F0A1C0A1F047
:101CAC00A2C0A2F0120000017A6F000E00017C6F3E
:101CBC00000E7D6F000E7E6F000E7F6F000E806F2A
:101CCC00000E816F000E826F000E836F000E866F08
:101CDC00000E7B6F700E206E000E216E000E236EB8
:101CEC000A0E226E1BEC21F0000E0001866F090E0D
:101CFC00866501D01DD08651010DF3506625D96E35
:101D0C00F4506721DA6EDF507B6F100E7B19D8A46C
:101D1C0002D0862B0DD08651010D700EF324D96E96
:101D2C00000EF420DA6E7B51300FDF6E862BDFD77E
:101D3C00700E266E000E276E000E286E000E296E99
:101D4C007A512A6E2B6A2ABE2B06D7EC0BF026C0D2
:101D5C007CF027C07DF028C07EF029C07FF0700E8B
:101D6C00206E000E216E000E236E0A0E226E1BECEE
:101D7C0021F0000E0001856F000E846F85BF06D028
:101D8C0085512EE10A0E845DD8B02AD08651842567
:101D9C006E6F000E85216F6F6E516625D96E6F5177
:101DAC006721DA6EDF507B6F230E7B19D8B418D005
:101DBC00700E8425D96E000E8521DA6E865184252D
:101DCC006E6F000E85216F6F6E516625E16E6F513F
:101DDC006721E26EE750300FDF6E844B852BCED738
:101DEC00700E266E000E276E000E286E000E296EE9
:101DFC007A512A6E2B6A2ABE2B06D7EC0BF026C022
:101E0C0080F027C081F028C082F029C083F020EE3A
:101E1C007CF000EE66F0070EDBCFEBFFE806FCE291
:101E2C001200000190AF0DD0000E0101356F210E94
:101E3C00346F000E00018E6F000E8F6F000E906FCE
:101E4C0012008E518F119011D8A40DD0000E0101EB
:101E5C00356F220E346F000E00018E6F000E8F6FE7
:101E6C00000E906F1200000E6C6F000E6D6F400E26
:101E7C006E6F910E1B6E000E1C6E8EC018F08FC014
:101E8C0019F090C01AF0A6EC18F018C069F019C03F
:101E9C006AF01AC06BF04AEC12F069C078F06AC0B4
:101EAC0079F06BC07AF0000E00017B6F800E7C6FB6
:101EBC00BF0E7D6FC2EC0CF078C08EF079C08FF045
:101ECC007AC090F000019107D8A092078EC084F0E0
:101EDC008FC085F090C086F07A0E876F060E886FE3
:101EEC00000E8A6F080E896F6BEC15F084C08EF0B3
:101EFC0085C08FF086C090F0720E00016C6F310EB1
:101F0C006D6F3F0E6E6F91C020F092C021F016ECF9
:101F1C001FF020C069F021C06AF022C06BF04AECBF
:101F2C0012F069C078F06AC079F06BC07AF08EC09C
:101F3C007BF08FC07CF090C07DF0C2EC0CF078C0D0
:101F4C008EF079C08FF07AC090F012000001C26F51
:101F5C00000E0001C36F000EC46F000EC56F000EA3
:101F6C00C66FB151C25F000EC76F6DD0C751B56F50
:101F7C00B66B010EB527000EB623B51FB61FB54BB9
:101F8C00B62BB151B527B251B623D890B537B63769
:101F9C00D890B537B637D890B537B637B5C020F02E
:101FAC00B6C021F016EC1FF020C0BCF021C0BDF073
:101FBC0022C0BEF0BCC0A3F0BDC0A4F0BEC0A5F052
:101FCC00000E0001A06F000EA16F400EA26F99ECE5
:101FDC000DF0A0C0BFF0A1C0C0F0A2C0C1F0BFC046
:101FEC0078F0C0C079F0C1C07AF0CEEC11F078C0B6
:101FFC00B8F079C0B9F07AC0BAF07BC0BBF0000180
:10200C00C251C725E8EC21F00001B56FB5511A6E2D
:10201C001B6A1C6A1D6AB8C01EF0B9C01FF0BAC09A
:10202C0020F0BBC021F01FEC1DF00001C3511A10B1
:10203C00C36FC4511B10C46FC5511C10C56FC65162
:10204C001D10C66FC72BC751B56FB66BB151B55DBF
:10205C00B651800AB76FB251800AB759D8A086D74B
:10206C00C3C0B1F0C4C0B2F0C5C0B3F0C6C0B4F0C8
:10207C00120000018C6F8AC066F08BC067F00A0EEC
:10208C0059EC0EF020EE8DF0070EEBCFDBFFE806DF
:10209C00FCE200018C51D8A437D0090E3A602CD048
:1020AC008DC029F08EC02AF08FC02BF090C02CF080
:1020BC00030E2D6E8C5102EC18F08DC021F08EC0E9
:1020CC0022F08FC023F090C024F0390E000191252E
:1020DC00F66E060E9221F76E0800F5CF25F0000E75
:1020EC00276E040E266EFAEC1EF03A2A480E246E69
:1020FC00040E73EC1DF01200000E3A6E420E246EAC
:10210C00040E73EC1DF0120000018C05D8A4120013
:10211C00090E39602DD08DC029F08EC02AF08FC0E9
:10212C002BF090C02CF0030E2D6E8C5102EC18F09D
:10213C008DC021F08EC022F08FC023F090C024F00F
:10214C00390E00019125F66E060E9221F76E0800ED
:10215C00F5502009256E000E276E040E266EFAEC43
:10216C001EF0392A490E246E040E73EC1DF0120079
:10217C00000E396E430E246E040E73EC1DF012002B
:10218C00280E206E000E216E000E236E090E226E9C
:10219C001BEC21F0240E286E050E296E520E2A6EB1
:1021AC00040E2B6E700E186E3A0E196E000E1A6E0F
:1021BC00000E1B6E010E1C6E15EC1CF02C6E700EBE
:1021CC00186E3A0E196E000E1A6E000E1B6E000E73
:1021DC001C6E15EC1CF02D6E3EC024F03FC025F09B
:1021EC0040C026F041C027F0241E251E261E271EA7
:1021FC00242A000E252226222722F00E2424186ED3
:10220C007F0E2520196E000E26201A6E000E272038
:10221C001B6E010E1C6E15EC1CF02E6E3EC024F0D5
:10222C003FC025F040C026F041C027F0241E251EDB
:10223C00261E271E242A000E252226222722F00ED7
:10224C002424186E7F0E2520196E000E26201A6E7F
:10225C00000E27201B6E000E1C6E15EC1CF02F6E52
:10226C00280E186E000E196E000E1B6E080E1A6EDC
:10227C009CEC1DF0306E280E196E000E1A6E000EBE
:10228C001C6E090E1B6E4EEC1FF012002F5000013D
:10229C00606F616B0C0ED89060376137E82EFBD7FE
:1022AC0060C062F061C063F062512D1263512E1256
:1022BC00D89001013635D96E3735DA6E3C0ED926F9
:1022CC00010EDA222DC0DEFF2EC0DDFF364B372B80
:1022DC0036C160F037C161F0D890000160376137CA
:1022EC00615104E1400E605DD8A01200C1EC21F0F8
:1022FC000009D8B412003EC01DF03FC01EF040C013
:10230C001FF041C020F03C0E216E010E226EA0EC9D
:10231C0016F0400E3E26000E3F2240224122415034
:10232C00401006E1F00E3E5C7F0E3F58D8A01AD04C
:10233C00800E3E6E450E3F6E000E406E000E416EDE
:10234C00010E01013A6F800EC8190CE1450EC91936
:10235C00CA11CB11D8A406D0400EC827000EC92331
:10236C00CA23CB23170E0101305DFF0E3159FF0E2E
:10237C003259FF0E3359D8B006D0010E3027000E5B
:10238C00312332233323000E376F000E366F1200C9
:10239C007AC07CF000017D6B7E6B79357C3701E374
:1023AC007D817C51866F8651D8A409D0000E786F40
:1023BC00000E796F000E7A6F000E7B6F1200170EF5
:1023CC007C6F78C07DF079C07EF07AC07FF07C297C
:1023DC00806F04D0D8907F337E337D33802FFAD733
:1023EC0000017D51816F798FFF0E7817FF0E7917E1
:1023FC00000E7A177851826F7951836F7A51846FFE
:10240C00856B8E0E865F86AF16D08651800A8F0F35
:10241C00D8B009D0000E786F000E796F000E7A6F6D
:10242C00000E7B6F1200D890853384338333823354
:10243C00863FF9D715D0170E86650FD0000E786F32
:10244C00000E796F000E7A6F000E7B6F1200D89021
:10245C00823783378437853786078651D8A4F7D7D8
:10246C008151D8B408D0851F841F831F826D000E44
:10247C0083238423852382C078F083C079F084C0C1
:10248C007AF085C07BF012006BC06FF00001706BAE
:10249C00716B6A356F3701E370816F51726F7251D6
:1024AC00D8A407D0000E696F000E6A6F000E6B6F18
:1024BC0012006EC06FF0706B716B6D356F3701E38E
:1024CC0070816F51776F7751D8A407D0000E696F68
:1024DC00000E6A6F000E6B6F120077517B0F722724
:1024EC006BC077F06E51771B800E77176A8F6D8FEC
:1024FC00FF0E6C17FF0E6D17000E6E17000E736F2C
:10250C00000E746F000E756F070E766F69A106D002
:10251C006C5173276D5174236E517523D8906B33A6
:10252C006A336933D8906C376D376E37762FEED7A8
:10253C00090E766F69A106D06C5173276D51742307
:10254C006E517523D8906B336A336933D8907533D9
:10255C0074337333762FEED773C018F074C019F040
:10256C0075C01AF072C01BF077C01CF055EC17F058
:10257C0018C069F019C06AF01AC06BF012002BC0B9
:10258C0060F00001616B626B2A34603701E361819A
:10259C006051676F6751D8A407D0000E296E000EEA
:1025AC002A6E000E2B6E12002EC060F0616B626BF7
:1025BC002D34603701E361816051686F6851D8A494
:1025CC0007D0000E296E000E2A6E000E2B6E120024
:1025DC00000E646F000E656F000E666F6851890FF8
:1025EC00675F2BC068F02E50681B800E68172A8E10
:1025FC00FF0E2916FF0E2A16000E2B162D8EFF0E1F
:10260C002C16FF0E2D16000E2E16180E636FD8907A
:10261C006437653766372C50295C2D502A582E505C
:10262C002B58D8A007D02C50295E2D502A5A2E504A
:10263C002B5A6481D89029362A362B36632FE7D74C
:10264C0064C018F065C019F066C01AF067C01BF0C2
:10265C0068C01CF055EC17F018C029F019C02AF00E
:10266C001AC02BF01200240E0001606F020E616F75
:10267C00210E626F040E636F28C169F029C16AF0E4
:10268C002AC16BF02BC16CF0000E6E6F000E6D6FDB
:10269C006EBF06D06E5142E1040E6D5DD8B03ED0D7
:1026AC00040E6D25256E000E6E21266E600E2524FF
:1026BC00D96E000E2620DA6E69C018F06AC019F0C7
:1026CC006BC01AF06CC01BF00A0E1C6E000E1D6E57
:1026DC00000E1E6E000E1F6E52EC1BF01850DF6EBB
:1026EC0069C018F06AC019F06BC01AF06CC01BF00E
:1026FC000A0E1C6E000E1D6E000E1E6E000E1F6E5E
:10270C007CEC19F018C069F019C06AF01AC06BF0B3
:10271C001BC06CF000016D4B6E2BBAD7600E186E9F
:10272C00000E196E000E1B6E080E1A6E9CEC1DF03E
:10273C000001686F600E196E000E1A6E000E1C6E92
:10274C00090E1B6E4EEC1FF01200000E0001CC6F38
:10275C00000ECD6FD10E206E000E216E000E236E7A
:10276C00070E226E1BEC21F0240E0001D16F060E19
:10277C00D26F620ED36F020ED46FC8C0D9FFC9C01E
:10278C00DAFFDF50D06F000EB26F020EB16FD05176
:10279C00010D580EF324F66E060EF420F76E0800A9
:1027AC00F5504009ACEC0FF0B1C0CEF0B2C0CFF098
:1027BC00000E0001D96F000ED86FD9BF06D0D951C9
:1027CC001FE1020ED85DD8B01BD0040ED825CA6FFD
:1027DC00000ED921CB6FD10ECA25D96E000ECB219C
:1027EC00DA6ECEC018F0CFC019F01A6A1B6AD8C0C6
:1027FC001CF015EC1CF0DF6E0001D84BD92BDDD78B
:10280C00D10E186E000E196E000E1B6E060E1A6E8F
:10281C009CEC1DF00001D76FD10E196E000E1A6ED4
:10282C00000E1C6E070E1B6E4EEC1FF01200000EFD
:10283C000001CC6FCC51800A7C0FD8B01200000E76
:10284C00B26F020EB16FCC51010D580EF324F66E1F
:10285C00060EF420F76E0800F5504009ACEC0FF0B2
:10286C00B1C0CAF0B2C0CBF00001CA2944E1CB29F7
:10287C00D8A441D0CC51020D500EF324F66E060EA6
:10288C00F420F76E0900F5CFC8F00900F5CFC9F0B8
:10289C00C8C029F0C9C02AF02B6A2C6A010E2D6E13
:1028AC00020E02EC18F00001CC51020D500EF32474
:1028BC00F66E060EF420F76E0900F5CFC8F009008D
:1028CC00F5CFC9F0C8C021F0C9C022F0236A246A30
:1028DC00CC51010D580EF324F66E060EF420F76E53
:1028EC000800F5504009256E000E276E020E266E6C
:1028FC00FAEC1EF00BD0CAC029F0CBC02AF02B6A20
:10290C002C6A010E2D6E020E02EC18F00001CC2B7D
:10291C0091D78FC018F090C019F091C01AF0950E95
:10292C001B6E000E1C6EA6EC18F0000196AF10D0BA
:10293C0091AF07D0000E8F6F800E906FBF0E916F0E
:10294C001200000E8F6F000E906F000E916F120030
:10295C00965104E1150E955DD8A007D08FC08FF06D
:10296C0090C090F091C091F012008FC078F090C0A0
:10297C0079F091C07AF0CEEC11F078C087F079C084
:10298C0088F07AC089F07BC08AF03AEC1AF087C0E4
:10299C0092F088C093F089C094F08FC018F090C06A
:1029AC0019F091C01AF092C01BF093C01CF094C0A7
:1029BC001DF0EEEC18F0D8B016D092C078F093C0A1
:1029CC0079F094C07AF0000E00017B6F800E7C6F62
:1029DC00BF0E7D6FC2EC0CF078C08FF079C090F018
:1029EC007AC091F0120092C08FF093C090F094C016
:1029FC0091F0120083B81ED04350800A7F0FD8A0EC
:102A0C0005D0010EA6EC06F0430603D0030EB7EC7E
:102A1C001BF038C018F0196A000E1B6E0C0E1A6EE3
:102A2C00B1EC1AF0B00E1824D96E010E1920DA6E22
:102A3C00000E12D0020E436E38C018F0196A000E48
:102A4C001B6E0C0E1A6EB1EC1AF0B00E1824D96E67
:102A5C00010E1920DA6E010EDF6E382A83B220D0F7
:102A6C004250800A7F0FD8A005D0000EA6EC06F0CD
:102A7C00420603D0040EB7EC1BF037C018F0196AED
:102A8C00000E1B6E0C0E1A6EB1EC1AF0A40E18246C
:102A9C00D96E010E1920DA6E000EDF6E372A120085
:102AAC00020E426E37C018F0196A000E1B6E0C0E27
:102ABC001A6EB1EC1AF0A40E1824D96E010E19205E
:102ACC00DA6E010EDF6E372A120089C018F08AC048
:102ADC0019F0000E1B6E030E1A6E82EC20F087C0EC
:102AEC002FF088C030F018502F26195030222FC0EC
:102AFC00F6FF30C0F7FF0900F5CF8BF00900F5CFDA
:102B0C008CF00A00F5CF8DF03FD08BC06CF08CC0F0
:102B1C006DF08DC06EF084C069F085C06AF086C01F
:102B2C006BF04AEC12F069C078F06AC079F06BC0B7
:102B3C007AF0000E1B6E030E1A6E00018907D8A0E6
:102B4C008A0789C018F08AC019F082EC20F087C07F
:102B5C002FF088C030F018502F26195030222FC07B
:102B6C00F6FF30C0F7FF0900F5CF7BF00900F5CF79
:102B7C007CF00A00F5CF7DF0C2EC0CF078C08BF045
:102B8C0079C08CF07AC08DF0000189518A11D8A4DB
:102B9C00BCD78BC084F08CC085F08DC086F0120041
:102BAC0000018E518F119011D8A407D0000E8E6F9A
:102BBC00000E8F6F000E906F120090517F0B936F71
:102BCC00946BD890933794379351912794519223C7
:102BDC008FAF03D0936B932B02D00001936B935167
:102BEC009127000E922392AF0DD0000E0101356F8C
:102BFC00220E346F000E00018E6F000E8F6F000ED0
:102C0C00906F120092BF17D09205D8A014D0000E6E
:102C1C000101356F220E346F000190AF06D0FF0E0C
:102C2C008E6F7F0E8F6FFF0EEBD7FF0E8E6F7F0EAA
:102C3C008F6F7F0EE5D792359231946F9131936FF0
:102C4C0090519319800B9319906F91C093F0010ED2
:102C5C009317933393338F5193197F0B93198F6F72
:102C6C008EC08EF08FC08FF090C090F012000001DB
:102C7C00856F010E0001806F000E816F000E826F58
:102C8C00000E836F600E206E000E216E000E236E00
:102C9C00200E226E000E246E38EC21F0600E186EA1
:102CAC00000E196E25C01AF026C01BF027C01CF0B0
:102CBC0028C01DF071EC1CF0000E0001846F1F0E7B
:102CCC00846501D026D0000E186E8551F4EC1CF0F2
:102CDC0000018451010D600EF324D96E000EF42016
:102CEC00DA6EDF50D8B406D0010E186E8551C9ECDF
:102CFC001CF006D0000E186E00018551C9EC1CF0BA
:102D0C00010E186E00018551F4EC1CF00001842BAF
:102D1C00D6D7210EE82EFED700F0000E186E00015B
:102D2C008551C9EC1CF0000E186E00018551F4ECB5
:102D3C001CF01200C00E236E7F0E246E1DC025F0F9
:102D4C001EC026F0235025162450261625C027F029
:102D5C0026C028F0296A2A6A000EF2BE010E2B6EDC
:102D6C0027501D1844E128501E1841E129501F1806
:102D7C003EE12A502018D8A412001DC018F01EC025
:102D8C0019F01FC01AF020C01BF0B8EC1FF01FC0C8
:102D9C00F8FF1EC0F7FF1DC0F6FF000E2C6E3F0E95
:102DAC002C6401D013D02C50010DF3502124D96E7A
:102DBC00F4502220DA6EDF50F56E3F0E2C18D8A49A
:102DCC0002D00C0001D00D002C2AE9D7A188A68EC8
:102DDC00A69CA684F29E550EA76EAA0EA76EA6827E
:102DEC00A6942BB002D0F29E01D0F28E12001200EB
:102DFC00E00E2C6EFF0E2D6E460E2E6E3EC078F041
:102E0C003FC079F040C07AF041C07BF00001781FE0
:102E1C00791F7A1F7B1F782B000E79237A237B2353
:102E2C00F00E7825206E7F0E7921216E000E7A210E
:102E3C00226E000E7B21236E43EC1CF020C029F087
:102E4C0021C02AF022C02BF0C5EC12F029C069F089
:102E5C002AC06AF02BC06BF0000E00016C6FC80E1C
:102E6C006D6F420E6E6F4AEC12F069C07CF06AC056
:102E7C007DF06BC07EF0000E186E960E196E420E31
:102E8C001A6E7CC01BF07DC01CF07EC01DF0EEECF9
:102E9C0018F0D8B002D0010E1200000E12001B5018
:102EAC00D8B405D0185019101A10D8A40CD0000E94
:102EBC00186E000E196E000E1A6E12001B2AD89096
:102ECC001A3219321832000E18141D6E000E191415
:102EDC001E6EFE0E1A141F6E1D501E101F10D8B43D
:102EEC000CD0ECD71B2A010E1826000E1922000E4E
:102EFC001A22D8901A3219321832000E18141D6E7C
:102F0C00000E19141E6EFF0E1A141F6E1D501E108B
:102F1C001F10D8B406D0E6D71B06D8901836193631
:102F2C001A3619BE03D0020E1B60F6D71BA0199ED1
:102F3C00D8901B321B501A121C50D8A41A8E18C0D1
:102F4C0018F019C019F01AC01AF01200F294475078
:102F5C00D76E46C0D6FF314A322A31C001F032C09A
:102F6C0002F0000E046EFA0E036E28EC1EF00150F7
:102F7C000210D8A403D0010E0001FA6F31C001F089
:102F8C0032C002F0030E046E200E036E28EC1EF00D
:102F9C0001500210D8A403D0010E0001F96F31C00A
:102FAC0001F032C002F0010E046E5E0E036E28ECCE
:102FBC001EF001500210D8A403D0010E0001F86FCE
:102FCC0031C001F032C002F0000E046E0A0E036E26
:102FDC0028EC1EF001500210D8A403D0010E000101
:102FEC00F76FB80E315C880E3258D8A01200000E64
:102FFC00326E000E316E12000001896FF29E0001DC
:10300C008951D8B403D08905D8A418D0000E186EF5
:10301C008951A4EC1EF029C025F02AC026F02BC043
:10302C0027F02CC028F0000189513DEC16F0010E60
:10303C00186E00018951A4EC1EF031D0020E000173
:10304C008919D8A42CD0000E2AEC21F0010E2D24C5
:10305C000001876F886B000E882388BF1DD08851B4
:10306C0003E18705D8A018D029C018F02AC019F0A0
:10307C002BC01AF02CC01BF087051C6E15EC1CF035
:10308C000001866F86C01AF089519DEC1CF000017E
:10309C008707D8A08807E1D7010E2AEC21F0F28E21
:1030AC0012008AC066F08BC067F0100E59EC0EF05F
:1030BC0020EE91F0070EEBCFDBFFE806FCE291C0AF
:1030CC0029F092C02AF093C02BF094C02CF0010E82
:1030DC002D6E020E02EC18F091C08CF092C08DF0A7
:1030EC0093C08EF094C08FF00F0E06D00001D890D4
:1030FC008F338E338D338C33E82EF8D78C51906F01
:10310C0091C021F092C022F093C023F094C024F01F
:10311C009051010D580EF324F66E060EF420F76E46
:10312C000800F5504009256E000E276E020E266E23
:10313C00FAEC1EF0610E246E060E73EC1DF01200FC
:10314C00185019101A10D8A40FD01BC0D9FF1CC0CE
:10315C00DAFF000EDE6E000EDD6E000E186E000E35
:10316C00196E000E1A6E12001A507F0B1D6E1E6A1D
:10317C00D8901D361E361BC0D9FF1CC0DAFF1DC0EF
:10318C00DEFF1EC0DDFF19AE03D01D6A1D2A01D063
:10319C001D6A1D501BC0D9FF1CC0DAFFDE12000EC9
:1031AC00DD121BC0D9FF1CC0DAFF820EDE26FF0E1B
:1031BC00DD221A801A821A841A861A881A8A1A9C94
:1031CC00199E18C018F019C019F01AC01AF0120084
:1031DC001AAE16D018C01EF019C01FF01AC020F07D
:1031EC001E1E1F1E201E1E2A000E1F222022000E35
:1031FC001E24186E000E1F20196E800E20201A6ED1
:10320C001DAE16D01BC01EF01CC01FF01DC020F040
:10321C001E1E1F1E201E1E2A000E1F222022000E04
:10322C001E241B6E000E1F201C6E800E20201D6E97
:10323C00000E181A000E191A800E1A1A000E1B1AFC
:10324C00000E1C1A800E1D1A1B50185C1C501958AD
:10325C001D501A58D8B002D0D8901200D880120045
:10326C000001E86F28D0E6C08AF0E7C08BF0000EB2
:10327C003FEC10F01200E6C08AF0E7C08BF0010EB4
:10328C003FEC10F01200010EFCEC19F01200000ED5
:10329C00FCEC19F01200E6C0C8F0E7C0C9F0010E52
:1032AC004EEC05F01200E6C0C8F0E7C0C9F0000E05
:1032BC004EEC05F012000001E851400AD8B412009F
:1032CC00010AD8B41200030AD8B4CDD7010AD8B475
:1032DC00D2D7070AD8B4D7D7010AD8B4D8D7030A9B
:1032EC00D8B4D9D7010AD8A41200DDD7000E206EAD
:1032FC00000E216E000E226E000E236E1C501D104F
:10330C001E101F10D8B42AD0010E246E06D0D890EF
:10331C001C361D361E361F36242A1FAEF8D7D89001
:10332C0020362136223623361C50185C1D50195875
:10333C001E501A581F501B58D8A009D01C50185E8C
:10334C001D50195A1E501A5A1F501B5A2080D890C3
:10335C001F321E321D321C32242EE1D720C018F031
:10336C0021C019F022C01AF023C01BF01200380E35
:10337C00F66E430EF76E000EF86E01EEBCF010EE1A
:10338C0010F00900F5CFEEFFE550E150FAE1DA0E4E
:10339C00F66E430EF76E000EF86E00EE3EF010EE79
:1033AC0008F00900F5CFEEFFE550E150FAE102EE2E
:1033BC0000F0460EEE6AE806FDE101EE00F0BC0EF0
:1033CC00EE6AE806FDE100EEF0F00B0EEE6AE806A0
:1033DC00FDE100EE31F00D0EEE6AE806FDE14890DD
:1033EC004892000EF86E000177EF1AF00001CF6FD3
:1033FC000001CF51D8A41AD04550D8A402D0010E48
:10340C0001D0000E456E4550D8B404D0CF51A6EC77
:10341C0006F006D0000E186E0001CF5186EC1EF09F
:10342C00450E246E040E73EC1DF012000001CF0546
:10343C00D8A412004450D8A402D0010E01D0000E22
:10344C00446E4450D8B404D0CF51A6EC06F006D04C
:10345C00000E186E0001CF5186EC1EF0440E246E47
:10346C00040E73EC1DF01200000E306E8E0E2F6EDB
:10347C0000018AAF11D08A1F891F881F876D000E2B
:10348C00882389238A23010E306E06D0D8908A3384
:10349C008933883387332F2A000E87158B6F000EE4
:1034AC0088158C6F000E89158D6FFF0E8A158E6F27
:1034BC008B518C118D118E11D8A4E8D787C018F0C0
:1034CC0088C019F089C01AF02FC01BF030C01CF056
:1034DC0055EC17F018C087F019C088F01AC089F0A5
:1034EC001200D4EC21F06AEC21F0CEEC21F0030EAA
:1034FC00E6EC1BF0E6EC0AF00001F705D8A406D0C8
:10350C00E5EC1DF0000E0001F76FF4D7F905D8A417
:10351C0010D053EC21F0FEEC16F0E806D8A403D042
:10352C00020EB7EC1BF0E1EC07F0000E0001F96F96
:10353C00E1D7F805D8A406D0C8EC21F0000E0001A4
:10354C00F86FD8D7FA05D8A4D5D700EC15F0000E33
:10355C000001FA6FCFD7000E1D6E19AE06D0186C95
:10356C00191ED8B0192A010E1D6E1BAE04D01A6C90
:10357C001B1ED8B01B2A1A501B10D8B418D0010E21
:10358C001C6E04D0D8901A361B361C2A1BAEFAD7E8
:10359C001A50185C1B501958D8A004D01A50185E39
:1035AC001B50195AD8901B321A321C2EF1D71D50B1
:1035BC00D8B404D0186C191ED8B0192A18C018F039
:1035CC0019C019F01200000E2E6E000E2D6E2EBEBC
:1035DC0006D02E5027E10A0E2D5CD8B023D08B805C
:1035EC00820E2C6EDE0EE82EFED72C2EFCD78A888F
:1035FC00820E2C6EDE0EE82EFED72C2EFCD78B9076
:10360C00820E2C6EDE0EE82EFED72C2EFCD78A985E
:10361C00820E2C6EDE0EE82EFED72C2EFCD72D4AF9
:10362C002E2AD5D7140E246E010E73EC1DF0120049
:10363C00000E206E000E1F6E000E226E000E216E0C
:10364C001CD021501824D96E22501920DA6EDF506C
:10365C00D8B411D021C01CF0010E1D6E000E1E6ED0
:10366C001C2A03D0D8901D361E361C2EFBD71D509D
:10367C001F121E502012214A222A1A50215C22505D
:10368C00800A1C6E1B50800A1C58D8A0DAD71FC0A9
:10369C0018F020C019F012001C501D101E101F1025
:1036AC00D8B424D0010E206E06D0D8901C361D360E
:1036BC001E361F36202A1FAEF8D71C50185C1D5022
:1036CC0019581E501A581F501B58D8A008D01C50FF
:1036DC00185E1D50195A1E501A5A1F501B5AD8905A
:1036EC001F321E321D321C32202EE7D718C018F0A4
:1036FC0019C019F01AC01AF01BC01BF01200000EF2
:10370C008D6E000E8C6E060E896E000E8A6E000E8B
:10371C008B6E070E966EE10E926EEF0E936E800E10
:10372C00946EF20E956E340E0F013A6F3E0E396F99
:10373C00E40E3B6F070E3C6F2F0E386FC30E616E9D
:10374C00F19E6288628AF60E186E430E196EE3ECD7
:10375C0021F0F40E186E430E196EDEEC21F0F28699
:10376C0012001B6E000E1D6E000E1C6E1B50186E90
:10377C00196A18501C5C1D50800A1A6E1950800A68
:10378C001A58D8B012008A98020E196E040E186ED0
:10379C00BA0EE82EFED7182EFCD7192EFAD700D069
:1037AC008A88020E196E040E186EBA0EE82EFED719
:1037BC00182EFCD7192EFAD700D01C4A1D2AD6D7A2
:1037CC001B6E000E1D6E000E1C6E1B50186E196ABF
:1037DC0018501C5C1D50800A1A6E1950800A1A5819
:1037EC00D8B012008B90020E196E040E186EBA0E21
:1037FC00E82EFED7182EFCD7192EFAD700D08B80C6
:10380C00020E196E040E186EBA0EE82EFED7182E84
:10381C00FCD7192EFAD700D01C4A1D2AD6D71FD098
:10382C0018501200195012001A501200000E1814E1
:10383C001D6E000E19141E6E000E1A141F6EFF0E54
:10384C001B14206E190E05D0D89020321F321E3258
:10385C001D32E82EF9D71D501200000E12001C501C
:10386C00000AD8B4DDD7010AD8B4DCD7030AD8B41F
:10387C00DBD7010AD8B4DAD7F0D78E0E286E06D073
:10388C00D8902332223221322032282A000E2014E2
:10389C00246E000E2114256E000E2214266EFF0ECF
:1038AC002314276E2450251026102710D8A4E8D7EF
:1038BC0020C018F021C019F022C01AF028C01BF04B
:1038CC00000E1C6E55EC17F018C020F019C021F03A
:1038DC001AC022F01200000E216E000E206E21BEC6
:1038EC0006D0215023E1210E205CD8B01200010E2D
:1038FC0020241E6E000E21201F6E1E1E1F1E1E4A2F
:10390C001F2A200E1E26000E1F221E501824D96EB0
:10391C001F501920DA6E1A50010BDF6ED8901D3231
:10392C001C321B321A32204A212AD9D712001C6EA3
:10393C00080E1B6E1AD0010E186E1C50F4EC1CF005
:10394C001AAE06D0010E186E1C50C9EC1CF005D036
:10395C00000E186E1C50C9EC1CF0000E186E1C509A
:10396C00F4EC1CF01B06D8901A361B50D8A4E3D7E5
:10397C00000E186E1C50C9EC1CF0000E186E1C507A
:10398C00F4EC1CF01200196E1ED01804D8A402D04E
:10399C008C8012001850D8A412008C9012001804BD
:1039AC00D8A402D08B8A12001850D8A412008B9A7B
:1039BC0012001804D8A402D0898812001850D8A478
:1039CC001200899812001950000AD8B4DED7010AE7
:1039DC00D8B4E5D7030AD8A41200EBD7196E1ED0C1
:1039EC001804D8A402D08B8612001850D8A4120048
:1039FC008B9612001804D8A402D08B881200185091
:103A0C00D8A412008B9812001804D8A402D089866E
:103A1C0012001850D8A41200899612001950000AEE
:103A2C00D8B4DED7010AD8B4E5D7030AD8A412005B
:103A3C00EBD7000E226E000E236E000E246E000ECD
:103A4C00256E1AA008D01E5022261F50232220506B
:103A5C00242221502522D8901E361F36203621369E
:103A6C00D8901D321C321B321A321A501B101C10EB
:103A7C001D10D8A4E6D722C01AF023C01BF024C016
:103A8C001CF025C01DF01200800E3E6E450E3F6EE0
:103A9C00000E406E000E416E800E0101C86F450E87
:103AAC00C96F000ECA6F000ECB6F000E306F000E88
:103ABC00316F000E326F000E336F3C0E206E010E14
:103ACC00216E000E236E200E226E1BEC21F0510E87
:103ADC00246E050E73EC1DF01200256E260E206E62
:103AEC00000E216E000E236E060E226E1BEC21F0D2
:103AFC00240E266E25C027F024C028F0000E296E57
:103B0C00260E186E000E196E000E1B6E050E1A6E28
:103B1C009CEC1DF02B6E260E196E000E1A6E000E0C
:103B2C001C6E060E1B6E4EEC1FF01200000E1E6E6D
:103B3C00000E1D6E000E206E000E1F6E0ED01F505C
:103B4C001824D96E20501920DA6EDF501C6E1C50D0
:103B5C001D26000E1E221F4A202A1A501F5C2050C0
:103B6C00800A1C6E1B50800A1C58D8A0E8D7FF0E88
:103B7C001D16000E1E161D501200000E1A6E000EA1
:103B8C00196E0001F551D8A402D01950120033500F
:103B9C00010D000EF324D96E010EF420DA6EDF5005
:103BAC00186E1850196E1A6A332A270E336402D015
:103BBC00000E336E9D9AF5079D8A19501200010E66
:103BCC0001012827000E29232A232B2328C118F0B2
:103BDC0029C119F02AC11AF02BC11BF0800E1C6EE2
:103BEC00430E1D6E000E1E6E000E1F6E52EC1BF06F
:103BFC0018C028F119C029F11AC02AF11BC02BF1E9
:103C0C0012000001875188118911D8B406D0000E1A
:103C1C00871B000E881B800E891B84C078F085C022
:103C2C0079F086C07AF087C07BF088C07CF089C0C0
:103C3C007DF0C2EC0CF078C084F079C085F07AC0CD
:103C4C0086F0120003500410D8B418D0010E056E83
:103C5C0004D0D89003360436052A04AEFAD70350A4
:103C6C00015C04500258D8A004D00350015E0450EB
:103C7C00025AD89004320332052EF1D701C001F05C
:103C8C0002C002F01200000EA6EC06F0010EA6EC2B
:103C9C0006F0B00E206E010E216E000E236E0C0E7F
:103CAC00226E000E246E38EC21F0A40E206E010E54
:103CBC00216E000E236E0C0E226E000E246E38EC5C
:103CCC0021F01200186E0101D251D8B4FCD79DB866
:103CDC0003D018C0ADFF12D09D983650010D000EC8
:103CEC00F324D96E020EF420DA6E18C0DFFF362AE8
:103CFC00450E366402D0000E366ED2079D88120037
:103D0C00196E14D01804D8A402D08B82120018504B
:103D1C00D8A412008B9212001804D8A402D08C8460
:103D2C0012001850D8A412008C9412001950000ADA
:103D3C00D8B4E8D7010AD8A41200EED7196E14D063
:103D4C001804D8A402D08B8412001850D8A41200E6
:103D5C008B9412001804D8A402D08C861200185030
:103D6C00D8A412008C9612001950000AD8B4E8D7C7
:103D7C00010AD8A41200EED70001E86F0DD04AEC6E
:103D8C001DF01200C6EC10F01200E6C087F0E7C080
:103D9C0088F0EFEC08F012000001E851510AD8B499
:103DAC00EED7030AD8B4EED7010AD8A41200EDD787
:103DBC009D9A9D98080EB86E900EAB6E240EAC6E4C
:103DCC00100EAF6E000EB06E000E366E000E356E1D
:103DDC00460E0101D26F000E346E000E336E000ED3
:103DEC000001F56F9D8A120026C029F015D021C064
:103DFC0018F022C019F023C01AF024C01BF02904BB
:103E0C001C6E15EC1CF0286E28C01BF02950000805
:103E1C002524BAEC21F029062950D8B41200E7D792
:103E2C00000E236E21AE06D0206C211ED8B0212AA4
:103E3C00010E236E20C018F021C019F01A6A8E0EE4
:103E4C001B6E23C01CF055EC17F018C020F019C0E5
:103E5C0021F01AC022F01200460E0101D26112D0DC
:103E6C003550010D000EF324D96E020EF420DA6EDB
:103E7C00DF50AD6E352A450E356402D0000E356E1E
:103E8C00D22B12009D98000E356E000E366E12006D
:103E9C00000E1F6E000E1E6E0BD01E501924D96E14
:103EAC001F501A20DA6EDF5068EC1EF01E4A1F2AD3
:103EBC001B501E5C1F50800A1D6E1C50800A1D5822
:103ECC00D8B01200EAD7196E000EF2BE010E1A6EAF
:103EDC0019C0A9FF18C0A8FFA69EA69CA684F29E96
:103EEC00550EA76EAA0EA76EA682A6B2FED7A694F2
:103EFC001AB002D0F29E01D0F28E12000001E86FCF
:103F0C000ED0E6C08AF0E7C08BF057EC18F0120028
:103F1C00E6C0C8F0E7C0C9F0ABEC13F0120000012A
:103F2C00E851610AD8B4EDD7030AD8A41200F0D72F
:103F3C00F80ED76E2F0ED66ED650D7CF1AF01B6A4E
:103F4C001AC01BF01A6A1A10466E1B50476EF29478
:103F5C00F28A000E186E000E196ED9EC21F0900E3C
:103F6C00D56E1200000EF2BE010E1C6E1AC0F8FFC8
:103F7C0019C0F7FF18C0F6FFA68EA69CA684A688CB
:103F8C00F29E550EA76EAA0EA76EA6821CB002D08A
:103F9C00F29E01D0F28E12000001E96F06D0E9EC1E
:103FAC001AF01200ACEC21F012000001E951110AD8
:103FBC00D8B4F8D7030AD8B41200010AD8B4120046
:103FCC00070AD8A41200EBD72CC0D9FF2DC0DAFFFA
:103FDC00DF503D6E3D04D8A409D020EE01F02C50EA
:103FEC00D9262D50DA22DF500001F66F320E246EE6
:103FFC00030E73EC1DF012001C6E1CC01AF01A4656
:10400C001A46C2501A18830B1A18C26EC280C2828A
:10401C00C2B2FED7C4501B6E1A6AC3501A24186E53
:10402C00000E1B20196E1200ABA202D0AB98AB880D
:10403C003450010D000EF324D96E010EF420DA6E0B
:10404C00AECFDFFF342A270E346402D0000E346E5C
:10405C000001F52B120018C01EF019C01FF008D07B
:10406C001EC0D9FF1FC0DAFF1AC0DFFF1E4A1F2A6D
:10407C001C06D8A01D061C28F3E11D28D8B412007C
:10408C00EFD7000E0001F16F000E3C6E000E3B6E80
:10409C00000EF06F900E206E010E216E000E236E3E
:1040AC00140E226E1BEC21F012001D6E010E1C6E04
:1040BC007B0E1D6003D0610E1D6007D01D500CECF3
:1040CC0021F0D8B002D0000E1C6E1CC01BF01B30AF
:1040DC0012001A6E010E196E200E1A18D8B408D0E0
:1040EC000E0E1A6003D0090E1A6002D0000E196E63
:1040FC0019C018F01830120018501A02F3CF1CF027
:10410C00F4CF1DF018501B02F3501D2619501A0243
:10411C00F3501D261CC018F01DC019F01200000130
:10412C00E96F06D056EC03F0120039EC13F01200D4
:10413C000001E951210AD8B4F8D7030AD8A4120017
:10414C00F1D7185019101A10D8B406D0000E181A3E
:10415C00000E191A800E1A1A18C018F019C019F08E
:10416C001AC01AF0120020C018F021C019F01A6AF7
:10417C008E0E1B6E000E1C6E55EC17F018C020F046
:10418C0019C021F01AC022F012000101CE51CF113A
:10419C00D8B4120001D812000500FA6ECE51FD6E93
:1041AC00CF51FE6EF850FF6EFA5012000101D05143
:1041BC00D111D8B4120001D812000500FA6ED051FA
:1041CC00FD6ED151FE6EF850FF6EFA5012000001D8
:1041DC00E86F07D0E6C02CF0E7C02DF0EAEC1FF03A
:1041EC0012000001E851320AD8A41200F3D71A6E5B
:1041FC00000E196E3A0E1A6005D02F0E1A6402D0FA
:10420C00010E196E19C018F0183012001A6E000E3B
:10421C00196E5B0E1A6005D0400E1A6402D0010EA6
:10422C00196E19C018F01830120020C018F021C0F7
:10423C0019F0000E1B6E000E1A6E22C01CF023C06B
:10424C001DF031EC20F01200186E04D0899412008D
:10425C00898412001850000AD8B4F8D7010AD8A4DF
:10426C001200F6D720C018F021C019F024C01AF0A3
:10427C001B6A22C01CF023C01DF031EC20F0120090
:10428C00F4EC21F085EC1BF0B3EC21F09EEC1FF06C
:10429C005FEC21F0DEEC1EF012008BB003D0186A3C
:1042AC00182A01D0186A8B501818FE0B18188B6E30
:1042BC001200050EC26E000EC16E870EC06E000E8F
:1042CC00C36E000EC46E1200F1EC21F0F6EC21F07E
:1042DC0049EC1EF089EC21F01DEC14F01200186E64
:1042EC007B0E186004D0600E186401D0189A185018
:1042FC001200186E18C0A9FFA69CA69EA68000F0FE
:10430C0000F0A8501200000E0101286F000E296F5A
:10431C00000E2A6F000E2B6F12001AC0F8FF19C086
:10432C00F7FF18C0F6FF0800F5501200A43F2A4111
:10433C00DA416C32843D083F8045000062B8DCEC09
:10434C0020F062BACBEC20F0F2901200110E246E29
:10435C00010E73EC1DF0FF001200600ED36E040E04
:10436C00D26E800E9B6E12001C6E1BC018F01C507F
:10437C0069EC1FF01200A6A201D002D0010E1200AF
:10438C00000E1200150E246E010E73EC1DF01200BF
:10439C00100E246E010E73EC1DF0120046EC21F091
:1043AC00F28EF28C120018C0CCF119C0CDF11200B3
:1043BC0018C0CEF119C0CFF1120018C0D0F119C03D
:1043CC00D1F11200196E19507FEC21F012008045CA
:1043DC00000002020101000E3D6E1200D09E120080
:0C43EC00D58E1200A198120012001200E1
:020000040020DA
:08000000FFFFFFFFFFFFFFFF00
:020000040030CA
:0E000000FF281838FFBF80FF0FC00FE00F4031
:00000001FF
