:040000006EEF00F0AF
:100008004882FACF06F0FBCF07F0E9CF08F0EACF35
:1000180009F0E1CF0AF0E2CF0BF0D9CF0CF0DACF3C
:100028000DF0F3CF0EF0F4CF0FF0F6CF10F0F7CFBE
:1000380011F0F8CF12F0F5CF13F048C014F049C012
:1000480015F04AC016F04BC017F0F2B6F2A003D074
:10005800DFEC1BF019D0F2BAF2A403D036EC11F0A1
:1000680013D0F2AC11D0A0B8A1A803D0E1EC1BF0DA
:100078000BD09DB89EA803D031EC19F005D09DBADD
:100088009EAA02D01DEC1AF017C04BF016C04AF019
:1000980015C049F014C048F013C0F5FF12C0F8FFAE
:1000A80011C0F7FF10C0F6FF0FC0F4FF0EC0F3FF3A
:1000B8000DC0DAFF0CC0D9FF0BC0E2FF0AC0E1FF98
:1000C80009C0EAFF08C0E9FF07C0FBFF06C0FAFF46
:0800D8004892110056EF13F0ED
:10060000001C0401000B3061003A19C000C9FC1045
:100610001128042D10E700001276600035250080B7
:10062000008483003003000000120000000100007D
:10063000004006200007060504190A0D0002040800
:1006400000803F72313FFE753E58633D951D3CC5AD
:10065000AE3A79213994803793A735561534000086
:100660000000803FF0FFBEE2A93E8376BEAE2B3E87
:100670003CC3BDD2133D78D3BB00000E0001BA6F5E
:10068000000EB96F000EBE6F000EBD6F6C0E206EB7
:10069000000E216E000E236E450E226EFEEC1AF047
:1006A000A5EC1BF00009D8B412003E503F104010DA
:1006B0004110D8B4EED03150321033103410D8B4C9
:1006C0009AD02CC060F02DC061F0000E000161BF17
:1006D000FF0E626F636F3150605D3250615933506D
:1006E000625934506359D8B002D0010E01D0000EC7
:1006F000646F656B666B676B641F651F661F671FA2
:10070000642B000E65236623672331506425686FD0
:1007100032506521696F335066216A6F345067210A
:100720006B6F685169116A116B11D8A40AD02CC083
:10073000B1F02DC0B2F0000EB2BFFF0EB36FB46FB8
:1007400008D031C0B1F032C0B2F033C0B3F034C021
:10075000B4F0B1C0BDF0B2C0BEF0BEAF91D0BDC06C
:1007600018F0BEC019F05EEC1AF018C060F019C0A5
:1007700061F0000E000161BFFF0E626F636F605198
:100780003E5C61513F586251405863514158D8B066
:1007900016D03E50BD25606F3F50BE21616F605145
:1007A0002C2661512D223EC060F03FC061F0601FD9
:1007B000611F604B612B60C0BDF061C0BEF0BDC069
:1007C00060F0BEC061F0060ED89060376137E82E49
:1007D000FBD760C062F061C063F0000E63BFFF0E24
:1007E000646F656F6251F9276351FA236451FB23EB
:1007F0006551FC2345D02CC060F02DC061F0000E87
:10080000000161BFFF0E626F636F3E50605D3F503D
:1008100061594050625941506359D8A009D03EC037
:10082000B5F03FC0B6F040C0B7F041C0B8F009D055
:100830002CC0B5F02DC0B6F0000EB6BFFF0EB76FDE
:10084000B86FB5C02CF0B6C02DF02CC060F02DC034
:1008500061F0060ED89060376137E82EFBD760C094
:1008600062F061C063F0000E63BFFF0E646F656FDE
:100870006251F95F6351FA5B6451FB5B6551FC5B4C
:10088000FC51FB113EE1F905400EFA59D8B039D0C0
:1008900023D03C50D8B429D00001F951425CFA5120
:1008A0004358FB514458FC514558D8A01ED0400E27
:1008B0004224F96F000E4320FA6F000E4420FB6FB4
:1008C000000E4520FC6FFC51FB1106E1F00EF95DB6
:1008D0007F0EFA59D8A015D0000EF96F400EFA6FAE
:1008E000000EFB6F000EFC6F0CD031503210331035
:1008F0003410D8A406D0550E246E050EF8EC16F070
:100900001200240E00016C6F050E6D6F540E6E6F99
:10091000400E6F6F000EBA6F000EB96F84D0000EDC
:10092000BC6F000EBB6FBCBF06D0BC512CE1400EAB
:10093000BB5DD8B028D0040EBB25606F000EBC2173
:10094000616F6C0E6025D96E000E6121DA6EBBC03E
:1009500062F0BCC063F0000E63BFFF0E646F656F92
:10096000F9516225186EFA516321196EFB51642109
:100970001A6EFC5165211B6E77EC1BF0DF6E0001D7
:10098000BB4BBC2BD0D7400EF927000EFA23FB231C
:10099000FC23FC51FB1106E1F00EF95D7F0EFA59C4
:1009A000D8A008D0000EF96F400EFA6F000EFB6F52
:1009B000000EFC6F6C0E186E000E196E000E1B6E92
:1009C000440E1A6E49EC17F00001B06F6C0E196EF0
:1009D000000E1A6E000E1C6E450E1B6E9EEC19F07A
:1009E0003150321033103410D8B41AD03E04FF0EF8
:1009F0003F58FF0E4058FF0E4158D8B006D0010EA8
:100A00003E26000E3F224022412231503210331048
:100A10003410D8B405D03106000E325A335A345A45
:100A20000001B94BBA2B2C50B95DBA51800A606FE6
:100A30002D50800A6059D8B0120071D7000E010104
:100A4000CA6FDFD0040E0001D3651200010ED26F11
:100A500012004AEC1AF0000E0001CB6F010ED365B4
:100A60000ED0DAEC17F00101CA6FCAC1D9F0240E1A
:100A7000CA19D8A41200020E0001D26F1200000E93
:100A8000D26F1200010ED3651200DAEC17F00001EC
:100A9000D16FD1C0DAF0030ED26F1200010ED36510
:100AA0001200DAEC17F00001D06FD0C0DBF0040EBA
:100AB000D26F1200010ED3651200DAEC17F00001BC
:100AC000CF6FCFC0DCF0CF51D8A403D0060ED26FC9
:100AD0001200050ED26F1200CF51D35DD8A01200C4
:100AE000AE0E206E010E216E000E236E140E226ECD
:100AF000FEEC1AF0000E0101C96F000EC86F22D083
:100B0000DAEC17F00101CA6F0001CB510101C46F8B
:100B1000C56B040EC427000EC523D90EC425D96E9B
:100B2000000EC521DA6ECAC1DFFF0001CB2BAE0E6D
:100B30000101C825D96E010EC921DA6ECAC1DFFFD5
:100B4000C84BC92B0001CF510101C46FC56BC45103
:100B5000C85DC951800AC66FC551800AC659D8A060
:100B6000CFD7060E0001D26F1200D351D8B41200B5
:100B7000DAEC17F00001CC6FD90E186E000E196E6A
:100B8000040ECB251A6E1B6A000E1B2249EC17F0CF
:100B90000001CD6FCD51CC19D8A403D0070ED26F70
:100BA0001200000ED26F1200FE0E0101C46FFF0E84
:100BB000C56F0001D1510101C66FC76BD890C63710
:100BC000C737C451C627C551C723ED0EC625D96EF8
:100BD000000EC721DA6E01D810D00500FA6EDE5083
:100BE000FD6EDE50FE6EF850FF6EFA50AE0EC26F14
:100BF000010EC36F0001D0511200000E0001D26F30
:100C000012000001D251000AD8B41CD7010AD8B48E
:100C100020D7030AD8B436D7010AD8B43FD7070A79
:100C2000D8B448D7010AD8B457D7030AD8B49DD747
:100C3000010AD8A41200B8D7000197519811991150
:100C4000D8A407D0000E976F800E986F3F0E996F53
:100C50001200720E186E310E196E440E1A6E97C085
:100C60001BF098C01CF099C01DF00FEC12F0D8B02A
:100C70000CD0000E0001C66F220EC56FFF0E976FDD
:100C80007F0E986F7F0E996F120097C018F098C072
:100C900019F099C01AF0490E1B6E3A0E1C6EC40E64
:100CA0001D6E0FEC12F0D8B00CD0000E0001C66F14
:100CB000220EC56F000E976F000E986F000E996F91
:100CC0001200000199AF02D0010E01D0000E9F6FFB
:100CD0009F51D8B40ED097C018F098C019F099C0A1
:100CE0001AF0ACEC1AF018C097F019C098F01AC0BE
:100CF00099F097C069F098C06AF099C06BF0AA0E9D
:100D000000016C6FB80E6D6F3F0E6E6F80EC0CF0D3
:100D100069C097F06AC098F06BC099F097C08FF0E7
:100D200098C090F099C091F0E1EC0DF08FC09AF06E
:100D300090C09BF091C09CF09AC078F09BC079F075
:100D40009CC07AF004EC0CF078C09DF079C09EF065
:100D500097C084F098C085F099C086F09DC020F0BF
:100D60009EC021F015EC19F020C087F021C088F05A
:100D700022C089F03FEC18F084C097F085C098F04D
:100D800086C099F097C084F098C085F099C086F02D
:100D9000400E0001876F060E886F000E8A6F090EE5
:100DA000896F52EC0EF084C08EF085C08FF086C043
:100DB00090F09DC091F09EC092F0BDEC0EF08EC000
:100DC00097F08FC098F090C099F000019F51D8B46F
:100DD00025D097290EE17F0E98190BE17F0E991906
:100DE000D8A407D0000E976F000E986F000E996F71
:100DF0001200000E296E800E2A6E3F0E2B6E97C0D9
:100E00002CF098C02DF099C02EF0FBEC0CF029C00E
:100E100097F02AC098F02BC099F0120097C097F075
:100E200098C098F099C099F0120024C0D9FF25C04D
:100E3000DAFFDF500001656F244A252A655186ECF0
:100E40001AF0D8B0F2D7000E0001616F000E626F89
:100E5000000E636F000E646F000E606F2D0E65193B
:100E6000D8A403D0010E606F04D02B0E6519D8A44E
:100E700008D024C0D9FF25C0DAFFDF50656F244AAF
:100E8000252A300E6519D8A42ED024C0D9FF25C03C
:100E9000DAFFDF50656F244A252A28502910D8B47C
:100EA00005D0100E28182910D8A415D0780E651971
:100EB000D8B404D0580E6519D8A40DD0000E296EF0
:100EC000100E286E24C0D9FF25C0DAFFDF50656FF1
:100ED000244A252A08D028502910D8A404D0000E6E
:100EE000296E080E286E28502910D8A404D0000EB0
:100EF000296E0A0E286E655172EC1AF0D8A008D03F
:100F00000001655159EC1BF0C90F0001656F09D054
:100F100000016551E0EC1AF0D8A039D0300E000184
:100F2000655F65512A6E2B6A28502A5C2B50800A17
:100F30002C6E2950800A2C58D8B029D028C018F01F
:100F400029C019F0000E19BEFF0E1A6E1B6E61C08B
:100F50001CF062C01DF063C01EF064C01FF0FCEC0A
:100F600015F0000165511824616F000E1920626FA1
:100F7000000E1A20636F000E1B20646F24C0D9FF7F
:100F800025C0DAFFDF50656F244A252AB4D72650E2
:100F90002710D8B40ED0FF0E24242A6EFF0E252071
:100FA0002B6E26C0D9FF27C0DAFF2AC0DEFF2BC078
:100FB000DDFF00016051D8B41AD061C02AF062C0D0
:100FC0002BF063C02CF064C02DF02A1E2B1E2C1EAB
:100FD0002D1E2A2A000E2B222C222D222AC024F07C
:100FE0002BC025F02CC026F02DC027F0120061C0C8
:100FF00024F062C025F063C026F064C027F0120020
:10100000000E0001BB6F000EBA6F3D50D8A473D024
:10101000000EBC6F060EBC6501D01200BC51010D64
:10102000350EF324F66E060EF420F76E0800F55028
:1010300005EC1AF018C0B3F019C0B4F0000E0001AE
:10104000A36F200EA46F410EA56F000EA06F000EBF
:10105000A16F400EA26FB2EC09F0A0C0B7F0A1C022
:10106000B8F0A2C0B9F0C00E00016C6F500E6D6FE9
:10107000450E6E6FB7C02CF0B8C02DF0B9C02EF081
:10108000B3C020F0B4C021F0BEEC1AF020C029F0AB
:1010900021C02AF022C02BF0FBEC0CF029C069F033
:1010A0002AC06AF02BC06BF080EC0CF069C078F0BD
:1010B0006AC079F06BC07AF004EC0CF078C0BAF03A
:1010C00079C0BBF0BAC02DF0BBC02EF00001BC2926
:1010D0002F6E87EC0BF0030E0001B26F8A0EB16F1A
:1010E000550EE82EFED7B12FFCD7B22FFAD700D07D
:1010F0000001BC2B8FD73D04D8A41200D451010DA0
:10110000350EF324F66E060EF420F76E0800F55047
:1011100005EC1AF018C0B5F019C0B6F0000E0001C9
:10112000A36F200EA46F410EA56F000EA06F000EDE
:10113000A16F400EA26FB2EC09F0A0C0B7F0A1C041
:10114000B8F0A2C0B9F0C00E00016C6F500E6D6F08
:10115000450E6E6FB7C02CF0B8C02DF0B9C02EF0A0
:10116000B5C020F0B6C021F0BEEC1AF020C029F0C6
:1011700021C02AF022C02BF0FBEC0CF029C069F052
:101180002AC06AF02BC06BF080EC0CF069C078F0DC
:101190006AC079F06BC07AF004EC0CF078C0BAF059
:1011A00079C0BBF0BAC02DF0BBC02EF0010E2F6E7F
:1011B00087EC0BF012007AC07EF000017F6B806B31
:1011C00079357E3701E37F817E51836F7DC07EF06C
:1011D0007F6B806B7C357E3701E37F817E51826F30
:1011E0008351D8B40BD08251835DD8B00ED08351D7
:1011F000000882257E6F180E7E6507D07BC078F0D0
:101200007CC079F07DC07AF012008251D8B40BD046
:101210008351825DD8B00ED08251000883257E6F45
:10122000180E7E6507D078C078F079C079F07AC062
:101230007AF01200060E816F7ABF818F7DBF818D9B
:10124000798FFF0E7817FF0E7917000E7A177C8FB3
:10125000FF0E7B17FF0E7C17000E7D178251835DFA
:10126000D8B01BD0D8907B377C377D37820783512D
:101270008219D8B40DD0810781C07EF0070E7E1789
:10128000D8B406D0EFD7D8907A3379337833832B1C
:1012900082518319D8B41FD0F6D78351825DD8B05C
:1012A0001AD0D890783779377A37830783518219E3
:1012B000D8B40DD0810781C07EF0070E7E17D8B458
:1012C00006D0EFD7D8907D337C337B33822B82518D
:1012D0008319D8A4F7D781AF0CD0FF0E781BFF0E6F
:1012E000791BFF0E7A1B010E7827000E7923000E62
:1012F0007A2381AD0CD0FF0E7B1BFF0E7C1BFF0EF3
:101300007D1B010E7B27000E7C23000E7D23000E2B
:10131000816F78517B2779517C237A517D237DAF72
:101320000ED0FF0E7B1BFF0E7C1BFF0E7D1B010EE4
:101330007B27000E7C23000E7D23010E816F7BC076
:1013400018F07CC019F07DC01AF083C01BF081C07A
:101350001CF092EC10F018C078F019C079F01AC0A7
:101360007AF01200000E0001AC6FA051A111A21181
:10137000D8A41DD0000E186E000E196E000E1A6E45
:10138000A3C01BF0A4C01CF0A5C01DF00FEC12F010
:10139000D8A005D0000E0001C66F210EC56F000E4B
:1013A0000001A06F000EA16F000EA26F1200A351EA
:1013B000A411A511D8A407D0000EA06F800EA16FB4
:1013C0003F0EA26F1200A2AF41D0A3C078F0A4C01C
:1013D00079F0A5C07AF004EC0CF078C0ADF079C0DB
:1013E000AEF07AC0AFF07BC0B0F0ADC020F0AEC0C0
:1013F00021F0AFC022F0B0C023F04AEC15F000019C
:10140000A351201807E1A451211804E1A551221885
:10141000D8B40BD0000EC66F210EC56F000EA06FA2
:10142000000EA16F000EA26F1200AD51010BAC6F48
:10143000A0C018F0A1C019F0A2C01AF0ACEC1AF0CC
:1014400018C0A0F019C0A1F01AC0A2F0A0C08EF080
:10145000A1C08FF0A2C090F070EC0AF08EC0A6F090
:101460008FC0A7F090C0A8F0A6C069F0A7C06AF02E
:10147000A8C06BF0A3C06CF0A4C06DF0A5C06EF066
:1014800080EC0CF069C0A9F06AC0AAF06BC0ABF0A8
:10149000A9C097F0AAC098F0ABC099F01CEC06F078
:1014A00097C0A0F098C0A1F099C0A2F00001AC5183
:1014B000D8B40FD0A0C018F0A1C019F0A2C01AF083
:1014C000ACEC1AF018C0A0F019C0A1F01AC0A2F03C
:1014D0001200A0C0A0F0A1C0A1F0A2C0A2F0120012
:1014E000000190AF0BD0000EC66F210EC56F000E2D
:1014F0008E6F000E8F6F000E906F12008E518F1145
:101500009011D8A40BD0000EC66F220EC56F000E2E
:101510008E6F000E8F6F000E906F1200000E6C6FBA
:10152000000E6D6F400E6E6F910E1B6E000E1C6EE6
:101530008EC018F08FC019F090C01AF0C7EC11F0EF
:1015400018C069F019C06AF01AC06BF080EC0CF09A
:1015500069C078F06AC079F06BC07AF0000E0001C3
:101560007B6F800E7C6FBF0E7D6FDBEC08F078C068
:101570008EF079C08FF07AC090F000019107D8A06A
:1015800092078EC084F08FC085F090C086F05E0E0A
:10159000876F060E886F000E8A6F080E896F52ECF7
:1015A0000EF084C08EF085C08FF086C090F0720E71
:1015B00000016C6F310E6D6F3F0E6E6F91C020F0A9
:1015C00092C021F015EC19F020C069F021C06AF03A
:1015D00022C06BF080EC0CF069C078F06AC079F042
:1015E0006BC07AF08EC07BF08FC07CF090C07DF035
:1015F000DBEC08F078C08EF079C08FF07AC090F004
:101600001200280E206E000E216E000E236E090EB1
:10161000226EFEEC1AF0240E286E050E296E520E74
:101620002A6E040E2B6EF00E186E3F0E196E000E11
:101630001A6E000E1B6E010E1C6E1CEC15F02C6E4B
:10164000F00E186E3F0E196E000E1A6E000E1B6E15
:10165000000E1C6E1CEC15F02D6E42C024F043C031
:1016600025F044C026F045C027F0241E251E261E66
:10167000271E242A000E252226222722F00E2424AB
:10168000186E7F0E2520196E000E26201A6E000E91
:1016900027201B6E010E1C6E1CEC15F02E6E42C036
:1016A00024F043C025F044C026F045C027F0241E96
:1016B000251E261E271E242A000E2522262227222A
:1016C000F00E2424186E7F0E2520196E000E2620A1
:1016D0001A6E000E27201B6E000E1C6E1CEC15F0FF
:1016E0002F6E280E186E000E196E000E1B6E080E5F
:1016F0001A6E49EC17F0306E280E196E000E1A6E35
:10170000000E1C6E090E1B6E9EEC19F012002F507D
:101710000001606F616B0C0ED89060376137E82E66
:10172000FBD760C062F061C063F062512D1263515B
:101730002E12D890C735D96EC835DA6E6E0ED926FE
:10174000010EDA222DC0DEFF2EC0DDFFC74BC82BF5
:10175000C7C060F0C8C061F0D89060376137615190
:1017600004E1400E605DD8A01200A5EC1BF000095A
:10177000D8B4120042C01DF043C01EF044C01FF098
:1017800045C020F06E0E216E010E226E80EC0FF02F
:10179000400E4226000E432244224522455044106A
:1017A00006E1F00E425C7F0E4358D8A018D0000E20
:1017B000426E400E436E000E446E000E456E010EEA
:1017C0003C6E400E0001FA19F911FB11FC11D8A46E
:1017D00006D0400EF927000EFA23FB23FC23310428
:1017E000FF0E3258FF0E3358FF0E3458D8B006D0D3
:1017F000010E3126000E322233223422000E000167
:10180000C86F000EC76F12007AC07CF000017D6BBC
:101810007E6B79357C3701E37D817C51866F865103
:10182000D8A409D0000E786F000E796F000E7A6F81
:10183000000E7B6F1200170E7C6F78C07DF079C0B0
:101840007EF07AC07FF07C29806F04D0D8907F33FF
:101850007E337D33802FFAD700017D51816F798FE0
:10186000FF0E7817FF0E7917000E7A177851826FE6
:101870007951836F7A51846F856B8E0E865F86AF48
:1018800016D08651800A8F0FD8B009D0000E786F1D
:10189000000E796F000E7A6F000E7B6F1200D890E9
:1018A0008533843383338233863FF9D715D0170EBF
:1018B00086650FD0000E786F000E796F000E7A6F7C
:1018C000000E7B6F1200D8908237833784378537BC
:1018D00086078651D8A4F7D78151D8B408D0851F80
:1018E000841F831F826D000E83238423852382C07F
:1018F00078F083C079F084C07AF085C07BF0120064
:101900006BC06FF00001706B716B6A356F3701E36C
:1019100070816F51726F7251D8A407D0000E696F39
:10192000000E6A6F000E6B6F12006EC06FF0706B6E
:10193000716B6D356F3701E370816F51776F775140
:10194000D8A407D0000E696F000E6A6F000E6B6F8F
:10195000120077517B0F72276BC077F06E51771BA7
:10196000800E77176A8F6D8FFF0E6C17FF0E6D1745
:10197000000E6E17000E736F000E746F000E756F01
:10198000070E766F69A106D06C5173276D517423D1
:101990006E517523D8906B336A336933D8906C37A6
:1019A0006D376E37762FEED7090E766F69A106D0A8
:1019B0006C5173276D5174236E517523D8906B331E
:1019C0006A336933D890753374337333762FEED717
:1019D00073C018F074C019F075C01AF072C01BF013
:1019E00077C01CF092EC10F018C069F019C06AF0D2
:1019F0001AC06BF012002BC060F00001616B626BCB
:101A00002A34603701E361816051676F6751D8A460
:101A100007D0000E296E000E2A6E000E2B6E1200EB
:101A20002EC060F0616B626B2D34603701E3618121
:101A30006051686F6851D8A407D0000E296E000E5F
:101A40002A6E000E2B6E1200000E646F000E656F82
:101A5000000E666F6851890F675F2BC068F02E50CB
:101A6000681B800E68172A8EFF0E2916FF0E2A1695
:101A7000000E2B162D8EFF0E2C16FF0E2D16000EAF
:101A80002E16180E636FD8906437653766372C5062
:101A9000295C2D502A582E502B58D8A007D02C50F6
:101AA000295E2D502A5A2E502B5A6481D8902936FF
:101AB0002A362B36632FE7D764C018F065C019F0BB
:101AC00066C01AF067C01BF068C01CF092EC10F002
:101AD00018C029F019C02AF01AC02BF01200240EE9
:101AE0000001606F020E616F210E626F040E636F62
:101AF000C1C069F0C2C06AF0C3C06BF0C4C06CF072
:101B0000000E6E6F000E6D6F6EBF06D06E5142E11B
:101B1000040E6D5DD8B03ED0040E6D25256E000E0E
:101B20006E21266E600E2524D96E000E2620DA6EF8
:101B300069C018F06AC019F06BC01AF06CC01BF0D5
:101B40000A0E1C6E000E1D6E000E1E6E000E1F6E25
:101B5000FDEC13F01850DF6E69C018F06AC019F080
:101B60006BC01AF06CC01BF00A0E1C6E000E1D6ECE
:101B7000000E1E6E000E1F6E57EC12F018C069F0BA
:101B800019C06AF01AC06BF01BC06CF000016D4BFD
:101B90006E2BBAD7600E186E000E196E000E1B6EFB
:101BA000080E1A6E49EC17F00001686F600E196E8E
:101BB000000E1A6E000E1C6E090E1B6E9EEC19F0C4
:101BC00012008FC018F090C019F091C01AF0950E55
:101BD0001B6E000E1C6EC7EC11F0000196AF10D00A
:101BE00091AF07D0000E8F6F800E906FBF0E916F78
:101BF0001200000E8F6F000E906F000E916F12009A
:101C0000965104E1150E955DD8A007D08FC08FF0D6
:101C100090C090F091C091F012008FC078F090C009
:101C200079F091C07AF004EC0CF078C087F079C0BC
:101C300088F07AC089F07BC08AF019EC13F087C075
:101C400092F088C093F089C094F08FC018F090C0D3
:101C500019F091C01AF092C01BF093C01CF094C010
:101C60001DF00FEC12F0D8B016D092C078F093C0EF
:101C700079F094C07AF0000E00017B6F800E7C6FCB
:101C8000BF0E7D6FDBEC08F078C08FF079C090F06C
:101C90007AC091F0120092C08FF093C090F094C07F
:101CA00091F0120089C018F08AC019F0000E1B6E66
:101CB000030E1A6E99EC1AF087C02FF088C030F02E
:101CC00018502F26195030222FC0F6FF30C0F7FFD2
:101CD0000900F5CF8BF00900F5CF8CF00A00F5CFA5
:101CE0008DF03FD08BC06CF08CC06DF08DC06EF06D
:101CF00084C069F085C06AF086C06BF080EC0CF09F
:101D000069C078F06AC079F06BC07AF0000E1B6E83
:101D1000030E1A6E00018907D8A08A0789C018F03F
:101D20008AC019F099EC1AF087C02FF088C030F003
:101D300018502F26195030222FC0F6FF30C0F7FF61
:101D40000900F5CF7BF00900F5CF7CF00A00F5CF54
:101D50007DF0DBEC08F078C08BF079C08CF07AC0B5
:101D60008DF0000189518A11D8A4BCD78BC084F0B2
:101D70008CC085F08DC086F0120000018E518F114D
:101D80009011D8A407D0000E8E6F000E8F6F000E3A
:101D9000906F120090517F0B936F946BD890933794
:101DA000943793519127945192238FAF03D0936B23
:101DB000932B02D00001936B93519127000E922335
:101DC00092AF0BD0000EC66F220EC56F000E8E6F45
:101DD000000E8F6F000E906F120092BF15D092050B
:101DE000D8A012D0000EC66F220EC56F90AF06D0DD
:101DF000FF0E8E6F7F0E8F6FFF0EEDD7FF0E8E6F73
:101E00007F0E8F6F7F0EE7D792359231946F9131AD
:101E1000936F90519319800B9319906F91C093F029
:101E2000010E9317933393338F5193197F0B9319AB
:101E30008F6F8EC08EF08FC08FF090C090F0120028
:101E40000001736F000E0001746F000E756F000EBD
:101E5000766F000E776F6A0E206E000E216E000EF8
:101E6000236E090E226EFEEC1AF0000E00017A6F4E
:101E7000000E796F7ABF06D07A5122E1090E795DA2
:101E8000D8B01ED079516625D96E7A516721DA6EA5
:101E9000DF50786F100E7819D8B412D06A0E7925F9
:101EA000D96E000E7A21DA6E79516625E16E7A518B
:101EB0006721E26EE750300FDF6E794B7A2BDAD76D
:101EC0006A0E246E000E256E000E266E000E276E22
:101ED0007351286E296A28BE290615EC07F024C024
:101EE00074F025C075F026C076F027C077F074C076
:101EF00066F075C067F076C068F077C069F01200D0
:101F0000C00E236E7F0E246E1DC025F01EC026F06D
:101F1000235025162450261625C027F026C028F069
:101F2000296A2A6A000EF2BE010E2B6E27501D1878
:101F300044E128501E1841E129501F183EE12A5063
:101F40002018D8A412001DC018F01EC019F01FC020
:101F50001AF020C01BF0D3EC19F01FC0F8FF1EC010
:101F6000F7FF1DC0F6FF000E2C6E3F0E2C6401D053
:101F700013D02C50010DF3502124D96EF45022209F
:101F8000DA6EDF50F56E3F0E2C18D8A402D00C008C
:101F900001D00D002C2AE9D7A188A68EA69CA68484
:101FA000F29E550EA76EAA0EA76EA682A6942BB01F
:101FB00002D0F29E01D0F28E120012000001856F55
:101FC000010E0001806F000E816F000E826F000E07
:101FD000836F600E206E000E216E0DEC1BF0600E04
:101FE000186E000E196E22C01AF023C01BF024C018
:101FF0001CF025C01DF0A4EC15F0000E0001846F4C
:102000001F0E846501D026D0000E186E855152EC4B
:1020100016F000018451010D600EF324D96E000EFC
:10202000F420DA6EDF50D8B406D0010E186E855158
:1020300027EC16F006D0000E186E0001855127EC33
:1020400016F0010E186E0001855152EC16F00001D9
:10205000842BD6D7210EE82EFED700F0000E186E86
:102060000001855127EC16F0000E186E0001855115
:1020700052EC16F01200E00E2C6EFF0E2D6E460E86
:102080002E6E42C078F043C079F044C07AF045C06B
:102090007BF00001781F791F7A1F7B1F782B000EC1
:1020A00079237A237B23F00E7825206E7F0E792109
:1020B000216E000E7A21226E000E7B21236E4AECE7
:1020C00015F020C029F021C02AF022C02BF0FBEC33
:1020D0000CF029C069F02AC06AF02BC06BF0000E2A
:1020E00000016C6FC80E6D6F420E6E6F80EC0CF0CD
:1020F00069C07CF06AC07DF06BC07EF0000E186E87
:10210000960E196E420E1A6E7CC01BF07DC01CF03C
:102110007EC01DF00FEC12F0D8B002D0010E1200FC
:10212000000E12001B50D8B405D0185019101A1008
:10213000D8A40CD0000E186E000E196E000E1A6E88
:1021400012001B2AD8901A3219321832000E1814B5
:102150001D6E000E19141E6EFE0E1A141F6E1D50F9
:102160001E101F10D8B40CD0ECD71B2A010E182655
:10217000000E1922000E1A22D8901A321932183283
:10218000000E18141D6E000E19141E6EFF0E1A1488
:102190001F6E1D501E101F10D8B406D0E6D71B06A8
:1021A000D890183619361A3619BE03D0020E1B60A5
:1021B000F6D71BA0199ED8901B321B501A121C5028
:1021C000D8A41A8E18C018F019C019F01AC01AF045
:1021D00012002E6EF29E2E50D8B403D02E04D8A436
:1021E00016D0000E186E2E50DBEC18F026C022F030
:1021F00027C023F028C024F029C025F02E50DEECA3
:102200000FF0010E186E2E50DBEC18F02DD0020EE0
:102210002E18D8A429D0000E1CEC1BF0010E2A2485
:102220002C6E2D6A000E2D222DBE1BD02D5003E1E9
:102230002C04D8A016D026C018F027C019F028C04A
:102240001AF029C01BF02C041C6E1CEC15F02B6E30
:102250002BC01AF02E50D0EC15F02C06D8A02D066D
:10226000E3D7010E1CEC1BF0F28E1200F2944750E3
:10227000D76E46C0D6FF354A362A35C001F036C083
:1022800002F0000E046E140E036E60EC18F00150A4
:102290000210D8A403D0010E0001D86F35C001F0A0
:1022A00036C002F0000E046E320E036E60EC18F0C1
:1022B00001500210D8A403D0010E0001D76F35C021
:1022C00001F036C002F0010E046E2C0E036E60ECBD
:1022D00018F001500210D8A403D0010E0001D66FEF
:1022E00035C001F036C002F0010E046E2C0E036EF4
:1022F00060EC18F001C035F002C036F01200260E76
:10230000206E000E216E000E236E090E226EFEEC72
:102310001AF0240E266E020E276E230E286E040E6F
:10232000296E000E306E000E2F6E30BE06D030507B
:1023300018E1040E2F5CD8B014D0040E2F24246EA4
:10234000000E3020256E260E2424D96E000E252086
:10235000DA6E2F50040FD4EC1BF0DF6E2F4A302AB8
:10236000E4D7260E186E000E196E000E1B6E080EB6
:102370001A6E49EC17F02E6E260E196E000E1A6EAC
:10238000000E1C6E090E1B6E9EEC19F01200185008
:1023900019101A10D8A40FD01BC0D9FF1CC0DAFF27
:1023A000000EDE6E000EDD6E000E186E000E196E51
:1023B000000E1A6E12001A507F0B1D6E1E6AD89006
:1023C0001D361E361BC0D9FF1CC0DAFF1DC0DEFF44
:1023D0001EC0DDFF19AE03D01D6A1D2A01D01D6A83
:1023E0001D501BC0D9FF1CC0DAFFDE12000EDD122B
:1023F0001BC0D9FF1CC0DAFF820EDE26FF0EDD22D5
:102400001A801A821A841A861A881A8A1A9C199EA5
:1024100018C018F019C019F01AC01AF012001AAE3C
:1024200016D018C01EF019C01FF01AC020F01E1ED2
:102430001F1E201E1E2A000E1F222022000E1E24F8
:10244000186E000E1F20196E800E20201A6E1DAE11
:1024500016D01BC01EF01CC01FF01DC020F01E1E99
:102460001F1E201E1E2A000E1F222022000E1E24C8
:102470001B6E000E1F201C6E800E20201D6E000E95
:10248000181A000E191A800E1A1A000E1B1A000EC6
:102490001C1A800E1D1A1B50185C1C5019581D5018
:1024A0001A58D8B002D0D8901200D8801200000E6E
:1024B000206E000E216E000E226E000E236E1C5048
:1024C0001D101E101F10D8B42AD0010E246E06D085
:1024D000D8901C361D361E361F36242A1FAEF8D75C
:1024E000D89020362136223623361C50185C1D50D9
:1024F00019581E501A581F501B58D8A009D01C50EC
:10250000185E1D50195A1E501A5A1F501B5A20800F
:10251000D8901F321E321D321C32242EE1D720C02B
:1025200018F021C019F022C01AF023C01BF01200CD
:10253000260E206E000E216E000E236E090E226EF6
:10254000FEEC1AF0240E266E020E276E220E286E66
:10255000040E296E000E2F6E030E2F6401D013D0CF
:102560002F50246E256A040E2426000E2522260EE6
:102570002424D96E000E2520DA6E2F50D4EC1BF0E7
:10258000DF6E2F2AE9D7260E186E000E196E000E88
:102590001B6E080E1A6E49EC17F02E6E260E196E81
:1025A000000E1A6E000E1C6E090E1B6E9EEC19F0CA
:1025B0001200000E1B6E020E1A6E000E61EC14F07B
:1025C0001AC02FF01BC030F0440E266E230E276E6B
:1025D000000E286E000E296E010E2A6E020EE9EC26
:1025E00010F0440E266E630E276E000E286E000E4D
:1025F000296E010E2A6E020EE9EC10F0440E266ED2
:10260000A30E276E000E286E000E296E010E2A6E94
:10261000020EE9EC10F0440E266EE30E276E000E5B
:10262000286E000E296E010E2A6E020EE9EC10F0E3
:102630001200000E306E8E0E2F6E00018AAF11D088
:102640008A1F891F881F876D000E882389238A238C
:10265000010E306E06D0D8908A33893388338733A1
:102660002F2A000E87158B6F000E88158C6F000EB9
:1026700089158D6FFF0E8A158E6F8B518C118D1100
:102680008E11D8A4E8D787C018F088C019F089C087
:102690001AF02FC01BF030C01CF092EC10F018C0E4
:1026A00087F019C088F01AC089F01200000EF66E8B
:1026B000370EF76E000EF86E00EEEDF010EE10F033
:1026C0000900F5CFEEFFE550E150FAE1B20EF66EEB
:1026D000370EF76E000EF86E00EE42F010EE04F0CA
:1026E0000900F5CFEEFFE550E150FAE101EE00F010
:1026F000C20EEE6AE806FDE100EEC1F02C0EEE6AB5
:10270000E806FDE100EE31F0110EEE6AE806FDE1AB
:1027100048904892000EF86E000130EF14F02FC080
:1027200066F030C067F0100E20EC0FF066C08AF043
:1027300067C08BF08AC026F08BC027F0286A296A10
:10274000010E2A6E020EE9EC10F08AC086F08BC0F2
:1027500087F00E0E0001886FD89087338633882F5C
:10276000FBD78651896F8AC021F08BC022F0236A83
:10277000246A8951100F256E000E276E020E266EF8
:10278000F9EC18F0610E246E060EF8EC16F012004B
:10279000000E2E6E000E2D6E2EBE06D02E5027E19E
:1027A0000A0E2D5CD8B023D08B80820E2C6EDE0EEC
:1027B000E82EFED72C2EFCD78A88820E2C6EDE0ED9
:1027C000E82EFED72C2EFCD78B90820E2C6EDE0EC0
:1027D000E82EFED72C2EFCD78A98820E2C6EDE0EA9
:1027E000E82EFED72C2EFCD72D4A2E2AD5D7150E33
:1027F000246E010EF8EC16F012001C501D101E1075
:102800001F10D8B424D0010E206E06D0D8901C36EC
:102810001D361E361F36202A1FAEF8D71C50185CF6
:102820001D5019581E501A581F501B58D8A008D0B8
:102830001C50185E1D50195A1E501A5A1F501B5A10
:10284000D8901F321E321D321C32202EE7D718C0FE
:1028500018F019C019F01AC01AF01BC01BF01200B2
:10286000CAEC1BF04EEC1BF0C4EC1BF0030E90EC1A
:1028700014F01EEC05F00001D805D8A406D0FCEC3D
:1028800017F0000E0001D86FF4D7D705D8A410D0E8
:1028900037EC1BF03BEC10F0E806D8A403D0040E94
:1028A000BFEC14F000EC08F0000E0001D76FE1D788
:1028B000D605D8A4DED7BEEC1BF0000E0001D66F03
:1028C000D8D7266E000E226E000E236E000E246EE8
:1028D000000E256E020E1A181B10D8A418D0265010
:1028E000D4EC1BF01E6E1E50206E1F6A2628D4ECFE
:1028F0001BF0216E21501F12000E20121FC022F06B
:1029000020C023F0000E23BEFF0E246E256E22C0D1
:102910001AF023C01BF024C01CF025C01DF01200CB
:102920001B6E000E1D6E000E1C6E1B50186E196A79
:1029300018501C5C1D50800A1A6E1950800A1A58D3
:10294000D8B012008B90020E196E040E186EBA0EDB
:10295000E82EFED7182EFCD7192EFAD700D08B8080
:10296000020E196E040E186EBA0EE82EFED7182E3F
:10297000FCD7192EFAD700D01C4A1D2AD6D71B6EB9
:10298000000E1D6E000E1C6E1B50186E196A18503A
:102990001C5C1D50800A1A6E1950800A1A58D8B053
:1029A00012008A98020E196E040E186EBA0EE82EE6
:1029B000FED7182EFCD7192EFAD700D08A88020E1F
:1029C000196E040E186EBA0EE82EFED7182EFCD71C
:1029D000192EFAD700D01C4A1D2AD6D70001BF6F86
:1029E0001CD0C2C118F0C3C119F0E3EC1BF01200F7
:1029F000C2C118F0C3C119F0E3EC1BF01200C2C150
:102A00002FF0C3C130F07DEC16F01200C2C12FF0E0
:102A1000C3C130F0A6EC16F012000001BF51400A0D
:102A2000D8B4DFD7010AD8B4E3D7030AD8B4E7D7BC
:102A3000010AD8A41200EAD71FD01850120019506A
:102A400012001A501200000E18141D6E000E1914F8
:102A50001E6E000E1A141F6EFF0E1B14206E190E30
:102A600005D0D89020321F321E321D32E82EF9D701
:102A70001D501200000E12001C50000AD8B4DDD701
:102A8000010AD8B4DCD7030AD8B4DBD7010AD8B41A
:102A9000DAD7F0D78E0E286E06D0D89023322232A5
:102AA00021322032282A000E2014246E000E211418
:102AB000256E000E2214266EFF0E2314276E24505E
:102AC000251026102710D8A4E8D720C018F021C060
:102AD00019F022C01AF028C01BF0000E1C6E92ECF8
:102AE00010F018C020F019C021F01AC022F0120016
:102AF0000001BF6F17D098EC12F01200C2C12CF089
:102B0000C3C12DF04DEC19F012007FEC11F0120052
:102B1000C2C12CF0C3C12DF01EEC18F012006FECF6
:102B20000DF012000001BF51210AD8B4F8D7030AF2
:102B3000D8B4E1D7010AD8B4E8D7070AD8B4DED7A9
:102B4000010AD8A41200E4D7000E216E000E206EF8
:102B500021BE06D0215023E1210E205CD8B0120006
:102B6000010E20241E6E000E21201F6E1E1E1F1E31
:102B70001E4A1F2A200E1E26000E1F221E50182439
:102B8000D96E1F501920DA6E1A50010BDF6ED890E3
:102B90001D321C321B321A32204A212AD9D7120088
:102BA0001C6E080E1B6E1AD0010E186E1C5052ECD3
:102BB00016F01AAE06D0010E186E1C5027EC16F057
:102BC00005D0000E186E1C5027EC16F0000E186E83
:102BD0001C5052EC16F01B06D8901A361B50D8A485
:102BE000E3D7000E186E1C5027EC16F0000E186E7E
:102BF0001C5052EC16F01200000E206E000E216EDA
:102C0000000E226E000E236E18A008D01C50202645
:102C10001D5021221E5022221F502322D8901C36E4
:102C20001D361E361F36D8901B321A321932183212
:102C3000185019101A101B10D8A4E6D720C018F08D
:102C400021C019F022C01AF023C01BF01200196E27
:102C50001ED01804D8A402D08C8012001850D8A41A
:102C600012008C9012001804D8A402D08B8A120093
:102C70001850D8A412008B9A12001804D8A402D0BD
:102C8000898812001850D8A412008998120019508F
:102C9000000AD8B4DED7010AD8B4E5D7030AD8A40D
:102CA0001200EBD7196E1ED01804D8A402D08B8660
:102CB00012001850D8A412008B9612001804D8A441
:102CC00002D08B8812001850D8A412008B981200E2
:102CD0001804D8A402D0898612001850D8A4120073
:102CE000899612001950000AD8B4DED7010AD8B468
:102CF000E5D7030AD8A41200EBD7070E3B601ED01D
:102D00002FC066F030C067F00A0E20EC0FF066C0EE
:102D100086F067C087F068C088F069C089F086C017
:102D200026F087C027F088C028F089C029F0030E5C
:102D30002A6E000EE9EC10F03B2A1200000E3B6EEA
:102D4000420E246E040EF8EC16F01200070E3B60E3
:102D50001ED02FC066F030C067F00A0E20EC0FF0D6
:102D600066C086F067C087F068C088F069C089F0E7
:102D700086C026F087C027F088C028F089C029F0D7
:102D8000030E2A6E010EE9EC10F03B2A1200000E31
:102D90003B6E430E246E040EF8EC16F01200000E8B
:102DA000426E400E436E000E446E000E456E000EE5
:102DB0000001F96F400EFA6F000EFB6F000EFC6F02
:102DC000000E316E000E326E000E336E000E346E49
:102DD0006E0E206E010E216E000E236E200E226EEE
:102DE000FEEC1AF0510E246E050EF8EC16F01200EF
:102DF000256E260E206E000E216E000E236E060E2E
:102E0000226EFEEC1AF0240E266E25C027F024C098
:102E100028F0000E296E260E186E000E196E000E98
:102E20001B6E050E1A6E49EC17F02B6E260E196EEE
:102E3000000E1A6E000E1C6E060E1B6E9EEC19F034
:102E40001200800E626E010E186E000EBDEC18F0BE
:102E5000000E2F6E0C0E2F6401D012002F50040DA7
:102E6000010EF324F66E060EF420F76E0900F5CF7E
:102E700026F00900F5CF27F00900F5CF28F00A0069
:102E8000F5CF29F0030E2A6E000EE9EC10F02F2A80
:102E9000E1D7000E1E6E000E1D6E000E206E000E9D
:102EA0001F6E0ED01F501824D96E20501920DA6ED4
:102EB000DF501C6E1C501D26000E1E221F4A202AA9
:102EC0001A501F5C2050800A1C6E1B50800A1C5830
:102ED000D8A0E8D7FF0E1D16000E1E161D501200BA
:102EE0000001BF6F15D0C2C12CF0C3C12DF0B8ECEA
:102EF0001BF01200C2C12CF0C3C12DF0EDEC19F093
:102F00001200C2C12CF0C3C12DF0B2EC1BF01200B4
:102F10000001BF51310AD8B4E6D7030AD8B4EAD7C2
:102F2000010AD8A41200EDD7000E8D6E000E8C6E33
:102F3000060E896E000E8A6E000E8B6E070E966E60
:102F4000E10E926EEF0E936E800E946EF20E956E01
:102F5000340E0F013A6F320E396FE40E3B6F070EDD
:102F60003C6F2F0E386FC30E616EF19EF286120019
:102F70000001C06F13D0CFEC16F0120001EC0BF083
:102F80001200C2C1D9FFC3C1DAFFDF500001BF6F19
:102F9000BF512C6E2D6A3DEC03F012000001C051B0
:102FA000510AD8B4E8D7030AD8B4E8D7010AD8A49C
:102FB0001200E7D7000E1A6E000E196E0001D351F1
:102FC000D8A402D0195012003750010D460EF32438
:102FD000D96E010EF420DA6EDF50186E1850196E9B
:102FE0001A6A372A270E376402D0000E376E9D9A70
:102FF000D3079D8A19501200010E0001C127000E4F
:10300000C223C323C423C1C018F0C2C019F0C3C077
:103010001AF0C4C01BF0800E1C6E430E1D6E000E15
:103020001E6E000E1F6EFDEC13F018C0C1F019C02B
:10303000C2F01AC0C3F01BC0C4F01200000E2F6E05
:10304000000E2E6E2FBE06D02F5013E1040E2E5C04
:10305000D8B00FD02E502C24D96E2F502D20DA6EE0
:10306000DF501B6E2E50040F90EC1BF02E4A2F2ABF
:10307000E9D7250E246E020EF8EC16F012000001BE
:10308000875188118911D8B406D0000E871B000E15
:10309000881B800E891B84C078F085C079F086C0BB
:1030A0007AF087C07BF088C07CF089C07DF0DBECD3
:1030B00008F078C084F079C085F07AC086F01200FC
:1030C00003500410D8B418D0010E056E04D0D89067
:1030D00003360436052A04AEFAD70350015C0450C7
:1030E0000258D8A004D00350015E0450025AD89070
:1030F00004320332052EF1D701C001F002C002F004
:1031000012000001BF6F09D0C8EC13F0120097EC59
:103110001BF01200ACEC1BF012000001BF51110AB1
:10312000D8B4F5D7030AD8B4F5D7010AD8B4120039
:10313000070AD8B41200010AD8A41200E5D7186E05
:103140000001FF51D8B4FCD79DB803D018C0ADFF23
:1031500012D09D983A50010D000EF324D96E010E45
:10316000F420DA6E18C0DFFF3A2A450E3A6402D026
:10317000000E3A6EFF079D881200196E14D01804D5
:10318000D8A402D08B8212001850D8A412008B92BF
:1031900012001804D8A402D08C8412001850D8A4AD
:1031A00012008B9212001950000AD8B4E8D7010A15
:1031B000D8A41200EED7196E14D01804D8A402D0E7
:1031C0008B8412001850D8A412008B94120018049B
:1031D000D8A402D08C8612001850D8A412008C9665
:1031E00012001950000AD8B4E8D7010AD8A4120076
:1031F000EED726C029F015D021C018F022C019F052
:1032000023C01AF024C01BF029041C6E1CEC15F01E
:10321000286E28C01BF029500008252490EC1BF0D4
:1032200029062950D8B41200E7D7000E236E21AE2C
:1032300006D0206C211ED8B0212A010E236E20C09A
:1032400018F021C019F01A6A8E0E1B6E23C01CF0F4
:1032500092EC10F018C020F019C021F01AC022F032
:103260001200460E0001FF6112D03950010D000E10
:10327000F324D96E010EF420DA6EDF50AD6E392AD8
:10328000450E396402D0000E396EFF2B12009D9856
:10329000000E396E000E3A6E1200000E2E6E030EF6
:1032A0002E6401D00FD02E50010DF3502C24D96E76
:1032B000F4502D20DA6EDF501B6E2E5090EC1BF078
:1032C0002E2AEDD7240E246E020EF8EC16F0120012
:1032D000196E000EF2BE010E1A6E19C0A9FF18C0B9
:1032E000A8FFA69EA69CA684F29E550EA76EAA0EC7
:1032F000A76EA682A6B2FED7A6941AB002D0F29EFE
:1033000001D0F28E12009D9A9D98080EB86E900E14
:10331000AB6E240EAC6E100EAF6E000EB06E000ED3
:103320003A6E000E396E460E0001FF6F000E386EC9
:10333000000E376E000ED36F9D8A1200000E1F6EB6
:10334000000E1E6E0BD01E501924D96E1F501A206D
:10335000DA6EDF509FEC18F01E4A1F2A1B501E5CCD
:103360001F50800A1D6E1C50800A1D58D8B01200D4
:10337000EAD73C0ED76EAF0ED66ED650D7CF1AF026
:103380001B6A1AC01BF01A6A1A10466E1B50476E51
:10339000F294F28A000E186E000E196ECFEC1BF03C
:1033A000900ED56E1200000EF2BE010E1C6E1AC0F9
:1033B000F8FF19C0F7FF18C0F6FFA68EA69CA684DA
:1033C000A688F29E550EA76EAA0EA76EA6821CB006
:1033D00002D0F29E01D0F28E12002CC0D9FF2DC077
:1033E000DAFFDF503D6E3D04D8A409D020EE01F095
:1033F0002C50D9262D50DA22DF500001D46F320E26
:10340000246E030EF8EC16F012001C6E1CC01AF0AD
:103410001A461A46C2501A18830B1A18C26EC28076
:10342000C282C2B2FED7C4501B6E1A6AC3501A249D
:10343000186E000E1B20196E1200ABA202D0AB98C2
:10344000AB883850010D460EF324D96E010EF420DE
:10345000DA6EAECFDFFF382A270E386402D0000EB6
:10346000386E0001D32B120018C01EF019C01FF0D7
:1034700008D01EC0D9FF1FC0DAFF1AC0DFFF1E4AE6
:103480001F2A1C06D8A01D061C28F3E11D28D8B44D
:103490001200EFD7000E0001CF6F000ECD6F000EAF
:1034A000CC6F000ECB6FD90E206E000E216E000E79
:1034B000236E140E226EFEEC1AF0120019AE0DD01F
:1034C00018C01AF019C01BF01A1E1B1E1A4A1B2A1C
:1034D0001AC018F01BC019F0120018C018F019C05B
:1034E00019F012001D6E010E1C6E7B0E1D6003D0C4
:1034F000610E1D6007D01D50EFEC1AF0D8B002D05D
:10350000000E1C6E1CC01BF01B3012001A6E010E48
:10351000196E200E1A18D8B408D00E0E1A6003D0F7
:10352000090E1A6002D0000E196E19C018F018307A
:10353000120018501A02F3CF1CF0F4CF1DF01850EF
:103540001B02F3501D2619501A02F3501D261CC0F1
:1035500018F01DC019F01200185019101A10D8B424
:1035600006D0000E181A000E191A800E1A1A18C06A
:1035700018F019C019F01AC01AF0120020C018F083
:1035800021C019F01A6A8E0E1B6E000E1C6E92EC92
:1035900010F018C020F019C021F01AC022F012005B
:1035A0000001BF6F07D0C2C12FF0C3C130F08FEC54
:1035B00013F012000001BF51610AD8A41200F3D722
:1035C0001A6E000E196E3A0E1A6005D02F0E1A648C
:1035D00002D0010E196E19C018F0183012001A6EC0
:1035E000000E196E5B0E1A6005D0400E1A6402D0F0
:1035F000010E196E19C018F01830120020C018F012
:1036000021C019F0000E1B6E000E1A6E22C01CF0B5
:1036100023C01DF034EC1AF0120020C018F021C0B5
:1036200019F0000E1B6E000E1A6E000E1D6E200E9D
:103630001C6E34EC1AF01200186E04D0899412003B
:10364000898412001850000AD8B4F8D7010AD8A407
:103650001200F6D7DBEC1BF094EC17F09EEC1BF09D
:1036600043EC1BF0B9EC19F083EC19F012008BB0AD
:1036700003D0186A182A01D0186A8B501818FE0B4C
:1036800018188B6E1200050EC26E000EC16E870EEA
:10369000C06E000EC36E000EC46E120088EC1BF0EC
:1036A000DDEC1BF021EC17F06DEC1BF0D9EC12F007
:1036B0001200186E7B0E186004D0600E186401D0E2
:1036C000189A18501200186E18C0A9FFA69CA69E42
:1036D000A68000F000F0A8501200000E0001C16F9B
:1036E000000EC26F000EC36F000EC46F12001AC02E
:1036F000F8FF19C0F7FF18C0F6FF0800F5501200D8
:103700000231F02AE02EDC29702FA03500400000A5
:10371000000E0001D56F000E3D6E000E186E1200F7
:103720001C6E1BC018F01C5068EC19F01200110E32
:10373000246E010EF8EC16F0FF001200600ED36E3E
:10374000040ED26E800E9B6E1200A6A201D002D093
:10375000010E1200000E1200120E246E010EF8EC83
:1037600016F01200330E246E030EF8EC16F0120061
:10377000310E246E030EF8EC16F01200160E246EB5
:10378000010EF8EC16F01200100E246E010EF8EC8B
:1037900016F012002AEC1BF0F28EF28C120018C008
:1037A000FDF019C0FEF01200196E195063EC1BF009
:1037B000120000400000D09E1200D58E1200F29040
:0837C0001200A1981200120092
:020000040020DA
:08000000FFFFFFFFFFFFFFFF00
:020000040030CA
:0E000000FF281838FFBF80FF0FC00FE00F4031
:00000001FF
