:040000006EEF00F0AF
:100008004882FACF06F0FBCF07F0E9CF08F0EACF35
:1000180009F0E1CF0AF0E2CF0BF0D9CF0CF0DACF3C
:100028000DF0F3CF0EF0F4CF0FF0F6CF10F0F7CFBE
:1000380011F0F8CF12F0F5CF13F048C014F049C012
:1000480015F04AC016F04BC017F0F2B6F2A003D074
:1000580087EC20F019D0F2BAF2A403D0BCEC16F069
:1000680013D0F2AC11D0A0B8A1A803D0DCEC20F0DA
:100078000BD09DB89EA803D054EC1EF005D09DBAB5
:100088009EAA02D005EC1FF017C04BF016C04AF02C
:1000980015C049F014C048F013C0F5FF12C0F8FFAE
:1000A80011C0F7FF10C0F6FF0FC0F4FF0EC0F3FF3A
:1000B8000DC0DAFF0CC0D9FF0BC0E2FF0AC0E1FF98
:1000C80009C0EAFF08C0E9FF07C0FBFF06C0FAFF46
:0800D80048921100B6EF17F089
:10060000001C0401000B3061003A19C000C9FC1045
:100610001128042D10E700001276600035250080B7
:100620000084BF0008030000001200000001000069
:100630000C8006200004080C0010001400000018B4
:1006400000000405060708090A0D19442344634401
:10065000A344E30204060800803F72313FFE753E6A
:1006600058633D951D3CC5AE3A7921399480379346
:10067000A73556153400000000803FF0FFBEE2A908
:100680003E8376BEAE2B3E3CC3BDD2133D78D3BB7A
:100690004D617220323320323031380032323A33F9
:1006A000303A31380000000E0001606F000E616FBB
:1006B000000E626F000E636F640E206E000E216EDE
:1006C000000E236E120E226E06EC20F0240E0001A6
:1006D000646F020E656F220E666F0D0E676FD00E8F
:1006E000246EFF0E256E970EF66E060EF76E08004E
:1006F000F5CF26F0D00E2624186E196AFF0E1922A7
:10070000030E1B6EE80E1A6E6DEC1FF09A0EF66E5D
:10071000060EF76E0800F550276E286A1850272637
:1007200019502822980EF66E060EF76E0800F5CFC7
:1007300029F0D00E2924186E196AFF0E1922000E16
:100740001B6E640E1A6E6DEC1FF0185027261950A0
:100750002822990EF66E060EF76E0800F5CF2AF0E5
:10076000D00E2A24186E196AFF0E1922000E1B6E75
:100770000A0E1A6E6DEC1FF0185027261950282209
:10078000245027262550282228C027F0286A2750E1
:100790000001686F9A0EF66E060EF76E0800F5CF30
:1007A00024F0990EF66E060EF76E0800F550D00F85
:1007B0000A0DF3CF25F0980EF66E060EF76E0800C0
:1007C000F5CF26F0D00E2624186E196AFF0E1922D6
:1007D000000E1B6E640E1A6E6DEC1FF0970EF66E17
:1007E000060EF76E0800F550D00FE80DF3501824F0
:1007F00025242424D00F0001696F900EF66E060E9A
:10080000F76E0800F5CF6AF0910EF66E060EF76EE1
:100810000800F5CF6BF0920EF66E060EF76E08002C
:10082000F5CF6CF0940EF66E060EF76E300E0800E3
:10083000F56005D0000E776F000E766F17D0940E1E
:10084000F66E060EF76E0800F5CF24F0D00E2424C5
:10085000186E196AFF0E1922000E1B6E0A0E1A6E10
:100860006DEC1FF018C076F019C077F0D00E246E32
:10087000FF0E256E950EF66E060EF76E0800F5500B
:1008800000017625266E000E7721276E245026263D
:100890002550272227C026F0276A26506D6F940E18
:1008A000F66E060EF76E300E0800F56005D0000EED
:1008B000796F000E786F17D0940EF66E060EF76EF5
:1008C0000800F5CF24F0D00E2424186E196AFF0E0C
:1008D0001922000E1B6E0A0E1A6E6DEC1FF018C066
:1008E00078F019C079F0950EF66E060EF76E0800D6
:1008F000F55000017825D00F6E6FD00E246EFF0EDC
:10090000256E9C0EF66E060EF76E0800F5CF26F0EB
:10091000D00E2624186E196AFF0E1922000E1B6EC7
:100920000A0E1A6E6DEC1FF09D0EF66E060EF76E37
:100930000800F5501826000E1922245018262550BC
:10094000192219C018F0196A185000016F6F9D0E16
:10095000F66E060EF76E0800F5CF24F09C0EF66ECC
:10096000060EF76E0800F550D00F0A0DF350242440
:10097000D00F706FD00E246EFF0E256E9F0EF66E98
:10098000060EF76E0800F5CF26F0D00E2624186E5E
:10099000196AFF0E1922000E1B6E0A0E1A6E6DECFC
:1009A0001FF0A00EF66E060EF76E0800F550182622
:1009B000000E1922245018262550192219C018F0AB
:1009C000196A18500001716FA00EF66E060EF76ED0
:1009D0000800F5CF24F09F0EF66E060EF76E0800A5
:1009E000F550D00F0A0DF3502424D00F726FD00EA3
:1009F000246EFF0E256EA20EF66E060EF76E080030
:100A0000F5CF26F0D00E2624186E196AFF0E192293
:100A1000000E1B6E0A0E1A6E6DEC1FF0A30EF66E22
:100A2000060EF76E0800F5501826000E1922245005
:100A300018262550192219C018F0196A18500001FB
:100A4000736FA30EF66E060EF76E0800F5CF24F056
:100A5000A20EF66E060EF76E0800F550D00F0A0DC6
:100A6000F3502424D00F746F640E186E000E196EAC
:100A7000000E1B6E110E1A6E8AEC1CF00001756FD1
:100A8000640E196E000E1A6E000E1C6E120E1B6E96
:100A90001EEC1EF012000001CC6F010E186E00015A
:100AA000CC5156EC1DF0000E0001CE6F000EC86F49
:100AB000000EC96F000ECA6F000ECB6F000ECD6F17
:100AC0000C0ECD6501D01200CD2900080D0FCE6FA0
:100AD000CE51D8B413D0CE05D8B410D0020ECE1952
:100AE000D8B40CD0040ECE19D8B408D0060ECE1946
:100AF000D8B404D00A0ECE19D8A4EBD0CC51D8A4C7
:100B000071D0000EB26F040EB16FCE51010D350ED3
:100B1000F324F66E060EF420F76E0800F550A9ECEB
:100B20000EF0B1C0C8F0B2C0C9F0B3C0CAF0B4C0D2
:100B3000CBF00001C82947E1C92945E1CA2943E1B1
:100B4000CB29D8A440D0CD51040D010EF324F66E6C
:100B5000060EF420F76E0900F5CF29F00900F5CF55
:100B60002AF00900F5CF2BF00A00F5CF2CF0030E88
:100B70002D6ECC5112EC17F00001CD51040D010E79
:100B8000F324F66E060EF420F76E0900F5CF21F07F
:100B90000900F5CF22F00900F5CF23F00A00F5CFC8
:100BA00024F0CE51010D350EF324F66E060EF4201E
:100BB000F76E0800F5CF25F0000E276E040E266EA6
:100BC000CBEC1DF0A0D0C8C029F0C9C02AF0CAC023
:100BD0002BF0CBC02CF0030E2D6E0001CC5112EC8B
:100BE00017F091D00001CC05D8A48DD0000EB26FC3
:100BF000040EB16FCE51010D350EF324F66E060EC4
:100C0000F420F76E0800F5502009A9EC0EF0B1C0F1
:100C1000C8F0B2C0C9F0B3C0CAF0B4C0CBF0000194
:100C2000C82948E1C92946E1CA2944E1CB29D8A409
:100C300041D0CD51040D010EF324F66E060EF420C2
:100C4000F76E0900F5CF29F00900F5CF2AF0090069
:100C5000F5CF2BF00A00F5CF2CF0030E2D6ECC5102
:100C600012EC17F00001CD51040D010EF324F66EC5
:100C7000060EF420F76E0900F5CF21F00900F5CF3C
:100C800022F00900F5CF23F00A00F5CF24F0CE5171
:100C9000010D350EF324F66E060EF420F76E0800F3
:100CA000F5502009256E000E276E040E266ECBEC43
:100CB0001DF029D0C8C029F0C9C02AF0CAC02BF045
:100CC000CBC02CF0030E2D6E0001CC5112EC17F0AE
:100CD0001AD00001CD51040D010EF324F66E060E5C
:100CE000F420F76E0900F5CF29F00900F5CF2AF0BE
:100CF0000900F5CF2BF00A00F5CF2CF0030E2D6E76
:100D0000CC5112EC17F00001CD2BDAD6000E000109
:100D1000BF6F000EBE6F000EC06F000EB86F000EEA
:100D2000B76F000EBA6F000EB96F3A50D8A4A3D0B7
:100D3000000EC06F080EC06501D06DD0C051010D0E
:100D4000420EF324F66E060EF420F76E0800F550FE
:100D5000EDEC1EF018C0B3F019C0B4F0000E0001A5
:100D6000A36F200EA46F410EA56F000EA06F000EA2
:100D7000A16F400EA26FEBEC0DF0A0C0BBF0A1C0C4
:100D8000BCF0A2C0BDF0C00E00016C6F500E6D6FC4
:100D9000450E6E6FBBC02CF0BCC02DF0BDC02EF058
:100DA000B3C020F0B4C021F0A4EC1FF020C029F0A3
:100DB00021C02AF022C02BF044EC12F029C069F0C7
:100DC0002AC06AF02BC06BF0C9EC11F069C078F052
:100DD0006AC079F06BC07AF0D2EC10F078C0BEF047
:100DE00079C0BFF0BEC02DF0BFC02EF00001C029F9
:100DF0002F6E53EC10F0030E0001B26F8A0EB16F2C
:100E0000550EE82EFED7B12FFCD7B22FFAD700D05F
:100E10000001C02B8FD7A00E186E010E196E000EA8
:100E20001B6E0C0E1A6ED7EC18F018C0B7F019C074
:100E3000B8F0B7C02DF0B8C02EF00001C0292F6E59
:100E400053EC10F0940E186E010E196E000E1B6E0E
:100E50000C0E1A6ED7EC18F018C0B9F019C0BAF021
:100E6000B9C02DF0BAC02EF00001C051020F2F6E94
:100E700053EC10F012003A04D8A412000001F9510A
:100E8000010D420EF324F66E060EF420F76E0800F4
:100E9000F550EDEC1EF018C0B5F019C0B6F0000E1C
:100EA0000001A36F200EA46F410EA56F000EA06F6E
:100EB000000EA16F400EA26FEBEC0DF0A0C0BBF0D6
:100EC000A1C0BCF0A2C0BDF0C00E00016C6F500EFE
:100ED0006D6F450E6E6FBBC02CF0BCC02DF0BDC059
:100EE0002EF0B5C020F0B6C021F0A4EC1FF020C059
:100EF00029F021C02AF022C02BF044EC12F029C0C6
:100F000069F02AC06AF02BC06BF0C9EC11F069C01F
:100F100078F06AC079F06BC07AF0D2EC10F078C04B
:100F2000BEF079C0BFF0BEC02DF0BFC02EF0010EE4
:100F30002F6E53EC10F01200000197519811991187
:100F4000D8A407D0000E976F800E986F3F0E996F50
:100F50001200720E186E310E196E440E1A6E97C082
:100F60001BF098C01CF099C01DF049EC18F0D8B0E7
:100F70000CD0000E0001EA6F220EE96FFF0E976F92
:100F80007F0E986F7F0E996F120097C018F098C06F
:100F900019F099C01AF0490E1B6E3A0E1C6EC40E61
:100FA0001D6E49EC18F0D8B00CD0000E0001EA6FAD
:100FB000220EE96F000E976F000E986F000E996F6A
:100FC0001200000199AF02D0010E01D0000E9F6FF8
:100FD0009F51D8B40ED097C018F098C019F099C09E
:100FE0001AF092EC1FF018C097F019C098F01AC0D0
:100FF00099F097C069F098C06AF099C06BF0AA0E9A
:1010000000016C6FB80E6D6F3F0E6E6FC9EC11F082
:1010100069C097F06AC098F06BC099F097C08FF0E4
:1010200098C090F099C091F00EEC14F08FC09AF037
:1010300090C09BF091C09CF09AC078F09BC079F072
:101040009CC07AF0D2EC10F078C09DF079C09EF090
:1010500097C084F098C085F099C086F09DC020F0BC
:101060009EC021F0E7EC1DF020C087F021C088F081
:1010700022C089F0F5EC1CF084C097F085C098F090
:1010800086C099F097C084F098C085F099C086F02A
:10109000570E0001876F060E886F000E8A6F090ECB
:1010A000896F7FEC14F084C08EF085C08FF086C00D
:1010B00090F09DC091F09EC092F04DEC15F08EC066
:1010C00097F08FC098F090C099F000019F51D8B46C
:1010D00025D097290EE17F0E98190BE17F0E991903
:1010E000D8A407D0000E976F000E986F000E996F6E
:1010F0001200000E296E800E2A6E3F0E2B6E97C0D6
:101100002CF098C02DF099C02EF044EC12F029C0BC
:1011100097F02AC098F02BC099F0120097C097F072
:1011200098C098F099C099F01200000E0101D06F9C
:10113000D9D0040E0001F8651200010EF76F1200FD
:1011400032EC1FF0000E0001F16F010EF8650ED0B9
:10115000B1EC1CF00101D06FD0C180F1240ED01988
:10116000D8A41200020E0001F76F1200000EF76FF4
:101170001200010EF8651200B1EC1CF00001F66FD0
:10118000F6C081F1030EF76F1200010EF865120030
:10119000B1EC1CF00001F56FF5C082F1040EF76FA1
:1011A0001200010EF8651200B1EC1CF00001F46FA2
:1011B000F4C083F1F451D8A403D0060EF76F1200E7
:1011C000050EF76F1200F451F85DD8A012006C0EF6
:1011D000206E010E216E000E236E140E226E06ECA0
:1011E00020F0000E0101CF6F000ECE6F20D0B1ECC9
:1011F0001CF00101D06F0001F151DD6FDE6B040EB8
:10120000DD27000EDE23800EDD25D96E010EDE21E6
:10121000DA6ED0C1DFFFF12B6C0E0101CE25D96E45
:10122000010ECF21DA6ED0C1DFFFCE4BCF2B0001F4
:10123000F451DD6FDE6BDD510101CE5DCF51800ACF
:101240000001DF6FDE51800ADF59D8A0D0D7060E2B
:10125000F76F1200F851D8B41200B1EC1CF0000185
:10126000F26F800E186E010E196E040EF1251A6EC3
:101270001B6A000E1B228AEC1CF00001F36FF35175
:10128000F219D8A403D0070EF76F1200000EF76F03
:101290001200FE0EDD6FFF0EDE6FF651DF6FE06BAA
:1012A000D890DF37E037DD51DF27DE51E023D10E64
:1012B000DF25D96E010EE021DA6E01D80FD00500CE
:1012C000FA6EDE50FD6EDE50FE6EF850FF6EFA5084
:1012D0006C0EDA6F010EDB6FF5511200000E00018B
:1012E000F76F12000001F751000AD8B422D7010AA3
:1012F000D8B426D7030AD8B43CD7010AD8B445D706
:10130000070AD8B44ED7010AD8B45DD7030AD8B4B7
:10131000A1D7010AD8A41200BCD70101BF6F000EEB
:101320000101CC6F000ECD6FAC0E206E010E216E50
:10133000000E236E120E226E06EC20F0240E010128
:10134000AC6F040EAD6F0C0EAF6FBF51D8A43AD086
:10135000470EAE6F000E0001B26F040EB16F350E76
:10136000F66E060EF76E0800F550A9EC0EF0B1C04F
:10137000C0F1B2C0C1F1B3C0C2F1B4C0C3F1000E3C
:101380000001B26F040EB16F360EF66E060EF76EE8
:101390000800F550A9EC0EF0B1C0C4F1B2C0C5F11F
:1013A000B3C0C6F1B4C0C7F1000E0001B26F040EA5
:1013B000B16F370EF66E060EF76E0800F550A9EC09
:1013C0000EF040D00101BF05D8A444D0460EAE6F48
:1013D000000E0001B26F040EB16F350EF66E060EF0
:1013E000F76E0800F5502009A9EC0EF0B1C0C0F16D
:1013F000B2C0C1F1B3C0C2F1B4C0C3F1000E00016C
:10140000B26F040EB16F360EF66E060EF76E080060
:10141000F5502009A9EC0EF0B1C0C4F1B2C0C5F17D
:10142000B3C0C6F1B4C0C7F1000E0001B26F040E24
:10143000B16F370EF66E060EF76E0800F5502009F4
:10144000A9EC0EF0B1C0C8F1B2C0C9F1B3C0CAF185
:10145000B4C0CBF1000E0101CC6F020ECC6501D0FF
:1014600032D0000ECD6F040ECD6501D02AD0CC5104
:10147000040DC00EF324D96E010EF420DA6EDECF17
:1014800018F0DECF19F0DECF1AF0DECF1BF0CDC1A1
:101490001CF003EC1BF00101BE6FCC51040DCD51CB
:1014A000F326000EF422040EF326000EF422AC0EF6
:1014B000F324D96E010EF420DA6EBEC1DFFFCD2B0E
:1014C000D2D7CC2BCAD7090EBC6FAC0E186E010E4A
:1014D000196E000E1B6E110E1A6E8AEC1CF00101C3
:1014E000BD6FAC0E196E010E1A6E000E1C6E120E40
:1014F0001B6E1EEC1EF01200000E0201546F000E57
:10150000536F000E466F000E456F000E566F000EB3
:10151000556F87C066F088C067F00A0E2DEC0DF09D
:1015200022EE47F0070EEBCFDBFFE806FCE247C2F6
:1015300055F248C256F2A4EC20F00009D8B41200CB
:101540003F503B5C40503C5841503D5842503E5803
:10155000D8B033D055C289F056C28AF0000E0001CF
:101560008ABFFF0E8B6F8C6FE551895DE6518A59FA
:10157000E7518B59E8518C59D8B00BD055C24FF276
:1015800056C250F20201000E50BFFF0E516F526F53
:1015900008D0E5C04FF2E6C050F2E7C051F2E8C013
:1015A00052F24FC255F250C256F23FC03BF040C01B
:1015B0003CF041C03DF042C03EF0000E0201546FCD
:1015C000000E536F7AD0000E206E020E216E000EB8
:1015D000236E450E226E06EC20F0240E0201006FF1
:1015E000050E016F540E026F400E036F000E586F10
:1015F000000E576F58BF06D058512FE1400E575D6F
:10160000D8B02BD0040E57250001896F000E0201BF
:10161000582100018A6F000E8925D96E020E8A2199
:10162000DA6E57C28BF058C28CF0000E8CBFFF0EE2
:101630008D6F8E6F3B508B25186E3C508C21196E30
:101640003D508D211A6E3E508E211B6E7EEC20F097
:10165000DF6E0201574B582BCDD7400E3B5E000E7C
:101660003C5A3D5A3E5A3E503D1006E1F00E3B5C5E
:101670007F0E3C58D8A008D0800E3B6E450E3C6EC5
:10168000000E3D6E000E3E6E000E186E020E196EBC
:10169000000E1B6E440E1A6E8AEC1CF00201446FA1
:1016A000000E196E020E1A6E000E1C6E450E1B6E99
:1016B0001EEC1EF00201534B542B5551535D5451F7
:1016C000800A0001896F02015651800A0001895980
:1016D000D8B0120078D726C0D9FF27C0DAFFDF5074
:1016E0000001656F264A272A65515AEC1FF0D8B0D1
:1016F000F2D7000E0001616F000E626F000E636F83
:10170000000E646F000E606F2D0E6519D8A403D013
:10171000010E606F04D02B0E6519D8A408D026C026
:10172000D9FF27C0DAFFDF50656F264A272A300E1F
:101730006519D8A42ED026C0D9FF27C0DAFFDF5004
:10174000656F264A272A2A502B10D8B405D0100ED0
:101750002A182B10D8A415D0780E6519D8B404D047
:10176000580E6519D8A40DD0000E2B6E100E2A6EDF
:1017700026C0D9FF27C0DAFFDF50656F264A272A27
:1017800008D02A502B10D8A404D0000E2B6E080EBF
:101790002A6E2A502B10D8A404D0000E2B6E0A0EED
:1017A0002A6E655146EC1FF0D8A008D000016551A3
:1017B00060EC20F0C90F0001656F09D00001655190
:1017C000E8EC1FF0D8A039D0300E0001655F6551FC
:1017D0002C6E2D6A2A502C5C2D50800A2E6E2B50B8
:1017E000800A2E58D8B029D02AC01AF02BC01BF07E
:1017F000000E1BBEFF0E1C6E1D6E61C01EF062C08F
:101800001FF063C020F064C021F00DEC1CF000015B
:1018100065511A24616F000E1B20626F000E1C20A0
:10182000636F000E1D20646F26C0D9FF27C0DAFF4A
:10183000DF50656F264A272AB4D728502910D8B41C
:101840000ED0FF0E26242C6EFF0E27202D6E28C0F2
:10185000D9FF29C0DAFF2CC0DEFF2DC0DDFF00015B
:101860006051D8B41AD061C02CF062C02DF063C0B2
:101870002EF064C02FF02C1E2D1E2E1E2F1E2C2A83
:10188000000E2D222E222F222CC026F02DC027F054
:101890002EC028F02FC029F0120061C026F062C0CF
:1018A00027F063C028F064C029F012007AC07EF0EF
:1018B00000017F6B806B79357E3701E37F817E513C
:1018C000836F7DC07EF07F6B806B7C357E3701E35C
:1018D0007F817E51826F8351D8B40BD08251835D5A
:1018E000D8B00ED08351000882257E6F180E7E6519
:1018F00007D07BC078F07CC079F07DC07AF0120010
:101900008251D8B40BD08351825DD8B00ED08251B1
:10191000000883257E6F180E7E6507D078C078F0AA
:1019200079C079F07AC07AF01200060E816F7ABF22
:10193000818F7DBF818D798FFF0E7817FF0E79170C
:10194000000E7A177C8FFF0E7B17FF0E7C17000EA0
:101950007D178251835DD8B01BD0D8907B377C3700
:101960007D37820783518219D8B40DD0810781C099
:101970007EF0070E7E17D8B406D0EFD7D8907A3312
:1019800079337833832B82518319D8B41FD0F6D79B
:101990008351825DD8B01AD0D890783779377A37AA
:1019A000830783518219D8B40DD0810781C07EF09E
:1019B000070E7E17D8B406D0EFD7D8907D337C338E
:1019C0007B33822B82518319D8A4F7D781AF0CD0F7
:1019D000FF0E781BFF0E791BFF0E7A1B010E782776
:1019E000000E7923000E7A2381AD0CD0FF0E7B1BF5
:1019F000FF0E7C1BFF0E7D1B010E7B27000E7C2340
:101A0000000E7D23000E816F78517B2779517C2356
:101A10007A517D237DAF0ED0FF0E7B1BFF0E7C1B0A
:101A2000FF0E7D1B010E7B27000E7C23000E7D2305
:101A3000010E816F7BC018F07CC019F07DC01AF0D8
:101A400083C01BF081C01CF065EC16F018C078F064
:101A500019C079F01AC07AF0120000017A6F000EF6
:101A600000017C6F000E7D6F000E7E6F000E7F6F99
:101A7000000E806F000E816F000E826F000E836F6C
:101A8000000E866F000E7B6F700E206E000E216EB2
:101A9000000E236E0A0E226E06EC20F0000E0001EE
:101AA000866F090E866501D01DD08651010DF35059
:101AB0006625D96EF4506721DA6EDF507B6F100E09
:101AC0007B19D8A402D0862B0DD08651010D700E43
:101AD000F324D96E000EF420DA6E7B51300FDF6EE6
:101AE000862BDFD7700E266E000E276E000E286E36
:101AF000000E296E7A512A6E2B6A2ABE2B066BECD9
:101B00000BF026C07CF027C07DF028C07EF029C0F5
:101B10007FF0700E206E000E216E000E236E0A0EF6
:101B2000226E06EC20F0000E0001856F000E846F1F
:101B300085BF06D085512EE10A0E845DD8B02AD02B
:101B4000865184256E6F000E85216F6F6E5166255C
:101B5000D96E6F516721DA6EDF507B6F230E7B19D0
:101B6000D8B418D0700E8425D96E000E8521DA6E97
:101B7000865184256E6F000E85216F6F6E5166252C
:101B8000E16E6F516721E26EE750300FDF6E844BDC
:101B9000852BCED7700E266E000E276E000E286E97
:101BA000000E296E7A512A6E2B6A2ABE2B066BEC28
:101BB0000BF026C080F027C081F028C082F029C039
:101BC00083F020EE7CF000EE66F0070EDBCFEBFF3B
:101BD000E806FCE21200000E0001AC6FA051A1115A
:101BE000A211D8A41DD0000E186E000E196E000EA2
:101BF0001A6EA3C01BF0A4C01CF0A5C01DF049ECD8
:101C000018F0D8A005D0000E0001EA6F210EE96F90
:101C1000000E0001A06F000EA16F000EA26F120057
:101C2000A351A411A511D8A407D0000EA06F800E57
:101C3000A16F3F0EA26F1200A2AF41D0A3C078F0F7
:101C4000A4C079F0A5C07AF0D2EC10F078C0ADF065
:101C500079C0AEF07AC0AFF07BC0B0F0ADC020F07C
:101C6000AEC021F0AFC022F0B0C023F031EC1BF0C9
:101C70000001A351201807E1A451211804E1A55146
:101C80002218D8B40BD0000EEA6F210EE96F000EB7
:101C9000A06F000EA16F000EA26F1200AD51010BDC
:101CA000AC6FA0C018F0A1C019F0A2C01AF092EC5D
:101CB0001FF018C0A0F019C0A1F01AC0A2F0A0C077
:101CC0008EF0A1C08FF0A2C090F03CEC0FF08EC05F
:101CD000A6F08FC0A7F090C0A8F0A6C069F0A7C07A
:101CE0006AF0A8C06BF0A3C06CF0A4C06DF0A5C0F2
:101CF0006EF0C9EC11F069C0A9F06AC0AAF06BC01F
:101D0000ABF0A9C097F0AAC098F0ABC099F09CECDA
:101D100007F097C0A0F098C0A1F099C0A2F0000110
:101D2000AC51D8B40FD0A0C018F0A1C019F0A2C017
:101D30001AF092EC1FF018C0A0F019C0A1F01AC060
:101D4000A2F01200A0C0A0F0A1C0A1F0A2C0A2F019
:101D500012000001C26F000E0001C36F000EC46FBD
:101D6000000EC56F000EC66FB151C25F000EC76F87
:101D70006DD0C751B56FB66B010EB527000EB623F7
:101D8000B51FB61FB54BB62BB151B527B251B6230F
:101D9000D890B537B637D890B537B637D890B5376D
:101DA000B637B5C020F0B6C021F0E7EC1DF020C07A
:101DB000BCF021C0BDF022C0BEF0BCC0A3F0BDC0CD
:101DC000A4F0BEC0A5F0000E0001A06F000EA16F30
:101DD000400EA26FEBEC0DF0A0C0BFF0A1C0C0F0B0
:101DE000A2C0C1F0BFC078F0C0C079F0C1C07AF025
:101DF000D2EC10F078C0B8F079C0B9F07AC0BAF07F
:101E00007BC0BBF00001C251C725D0EC20F000011F
:101E1000B56FB5511A6E1B6A1C6A1D6AB8C01EF0F8
:101E2000B9C01FF0BAC020F0BBC021F00DEC1CF00F
:101E30000001C3511A10C36FC4511B10C46FC551A8
:101E40001C10C56FC6511D10C66FC72BC751B56F8B
:101E5000B66BB151B55DB651800AB76FB251800A09
:101E6000B759D8A086D7C3C0B1F0C4C0B2F0C5C0BE
:101E7000B3F0C6C0B4F01200000190AF0BD0000E5A
:101E8000EA6F210EE96F000E8E6F000E8F6F000E4D
:101E9000906F12008E518F119011D8A40BD0000EAC
:101EA000EA6F220EE96F000E8E6F000E8F6F000E2C
:101EB000906F1200000E6C6F000E6D6F400E6E6F13
:101EC000910E1B6E000E1C6E8EC018F08FC019F0A4
:101ED00090C01AF001EC18F018C069F019C06AF04F
:101EE0001AC06BF0C9EC11F069C078F06AC079F0E3
:101EF0006BC07AF0000E00017B6F800E7C6FBF0E0E
:101F00007D6F56EC0CF078C08EF079C08FF07AC0FF
:101F100090F000019107D8A092078EC084F08FC086
:101F200085F090C086F0750E876F060E886F000EE4
:101F30008A6F080E896F7FEC14F084C08EF085C024
:101F40008FF086C090F0720E00016C6F310E6D6FD5
:101F50003F0E6E6F91C020F092C021F0E7EC1DF0B3
:101F600020C069F021C06AF022C06BF0C9EC11F00A
:101F700069C078F06AC079F06BC07AF08EC07BF0EF
:101F80008FC07CF090C07DF056EC0CF078C08EF0E5
:101F900079C08FF07AC090F01200280E206E000EEB
:101FA000216E000E236E090E226E06EC20F0240E28
:101FB000286E050E296E520E2A6E040E2B6E700EC0
:101FC000186E3A0E196E000E1A6E000E1B6E010E80
:101FD0001C6E03EC1BF02C6E700E186E3A0E196E10
:101FE000000E1A6E000E1B6E000E1C6E03EC1BF032
:101FF0002D6E3FC024F040C025F041C026F042C005
:1020000027F0241E251E261E271E242A000E252208
:1020100026222722F00E2424186E7F0E2520196E0A
:10202000000E26201A6E000E27201B6E010E1C6E5D
:1020300003EC1BF02E6E3FC024F040C025F041C0E1
:1020400026F042C027F0241E251E261E271E242A05
:10205000000E252226222722F00E2424186E7F0E41
:102060002520196E000E26201A6E000E27201B6EEA
:10207000000E1C6E03EC1BF02F6E280E186E000E67
:10208000196E000E1B6E080E1A6E8AEC1CF0306E74
:10209000280E196E000E1A6E000E1C6E090E1B6EB5
:1020A0001EEC1EF012002F500001606F616B0C0ED1
:1020B000D89060376137E82EFBD760C062F061C00E
:1020C00063F062512D1263512E12D890EB35D96E08
:1020D000EC35DA6E2C0ED926010EDA222DC0DEFF89
:1020E0002EC0DDFFEB4BEC2BEBC060F0ECC061F0E1
:1020F000D89060376137615104E1400E605DD8A02F
:102100001200A4EC20F00009D8B412003FC01DF06A
:1021100040C01EF041C01FF042C020F02C0E216EC6
:10212000010E226EB0EC15F0400E3F26000E40224C
:10213000412242224250411006E1F00E3F5C7F0EE8
:102140004058D8A019D0800E3F6E450E406E000E4C
:10215000416E000E426E010E386E800E3B180CE18F
:10216000450E3C183D103E10D8A406D0400E3B262C
:10217000000E3C223D223E22170E0001E55DFF0EBF
:10218000E659FF0EE759FF0EE859D8B006D0010E08
:10219000E527000EE623E723E823000EEC6F000E90
:1021A000EB6F12007AC07CF000017D6B7E6B79359D
:1021B0007C3701E37D817C51866F8651D8A409D09C
:1021C000000E786F000E796F000E7A6F000E7B6F35
:1021D0001200170E7C6F78C07DF079C07EF07AC057
:1021E0007FF07C29806F04D0D8907F337E337D339D
:1021F000802FFAD700017D51816F798FFF0E7817FC
:10220000FF0E7917000E7A177851826F7951836F1C
:102210007A51846F856B8E0E865F86AF16D086519D
:10222000800A8F0FD8B009D0000E786F000E796F3A
:10223000000E7A6F000E7B6F1200D89085338433C6
:1022400083338233863FF9D715D0170E86650FD0BA
:10225000000E786F000E796F000E7A6F000E7B6FA4
:102260001200D890823783378437853786078651A6
:10227000D8A4F7D78151D8B408D0851F841F831FF5
:10228000826D000E83238423852382C078F083C06F
:1022900079F084C07AF085C07BF0120000018C6F69
:1022A000070E376060D08AC066F08BC067F00A0EF8
:1022B0002DEC0DF020EE8DF0070EEBCFDBFFE806E6
:1022C000FCE28DC029F08EC02AF08FC02BF090C0A8
:1022D0002CF0030E2D6E00018C5112EC17F0000152
:1022E0008C51D8A41DD08DC021F08EC022F08FC09B
:1022F00023F090C024F0350E9125F66E060E922143
:10230000F76E0800F5CF25F0000E276E040E266E3E
:10231000CBEC1DF0480E246E040E61EC1CF021D0B5
:1023200000018C05D8A41DD08DC021F08EC022F0F4
:102330008FC023F090C024F0350E9125F66E060E66
:102340009221F76E0800F5502009256E000E276EC9
:10235000040E266ECBEC1DF0490E246E040E61ECCB
:102360001CF0372A1200000E376E00018C51D8A4E1
:1023700006D0420E246E040E61EC1CF01200000127
:102380008C05D8A41200430E246E040E61EC1CF0E0
:1023900012006BC06FF00001706B716B6A356F37A4
:1023A00001E370816F51726F7251D8A407D0000E93
:1023B000696F000E6A6F000E6B6F12006EC06FF0D7
:1023C000706B716B6D356F3701E370816F51776F93
:1023D0007751D8A407D0000E696F000E6A6F000E07
:1023E0006B6F120077517B0F72276BC077F06E51C5
:1023F000771B800E77176A8F6D8FFF0E6C17FF0E9D
:102400006D17000E6E17000E736F000E746F000EC6
:10241000756F070E766F69A106D06C5173276D51E9
:1024200074236E517523D8906B336A336933D89017
:102430006C376D376E37762FEED7090E766F69A140
:1024400006D06C5173276D5174236E517523D8904B
:102450006B336A336933D890753374337333762FA3
:10246000EED773C018F074C019F075C01AF072C0BE
:102470001BF077C01CF065EC16F018C069F019C0AD
:102480006AF01AC06BF012002BC060F00001616BA3
:10249000626B2A34603701E361816051676F675175
:1024A000D8A407D0000E296E000E2A6E000E2B6EE7
:1024B00012002EC060F0616B626B2D34603701E357
:1024C00061816051686F6851D8A407D0000E296EF1
:1024D000000E2A6E000E2B6E1200000E646F000EAE
:1024E000656F000E666F6851890F675F2BC068F0DB
:1024F0002E50681B800E68172A8EFF0E2916FF0EBD
:102500002A16000E2B162D8EFF0E2C16FF0E2D16E2
:10251000000E2E16180E636FD89064376537663735
:102520002C50295C2D502A582E502B58D8A007D05B
:102530002C50295E2D502A5A2E502B5A6481D89047
:1025400029362A362B36632FE7D764C018F065C0CA
:1025500019F066C01AF067C01BF068C01CF065EC8B
:1025600016F018C029F019C02AF01AC02BF012007A
:10257000240E0001606F020E616F210E626F040E67
:10258000636FE1C069F0E2C06AF0E3C06BF0E4C0E1
:102590006CF0000E6E6F000E6D6F6EBF06D06E5148
:1025A00042E1040E6D5DD8B03ED0040E6D25256E5F
:1025B000000E6E21266E600E2524D96E000E262098
:1025C000DA6E69C018F06AC019F06BC01AF06CC0FE
:1025D0001BF00A0E1C6E000E1D6E000E1E6E000E0D
:1025E0001F6E40EC1AF01850DF6E69C018F06AC018
:1025F00019F06BC01AF06CC01BF00A0E1C6E000EB6
:102600001D6E000E1E6E000E1F6E1BEC19F018C022
:1026100069F019C06AF01AC06BF01BC06CF00001C1
:102620006D4B6E2BBAD7600E186E000E196E000E31
:102630001B6E080E1A6E8AEC1CF00001686F600EAB
:10264000196E000E1A6E000E1C6E090E1B6E1EEC2B
:102650001EF01200000E0001CC6F000ECD6FD10EE7
:10266000206E000E216E000E236E070E226E06EC09
:1026700020F0240E0001D16F060ED26F620ED36FD0
:10268000020ED46FC8C0D9FFC9C0DAFFDF50D06FC7
:10269000000EB26F020EB16FD051010D530EF32434
:1026A000F66E060EF420F76E0800F5504009A9EC0E
:1026B0000EF0B1C0CEF0B2C0CFF0000E0001D96F65
:1026C000000ED86FD9BF06D0D9511FE1020ED85DD8
:1026D000D8B01BD0040ED825CA6F000ED921CB6FFD
:1026E000D10ECA25D96E000ECB21DA6ECEC018F0FD
:1026F000CFC019F01A6A1B6AD8C01CF003EC1BF09B
:10270000DF6E0001D84BD92BDDD7D10E186E000E2D
:10271000196E000E1B6E060E1A6E8AEC1CF000017C
:10272000D76FD10E196E000E1A6E000E1C6E070EBA
:102730001B6E1EEC1EF01200000E0001CC6FCC517F
:10274000800A7C0FD8B01200000EB26F020EB16F7B
:10275000CC51010D530EF324F66E060EF420F76EE5
:102760000800F5504009A9EC0EF0B1C0CAF0B2C0A3
:10277000CBF00001CA2944E1CB29D8A441D0CC51E7
:10278000020D4B0EF324F66E060EF420F76E0900D0
:10279000F5CFC8F00900F5CFC9F0C8C029F0C9C00D
:1027A0002AF02B6A2C6A010E2D6E020E12EC17F025
:1027B0000001CC51020D4B0EF324F66E060EF420F0
:1027C000F76E0900F5CFC8F00900F5CFC9F0C8C011
:1027D00021F0C9C022F0236A246ACC51010D530EA6
:1027E000F324F66E060EF420F76E0800F55040094B
:1027F000256E000E276E020E266ECBEC1DF00BD060
:10280000CAC029F0CBC02AF02B6A2C6A010E2D6EAB
:10281000020E12EC17F00001CC2B91D78FC018F0EC
:1028200090C019F091C01AF0950E1B6E000E1C6E30
:1028300001EC18F0000196AF10D091AF07D0000E58
:102840008F6F800E906FBF0E916F1200000E8F6F12
:10285000000E906F000E916F1200965104E1150E5C
:10286000955DD8A007D08FC08FF090C090F091C038
:1028700091F012008FC078F090C079F091C07AF09A
:10288000D2EC10F078C087F079C088F07AC089F077
:102890007BC08AF09AEC19F087C092F088C093F060
:1028A00089C094F08FC018F090C019F091C01AF050
:1028B00092C01BF093C01CF094C01DF049EC18F0BE
:1028C000D8B016D092C078F093C079F094C07AF066
:1028D000000E00017B6F800E7C6FBF0E7D6F56EC8B
:1028E0000CF078C08FF079C090F07AC091F01200AF
:1028F00092C08FF093C090F094C091F0120089C004
:1029000018F08AC019F0000E1B6E030E1A6E6DECE3
:102910001FF087C02FF088C030F018502F261950B4
:1029200030222FC0F6FF30C0F7FF0900F5CF8BF043
:102930000900F5CF8CF00A00F5CF8DF03FD08BC0A9
:102940006CF08CC06DF08DC06EF084C069F085C0F5
:102950006AF086C06BF0C9EC11F069C078F06AC00B
:1029600079F06BC07AF0000E1B6E030E1A6E000138
:102970008907D8A08A0789C018F08AC019F06DECC1
:102980001FF087C02FF088C030F018502F26195044
:1029900030222FC0F6FF30C0F7FF0900F5CF7BF0E3
:1029A0000900F5CF7CF00A00F5CF7DF056EC0CF075
:1029B00078C08BF079C08CF07AC08DF0000189511D
:1029C0008A11D8A4BCD78BC084F08CC085F08DC090
:1029D00086F012000001856F010E0001806F000E6D
:1029E000816F000E826F000E836F600E206E000EEE
:1029F000216E000E236E200E226E000E246E23EC3C
:102A000020F0600E186E000E196E25C01AF026C058
:102A10001BF027C01CF028C01DF05FEC1BF0000E5F
:102A20000001846F1F0E846501D026D0000E186E41
:102A30008551E2EC1BF000018451010D600EF3247E
:102A4000D96E000EF420DA6EDF50D8B406D0010E35
:102A5000186E8551B7EC1BF006D0000E186E000101
:102A60008551B7EC1BF0010E186E00018551E2ECA8
:102A70001BF00001842BD6D7210EE82EFED700F0E4
:102A8000000E186E00018551B7EC1BF0000E186E99
:102A900000018551E2EC1BF0120000018E518F11F4
:102AA0009011D8A407D0000E8E6F000E8F6F000E0D
:102AB000906F120090517F0B936F946BD890933767
:102AC000943793519127945192238FAF03D0936BF6
:102AD000932B02D00001936B93519127000E922308
:102AE00092AF0BD0000EEA6F220EE96F000E8E6FD0
:102AF000000E8F6F000E906F120092BF15D09205DE
:102B0000D8A012D0000EEA6F220EE96F90AF06D067
:102B1000FF0E8E6F7F0E8F6FFF0EEDD7FF0E8E6F45
:102B20007F0E8F6F7F0EE7D792359231946F913180
:102B3000936F90519319800B9319906F91C093F0FC
:102B4000010E9317933393338F5193197F0B93197E
:102B50008F6F8EC08EF08FC08FF090C090F01200FB
:102B6000C00E236E7F0E246E1DC025F01EC026F001
:102B7000235025162450261625C027F026C028F0FD
:102B8000296A2A6A000EF2BE010E2B6E27501D180C
:102B900044E128501E1841E129501F183EE12A50F7
:102BA0002018D8A412001DC018F01EC019F01FC0B4
:102BB0001AF020C01BF0A3EC1EF01FC0F8FF1EC0CF
:102BC000F7FF1DC0F6FF000E2C6E3F0E2C6401D0E7
:102BD00013D02C50010DF3502124D96EF450222033
:102BE000DA6EDF50F56E3F0E2C18D8A402D00C0020
:102BF00001D00D002C2AE9D7A188A68EA69CA68418
:102C0000F29E550EA76EAA0EA76EA682A6942BB0B2
:102C100002D0F29E01D0F28E12001200E00E2C6E55
:102C2000FF0E2D6E460E2E6E3FC078F040C079F03C
:102C300041C07AF042C07BF00001781F791F7A1FF3
:102C40007B1F782B000E79237A237B23F00E7825C7
:102C5000206E7F0E7921216E000E7A21226E000EE9
:102C60007B21236E31EC1BF020C029F021C02AF01B
:102C700022C02BF044EC12F029C069F02AC06AF09F
:102C80002BC06BF0000E00016C6FC80E6D6F420E12
:102C90006E6FC9EC11F069C07CF06AC07DF06BC04A
:102CA0007EF0000E186E960E196E420E1A6E7CC0E3
:102CB0001BF07DC01CF07EC01DF049EC18F0D8B0B0
:102CC00002D0010E1200000E12001B50D8B405D025
:102CD000185019101A10D8A40CD0000E186E000E3F
:102CE000196E000E1A6E12001B2AD8901A32193271
:102CF0001832000E18141D6E000E19141E6EFE0EF2
:102D00001A141F6E1D501E101F10D8B40CD0ECD713
:102D10001B2A010E1826000E1922000E1A22D89026
:102D20001A3219321832000E18141D6E000E1914C2
:102D30001E6EFF0E1A141F6E1D501E101F10D8B4E9
:102D400006D0E6D71B06D890183619361A3619BEA3
:102D500003D0020E1B60F6D71BA0199ED8901B3221
:102D60001B501A121C50D8A41A8E18C018F019C083
:102D700019F01AC01AF01200F2944650D76E45C0EE
:102D8000D6FF314A322A31C001F032C002F0000EC3
:102D9000046EF00E036E16EC1DF001500210D8A464
:102DA00003D0010E0001FD6F31C001F032C002F00E
:102DB000000E046E640E036E16EC1DF0015002103E
:102DC000D8A403D0010E0001FC6F31C001F032C065
:102DD00002F0000E046EC80E036E16EC1DF00150DA
:102DE0000210D8A403D0010E0001FB6F31C001F026
:102DF00032C002F0000E046E0A0E036E16EC1DF0D7
:102E000001500210D8A403D0010E0001FA6FB80ED1
:102E1000315C880E3258D8A01200000E326E000EBF
:102E2000316E12000001896FF29E00018951D8B401
:102E300003D08905D8A418D0000E186E895174ECFF
:102E40001DF029C025F02AC026F02BC027F02CC089
:102E500028F000018951EAEC14F0010E186E00010F
:102E6000895174EC1DF031D0020E00018919D8A4EB
:102E70002CD0000E15EC20F0010E2D240001876FE0
:102E8000886B000E882388BF1DD0885103E1870519
:102E9000D8A018D029C018F02AC019F02BC01AF0F9
:102EA0002CC01BF087051C6E03EC1BF00001866F25
:102EB00086C01AF089518BEC1BF000018707D8A05F
:102EC0008807E1D7010E15EC20F0F28E12008AC0BF
:102ED00066F08BC067F0100E2DEC0DF020EE91F037
:102EE000070EEBCFDBFFE806FCE291C029F092C0B1
:102EF0002AF093C02BF094C02CF0010E2D6E020E20
:102F000012EC17F091C08CF092C08DF093C08EF04F
:102F100094C08FF00F0E06D00001D8908F338E33FF
:102F20008D338C33E82EF8D78C51906F91C021F0FF
:102F300092C022F093C023F094C024F09051010D70
:102F4000530EF324F66E060EF420F76E0800F550CB
:102F50004009256E000E276E020E266ECBEC1DF08A
:102F6000610E246E060E61EC1CF01200560EF66E19
:102F7000410EF76E000EF86E01EED1F010EE0CF07F
:102F80000900F5CFEEFFE550E150FAE1BC0EF66E18
:102F9000410EF76E000EF86E0900F5CFFEF0090045
:102FA000F5CFFFF06E0EF66E410EF76E000EF86E66
:102FB00000EE3BF010EE0AF00900F5CFEEFFE55011
:102FC000E150FAE102EE59F0460EEE6AE806FDE144
:102FD00001EE00F0AC0EEE6AE806FDE100EEE1F075
:102FE0001D0EEE6AE806FDE100EE31F00A0EEE6A13
:102FF000E806FDE148904892000EF86E00010CEFE3
:103000001AF0185019101A10D8A40FD01BC0D9FFED
:103010001CC0DAFF000EDE6E000EDD6E000E186EB4
:10302000000E196E000E1A6E12001A507F0B1D6EE4
:103030001E6AD8901D361E361BC0D9FF1CC0DAFF91
:103040001DC0DEFF1EC0DDFF19AE03D01D6A1D2AA4
:1030500001D01D6A1D501BC0D9FF1CC0DAFFDE1253
:10306000000EDD121BC0D9FF1CC0DAFF820EDE2667
:10307000FF0EDD221A801A821A841A861A881A8A8A
:103080001A9C199E18C018F019C019F01AC01AF02D
:1030900012001AAE16D018C01EF019C01FF01AC0C8
:1030A00020F01E1E1F1E201E1E2A000E1F22202280
:1030B000000E1E24186E000E1F20196E800E202098
:1030C0001A6E1DAE16D01BC01EF01CC01FF01DC016
:1030D00020F01E1E1F1E201E1E2A000E1F22202250
:1030E000000E1E241B6E000E1F201C6E800E202062
:1030F0001D6E000E181A000E191A800E1A1A000EF4
:103100001B1A000E1C1A800E1D1A1B50185C1C5036
:1031100019581D501A58D8B002D0D8901200D88033
:1031200012000001DC6F28D0DAC08AF0DBC08BF01F
:10313000000E4EEC11F01200DAC08AF0DBC08BF00A
:10314000010E4EEC11F01200010E5CEC19F01200B1
:10315000000E5CEC19F01200DAC0C8F0DBC0C9F058
:10316000010E8DEC09F01200DAC0C8F0DBC0C9F026
:10317000000E8DEC09F012000001DC51400AD8B4B9
:103180001200010AD8B41200030AD8B4CDD7010A3C
:10319000D8B4D2D7070AD8B4D7D7010AD8B4D8D769
:1031A000030AD8B4D9D7010AD8A41200DDD7000E7B
:1031B000216E000E206E000E236E000E226E2CD0AB
:1031C00022501824D96E23501920DA6EDF501F6E5A
:1031D0001F28D8A405D020C018F021C019F0120073
:1031E00022501824D96E23501920DA6EDF50D8B43B
:1031F00011D022C01CF0010E1D6E000E1E6E1C2A86
:1032000003D0D8901D361E361C2EFBD71D50201221
:103210001E502112224A232A1A50225C2350800A6F
:103220001C6E1B50800A1C58D8A0CAD720C018F0AA
:1032300021C019F01200000E206E000E216E000E4B
:10324000226E000E236E1C501D101E101F10D8B4CD
:103250002AD0010E246E06D0D8901C361D361E369C
:103260001F36242A1FAEF8D7D890203621362236B2
:1032700023361C50185C1D5019581E501A581F50E8
:103280001B58D8A009D01C50185E1D50195A1E504A
:103290001A5A1F501B5A2080D8901F321E321D32DE
:1032A0001C32242EE1D720C018F021C019F022C012
:1032B0001AF023C01BF012000001CF6F0001CF51A4
:1032C000D8A41AD04450D8A402D0010E01D0000EC8
:1032D000446E4450D8B404D0CF514BEC05F006D026
:1032E000000E186E0001CF5156EC1DF0450E246EF5
:1032F000040E61EC1CF012000001CF05D8A41200EE
:103300004350D8A402D0010E01D0000E436E4350AA
:10331000D8B404D0CF514BEC05F006D0000E186E97
:103320000001CF5156EC1DF0440E246E040E61ECEA
:103330001CF01200000E306E8E0E2F6E00018AAF50
:1033400011D08A1F891F881F876D000E882389234B
:103350008A23010E306E06D0D8908A3389338833A1
:1033600087332F2A000E87158B6F000E88158C6F00
:10337000000E89158D6FFF0E8A158E6F8B518C1183
:103380008D118E11D8A4E8D787C018F088C019F025
:1033900089C01AF02FC01BF030C01CF065EC16F08D
:1033A00018C087F019C088F01AC089F01200000E0A
:1033B0002E6E000E2D6E2EBE06D02E5027E10A0E68
:1033C0002D5CD8B023D08B80820E2C6EDE0EE82EC2
:1033D000FED72C2EFCD78A88820E2C6EDE0EE82EAD
:1033E000FED72C2EFCD78B90820E2C6EDE0EE82E94
:1033F000FED72C2EFCD78A98820E2C6EDE0EE82E7D
:10340000FED72C2EFCD72D4A2E2AD5D7140E246E8B
:10341000010E61EC1CF01200BCEC20F055EC20F029
:10342000B1EC20F0030EA5EC1AF095EC08F00001C9
:10343000FA05D8A406D0D3EC1CF0000E0001FA6FF8
:10344000F4D7FC05D8A410D03EEC20F00EEC16F01A
:10345000E806D8A403D0020ED4EC1AF086EC06F0ED
:10346000000E0001FC6FE1D7FB05D8A403D0000ECD
:10347000FB6FDBD7FD05D8A4D8D7000EFD6FD5D7DD
:103480001C501D101E101F10D8B424D0010E206E29
:1034900006D0D8901C361D361E361F36202A1FAE89
:1034A000F8D71C50185C1D5019581E501A581F5040
:1034B0001B58D8A008D01C50185E1D50195A1E5019
:1034C0001A5A1F501B5AD8901F321E321D321C32FE
:1034D000202EE7D718C018F019C019F01AC01AF03A
:1034E0001BC01BF01200000E8D6E000E8C6E060EBF
:1034F000896E000E8A6E000E8B6E070E966EE10EC0
:10350000926EEF0E936E800E946EF20E956E340EE8
:103510000F013A6F3E0E396FE40E3B6F070E3C6FA2
:103520002F0E386FC30E616EF19E6288628AC00EE4
:10353000186E410E196ECBEC20F0BE0E186E410EC7
:10354000196EC6EC20F0F28612001B6E000E1D6E86
:10355000000E1C6E1B50186E196A18501C5C1D5012
:10356000800A1A6E1950800A1A58D8B012008B902F
:10357000020E196E040E186EBA0EE82EFED7182E23
:10358000FCD7192EFAD700D08B80020E196E040ECC
:10359000186EBA0EE82EFED7182EFCD7192EFAD7C1
:1035A00000D01C4A1D2AD6D71B6E000E1D6E000EC1
:1035B0001C6E1B50186E196A18501C5C1D50800A36
:1035C0001A6E1950800A1A58D8B012008A98020E42
:1035D000196E040E186EBA0EE82EFED7182EFCD700
:1035E000192EFAD700D08A88020E196E040E186EB2
:1035F000BA0EE82EFED7182EFCD7192EFAD700D017
:103600001C4A1D2AD6D71FD018501200195012007C
:103610001A501200000E18141D6E000E19141E6EA2
:10362000000E1A141F6EFF0E1B14206E190E05D00B
:10363000D89020321F321E321D32E82EF9D71D508D
:103640001200000E12001C50000AD8B4DDD7010A87
:10365000D8B4DCD7030AD8B4DBD7010AD8B4DAD798
:10366000F0D78E0E286E06D0D89023322232213227
:103670002032282A000E2014246E000E2114256EFC
:10368000000E2214266EFF0E2314276E24502510E0
:1036900026102710D8A4E8D720C018F021C019F0B0
:1036A00022C01AF028C01BF0000E1C6E65EC16F04C
:1036B00018C020F019C021F01AC022F01200000E2C
:1036C000216E000E206E21BE06D0215023E1210E76
:1036D000205CD8B01200010E20241E6E000E2120A6
:1036E0001F6E1E1E1F1E1E4A1F2A200E1E26000EA3
:1036F0001F221E501824D96E1F501920DA6E1A503E
:10370000010BDF6ED8901D321C321B321A32204A58
:10371000212AD9D712001C6E080E1B6E1AD0010E7A
:10372000186E1C50E2EC1BF01AAE06D0010E186E9B
:103730001C50B7EC1BF005D0000E186E1C50B7ECF7
:103740001BF0000E186E1C50E2EC1BF01B06D8900C
:103750001A361B50D8A4E3D7000E186E1C50B7ECD5
:103760001BF0000E186E1C50E2EC1BF01200196EDC
:103770001ED01804D8A402D08C8012001850D8A4EF
:1037800012008C9012001804D8A402D08B8A120068
:103790001850D8A412008B9A12001804D8A402D092
:1037A000898812001850D8A4120089981200195064
:1037B000000AD8B4DED7010AD8B4E5D7030AD8A4E2
:1037C0001200EBD7196E1ED01804D8A402D08B8635
:1037D00012001850D8A412008B9612001804D8A416
:1037E00002D08B8812001850D8A412008B981200B7
:1037F0001804D8A402D0898612001850D8A4120048
:10380000899612001950000AD8B4DED7010AD8B43C
:10381000E5D7030AD8A41200EBD7000E226E000EE3
:10382000236E000E246E000E256E1AA008D01E50C6
:1038300022261F5023222050242221502522D890B6
:103840001E361F3620362136D8901D321C321B32D0
:103850001A321A501B101C101D10D8A4E6D722C013
:103860001AF023C01BF024C01CF025C01DF012006C
:10387000800E3F6E450E406E000E416E000E426E91
:10388000800E3B6E450E3C6E000E3D6E000E3E6E91
:10389000000E0001E56F000EE66F000EE76F000EF0
:1038A000E86F2C0E206E010E216E000E236E200E8E
:1038B000226E06EC20F0510E246E050E61EC1CF019
:1038C0001200256E260E206E000E216E000E236E55
:1038D000060E226E06EC20F0240E266E25C027F080
:1038E00024C028F0000E296E260E186E000E196EE8
:1038F000000E1B6E050E1A6E8AEC1CF02B6E260E47
:10390000196E000E1A6E000E1C6E060E1B6E1EEC5B
:103910001EF01200000E1E6E000E1D6E000E206EB8
:10392000000E1F6E0ED01F501824D96E2050192083
:10393000DA6EDF501C6E1C501D26000E1E221F4A20
:10394000202A1A501F5C2050800A1C6E1B50800ACF
:103950001C58D8A0E8D7FF0E1D16000E1E161D50CD
:103960001200000E1A6E000E196E0001F851D8A454
:1039700002D0195012003350010D000EF324D96EFD
:10398000010EF420DA6EDF50186E1850196E1A6AA4
:10399000332A270E336402D0000E336E9D9AF80747
:1039A0009D8A19501200010E0001E127000EE2234A
:1039B000E323E423E1C018F0E2C019F0E3C01AF0F9
:1039C000E4C01BF0800E1C6E430E1D6E000E1E6EBA
:1039D000000E1F6E40EC1AF018C0E1F019C0E2F0C2
:1039E0001AC0E3F01BC0E4F01200000187518811F7
:1039F0008911D8B406D0000E871B000E881B800EDC
:103A0000891B84C078F085C079F086C07AF087C0C1
:103A10007BF088C07CF089C07DF056EC0CF078C05B
:103A200084F079C085F07AC086F01200035004104B
:103A3000D8B418D0010E056E04D0D89003360436E1
:103A4000052A04AEFAD70350015C04500258D8A0EE
:103A500004D00350015E0450025AD890043203325D
:103A6000052EF1D701C001F002C002F01200000ED5
:103A70004BEC05F0010E4BEC05F0A00E206E010E94
:103A8000216E000E236E0C0E226EFF0E246E23ECB0
:103A900020F0940E206E010E216E000E236E0C0E8F
:103AA000226EFF0E246E23EC20F01200196E14D04B
:103AB0001804D8A402D08B8212001850D8A4120087
:103AC0008B9212001804D8A402D08C8412001850D3
:103AD000D8A412008C9412001950000AD8B4E8D768
:103AE000010AD8A41200EED7196E14D01804D8A475
:103AF00002D08B8412001850D8A412008B941200AC
:103B00001804D8A402D08C8612001850D8A4120031
:103B10008C9612001950000AD8B4E8D7010AD8A42C
:103B20001200EED7186E4750D8B4FDD79DB803D019
:103B300018C0ADFF12D09D983650010D590EF324D8
:103B4000D96E020EF420DA6E18C0DFFF362A450E59
:103B5000366402D0000E366E47069D8812000001C2
:103B6000DC6F0DD038EC1CF01200CDEC0FF0120021
:103B7000DAC087F0DBC088F07CEC0AF012000001AC
:103B8000DC51510AD8B4EED7030AD8B4EED7010AF3
:103B9000D8A41200EDD726C029F015D021C018F006
:103BA00022C019F023C01AF024C01BF029041C6E97
:103BB00003EC1BF0286E28C01BF0295000082524B8
:103BC0009DEC20F029062950D8B41200E7D7000E4A
:103BD000236E21AE06D0206C211ED8B0212A010E02
:103BE000236E20C018F021C019F01A6A8E0E1B6EC9
:103BF00023C01CF065EC16F018C020F019C021F0AD
:103C00001AC022F012009D9A9D98080EB86E900E70
:103C1000AB6E240EAC6E100EAF6E000EB06E000ECA
:103C2000366E000E356E460E476E000E346E000E78
:103C3000336E000E0001F86F9D8A1200000E1F6E99
:103C4000000E1E6E0BD01E501924D96E1F501A2064
:103C5000DA6EDF5092EC1DF01E4A1F2A1B501E5CCC
:103C60001F50800A1D6E1C50800A1D58D8B01200CB
:103C7000EAD7196E000EF2BE010E1A6E19C0A9FF26
:103C800018C0A8FFA69EA69CA684F29E550EA76EFD
:103C9000AA0EA76EA682A6B2FED7A6941AB002D02C
:103CA000F29E01D0F28E1200460E476012D03550BF
:103CB000010D590EF324D96E020EF420DA6EDF5096
:103CC000AD6E352A450E356402D0000E356E472A9A
:103CD00012009D98000E356E000E366E1200000127
:103CE000DC6F0ED0DAC08AF0DBC08BF067EC17F027
:103CF0001200DAC0C8F0DBC0C9F02AEC13F01200E1
:103D00000001DC51610AD8B4EDD7030AD8A412002F
:103D1000F0D7F80ED76E2F0ED66ED650D7CF1AF03A
:103D20001B6A1AC01BF01A6A1A10456E1B50466EA9
:103D3000F294F28A000E186E000E196EC1EC20F09B
:103D4000900ED56E1200000EF2BE010E1C6E1AC04F
:103D5000F8FF19C0F7FF18C0F6FFA68EA69CA68430
:103D6000A688F29E550EA76EAA0EA76EA6821CB05C
:103D700002D0F29E01D0F28E12000001DD6F06D05B
:103D8000D7EC19F012008FEC20F012000001DD5189
:103D9000110AD8B4F8D7030AD8B41200010AD8B46B
:103DA0001200070AD8A41200EBD72CC0D9FF2DC0EF
:103DB000DAFFDF503A6E3A04D8A409D020EE01F0C1
:103DC0002C50D9262D50DA22DF500001F96F320E27
:103DD000246E030E61EC1CF012001C6E1CC01AF065
:103DE0001A461A46C2501A18830B1A18C26EC2809D
:103DF000C282C2B2FED7C4501B6E1A6AC3501A24C4
:103E0000186E000E1B20196E1200ABA202D0AB98E8
:103E1000AB883450010D000EF324D96E010EF4204E
:103E2000DA6EAECFDFFF342A270E346402D0000EE4
:103E3000346E0001F82B120018C01EF019C01FF0DC
:103E400008D01EC0D9FF1FC0DAFF1AC0DFFF1E4A0C
:103E50001F2A1C06D8A01D061C28F3E11D28D8B473
:103E60001200EFD7000E0001F46F000EF36F000E8A
:103E7000F26F000EF16F800E206E010E216E000EAB
:103E8000236E140E226E06EC20F012001D6E010E41
:103E90001C6E7B0E1D6003D0610E1D6007D01D508F
:103EA000F7EC1FF0D8B002D0000E1C6E1CC01BF047
:103EB0001B3012001A6E010E196E200E1A18D8B49B
:103EC00008D00E0E1A6003D0090E1A6002D0000E40
:103ED000196E19C018F01830120018501A02F3CFDA
:103EE0001CF0F4CF1DF018501B02F3501D26195082
:103EF0001A02F3501D261CC018F01DC019F0120044
:103F00000001DD6F06D053EC03F01200B8EC12F0A4
:103F100012000001DD51210AD8B4F8D7030AD8A451
:103F20001200F1D7185019101A10D8B406D0000E8C
:103F3000181A000E191A800E1A1A18C018F019C093
:103F400019F01AC01AF0120020C018F021C019F0A0
:103F50001A6A8E0E1B6E000E1C6E65EC16F018C0F1
:103F600020F019C021F01AC022F012000101DF5127
:103F7000E011D8B4120001D812000500FA6EDF512A
:103F8000FD6EE051FE6EF850FF6EFA501200010116
:103F9000E151E211D8B4120001D812000500FA6E06
:103FA000E151FD6EE251FE6EF850FF6EFA501200C4
:103FB0000001DC6F07D0DAC02CF0DBC02DF0D5ECAF
:103FC0001EF012000001DC51320AD8A41200F3D70F
:103FD0001A6E000E196E3A0E1A6005D02F0E1A6472
:103FE00002D0010E196E19C018F0183012001A6EA6
:103FF000000E196E5B0E1A6005D0400E1A6402D0D6
:10400000010E196E19C018F01830120020C018F0F7
:1040100021C019F0000E1B6E000E1A6E22C01CF09B
:1040200023C01DF01CEC1FF01200186E04D0899400
:104030001200898412001850000AD8B4F8D7010A77
:10404000D8A41200F6D720C018F021C019F024C05F
:104050001AF01B6A22C01CF023C01DF01CEC1FF0DC
:104060001200D8EC20F073EC1AF096EC20F089ECFA
:104070001EF04AEC20F003EC1EF012008BB003D0CF
:10408000186A182A01D0186A8B501818FE0B1818D5
:104090008B6E1200050EC26E000EC16E870EC06ED2
:1040A000000EC36E000EC46E1200D5EC20F0DAECE8
:1040B00020F037EC1DF074EC20F09CEC13F01200B3
:1040C000186E7B0E186004D0600E186401D0189A28
:1040D00018501200186E18C0A9FFA69CA69EA680B4
:1040E00000F000F0A8501200000E0001E16F000E79
:1040F000E26F000EE36F000EE46F12001AC0F8FFCB
:1041000019C0F7FF18C0F6FF0800F550120062B89A
:10411000C7EC1FF062BAB6EC1FF0F2901200110E5D
:10412000246E010E61EC1CF0FF001200600ED36ED5
:10413000040ED26E800E9B6E12001C6E1BC018F017
:104140001C5039EC1EF01200A6A201D002D0010EC4
:104150001200000E12007A3D003FB03F22315E3B5C
:10416000DE3C100E246E010E61EC1CF01200804546
:10417000000080450000010131EC20F0F28EF28C4D
:10418000120018C0DDF119C0DEF1120018C0DFF115
:1041900019C0E0F1120018C0E1F119C0E2F11200FB
:1041A000196E19506AEC20F01200000E3A6E1200DF
:1041B000D09E1200D58E1200A198120002021200A9
:0241C0001200EB
:020000040020DA
:08000000FFFFFFFFFFFFFFFF00
:020000040030CA
:0E000000FF281838FFBF80FF0FC00FE00F4031
:00000001FF
