:040000006EEF00F0AF
:100008004882FACF06F0FBCF07F0E9CF08F0EACF35
:1000180009F0E1CF0AF0E2CF0BF0D9CF0CF0DACF3C
:100028000DF0F3CF0EF0F4CF0FF0F6CF10F0F7CFBE
:1000380011F0F8CF12F0F5CF13F048C014F049C012
:1000480015F04AC016F04BC017F0F2B6F2A003D074
:1000580081EC21F019D0F2BAF2A403D089EC17F0A0
:1000680013D0F2AC11D0A0B8A1A803D0D5EC21F0E0
:100078000BD09DB89EA803D0F4EC1EF005D09DBA15
:100088009EAA02D0F7EC1FF017C04BF016C04AF03A
:1000980015C049F014C048F013C0F5FF12C0F8FFAE
:1000A80011C0F7FF10C0F6FF0FC0F4FF0EC0F3FF3A
:1000B8000DC0DAFF0CC0D9FF0BC0E2FF0AC0E1FF98
:1000C80009C0EAFF08C0E9FF07C0FBFF06C0FAFF46
:0800D800489211009AEF19F0A3
:10060000001C0401000B3061003A19C000C9FC1045
:100610001128042D10E700001276600035250080B7
:100620000084BF0008030000001200000001000069
:100630000C8006200004080C0010001400000018B4
:1006400000000405060708090A0D19442344634401
:10065000A344E30204060800803F72313FFE753E6A
:1006600058633D951D3CC5AE3A7921399480379346
:10067000A73556153400000000803FF0FFBEE2A908
:100680003E8376BEAE2B3E3CC3BDD2133D78D3BB7A
:100690004D617220323520323031380031313A31FB
:1006A000353A33390000000E0001606F000E616FB3
:1006B000000E626F000E636F640E206E000E216EDE
:1006C000000E236E120E226EF8EC20F0240E0001B4
:1006D000646F020E656F220E666F0D0E676FD00E8F
:1006E000246EFF0E256E970EF66E060EF76E08004E
:1006F000F5CF26F0D00E2624186E196AFF0E1922A7
:10070000030E1B6EE80E1A6E5FEC20F09A0EF66E6A
:10071000060EF76E0800F550276E286A1850272637
:1007200019502822980EF66E060EF76E0800F5CFC7
:1007300029F0D00E2924186E196AFF0E1922000E16
:100740001B6E640E1A6E5FEC20F0185027261950AD
:100750002822990EF66E060EF76E0800F5CF2AF0E5
:10076000D00E2A24186E196AFF0E1922000E1B6E75
:100770000A0E1A6E5FEC20F0185027261950282216
:10078000245027262550282228C027F0286A2750E1
:100790000001686F9A0EF66E060EF76E0800F5CF30
:1007A00024F0990EF66E060EF76E0800F550D00F85
:1007B0000A0DF3CF25F0980EF66E060EF76E0800C0
:1007C000F5CF26F0D00E2624186E196AFF0E1922D6
:1007D000000E1B6E640E1A6E5FEC20F0970EF66E24
:1007E000060EF76E0800F550D00FE80DF3501824F0
:1007F00025242424D00F0001696F900EF66E060E9A
:10080000F76E0800F5CF6AF0910EF66E060EF76EE1
:100810000800F5CF6BF0920EF66E060EF76E08002C
:10082000F5CF6CF0940EF66E060EF76E300E0800E3
:10083000F56005D0000E776F000E766F17D0940E1E
:10084000F66E060EF76E0800F5CF24F0D00E2424C5
:10085000186E196AFF0E1922000E1B6E0A0E1A6E10
:100860005FEC20F018C076F019C077F0D00E246E3F
:10087000FF0E256E950EF66E060EF76E0800F5500B
:1008800000017625266E000E7721276E245026263D
:100890002550272227C026F0276A26506D6F940E18
:1008A000F66E060EF76E300E0800F56005D0000EED
:1008B000796F000E786F17D0940EF66E060EF76EF5
:1008C0000800F5CF24F0D00E2424186E196AFF0E0C
:1008D0001922000E1B6E0A0E1A6E5FEC20F018C073
:1008E00078F019C079F0950EF66E060EF76E0800D6
:1008F000F55000017825D00F6E6FD00E246EFF0EDC
:10090000256E9C0EF66E060EF76E0800F5CF26F0EB
:10091000D00E2624186E196AFF0E1922000E1B6EC7
:100920000A0E1A6E5FEC20F09D0EF66E060EF76E44
:100930000800F5501826000E1922245018262550BC
:10094000192219C018F0196A185000016F6F9D0E16
:10095000F66E060EF76E0800F5CF24F09C0EF66ECC
:10096000060EF76E0800F550D00F0A0DF350242440
:10097000D00F706FD00E246EFF0E256E9F0EF66E98
:10098000060EF76E0800F5CF26F0D00E2624186E5E
:10099000196AFF0E1922000E1B6E0A0E1A6E5FEC0A
:1009A00020F0A00EF66E060EF76E0800F550182621
:1009B000000E1922245018262550192219C018F0AB
:1009C000196A18500001716FA00EF66E060EF76ED0
:1009D0000800F5CF24F09F0EF66E060EF76E0800A5
:1009E000F550D00F0A0DF3502424D00F726FD00EA3
:1009F000246EFF0E256EA20EF66E060EF76E080030
:100A0000F5CF26F0D00E2624186E196AFF0E192293
:100A1000000E1B6E0A0E1A6E5FEC20F0A30EF66E2F
:100A2000060EF76E0800F5501826000E1922245005
:100A300018262550192219C018F0196A18500001FB
:100A4000736FA30EF66E060EF76E0800F5CF24F056
:100A5000A20EF66E060EF76E0800F550D00F0A0DC6
:100A6000F3502424D00F746F640E186E000E196EAC
:100A7000000E1B6E110E1A6E7AEC1DF00001756FE0
:100A8000640E196E000E1A6E000E1C6E120E1B6E96
:100A90002BEC1FF012000001CC6F010E186E00014C
:100AA000CC5164EC1EF0000E0001CE6F000EC86F3A
:100AB000000EC96F000ECA6F000ECB6F000ECD6F17
:100AC0000C0ECD6501D01200CD2900080D0FCE6FA0
:100AD000CE51D8B413D0CE05D8B410D0020ECE1952
:100AE000D8B40CD0040ECE19D8B408D0060ECE1946
:100AF000D8B404D00A0ECE19D8A4EBD0CC51D8A4C7
:100B000071D0000EB26F040EB16FCE51010D350ED3
:100B1000F324F66E060EF420F76E0800F5508BEC09
:100B20000FF0B1C0C8F0B2C0C9F0B3C0CAF0B4C0D1
:100B3000CBF00001C82947E1C92945E1CA2943E1B1
:100B4000CB29D8A440D0CD51040D010EF324F66E6C
:100B5000060EF420F76E0900F5CF29F00900F5CF55
:100B60002AF00900F5CF2BF00A00F5CF2CF0030E88
:100B70002D6ECC51DFEC17F00001CD51040D010EAC
:100B8000F324F66E060EF420F76E0900F5CF21F07F
:100B90000900F5CF22F00900F5CF23F00A00F5CFC8
:100BA00024F0CE51010D350EF324F66E060EF4201E
:100BB000F76E0800F5CF25F0000E276E040E266EA6
:100BC000BCEC1EF0A0D0C8C029F0C9C02AF0CAC031
:100BD0002BF0CBC02CF0030E2D6E0001CC51DFECBE
:100BE00017F091D00001CC05D8A48DD0000EB26FC3
:100BF000040EB16FCE51010D350EF324F66E060EC4
:100C0000F420F76E0800F55020098BEC0FF0B1C00E
:100C1000C8F0B2C0C9F0B3C0CAF0B4C0CBF0000194
:100C2000C82948E1C92946E1CA2944E1CB29D8A409
:100C300041D0CD51040D010EF324F66E060EF420C2
:100C4000F76E0900F5CF29F00900F5CF2AF0090069
:100C5000F5CF2BF00A00F5CF2CF0030E2D6ECC5102
:100C6000DFEC17F00001CD51040D010EF324F66EF8
:100C7000060EF420F76E0900F5CF21F00900F5CF3C
:100C800022F00900F5CF23F00A00F5CF24F0CE5171
:100C9000010D350EF324F66E060EF420F76E0800F3
:100CA000F5502009256E000E276E040E266EBCEC52
:100CB0001EF029D0C8C029F0C9C02AF0CAC02BF044
:100CC000CBC02CF0030E2D6E0001CC51DFEC17F0E1
:100CD0001AD00001CD51040D010EF324F66E060E5C
:100CE000F420F76E0900F5CF29F00900F5CF2AF0BE
:100CF0000900F5CF2BF00A00F5CF2CF0030E2D6E76
:100D0000CC51DFEC17F00001CD2BDAD60101DB6FFF
:100D1000CB0E206E010E216E000E236E100E226E81
:100D2000F8EC20F0000E0101DC6F000EDD6FB20E5A
:100D3000206E010E216E000E236E160E226EF8EC50
:100D400020F0240E0101B26F040EB36F100EB56FC8
:100D5000DB51D8A44FD0470EB46F000E0001B26F24
:100D6000040EB16F350EF66E060EF76E0800F550E4
:100D70008BEC0FF0B1C0CBF1B2C0CCF1B3C0CDF170
:100D8000B4C0CEF1000E0001B26F040EB16F360E8A
:100D9000F66E060EF76E0800F5508BEC0FF0B1C042
:100DA000CFF1B2C0D0F1B3C0D1F1B4C0D2F1000ED6
:100DB0000001B26F040EB16F370EF66E060EF76EBD
:100DC0000800F5508BEC0FF0B1C0D3F1B2C0D4F1F4
:100DD000B3C0D5F1B4C0D6F1000E0001B26F040E5D
:100DE000B16F390EF66E060EF76E0800F5508BECFB
:100DF0000FF056D00101DB05D8A45AD0460EB46FCF
:100E0000000E0001B26F040EB16F350EF66E060EC5
:100E1000F76E0800F55020098BEC0FF0B1C0CBF154
:100E2000B2C0CCF1B3C0CDF1B4C0CEF1000E000120
:100E3000B26F040EB16F360EF66E060EF76E080036
:100E4000F55020098BEC0FF0B1C0CFF1B2C0D0F15A
:100E5000B3C0D1F1B4C0D2F1000E0001B26F040EE4
:100E6000B16F370EF66E060EF76E0800F5502009CA
:100E70008BEC0FF0B1C0D3F1B2C0D4F1B3C0D5F157
:100E8000B4C0D6F1000E0001B26F040EB16F390E7E
:100E9000F66E060EF76E0800F55020098BEC0FF089
:100EA000B1C0D7F1B2C0D8F1B3C0D9F1B4C0DAF152
:100EB000000E0101DC6F030EDC6501D032D0000EA4
:100EC000DD6F040EDD6501D02AD0DC51040DCB0EA0
:100ED000F324D96E010EF420DA6EDECF18F0DECFE7
:100EE00019F0DECF1AF0DECF1BF0DDC11CF0F2EC02
:100EF0001BF00101C86FDC51040DDD51F326000E1B
:100F0000F422040EF326000EF422B20EF324D96E5E
:100F1000010EF420DA6EC8C1DFFFDD2BD2D7DC2B47
:100F2000CAD7DB51D8B403D044C0C9F102D045C000
:100F3000C9F1CA6BC9C1C6F1B20E186E010E196EA5
:100F4000000E1B6E150E1A6E7AEC1DF00101C76FB4
:100F5000B20E196E010E1A6E000E1C6E160E1B6E6E
:100F60002BEC1FF01200000E0001BF6F000EBE6FD1
:100F7000000EC06F000EB86F000EB76F000EBA6F94
:100F8000000EB96F3D50D8A4A3D0000EC06F080E5C
:100F9000C06501D06DD0C051010D420EF324F66E34
:100FA000060EF420F76E0800F550DFEC1FF018C0B5
:100FB000B3F019C0B4F0000E0001A36F200EA46FAF
:100FC000410EA56F000EA06F000EA16F400EA26F24
:100FD00078EC0DF0A0C0BBF0A1C0BCF0A2C0BDF089
:100FE000C00E00016C6F500E6D6F450E6E6FBBC072
:100FF0002CF0BCC02DF0BDC02EF0B3C020F0B4C0AA
:1010000021F096EC20F020C029F021C02AF022C067
:101010002BF0A2EC12F029C069F02AC06AF02BC0B4
:101020006BF027EC12F069C078F06AC079F06BC001
:101030007AF0ABEC11F078C0BEF079C0BFF0BEC062
:101040002DF0BFC02EF00001C0292F6E2BEC11F047
:10105000030E0001B26F8A0EB16F550EE82EFED757
:10106000B12FFCD7B22FFAD700D00001C02B8FD7F9
:10107000A60E186E010E196E000E1B6E0C0E1A6E67
:10108000FBEC1AF018C0B7F019C0B8F0B7C02DF0DB
:10109000B8C02EF00001C0292F6E2BEC11F09A0E73
:1010A000186E010E196E000E1B6E0C0E1A6EFBEC04
:1010B0001AF018C0B9F019C0BAF0B9C02DF0BAC012
:1010C0002EF00001C051020F2F6E2BEC11F0120018
:1010D0003D04D8A412000001FA51010D420EF32480
:1010E000F66E060EF420F76E0800F550DFEC1FF0E8
:1010F00018C0B5F019C0B6F0000E0001A36F200EA5
:10110000A46F410EA56F000EA06F000EA16F400EE0
:10111000A26F78EC0DF0A0C0BBF0A1C0BCF0A2C0E3
:10112000BDF0C00E00016C6F500E6D6F450E6E6FFE
:10113000BBC02CF0BCC02DF0BDC02EF0B5C020F05F
:10114000B6C021F096EC20F020C029F021C02AF092
:1011500022C02BF0A2EC12F029C069F02AC06AF07C
:101160002BC06BF027EC12F069C078F06AC079F000
:101170006BC07AF0ABEC11F078C0BEF079C0BFF074
:10118000BEC02DF0BFC02EF0010E2F6E2BEC11F063
:101190001200000E0101E46FDFD0040E0001F965BA
:1011A0001200010EF86F120024EC20F0000E000176
:1011B000F26F010EF9650ED0A1EC1DF00101E46F94
:1011C000E4C186F1240EE419D8A41200020E000135
:1011D000F86F1200000EF86F1200010EF965120090
:1011E000A1EC1DF00001F76FF7C087F1030EF86F57
:1011F0001200010EF9651200A1EC1DF00001F66F5E
:10120000F6C088F1040EF86F1200010EF9651200A5
:10121000A1EC1DF00001F56FF5C089F1F551D8A4DE
:1012200003D0060EF86F1200050EF86F1200F5518C
:10123000F95DD8A01200720E206E010E216E000E14
:10124000236E140E226EF8EC20F0000E0101E36F05
:10125000000EE26F22D0A1EC1DF00101E46F00014D
:10126000F2510101DE6FDF6B040EDE27000EDF237B
:10127000860EDE25D96E010EDF21DA6EE4C1DFFFB6
:101280000001F22B720E0101E225D96E010EE3215D
:10129000DA6EE4C1DFFFE24BE32B0001F5510101FF
:1012A000DE6FDF6BDE51E25DE351800AE06FDF51FC
:1012B000800AE059D8A0CFD7060E0001F86F1200BF
:1012C000F951D8B41200A1EC1DF00001F36F860EA5
:1012D000186E010E196E040EF2251A6E1B6A000EAE
:1012E0001B227AEC1DF00001F46FF451F319D8A41D
:1012F00003D0070EF86F1200000EF86F1200FE0EFA
:101300000101DE6FFF0EDF6F0001F7510101E06F99
:10131000E16BD890E037E137DE51E027DF51E12380
:10132000E50EE025D96E010EE121DA6E01D810D06C
:101330000500FA6EDE50FD6EDE50FE6EF850FF6E58
:10134000FA50720E0001E66F010EE76FF6511200BF
:10135000000E0001F86F12000001F851000AD8B425
:101360001CD7010AD8B420D7030AD8B436D7010A4B
:10137000D8B43FD7070AD8B448D7010AD8B457D74A
:10138000030AD8B49DD7010AD8A41200B8D7000127
:10139000975198119911D8A407D0000E976F800E1D
:1013A000986F3F0E996F1200720E186E310E196E03
:1013B000440E1A6E97C01BF098C01CF099C01DF027
:1013C000CBEC18F0D8B00DD0000E0101316F220E19
:1013D000306FFF0E0001976F7F0E986F7F0E996F31
:1013E000120097C018F098C019F099C01AF0490E71
:1013F0001B6E3A0E1C6EC40E1D6ECBEC18F0D8B0EE
:101400000DD0000E0101316F220E306F000E000171
:10141000976F000E986F000E996F1200000199AF40
:1014200002D0010E01D0000E9F6F9F51D8B40ED094
:1014300097C018F098C019F099C01AF084EC20F009
:1014400018C097F019C098F01AC099F097C069F0C9
:1014500098C06AF099C06BF0AA0E00016C6FB80ECC
:101460006D6F3F0E6E6F27EC12F069C097F06AC087
:1014700098F06BC099F097C08FF098C090F099C029
:1014800091F06CEC14F08FC09AF090C09BF091C07A
:101490009CF09AC078F09BC079F09CC07AF0ABECDD
:1014A00011F078C09DF079C09EF097C084F098C08C
:1014B00085F099C086F09DC020F09EC021F0D8EC48
:1014C0001EF020C087F021C088F022C089F0E5EC32
:1014D0001DF084C097F085C098F086C099F097C041
:1014E00084F098C085F099C086F0570E0001876F90
:1014F000060E886F000E8A6F090E896F48EC15F092
:1015000084C08EF085C08FF086C090F09DC091F0B1
:101510009EC092F0B3EC15F08EC097F08FC098F09B
:1015200090C099F000019F51D8B425D097290EE1C1
:101530007F0E98190BE17F0E9919D8A407D0000EE1
:10154000976F000E986F000E996F1200000E296EB3
:10155000800E2A6E3F0E2B6E97C02CF098C02DF097
:1015600099C02EF0A2EC12F029C097F02AC098F092
:101570002BC099F0120097C097F098C098F099C0CE
:1015800099F01200000E0001E36F000EE26F87C0B9
:1015900066F088C067F00A0E38EC0EF020EED4F04A
:1015A000070EEBCFDBFFE806FCE2D4C0E2F0D5C0CB
:1015B000E3F09EEC21F00009D8B412000001EA51DA
:1015C000EB11EC11ED11D8A405D0550E246E050ECB
:1015D00051EC1DF0E2C089F0E3C08AF0000E00017A
:1015E0008ABFFF0E8B6F8C6FEA51895DEB518A5970
:1015F000EC518B59ED518C59D8B00AD0E2C0DCF0D7
:10160000E3C0DDF0000EDDBFFF0EDE6FDF6F08D040
:10161000EAC0DCF0EBC0DDF0ECC0DEF0EDC0DFF0E6
:10162000DCC0E2F0DDC0E3F03EC0F1F13FC0F2F11A
:1016300040C0F3F141C0F4F1000EE16F000EE06F25
:101640008AD00101F151F211F311F411D8B407D08D
:10165000400EF15F000EF25BF35BF45B08D0B00E5E
:10166000F16F7F0EF26F000EF36F000EF46F8F0EAE
:10167000206E000E216E000E236E450E226EF8ECD9
:1016800020F0240E00018F6F050E906F540E916FA5
:10169000400E926F000EE56F000EE46FE5BF06D0BE
:1016A000E55134E1400EE45DD8B030D0040EE425BD
:1016B000896F000EE5218A6F8F0E8925D96E000E85
:1016C0008A21DA6EE4C08BF0E5C08CF0000E8CBF8E
:1016D000FF0E8D6F8E6F0101F15100018B25186E89
:1016E0000101F25100018C21196E0101F351000139
:1016F0008D211A6E0101F45100018E211B6E70ECD8
:1017000021F0DF6E0001E44BE52BC8D78F0E186E79
:10171000000E196E000E1B6E440E1A6E7AEC1DF050
:101720000001D36F8F0E196E000E1A6E000E1C6E24
:10173000450E1B6E2BEC1FF0030E00018A6F080E86
:10174000896F770EE82EFED7892FFCD78A2FFAD71C
:101750000001E04BE12BE251E05DE151800A896F2D
:10176000E351800A8959D8B012006BD726C0D9FF3F
:1017700027C0DAFFDF500001656F264A272A65512E
:101780004CEC20F0D8B0F2D7000E0001616F000ED3
:10179000626F000E636F000E646F000E606F2D0E9F
:1017A0006519D8A403D0010E606F04D02B0E651903
:1017B000D8A408D026C0D9FF27C0DAFFDF50656F54
:1017C000264A272A300E6519D8A42ED026C0D9FF64
:1017D00027C0DAFFDF50656F264A272A2A502B10D0
:1017E000D8B405D0100E2A182B10D8A415D0780E16
:1017F0006519D8B404D0580E6519D8A40DD0000EC0
:101800002B6E100E2A6E26C0D9FF27C0DAFFDF50DC
:10181000656F264A272A08D02A502B10D8A404D056
:10182000000E2B6E080E2A6E2A502B10D8A404D05E
:10183000000E2B6E0A0E2A6E655138EC20F0D8A0EF
:1018400008D00001655152EC21F0C90F0001656F0D
:1018500009D000016551DAEC20F0D8A039D0300E63
:101860000001655F65512C6E2D6A2A502C5C2D504D
:10187000800A2E6E2B50800A2E58D8B029D02AC04C
:101880001AF02BC01BF0000E1BBEFF0E1C6E1D6E4F
:1018900061C01EF062C01FF063C020F064C021F080
:1018A000FCEC1CF0000165511A24616F000E1B2036
:1018B000626F000E1C20636F000E1D20646F26C037
:1018C000D9FF27C0DAFFDF50656F264A272AB4D731
:1018D00028502910D8B40ED0FF0E26242C6EFF0EEF
:1018E00027202D6E28C0D9FF29C0DAFF2CC0DEFFCB
:1018F0002DC0DDFF00016051D8B41AD061C02CF0BA
:1019000062C02DF063C02EF064C02FF02C1E2D1E7F
:101910002E1E2F1E2C2A000E2D222E222F222CC0EE
:1019200026F02DC027F02EC028F02FC029F012007D
:1019300061C026F062C027F063C028F064C029F0BF
:1019400012007AC07EF000017F6B806B79357E37A4
:1019500001E37F817E51836F7DC07EF07F6B806B62
:101960007C357E3701E37F817E51826F8351D8B40D
:101970000BD08251835DD8B00ED0835100088225F0
:101980007E6F180E7E6507D07BC078F07CC079F042
:101990007DC07AF012008251D8B40BD08351825DA1
:1019A000D8B00ED08251000883257E6F180E7E6558
:1019B00007D078C078F079C079F07AC07AF0120058
:1019C000060E816F7ABF818F7DBF818D798FFF0E6B
:1019D0007817FF0E7917000E7A177C8FFF0E7B1792
:1019E000FF0E7C17000E7D178251835DD8B01BD08F
:1019F000D8907B377C377D37820783518219D8B4E2
:101A00000DD0810781C07EF0070E7E17D8B406D0B6
:101A1000EFD7D8907A3379337833832B8251831977
:101A2000D8B41FD0F6D78351825DD8B01AD0D890E1
:101A3000783779377A37830783518219D8B40DD034
:101A4000810781C07EF0070E7E17D8B406D0EFD78D
:101A5000D8907D337C337B33822B82518319D8A479
:101A6000F7D781AF0CD0FF0E781BFF0E791BFF0E4E
:101A70007A1B010E7827000E7923000E7A2381ADA0
:101A80000CD0FF0E7B1BFF0E7C1BFF0E7D1B010E7F
:101A90007B27000E7C23000E7D23000E816F785182
:101AA0007B2779517C237A517D237DAF0ED0FF0EA9
:101AB0007B1BFF0E7C1BFF0E7D1B010E7B27000E88
:101AC0007C23000E7D23010E816F7BC018F07CC04B
:101AD00019F07DC01AF083C01BF081C01CF032ECFD
:101AE00017F018C078F019C079F01AC07AF0120017
:101AF000000E0001AC6FA051A111A211D8A41DD0FD
:101B0000000E186E000E196E000E1A6EA3C01BF0A8
:101B1000A4C01CF0A5C01DF0CBEC18F0D8A005D0D7
:101B2000000E0101316F210E306F000E0001A06F19
:101B3000000EA16F000EA26F1200A351A411A511F7
:101B4000D8A407D0000EA06F800EA16F3F0EA26F29
:101B50001200A2AF43D0A3C078F0A4C079F0A5C012
:101B60007AF0ABEC11F078C0ADF079C0AEF07AC08D
:101B7000AFF07BC0B0F0ADC020F0AEC021F0AFC080
:101B800022F0B0C023F020EC1CF00001A35120187B
:101B900007E1A451211804E1A5512218D8B40DD0B1
:101BA000000E0101316F210E306F000E0001A06F99
:101BB000000EA16F000EA26F1200AD51010BAC6FB1
:101BC000A0C018F0A1C019F0A2C01AF084EC20F057
:101BD00018C0A0F019C0A1F01AC0A2F0A0C08EF0E9
:101BE000A1C08FF0A2C090F0F6EC0EF08EC0A6F06F
:101BF0008FC0A7F090C0A8F0A6C069F0A7C06AF097
:101C0000A8C06BF0A3C06CF0A4C06DF0A5C06EF0CE
:101C100027EC12F069C0A9F06AC0AAF06BC0ABF063
:101C2000A9C097F0AAC098F0ABC099F0C7EC09F032
:101C300097C0A0F098C0A1F099C0A2F00001AC51EB
:101C4000D8B40FD0A0C018F0A1C019F0A2C01AF0EB
:101C500084EC20F018C0A0F019C0A1F01AC0A2F0C6
:101C60001200A0C0A0F0A1C0A1F0A2C0A2F012007A
:101C700000017A6F000E00017C6F000E7D6F000E78
:101C80007E6F000E7F6F000E806F000E816F000E62
:101C9000826F000E836F000E866F000E7B6F700EDA
:101CA000206E000E216E000E236E0A0E226EF8ECDE
:101CB00020F0000E0001866F090E866501D01DD050
:101CC0008651010DF3506625D96EF4506721DA6E06
:101CD000DF507B6F100E7B19D8A402D0862B0DD05D
:101CE0008651010D700EF324D96E000EF420DA6EC9
:101CF0007B51300FDF6E862BDFD7700E266E000E05
:101D0000276E000E286E000E296E7A512A6E2B6AFD
:101D10002ABE2B06B6EC0BF026C07CF027C07DF067
:101D200028C07EF029C07FF0700E206E000E216E5C
:101D3000000E236E0A0E226EF8EC20F0000E000159
:101D4000856F000E846F85BF06D085512EE10A0E87
:101D5000845DD8B02AD0865184256E6F000E85210F
:101D60006F6F6E516625D96E6F516721DA6EDF5045
:101D70007B6F230E7B19D8B418D0700E8425D96ED2
:101D8000000E8521DA6E865184256E6F000E852146
:101D90006F6F6E516625E16E6F516721E26EE750FD
:101DA000300FDF6E844B852BCED7700E266E000E63
:101DB000276E000E286E000E296E7A512A6E2B6A4D
:101DC0002ABE2B06B6EC0BF026C080F027C081F0AF
:101DD00028C082F029C083F020EE7CF000EE66F08F
:101DE000070EDBCFEBFFE806FCE21200000190AF2C
:101DF0000DD0000E0101316F210E306F000E000179
:101E00008E6F000E8F6F000E906F12008E518F112B
:101E10009011D8A40DD0000E0101316F220E306F49
:101E2000000E00018E6F000E8F6F000E906F12007B
:101E3000000E6C6F000E6D6F400E6E6F910E1B6E7C
:101E4000000E1C6E8EC018F08FC019F090C01AF0F2
:101E500083EC18F018C069F019C06AF01AC06BF072
:101E600027EC12F069C078F06AC079F06BC07AF0A4
:101E7000000E00017B6F800E7C6FBF0E7D6FA1ECAA
:101E80000CF078C08EF079C08FF07AC090F000012D
:101E90009107D8A092078EC084F08FC085F090C0C3
:101EA00086F0750E876F060E886F000E8A6F080E1B
:101EB000896F48EC15F084C08EF085C08FF086C025
:101EC00090F0720E00016C6F310E6D6F3F0E6E6FF1
:101ED00091C020F092C021F0D8EC1EF020C069F033
:101EE00021C06AF022C06BF027EC12F069C078F0D4
:101EF0006AC079F06BC07AF08EC07BF08FC07CF046
:101F000090C07DF0A1EC0CF078C08EF079C08FF01D
:101F10007AC090F012000001C26F000E0001C36F82
:101F2000000EC46F000EC56F000EC66FB151C25FC8
:101F3000000EC76F6DD0C751B56FB66B010EB527D8
:101F4000000EB623B51FB61FB54BB62BB151B52742
:101F5000B251B623D890B537B637D890B537B63723
:101F6000D890B537B637B5C020F0B6C021F0D8EC60
:101F70001EF020C0BCF021C0BDF022C0BEF0BCC02D
:101F8000A3F0BDC0A4F0BEC0A5F0000E0001A06F7C
:101F9000000EA16F400EA26F78EC0DF0A0C0BFF054
:101FA000A1C0C0F0A2C0C1F0BFC078F0C0C079F03D
:101FB000C1C07AF0ABEC11F078C0B8F079C0B9F0DC
:101FC0007AC0BAF07BC0BBF00001C251C725C5EC96
:101FD00021F00001B56FB5511A6E1B6A1C6A1D6AAB
:101FE000B8C01EF0B9C01FF0BAC020F0BBC021F0CD
:101FF000FCEC1CF00001C3511A10C36FC4511B103C
:10200000C46FC5511C10C56FC6511D10C66FC72BBC
:10201000C751B56FB66BB151B55DB651800AB76F98
:10202000B251800AB759D8A086D7C3C0B1F0C4C096
:10203000B2F0C5C0B3F0C6C0B4F0120000018C6F9E
:102040008AC066F08BC067F00A0E38EC0EF020EE06
:102050008DF0070EEBCFDBFFE806FCE200018C51B0
:10206000D8A437D0070E3A602CD08DC029F08EC08E
:102070002AF08FC02BF090C02CF0030E2D6E8C51E7
:10208000DFEC17F08DC021F08EC022F08FC023F05E
:1020900090C024F0350E00019125F66E060E9221B7
:1020A000F76E0800F5CF25F0000E276E040E266EA1
:1020B000BCEC1EF03A2A480E246E040E51EC1DF0C2
:1020C0001200000E3A6E420E246E040E51EC1DF00A
:1020D000120000018C05D8A41200070E39602DD023
:1020E0008DC029F08EC02AF08FC02BF090C02CF04C
:1020F000030E2D6E8C51DFEC17F08DC021F08EC0D9
:1021000022F08FC023F090C024F0350E00019125FD
:10211000F66E060E9221F76E0800F5502009256E26
:10212000000E276E040E266EBCEC1EF0392A490EF6
:10213000246E040E51EC1DF01200000E396E430E99
:10214000246E040E51EC1DF01200280E206E000EBD
:10215000216E000E236E090E226EF8EC20F0240E84
:10216000286E050E296E520E2A6E040E2B6E700E0E
:10217000186E3A0E196E000E1A6E000E1B6E010ECE
:102180001C6EF2EC1BF02C6E700E186E3A0E196E6F
:10219000000E1A6E000E1B6E000E1C6EF2EC1BF091
:1021A0002D6E3EC024F03FC025F040C026F041C057
:1021B00027F0241E251E261E271E242A000E252257
:1021C00026222722F00E2424186E7F0E2520196E59
:1021D000000E26201A6E000E27201B6E010E1C6EAC
:1021E000F2EC1BF02E6E3EC024F03FC025F040C044
:1021F00026F041C027F0241E251E261E271E242A55
:10220000000E252226222722F00E2424186E7F0E8F
:102210002520196E000E26201A6E000E27201B6E38
:10222000000E1C6EF2EC1BF02F6E280E186E000EC6
:10223000196E000E1B6E080E1A6E7AEC1DF0306ED1
:10224000280E196E000E1A6E000E1C6E090E1B6E03
:102250002BEC1FF012002F500001606F616B0C0E11
:10226000D89060376137E82EFBD760C062F061C05C
:1022700063F062512D1263512E12D890EE35D96E53
:10228000EF35DA6E320ED926010EDA222DC0DEFFCE
:102290002EC0DDFFEE4BEF2BEEC060F0EFC061F023
:1022A000D89060376137615104E1400E605DD8A07D
:1022B00012009EEC21F00009D8B412003EC01DF0BF
:1022C0003FC01EF040C01FF041C020F0320E216E12
:1022D000010E226E7DEC16F0400E3E26000E3F22CF
:1022E000402241224150401006E1F00E3E5C7F0E3C
:1022F0003F58D8A01AD0800E3E6E450E3F6E000E9D
:10230000406E000E416E010E3B6E800E0101F11910
:102310000CE1450EF219F311F411D8A406D0400EC9
:10232000F127000EF223F323F423170E0001EA5DD8
:10233000FF0EEB59FF0EEC59FF0EED59D8B006D049
:10234000010EEA27000EEB23EC23ED23000EEF6FC6
:10235000000EEE6F12007AC07CF000017D6B7E6B88
:1023600079357C3701E37D817C51866F8651D8A415
:1023700009D0000E786F000E796F000E7A6F000E94
:102380007B6F1200170E7C6F78C07DF079C07EF0F5
:102390007AC07FF07C29806F04D0D8907F337E3361
:1023A0007D33802FFAD700017D51816F798FFF0E29
:1023B0007817FF0E7917000E7A177851826F7951CE
:1023C000836F7A51846F856B8E0E865F86AF16D0D1
:1023D0008651800A8F0FD8B009D0000E786F000E9A
:1023E000796F000E7A6F000E7B6F1200D8908533E4
:1023F000843383338233863FF9D715D0170E866531
:102400000FD0000E786F000E796F000E7A6F000EFD
:102410007B6F1200D89082378337843785378607E1
:102420008651D8A4F7D78151D8B408D0851F841F0E
:10243000831F826D000E83238423852382C078F05E
:1024400083C079F084C07AF085C07BF012006BC045
:102450006FF00001706B716B6A356F3701E370814B
:102460006F51726F7251D8A407D0000E696F000EC1
:102470006A6F000E6B6F12006EC06FF0706B716B45
:102480006D356F3701E370816F51776F7751D8A445
:1024900007D0000E696F000E6A6F000E6B6F12009E
:1024A00077517B0F72276BC077F06E51771B800ED0
:1024B00077176A8F6D8FFF0E6C17FF0E6D17000E6A
:1024C0006E17000E736F000E746F000E756F070E9F
:1024D000766F69A106D06C5173276D5174236E51CC
:1024E0007523D8906B336A336933D8906C376D3766
:1024F0006E37762FEED7090E766F69A106D06C5134
:1025000073276D5174236E517523D8906B336A33E2
:102510006933D890753374337333762FEED773C025
:1025200018F074C019F075C01AF072C01BF077C0B3
:102530001CF032EC17F018C069F019C06AF01AC02C
:102540006BF012002BC060F00001616B626B2A34EB
:10255000603701E361816051676F6751D8A407D08C
:10256000000E296E000E2A6E000E2B6E12002EC079
:1025700060F0616B626B2D34603701E36181605103
:10258000686F6851D8A407D0000E296E000E2A6E1D
:10259000000E2B6E1200000E646F000E656F000EB1
:1025A000666F6851890F675F2BC068F02E50681BFB
:1025B000800E68172A8EFF0E2916FF0E2A16000EAF
:1025C0002B162D8EFF0E2C16FF0E2D16000E2E161E
:1025D000180E636FD8906437653766372C50295CC6
:1025E0002D502A582E502B58D8A007D02C50295E99
:1025F0002D502A5A2E502B5A6481D89029362A36CB
:102600002B36632FE7D764C018F065C019F066C099
:102610001AF067C01BF068C01CF032EC17F018C04D
:1026200029F019C02AF01AC02BF01200240E000164
:10263000606F020E616F210E626F040E636F28C11E
:1026400069F029C16AF02AC16BF02BC16CF0000E51
:102650006E6F000E6D6F6EBF06D06E5142E1040EBC
:102660006D5DD8B03ED0040E6D25256E000E6E2136
:10267000266E600E2524D96E000E2620DA6E69C003
:1026800018F06AC019F06BC01AF06CC01BF00A0E8B
:102690001C6E000E1D6E000E1E6E000E1F6E2FECC7
:1026A0001BF01850DF6E69C018F06AC019F06BC0DB
:1026B0001AF06CC01BF00A0E1C6E000E1D6E000E90
:1026C0001E6E000E1F6E59EC19F018C069F019C08B
:1026D0006AF01AC06BF01BC06CF000016D4B6E2BE2
:1026E000BAD7600E186E000E196E000E1B6E080E23
:1026F0001A6E7AEC1DF00001686F600E196E000E04
:102700001A6E000E1C6E090E1B6E2BEC1FF01200D1
:10271000000E0001CC6F000ECD6FD10E206E000EAA
:10272000216E000E236E070E226EF8EC20F0240EB0
:102730000001D16F060ED26F620ED36F020ED46FFE
:10274000C8C0D9FFC9C0DAFFDF50D06F000EB26F2A
:10275000020EB16FD051010D530EF324F66E060E2A
:10276000F420F76E0800F55040098BEC0FF0B1C073
:10277000CEF0B2C0CFF0000E0001D96F000ED86FBE
:10278000D9BF06D0D9511FE1020ED85DD8B01BD0F9
:10279000040ED825CA6F000ED921CB6FD10ECA25E1
:1027A000D96E000ECB21DA6ECEC018F0CFC019F072
:1027B0001A6A1B6AD8C01CF0F2EC1BF0DF6E000135
:1027C000D84BD92BDDD7D10E186E000E196E000E26
:1027D0001B6E060E1A6E7AEC1DF00001D76FD10E3B
:1027E000196E000E1A6E000E1C6E070E1B6E2BEC7F
:1027F0001FF01200000E0001CC6FCC51800A7C0F3C
:10280000D8B01200000EB26F020EB16FCC51010DA4
:10281000530EF324F66E060EF420F76E0800F55002
:1028200040098BEC0FF0B1C0CAF0B2C0CBF0000190
:10283000CA2944E1CB29D8A441D0CC51020D4B0E7A
:10284000F324F66E060EF420F76E0900F5CFC8F0FB
:102850000900F5CFC9F0C8C029F0C9C02AF02B6A19
:102860002C6A010E2D6E020EDFEC17F00001CC5128
:10287000020D4B0EF324F66E060EF420F76E0900DF
:10288000F5CFC8F00900F5CFC9F0C8C021F0C9C024
:1028900022F0236A246ACC51010D530EF324F66E04
:1028A000060EF420F76E0800F5504009256E000E64
:1028B000276E020E266EBCEC1EF00BD0CAC029F0AB
:1028C000CBC02AF02B6A2C6A010E2D6E020EDFECB3
:1028D00017F00001CC2B91D78FC018F090C019F0E1
:1028E00091C01AF0950E1B6E000E1C6E83EC18F052
:1028F000000196AF10D091AF07D0000E8F6F800E01
:10290000906FBF0E916F1200000E8F6F000E906FD0
:10291000000E916F1200965104E1150E955DD8A03E
:1029200007D08FC08FF090C090F091C091F012004E
:102930008FC078F090C079F091C07AF0ABEC11F0D4
:1029400078C087F079C088F07AC089F07BC08AF0BF
:1029500017EC1AF087C092F088C093F089C094F009
:102960008FC018F090C019F091C01AF092C01BF0FF
:1029700093C01CF094C01DF0CBEC18F0D8B016D06A
:1029800092C078F093C079F094C07AF0000E000104
:102990007B6F800E7C6FBF0E7D6FA1EC0CF078C05A
:1029A0008FF079C090F07AC091F0120092C08FF051
:1029B00093C090F094C091F0120083B81ED04350A1
:1029C000800A7F0FD8A005D0010E4BEC05F043061E
:1029D00003D0020E94EC1BF038C018F0196A000EF8
:1029E0001B6E0C0E1A6E8EEC1AF0A60E1824D96E01
:1029F000010E1920DA6E000E12D0020E436E38C09E
:102A000018F0196A000E1B6E0C0E1A6E8EEC1AF07E
:102A1000A60E1824D96E010E1920DA6E010EDF6E93
:102A2000382A83B220D04250800A7F0FD8A005D028
:102A3000000E4BEC05F0420603D0020E94EC1BF0A6
:102A400037C018F0196A000E1B6E0C0E1A6E8EEC51
:102A50001AF09A0E1824D96E010E1920DA6E000EA3
:102A6000DF6E372A1200020E426E37C018F0196A64
:102A7000000E1B6E0C0E1A6E8EEC1AF09A0E1824B5
:102A8000D96E010E1920DA6E010EDF6E372A1200A0
:102A900089C018F08AC019F0000E1B6E030E1A6E62
:102AA0005FEC20F087C02FF088C030F018502F2640
:102AB000195030222FC0F6FF30C0F7FF0900F5CFC4
:102AC0008BF00900F5CF8CF00A00F5CF8DF03FD0E8
:102AD0008BC06CF08CC06DF08DC06EF084C069F05E
:102AE00085C06AF086C06BF027EC12F069C078F000
:102AF0006AC079F06BC07AF0000E1B6E030E1A6E7E
:102B000000018907D8A08A0789C018F08AC019F087
:102B10005FEC20F087C02FF088C030F018502F26CF
:102B2000195030222FC0F6FF30C0F7FF0900F5CF53
:102B30007BF00900F5CF7CF00A00F5CF7DF0A1EC29
:102B40000CF078C08BF079C08CF07AC08DF0000169
:102B500089518A11D8A4BCD78BC084F08CC085F071
:102B60008DC086F0120000018E518F119011D8A4F3
:102B700007D0000E8E6F000E8F6F000E906F120048
:102B800090517F0B936F946BD890933794379351F8
:102B90009127945192238FAF03D0936B932B02D044
:102BA0000001936B93519127000E922392AF0DD0A9
:102BB000000E0101316F220E306F000E00018E6F8A
:102BC000000E8F6F000E906F120092BF17D092050B
:102BD000D8A014D0000E0101316F220E306F000119
:102BE00090AF06D0FF0E8E6F7F0E8F6FFF0EEBD76C
:102BF000FF0E8E6F7F0E8F6F7F0EE5D7923592316D
:102C0000946F9131936F90519319800B9319906F3A
:102C100091C093F0010E9317933393338F5193190F
:102C20007F0B93198F6F8EC08EF08FC08FF090C086
:102C300090F012000001856F010E0001806F000E00
:102C4000816F000E826F000E836F600E206E000E8B
:102C5000216E000E236E200E226E000E246E15ECE7
:102C600021F0600E186E000E196E25C01AF026C0F5
:102C70001BF027C01CF028C01DF04EEC1CF0000E0D
:102C80000001846F1F0E846501D026D0000E186EDF
:102C90008551D1EC1CF000018451010D600EF3242C
:102CA000D96E000EF420DA6EDF50D8B406D0010ED3
:102CB000186E8551A6EC1CF006D0000E186E0001AF
:102CC0008551A6EC1CF0010E186E00018551D1EC67
:102CD0001CF00001842BD6D7210EE82EFED700F081
:102CE000000E186E00018551A6EC1CF0000E186E47
:102CF00000018551D1EC1CF01200C00E236E7F0E36
:102D0000246E1DC025F01EC026F023502516245029
:102D1000261625C027F026C028F0296A2A6A000E48
:102D2000F2BE010E2B6E27501D1844E128501E18CC
:102D300041E129501F183EE12A502018D8A4120062
:102D40001DC018F01EC019F01FC01AF020C01BF0E3
:102D500095EC1FF01FC0F8FF1EC0F7FF1DC0F6FF67
:102D6000000E2C6E3F0E2C6401D013D02C50010DA0
:102D7000F3502124D96EF4502220DA6EDF50F56E24
:102D80003F0E2C18D8A402D00C0001D00D002C2A24
:102D9000E9D7A188A68EA69CA684F29E550EA76EA2
:102DA000AA0EA76EA682A6942BB002D0F29E01D0E6
:102DB000F28E12001200E00E2C6EFF0E2D6E460EEB
:102DC0002E6E3EC078F03FC079F040C07AF041C02E
:102DD0007BF00001781F791F7A1F7B1F782B000E74
:102DE00079237A237B23F00E7825206E7F0E7921BC
:102DF000216E000E7A21226E000E7B21236E20ECC4
:102E00001CF020C029F021C02AF022C02BF0A2EC37
:102E100012F029C069F02AC06AF02BC06BF0000ED6
:102E200000016C6FC80E6D6F420E6E6F27EC12F0D2
:102E300069C07CF06AC07DF06BC07EF0000E186E39
:102E4000960E196E420E1A6E7CC01BF07DC01CF0EF
:102E50007EC01DF0CBEC18F0D8B002D0010E1200ED
:102E6000000E12001B50D8B405D0185019101A10BB
:102E7000D8A40CD0000E186E000E196E000E1A6E3B
:102E800012001B2AD8901A3219321832000E181468
:102E90001D6E000E19141E6EFE0E1A141F6E1D50AC
:102EA0001E101F10D8B40CD0ECD71B2A010E182608
:102EB000000E1922000E1A22D8901A321932183236
:102EC000000E18141D6E000E19141E6EFF0E1A143B
:102ED0001F6E1D501E101F10D8B406D0E6D71B065B
:102EE000D890183619361A3619BE03D0020E1B6058
:102EF000F6D71BA0199ED8901B321B501A121C50DB
:102F0000D8A41A8E18C018F019C019F01AC01AF0F7
:102F10001200F2944750D76E46C0D6FF314A322A8B
:102F200031C001F032C002F0000E046EFA0E036EE2
:102F300006EC1EF001500210D8A403D0010E0001CF
:102F4000FE6F31C001F032C002F0050E046E140EA7
:102F5000036E06EC1EF001500210D8A403D0010E3F
:102F60000001FD6F31C001F032C002F0010E046EAD
:102F70005E0E036E06EC1EF001500210D8A403D0C2
:102F8000010E0001FC6F31C001F032C002F0000EF2
:102F9000046E0A0E036E06EC1EF001500210D8A457
:102FA00003D0010E0001FB6FB80E315C880E325861
:102FB000D8A01200000E326E000E316E1200000119
:102FC000896FF29E00018951D8B403D08905D8A435
:102FD00018D0000E186E895182EC1EF029C025F021
:102FE0002AC026F02BC027F02CC028F00001895100
:102FF0001AEC16F0010E186E0001895182EC1EF0D9
:1030000031D0020E00018919D8A42CD0000E07EC93
:1030100021F0010E2D240001876F886B000E88239C
:1030200088BF1DD0885103E18705D8A018D029C0DA
:1030300018F02AC019F02BC01AF02CC01BF087051D
:103040001C6EF2EC1BF00001866F86C01AF08951ED
:103050007AEC1CF000018707D8A08807E1D7010EA1
:1030600007EC21F0F28E12008AC066F08BC067F088
:10307000100E38EC0EF020EE91F0070EEBCFDBFFD8
:10308000E806FCE291C029F092C02AF093C02BF030
:1030900094C02CF0010E2D6E020EDFEC17F091C0E3
:1030A0008CF092C08DF093C08EF094C08FF00F0E14
:1030B00006D00001D8908F338E338D338C33E82EB9
:1030C000F8D78C51906F91C021F092C022F093C03C
:1030D00023F094C024F09051010D530EF324F66EAA
:1030E000060EF420F76E0800F5504009256E000E1C
:1030F000276E020E266EBCEC1EF0610E246E060ECC
:1031000051EC1DF01200185019101A10D8A40FD04D
:103110001BC0D9FF1CC0DAFF000EDE6E000EDD6E94
:10312000000E186E000E196E000E1A6E12001A5064
:103130007F0B1D6E1E6AD8901D361E361BC0D9FF30
:103140001CC0DAFF1DC0DEFF1EC0DDFF19AE03D0BC
:103150001D6A1D2A01D01D6A1D501BC0D9FF1CC04D
:10316000DAFFDE12000EDD121BC0D9FF1CC0DAFF31
:10317000820EDE26FF0EDD221A801A821A841A863B
:103180001A881A8A1A9C199E18C018F019C019F0CA
:103190001AC01AF012001AAE16D018C01EF019C0CC
:1031A0001FF01AC020F01E1E1F1E201E1E2A000E19
:1031B0001F222022000E1E24186E000E1F20196EE2
:1031C000800E20201A6E1DAE16D01BC01EF01CC033
:1031D0001FF01DC020F01E1E1F1E201E1E2A000EE6
:1031E0001F222022000E1E241B6E000E1F201C6EAC
:1031F000800E20201D6E000E181A000E191A800E67
:103200001A1A000E1B1A000E1C1A800E1D1A1B50D3
:10321000185C1C5019581D501A58D8B002D0D890BC
:103220001200D88012000001E86F28D0E6C08AF0B2
:10323000E7C08BF0000E1EEC10F01200E6C08AF022
:10324000E7C08BF0010E1EEC10F01200010ED9EC5D
:1032500019F01200000ED9EC19F01200E6C0C8F007
:10326000E7C0C9F0010E86EC06F01200E6C0C8F017
:10327000E7C0C9F0000E86EC06F012000001E8512C
:10328000400AD8B41200010AD8B41200030AD8B414
:10329000CDD7010AD8B4D2D7070AD8B4D7D7010AF4
:1032A000D8B4D8D7030AD8B4D9D7010AD8A4120001
:1032B000DDD7000E206E000E216E000E226E000E75
:1032C000236E1C501D101E101F10D8B42AD0010EE2
:1032D000246E06D0D8901C361D361E361F36242A82
:1032E0001FAEF8D7D89020362136223623361C5010
:1032F000185C1D5019581E501A581F501B58D8A042
:1033000009D01C50185E1D50195A1E501A5A1F50D1
:103310001B5A2080D8901F321E321D321C32242EA0
:10332000E1D720C018F021C019F022C01AF023C044
:103330001BF01200F20EF66E420EF76E000EF86EE3
:1033400001EEE5F010EE10F00900F5CFEEFFE550CC
:10335000E150FAE1940EF66E430EF76E000EF86E31
:1033600000EE3EF010EE08F00900F5CFEEFFE5505C
:10337000E150FAE102EE00F0460EEE6AE806FDE1E9
:1033800001EE00F0B20EEE6AE806FDE100EEEAF0B2
:10339000150EEE6AE806FDE100EE31F00D0EEE6A64
:1033A000E806FDE148904892000EF86E000154EFE7
:1033B0001AF00001CF6F0001CF51D8A41AD04550A8
:1033C000D8A402D0010E01D0000E456E4550D8B4ED
:1033D00004D0CF514BEC05F006D0000E186E000162
:1033E000CF5164EC1EF0450E246E040E51EC1DF01E
:1033F00012000001CF05D8A412004450D8A402D076
:10340000010E01D0000E446E4450D8B404D0CF5108
:103410004BEC05F006D0000E186E0001CF5164ECA5
:103420001EF0440E246E040E51EC1DF01200000E2E
:10343000306E8E0E2F6E00018AAF11D08A1F891F49
:10344000881F876D000E882389238A23010E306E22
:1034500006D0D8908A338933883387332F2A000ED9
:1034600087158B6F000E88158C6F000E89158D6F78
:10347000FF0E8A158E6F8B518C118D118E11D8A471
:10348000E8D787C018F088C019F089C01AF02FC09B
:103490001BF030C01CF032EC17F018C087F019C0D8
:1034A00088F01AC089F01200B1EC21F047EC21F04D
:1034B000ABEC21F0030EC3EC1BF0C9EC08F00001EB
:1034C000FB05D8A406D0C3EC1DF0000E0001FB6F75
:1034D000F4D7FD05D8A410D030EC21F0DBEC16F0C9
:1034E000E806D8A403D0020E94EC1BF0B3EC07F06E
:1034F000000E0001FD6FE1D7FC05D8A406D0A5ECB5
:1035000021F0000E0001FC6FD8D7FE05D8A4D5D756
:10351000DDEC14F0000E0001FE6FCFD7000E1D6E23
:1035200019AE06D0186C191ED8B0192A010E1D6EDE
:103530001BAE04D01A6C1B1ED8B01B2A1A501B10CD
:10354000D8B418D0010E1C6E04D0D8901A361B3691
:103550001C2A1BAEFAD71A50185C1B501958D8A059
:1035600004D01A50185E1B50195AD8901B321A32C8
:103570001C2EF1D71D50D8B404D0186C191ED8B029
:10358000192A18C018F019C019F01200000E2E6E7A
:10359000000E2D6E2EBE06D02E5027E10A0E2D5C99
:1035A000D8B023D08B80820E2C6EDE0EE82EFED794
:1035B0002C2EFCD78A88820E2C6EDE0EE82EFED7CB
:1035C0002C2EFCD78B90820E2C6EDE0EE82EFED7B2
:1035D0002C2EFCD78A98820E2C6EDE0EE82EFED79B
:1035E0002C2EFCD72D4A2E2AD5D7140E246E010E70
:1035F00051EC1DF01200000E206E000E1F6E000E2A
:10360000226E000E216E1CD021501824D96E22503B
:103610001920DA6EDF50D8B411D021C01CF0010E91
:103620001D6E000E1E6E1C2A03D0D8901D361E364D
:103630001C2EFBD71D501F121E502012214A222A79
:103640001A50215C2250800A1C6E1B50800A1C58A4
:10365000D8A0DAD71FC018F020C019F012001C50F3
:103660001D101E101F10D8B424D0010E206E06D0DD
:10367000D8901C361D361E361F36202A1FAEF8D7AE
:103680001C50185C1D5019581E501A581F501B58BA
:10369000D8A008D01C50185E1D50195A1E501A5A36
:1036A0001F501B5AD8901F321E321D321C32202E42
:1036B000E7D718C018F019C019F01AC01AF01BC0CB
:1036C0001BF01200000E8D6E000E8C6E060E896EC1
:1036D000000E8A6E000E8B6E070E966EE10E926ED5
:1036E000EF0E936E800E946EF20E956E340E0F01F7
:1036F0003A6F3E0E396FE40E3B6F070E3C6F2F0E94
:10370000386FC30E616EF19E6288628AB00E186EC9
:10371000430E196EC0EC21F0AE0E186E430E196EFA
:10372000BBEC21F0F28612001B6E000E1D6E000E27
:103730001C6E1B50186E196A18501C5C1D50800AB4
:103740001A6E1950800A1A58D8B012008A98020EC0
:10375000196E040E186EBA0EE82EFED7182EFCD77E
:10376000192EFAD700D08A88020E196E040E186E30
:10377000BA0EE82EFED7182EFCD7192EFAD700D095
:103780001C4A1D2AD6D71B6E000E1D6E000E1C6E25
:103790001B50186E196A18501C5C1D50800A1A6E56
:1037A0001950800A1A58D8B012008B90020E196E68
:1037B000040E186EBA0EE82EFED7182EFCD7192E5E
:1037C000FAD700D08B80020E196E040E186EBA0E56
:1037D000E82EFED7182EFCD7192EFAD700D01C4A97
:1037E0001D2AD6D71FD018501200195012001A5097
:1037F0001200000E18141D6E000E19141E6E000E1D
:103800001A141F6EFF0E1B14206E190E05D0D890CF
:1038100020321F321E321D32E82EF9D71D50120001
:10382000000E12001C50000AD8B4DDD7010AD8B42B
:10383000DCD7030AD8B4DBD7010AD8B4DAD7F0D77B
:103840008E0E286E06D0D8902332223221322032BA
:10385000282A000E2014246E000E2114256E000E5E
:103860002214266EFF0E2314276E245025102610D6
:103870002710D8A4E8D720C018F021C019F022C022
:103880001AF028C01BF0000E1C6E32EC17F018C0A6
:1038900020F019C021F01AC022F01200000E216E93
:1038A000000E206E21BE06D0215023E1210E205CA7
:1038B000D8B01200010E20241E6E000E21201F6EB3
:1038C0001E1E1F1E1E4A1F2A200E1E26000E1F220D
:1038D0001E501824D96E1F501920DA6E1A50010B91
:1038E000DF6ED8901D321C321B321A32204A212A38
:1038F000D9D712001C6E080E1B6E1AD0010E186E5E
:103900001C50D1EC1CF01AAE06D0010E186E1C50E3
:10391000A6EC1CF005D0000E186E1C50A6EC1CF096
:10392000000E186E1C50D1EC1CF01B06D8901A36F5
:103930001B50D8A4E3D7000E186E1C50A6EC1CF048
:10394000000E186E1C50D1EC1CF01200196E1ED027
:103950001804D8A402D08C8012001850D8A41200E9
:103960008C9012001804D8A402D08B8A1200185030
:10397000D8A412008B9A12001804D8A402D0898807
:1039800012001850D8A41200899812001950000A89
:10399000D8B4DED7010AD8B4E5D7030AD8A41200F8
:1039A000EBD7196E1ED01804D8A402D08B86120053
:1039B0001850D8A412008B9612001804D8A402D074
:1039C0008B8812001850D8A412008B98120018048B
:1039D000D8A402D0898612001850D8A41200899663
:1039E00012001950000AD8B4DED7010AD8B4E5D7BE
:1039F000030AD8A41200EBD7000E226E000E236E2D
:103A0000000E246E000E256E1AA008D01E5022262D
:103A10001F5023222050242221502522D8901E36C8
:103A20001F3620362136D8901D321C321B321A32F6
:103A30001A501B101C101D10D8A4E6D722C01AF073
:103A400023C01BF024C01CF025C01DF01200800E06
:103A50003E6E450E3F6E000E406E000E416E800EB3
:103A60000101F16F450EF26F000EF36F000EF46F5F
:103A7000000E0001EA6F000EEB6F000EEC6F000EFF
:103A8000ED6F320E206E010E216E000E236E200EA1
:103A9000226EF8EC20F0510E246E050E51EC1DF054
:103AA0001200256E260E206E000E216E000E236E73
:103AB000060E226EF8EC20F0240E266E25C027F0AC
:103AC00024C028F0000E296E260E186E000E196E06
:103AD000000E1B6E050E1A6E7AEC1DF02B6E260E74
:103AE000196E000E1A6E000E1C6E060E1B6E2BEC6D
:103AF0001FF01200000E1E6E000E1D6E000E206ED6
:103B0000000E1F6E0ED01F501824D96E20501920A1
:103B1000DA6EDF501C6E1C501D26000E1E221F4A3E
:103B2000202A1A501F5C2050800A1C6E1B50800AED
:103B30001C58D8A0E8D7FF0E1D16000E1E161D50EB
:103B40001200000E1A6E000E196E0001F951D8A471
:103B500002D0195012003350010D000EF324D96E1B
:103B6000010EF420DA6EDF50186E1850196E1A6AC2
:103B7000332A270E336402D0000E336E9D9AF90764
:103B80009D8A19501200010E01012827000E2923D9
:103B90002A232B2328C118F029C119F02AC11AF0B1
:103BA0002BC11BF0800E1C6E430E1D6E000E1E6E90
:103BB000000E1F6E2FEC1BF018C028F119C029F160
:103BC0001AC02AF11BC02BF1120000018751881185
:103BD0008911D8B406D0000E871B000E881B800EFA
:103BE000891B84C078F085C079F086C07AF087C0E0
:103BF0007BF088C07CF089C07DF0A1EC0CF078C02F
:103C000084F079C085F07AC086F012000350041069
:103C1000D8B418D0010E056E04D0D89003360436FF
:103C2000052A04AEFAD70350015C04500258D8A00C
:103C300004D00350015E0450025AD890043203327B
:103C4000052EF1D701C001F002C002F01200000EF3
:103C50004BEC05F0010E4BEC05F0A60E206E010EAC
:103C6000216E000E236E0C0E226E000E246E15ECDB
:103C700021F09A0E206E010E216E000E236E0C0EA6
:103C8000226E000E246E15EC21F01200186E000159
:103C9000FF51D8B4FCD79DB803D018C0ADFF12D0E7
:103CA0009D983650010D000EF324D96E020EF420BB
:103CB000DA6E18C0DFFF362A450E366402D0000ED9
:103CC000366EFF079D881200196E14D01804D8A410
:103CD00002D08B8212001850D8A412008B921200CE
:103CE0001804D8A402D08C8412001850D8A4120052
:103CF0008C9412001950000AD8B4E8D7010AD8A44D
:103D00001200EED7196E14D01804D8A402D08B84F8
:103D100012001850D8A412008B9412001804D8A4D2
:103D200002D08C8612001850D8A412008C96120073
:103D30001950000AD8B4E8D7010AD8A41200EED767
:103D40000001E86F0DD027EC1DF01200A5EC10F07B
:103D50001200E6C087F0E7C088F0C2EC0AF012005B
:103D60000001E851510AD8B4EED7030AD8B4EED70F
:103D7000010AD8A41200EDD726C029F015D021C021
:103D800018F022C019F023C01AF024C01BF0290437
:103D90001C6EF2EC1BF0286E28C01BF029500008A6
:103DA000252497EC21F029062950D8B41200E7D732
:103DB000000E236E21AE06D0206C211ED8B0212A21
:103DC000010E236E20C018F021C019F01A6A8E0E61
:103DD0001B6E23C01CF032EC17F018C020F019C085
:103DE00021F01AC022F01200460E0001FF6112D02D
:103DF0003550010D000EF324D96E020EF420DA6E58
:103E0000DF50AD6E352A450E356402D0000E356E9A
:103E1000FF2B12009D98000E356E000E366E1200BC
:103E20009D9A9D98080EB86E900EAB6E240EAC6EE7
:103E3000100EAF6E000EB06E000E366E000E356EB8
:103E4000460E0001FF6F000E346E000E336E000E42
:103E5000F96F9D8A1200000E1F6E000E1E6E0BD0B1
:103E60001E501924D96E1F501A20DA6EDF5046EC0E
:103E70001EF01E4A1F2A1B501E5C1F50800A1D6E1A
:103E80001C50800A1D58D8B01200EAD7196E000ED7
:103E9000F2BE010E1A6E19C0A9FF18C0A8FFA69E97
:103EA000A69CA684F29E550EA76EAA0EA76EA682A9
:103EB000A6B2FED7A6941AB002D0F29E01D0F28E1E
:103EC00012000001E86F0ED0E6C08AF0E7C08BF068
:103ED00034EC18F01200E6C0C8F0E7C0C9F088EC76
:103EE00013F012000001E851610AD8B4EDD7030ABB
:103EF000D8A41200F0D7F80ED76E2F0ED66ED6507B
:103F0000D7CF1AF01B6A1AC01BF01A6A1A10466E35
:103F10001B50476EF294F28A000E186E000E196E56
:103F2000B6EC21F0900ED56E1200000EF2BE010E1E
:103F30001C6E1AC0F8FF19C0F7FF18C0F6FFA68E56
:103F4000A69CA684A688F29E550EA76EAA0EA76E02
:103F5000A6821CB002D0F29E01D0F28E12000001A7
:103F6000E96F06D0C6EC1AF0120089EC21F01200BD
:103F70000001E951110AD8B4F8D7030AD8B41200E5
:103F8000010AD8B41200070AD8A41200EBD72CC03B
:103F9000D9FF2DC0DAFFDF503D6E3D04D8A409D013
:103FA00020EE01F02C50D9262D50DA22DF500001EE
:103FB000FA6F320E246E030E51EC1DF012001C6ECF
:103FC0001CC01AF01A461A46C2501A18830B1A1847
:103FD000C26EC280C282C2B2FED7C4501B6E1A6AC1
:103FE000C3501A24186E000E1B20196E1200ABA2CB
:103FF00002D0AB98AB883450010D000EF324D96E7B
:10400000010EF420DA6EAECFDFFF342A270E3464BF
:1040100002D0000E346E0001F92B120018C01EF001
:1040200019C01FF008D01EC0D9FF1FC0DAFF1AC088
:10403000DFFF1E4A1F2A1C06D8A01D061C28F3E11C
:104040001D28D8B41200EFD7000E0001F56F000E46
:10405000F46F000EF36F000EF26F860E206E010EED
:10406000216E000E236E140E226EF8EC20F012006A
:104070001D6E010E1C6E7B0E1D6003D0610E1D6057
:1040800007D01D50E9EC20F0D8B002D0000E1C6E15
:104090001CC01BF01B3012001A6E010E196E200E90
:1040A0001A18D8B408D00E0E1A6003D0090E1A6080
:1040B00002D0000E196E19C018F0183012001850F6
:1040C0001A02F3CF1CF0F4CF1DF018501B02F3506E
:1040D0001D2619501A02F3501D261CC018F01DC0D1
:1040E00019F012000001E96F06D053EC03F0120042
:1040F00016EC13F012000001E951210AD8B4F8D7E8
:10410000030AD8A41200F1D7185019101A10D8B405
:1041100006D0000E181A000E191A800E1A1A18C0AE
:1041200018F019C019F01AC01AF0120020C018F0C7
:1041300021C019F01A6A8E0E1B6E000E1C6E32EC36
:1041400017F018C020F019C021F01AC022F0120098
:104150000101F751F811D8B4120001D8120005007E
:10416000FA6EF751FD6EF851FE6EF850FF6EFA5080
:1041700012000101F951FA11D8B4120001D812004D
:104180000500FA6EF951FD6EFA51FE6EF850FF6EA1
:10419000FA5012000001E86F07D0E6C02CF0E7C02B
:1041A0002DF0C7EC1FF012000001E851320AD8A42C
:1041B0001200F3D71A6E000E196E3A0E1A6005D06F
:1041C0002F0E1A6402D0010E196E19C018F01830A3
:1041D00012001A6E000E196E5B0E1A6005D0400EAA
:1041E0001A6402D0010E196E19C018F018301200AE
:1041F00020C018F021C019F0000E1B6E000E1A6EC0
:1042000022C01CF023C01DF00EEC20F01200186E2E
:1042100004D089941200898412001850000AD8B47E
:10422000F8D7010AD8A41200F6D720C018F021C090
:1042300019F024C01AF01B6A22C01CF023C01DF024
:104240000EEC20F01200D1EC21F062EC1BF090ECAF
:1042500021F07BEC1FF03CEC21F010EC1FF0120081
:104260008BB003D0186A182A01D0186A8B5018181E
:10427000FE0B18188B6E1200050EC26E000EC16E7A
:10428000870EC06E000EC36E000EC46E1200CEEC20
:1042900021F0D3EC21F027EC1EF066EC21F0FAECD3
:1042A00013F01200186E7B0E186004D0600E1864B4
:1042B00001D0189A18501200186E18C0A9FFA69CB9
:1042C000A69EA68000F000F0A8501200000E01018A
:1042D000286F000E296F000E2A6F000E2B6F120040
:1042E0001AC0F8FF19C0F7FF18C0F6FF0800F55014
:1042F00012005E3FE44094412632403DC23E80457C
:10430000000062B8B9EC20F062BAA8EC20F0F2909C
:104310001200110E246E010E51EC1DF0FF00120070
:10432000600ED36E040ED26E800E9B6E12001C6E59
:104330001BC018F01C5046EC1FF01200A6A201D0C2
:1043400002D0010E1200000E1200150E246E010E96
:1043500051EC1DF01200100E246E010E51EC1DF0F8
:10436000120023EC21F0F28EF28C120018C0F5F14D
:1043700019C0F6F1120018C0F7F119C0F8F11200D7
:1043800018C0F9F119C0FAF11200196E19505CEC5D
:1043900021F012008045000002020101000E3D6E76
:1043A0001200D09E1200D58E1200A19812001200A9
:0243B0001200F9
:020000040020DA
:08000000FFFFFFFFFFFFFFFF00
:020000040030CA
:0E000000FF281838FFBF80FF0FC00FE00F4031
:00000001FF
