:040000006EEF00F0AF
:100008004882FACF06F0FBCF07F0E9CF08F0EACF35
:1000180009F0E1CF0AF0E2CF0BF0D9CF0CF0DACF3C
:100028000DF0F3CF0EF0F4CF0FF0F6CF10F0F7CFBE
:1000380011F0F8CF12F0F5CF13F048C014F049C012
:1000480015F04AC016F04BC017F0F2B6F2A003D074
:1000580017EC21F019D0F2BAF2A403D085EC17F00E
:1000680013D0F2AC11D0A0B8A1A803D07AEC21F03B
:100078000BD09DB89EA803D066EC1EF005D09DBAA3
:100088009EAA02D080EC1FF017C04BF016C04AF0B1
:1000980015C049F014C048F013C0F5FF12C0F8FFAE
:1000A80011C0F7FF10C0F6FF0FC0F4FF0EC0F3FF3A
:1000B8000DC0DAFF0CC0D9FF0BC0E2FF0AC0E1FF98
:1000C80009C0EAFF08C0E9FF07C0FBFF06C0FAFF46
:0800D8004892110077EF18F0C7
:10060000001C0401000B3061003A19C000C9FC1045
:100610001128042D10E700001276600035250080B7
:10062000008483001003000000120000000100009D
:100630000C8006200004080C0010001400000018B4
:1006400000000405060708090A0D19442344634401
:10065000A344E30204060800803F72313FFE753E6A
:1006600058633D951D3CC5AE3A7921399480379346
:10067000A73556153400000000803FF0FFBEE2A908
:100680003E8376BEAE2B3E3CC3BDD2133D78D3BB7A
:100690004D617220323120323031380031383A31F8
:1006A000343A33300000000E0001606F000E616FBD
:1006B000000E626F000E636F640E206E000E216EDE
:1006C000000E236E120E226E95EC20F0240E000117
:1006D000646F020E656F220E666F0D0E676FD00E8F
:1006E000246EFF0E256E970EF66E060EF76E08004E
:1006F000F5CF26F0D00E2624186E196AFF0E1922A7
:10070000030E1B6EE80E1A6EFCEC1FF09A0EF66ECE
:10071000060EF76E0800F550276E286A1850272637
:1007200019502822980EF66E060EF76E0800F5CFC7
:1007300029F0D00E2924186E196AFF0E1922000E16
:100740001B6E640E1A6EFCEC1FF018502726195011
:100750002822990EF66E060EF76E0800F5CF2AF0E5
:10076000D00E2A24186E196AFF0E1922000E1B6E75
:100770000A0E1A6EFCEC1FF018502726195028227A
:10078000245027262550282228C027F0286A2750E1
:100790000001686F9A0EF66E060EF76E0800F5CF30
:1007A00024F0990EF66E060EF76E0800F550D00F85
:1007B0000A0DF3CF25F0980EF66E060EF76E0800C0
:1007C000F5CF26F0D00E2624186E196AFF0E1922D6
:1007D000000E1B6E640E1A6EFCEC1FF0970EF66E88
:1007E000060EF76E0800F550D00FE80DF3501824F0
:1007F00025242424D00F0001696F900EF66E060E9A
:10080000F76E0800F5CF6AF0910EF66E060EF76EE1
:100810000800F5CF6BF0920EF66E060EF76E08002C
:10082000F5CF6CF0940EF66E060EF76E300E0800E3
:10083000F56005D0000E776F000E766F17D0940E1E
:10084000F66E060EF76E0800F5CF24F0D00E2424C5
:10085000186E196AFF0E1922000E1B6E0A0E1A6E10
:10086000FCEC1FF018C076F019C077F0D00E246EA3
:10087000FF0E256E950EF66E060EF76E0800F5500B
:1008800000017625266E000E7721276E245026263D
:100890002550272227C026F0276A26506D6F940E18
:1008A000F66E060EF76E300E0800F56005D0000EED
:1008B000796F000E786F17D0940EF66E060EF76EF5
:1008C0000800F5CF24F0D00E2424186E196AFF0E0C
:1008D0001922000E1B6E0A0E1A6EFCEC1FF018C0D7
:1008E00078F019C079F0950EF66E060EF76E0800D6
:1008F000F55000017825D00F6E6FD00E246EFF0EDC
:10090000256E9C0EF66E060EF76E0800F5CF26F0EB
:10091000D00E2624186E196AFF0E1922000E1B6EC7
:100920000A0E1A6EFCEC1FF09D0EF66E060EF76EA8
:100930000800F5501826000E1922245018262550BC
:10094000192219C018F0196A185000016F6F9D0E16
:10095000F66E060EF76E0800F5CF24F09C0EF66ECC
:10096000060EF76E0800F550D00F0A0DF350242440
:10097000D00F706FD00E246EFF0E256E9F0EF66E98
:10098000060EF76E0800F5CF26F0D00E2624186E5E
:10099000196AFF0E1922000E1B6E0A0E1A6EFCEC6D
:1009A0001FF0A00EF66E060EF76E0800F550182622
:1009B000000E1922245018262550192219C018F0AB
:1009C000196A18500001716FA00EF66E060EF76ED0
:1009D0000800F5CF24F09F0EF66E060EF76E0800A5
:1009E000F550D00F0A0DF3502424D00F726FD00EA3
:1009F000246EFF0E256EA20EF66E060EF76E080030
:100A0000F5CF26F0D00E2624186E196AFF0E192293
:100A1000000E1B6E0A0E1A6EFCEC1FF0A30EF66E93
:100A2000060EF76E0800F5501826000E1922245005
:100A300018262550192219C018F0196A18500001FB
:100A4000736FA30EF66E060EF76E0800F5CF24F056
:100A5000A20EF66E060EF76E0800F550D00F0A0DC6
:100A6000F3502424D00F746F640E186E000E196EAC
:100A7000000E1B6E110E1A6E0BEC1DF00001756F4F
:100A8000640E196E000E1A6E000E1C6E120E1B6E96
:100A90009DEC1EF01200000E0001BA6F000EB96F3F
:100AA000000EBE6F000EBD6F2CC0D9FF2DC0DAFF47
:100AB000DF50606F6051BF6FC06B6C0E206E000E18
:100AC000216E000E236E450E226E95EC20F03BEC5D
:100AD00021F00009D8B412003C503D103E103F10E8
:100AE000D8B4EED03150321033103410D8B49AD07C
:100AF000BFC060F0C0C061F0000E000161BFFF0E1A
:100B0000626F636F3150605D32506159335062598A
:100B100034506359D8B002D0010E01D0000E646F7A
:100B2000656B666B676B641F651F661F671F642BB1
:100B3000000E65236623672331506425686F3250A9
:100B40006521696F335066216A6F345067216B6F7E
:100B5000685169116A116B11D8A40AD0BFC0B1F0F5
:100B6000C0C0B2F0000EB2BFFF0EB36FB46F08D0BA
:100B700031C0B1F032C0B2F033C0B3F034C0B4F021
:100B8000B1C0BDF0B2C0BEF0BEAF91D0BDC018F0D4
:100B9000BEC019F0C1EC1FF018C060F019C061F0C0
:100BA000000E000161BFFF0E626F636F60513C5C1D
:100BB00061513D5862513E5863513F58D8B016D0EC
:100BC0003C50BD25606F3D50BE21616F6051BF2715
:100BD0006151C0233CC060F03DC061F0601F611FE7
:100BE000604B612B60C0BDF061C0BEF0BDC060F065
:100BF000BEC061F0060ED89060376137E82EFBD793
:100C000060C062F061C063F0000E63BFFF0E646FEE
:100C1000656F6251FA276351FB236451FC236551D0
:100C2000FD2345D0BFC060F0C0C061F0000E0001E0
:100C300061BFFF0E626F636F3C50605D3D50615954
:100C40003E5062593F506359D8A009D03CC0B5F01E
:100C50003DC0B6F03EC0B7F03FC0B8F009D0BFC04D
:100C6000B5F0C0C0B6F0000EB6BFFF0EB76FB86FDC
:100C7000B5C0BFF0B6C0C0F0BFC060F0C0C061F08A
:100C8000060ED89060376137E82EFBD760C062F05F
:100C900061C063F0000E63BFFF0E646F656F625149
:100CA000FA5F6351FB5B6451FC5B6551FD5BFD5179
:100CB000FC113EE1FA05450EFB59D8B039D023D0DE
:100CC0000001EB51D8B428D0FA51405CFB51415897
:100CD000FC514258FD514358D8A01ED0400E40242C
:100CE000FA6F000E4120FB6F000E4220FC6F000ED9
:100CF0004320FD6FFD51FC1106E1F00EFA5D7F0E01
:100D0000FB59D8A015D0000EFA6F450EFB6F000EF0
:100D1000FC6F000EFD6F0CD03150321033103410C8
:100D2000D8A406D0550E246E050EE2EC1CF012007D
:100D3000240E00016C6F050E6D6F540E6E6F400E29
:100D40006F6F000EBA6F000EB96F85D0000EBC6FCA
:100D5000000EBB6FBCBF06D0BC512CE1400EBB5D8A
:100D6000D8B028D0040EBB25606F000EBC21616F87
:100D70006C0E6025D96E000E6121DA6EBBC062F088
:100D8000BCC063F0000E63BFFF0E646F656FFA5165
:100D90006225186EFB516321196EFC5164211A6E95
:100DA000FD5165211B6E0EEC21F0DF6E0001BB4B87
:100DB000BC2BD0D7400EFA27000EFB23FC23FD23CB
:100DC000FD51FC1106E1F00EFA5D7F0EFB59D8A033
:100DD00008D0000EFA6F450EFB6F000EFC6F000E80
:100DE000FD6F6C0E186E000E196E000E1B6E440E19
:100DF0001A6E0BEC1DF00001B06F6C0E196E000E38
:100E00001A6E000E1C6E450E1B6E9DEC1EF03150CE
:100E1000321033103410D8B41BD0150E3C5CFF0ECA
:100E20003D58FF0E3E58FF0E3F58D8B006D0010E79
:100E30003C26000E3D223E223F223150321033101C
:100E40003410D8B405D03106000E325A335A345A11
:100E50000001B94BBA2BBF51B95DBA51800A606F1E
:100E6000C051800A6059D8B0120070D70001CC6F11
:100E7000010E186E0001CC51D6EC1DF0000E0001E1
:100E8000CE6F000EC86F000EC96F000ECA6F000E45
:100E9000CB6F000ECD6F0C0ECD6501D01200CD29A9
:100EA00000080D0FCE6FCE51D8B413D0CE05D8B4F4
:100EB00010D0020ECE19D8B40CD0040ECE19D8B46E
:100EC00008D0060ECE19D8B404D00A0ECE19D8A474
:100ED000EBD0CC51D8A471D0000EB26F040EB16F1C
:100EE000CE51010D350EF324F66E060EF420F76E8A
:100EF0000800F55005EC10F0B1C0C8F0B2C0C9F060
:100F0000B3C0CAF0B4C0CBF00001C82947E1C92979
:100F100045E1CA2943E1CB29D8A440D0CD51040DE5
:100F2000010EF324F66E060EF420F76E0900F5CFDD
:100F300026F00900F5CF27F00900F5CF28F00A00C8
:100F4000F5CF29F0030E2A6ECC512AEC18F00001DF
:100F5000CD51040D010EF324F66E060EF420F76E4B
:100F60000900F5CF21F00900F5CF22F00900F5CFF7
:100F700023F00A00F5CF24F0CE51010D350EF324F5
:100F8000F66E060EF420F76E0800F5CF25F0000E81
:100F9000276E040E266E2EEC1EF0A0D0C8C026F0E0
:100FA000C9C027F0CAC028F0CBC029F0030E2A6EB2
:100FB0000001CC512AEC18F091D00001CC05D8A446
:100FC0008DD0000EB26F040EB16FCE51010D350EF3
:100FD000F324F66E060EF420F76E0800F550200993
:100FE00005EC10F0B1C0C8F0B2C0C9F0B3C0CAF08F
:100FF000B4C0CBF00001C82948E1C92946E1CA299B
:1010000044E1CB29D8A441D0CD51040D010EF324E5
:10101000F66E060EF420F76E0900F5CF26F00900F3
:10102000F5CF27F00900F5CF28F00A00F5CF29F019
:10103000030E2A6ECC512AEC18F00001CD51040D9C
:10104000010EF324F66E060EF420F76E0900F5CFBC
:1010500021F00900F5CF22F00900F5CF23F00A00B6
:10106000F5CF24F0CE51010D350EF324F66E060EA9
:10107000F420F76E0800F5502009256E000E276E4B
:10108000040E266E2EEC1EF029D0C8C026F0C9C072
:1010900027F0CAC028F0CBC029F0030E2A6E000149
:1010A000CC512AEC18F01AD00001CD51040D010EDC
:1010B000F324F66E060EF420F76E0900F5CF26F045
:1010C0000900F5CF27F00900F5CF28F00A00F5CF89
:1010D00029F0030E2A6ECC512AEC18F00001CD2B1A
:1010E000DAD60001975198119911D8A407D0000EB3
:1010F000976F800E986F3F0E996F1200720E186EE8
:10110000310E196E440E1A6E97C01BF098C01CF079
:1011100099C01DF008EC19F0D8B00DD0000E0101F7
:101120006F6F220E6E6FFF0E0001976F7F0E986F2C
:101130007F0E996F120097C018F098C019F099C0EF
:101140001AF0490E1B6E3A0E1C6EC40E1D6E08EC92
:1011500019F0D8B00DD0000E01016F6F220E6E6F26
:10116000000E0001976F000E986F000E996F12002D
:10117000000199AF02D0010E01D0000E9F6F9F5168
:10118000D8B40ED097C018F098C019F099C01AF0D2
:1011900021EC20F018C097F019C098F01AC099F00F
:1011A00097C069F098C06AF099C06BF0AA0E000170
:1011B0006C6FB80E6D6F3F0E6E6F94EC12F069C0DD
:1011C00097F06AC098F06BC099F097C08FF098C004
:1011D00090F099C091F0D9EC14F08FC09AF090C0C3
:1011E0009BF091C09CF09AC078F09BC079F09CC0B5
:1011F0007AF018EC12F078C09DF079C09EF097C09C
:1012000084F098C085F099C086F09DC020F09EC003
:1012100021F04AEC1EF020C087F021C088F022C0E7
:1012200089F076EC1DF084C097F085C098F086C0F8
:1012300099F097C084F098C085F099C086F0570E59
:101240000001876F060E886F000E8A6F090E896F86
:101250004AEC15F084C08EF085C08FF086C090F007
:101260009DC091F09EC092F0B5EC15F08EC097F045
:101270008FC098F090C099F000019F51D8B425D04C
:1012800097290EE17F0E98190BE17F0E9919D8A4CA
:1012900007D0000E976F000E986F000E996F120026
:1012A000000E296E800E2A6E3F0E2B6E97C02CF01A
:1012B00098C02DF099C02EF00FEC13F029C097F0D4
:1012C0002AC098F02BC099F0120097C097F098C0F0
:1012D00098F099C099F01200000E0001DF6FDCD089
:1012E000040EF4651200010EF36F1200ADEC1FF056
:1012F000000E0001EC6F010EF4650DD032EC1DF014
:101300000001DF6FDFC0C4F1240EDF19D8A4120082
:10131000020EF36F1200000EF36F1200010EF4655F
:10132000120032EC1DF00001F26FF2C0C5F1030EA5
:10133000F36F1200010EF465120032EC1DF0000193
:10134000F16FF1C0C6F1040EF36F1200010EF465E7
:10135000120032EC1DF00001F06FF0C0C7F1F05147
:10136000D8A403D0060EF36F1200050EF36F12001F
:10137000F051F45DD8A01200B00E206E010E216E67
:10138000000E236E140E226E95EC20F0000E00016C
:10139000DE6F000EDD6F20D032EC1DF00001DF6F3C
:1013A000EC510101EA6FEB6B040EEA27000EEB2310
:1013B000C40EEA25D96E010EEB21DA6EDFC0DFFF25
:1013C0000001EC2BB00EDD25D96E010EDE21DA6EA8
:1013D000DFC0DFFFDD4BDE2BF0510101EA6FEB6B6D
:1013E000EA510001DD5DDE51800A0101EC6FEB5135
:1013F000800AEC59D8A0D0D7060E0001F36F120076
:10140000F451D8B4120032EC1DF00001ED6FC40E9F
:10141000186E010E196E040EEC251A6E1B6A000E72
:101420001B220BEC1DF00001EE6FEE51ED19D8A45C
:1014300003D0070EF36F1200000EF36F1200FE0EC2
:101440000101EA6FFF0EEB6F0001F2510101EC6F39
:10145000ED6BD890EC37ED37EA51EC27EB51ED23EB
:10146000D80EEC25D96E010EED21DA6E01D810D020
:101470000500FA6EDE50FD6EDE50FE6EF850FF6E17
:10148000FA50B00E0001DA6F010EDB6FF15112005D
:10149000000E0001F36F1200F351000AD8B420D7F8
:1014A000010AD8B423D7030AD8B438D7010AD8B46C
:1014B00041D7070AD8B44AD7010AD8B459D7030A82
:1014C000D8B49ED7010AD8A41200B9D70201136F6D
:1014D000000E0201206F000E216F000E206E020E22
:1014E000216E000E236E120E226E95EC20F0240E5B
:1014F0000201006F040E016F0C0E036F1351D8A48C
:101500003AD0470E026F000E0001B26F040EB16FA9
:10151000350EF66E060EF76E0800F55005EC10F06D
:10152000B1C014F2B2C015F2B3C016F2B4C017F2D3
:10153000000E0001B26F040EB16F360EF66E060E8D
:10154000F76E0800F55005EC10F0B1C018F2B2C00B
:1015500019F2B3C01AF2B4C01BF2000E0001B26F50
:10156000040EB16F370EF66E060EF76E0800F550DA
:1015700005EC10F040D002011305D8A444D0460E6B
:10158000026F000E0001B26F040EB16F350EF66EE1
:10159000060EF76E0800F550200905EC10F0B1C0FA
:1015A00014F2B2C015F2B3C016F2B4C017F2000EB6
:1015B0000001B26F040EB16F360EF66E060EF76EB6
:1015C0000800F550200905EC10F0B1C018F2B2C0C7
:1015D00019F2B3C01AF2B4C01BF2000E0001B26FD0
:1015E000040EB16F370EF66E060EF76E0800F5505A
:1015F000200905EC10F0B1C01CF2B2C01DF2B3C05E
:101600001EF2B4C01FF2000E0201206F020E206510
:1016100001D032D0000E216F040E216501D02AD0F6
:101620002051040D140EF324D96E020EF420DA6E4C
:10163000DECF18F0DECF19F0DECF1AF0DECF1BF0D0
:1016400021C21CF084EC1BF00201126F2051040D2A
:101650002151F326000EF422040EF326000EF4228C
:10166000000EF324D96E020EF420DA6E12C2DFFFF0
:10167000212BD2D7202BCAD7090E106F000E186E5F
:10168000020E196E000E1B6E110E1A6E0BEC1DF081
:101690000201116F000E196E020E1A6E000E1C6E02
:1016A000120E1B6E9DEC1EF0120026C0D9FF27C043
:1016B000DAFFDF500001656F264A272A6551E9EC01
:1016C0001FF0D8B0F2D7000E0001616F000E626FFC
:1016D000000E636F000E646F000E606F2D0E6519B3
:1016E000D8A403D0010E606F04D02B0E6519D8A4C6
:1016F00008D026C0D9FF27C0DAFFDF50656F264A21
:10170000272A300E6519D8A42ED026C0D9FF27C0AD
:10171000DAFFDF50656F264A272A2A502B10D8B4EB
:1017200005D0100E2A182B10D8A415D0780E6519E4
:10173000D8B404D0580E6519D8A40DD0000E2B6E65
:10174000100E2A6E26C0D9FF27C0DAFFDF50656F62
:10175000264A272A08D02A502B10D8A404D0000EDD
:101760002B6E080E2A6E2A502B10D8A404D0000E1F
:101770002B6E0A0E2A6E6551D5EC1FF0D8A008D04A
:1017800000016551F0EC20F0C90F0001656F09D030
:101790000001655177EC20F0D8A039D0300E00015F
:1017A000655F65512C6E2D6A2A502C5C2D50800A85
:1017B0002E6E2B50800A2E58D8B029D02AC01AF08D
:1017C0002BC01BF0000E1BBEFF0E1C6E1D6E61C0F9
:1017D0001EF062C01FF063C020F064C021F08EECE8
:1017E0001CF0000165511A24616F000E1B20626F0E
:1017F000000E1C20636F000E1D20646F26C0D9FFF1
:1018000027C0DAFFDF50656F264A272AB4D7285051
:101810002910D8B40ED0FF0E26242C6EFF0E2720E0
:101820002D6E28C0D9FF29C0DAFF2CC0DEFF2DC0E5
:10183000DDFF00016051D8B41AD061C02CF062C045
:101840002DF063C02EF064C02FF02C1E2D1E2E1E16
:101850002F1E2C2A000E2D222E222F222CC026F0E5
:101860002DC027F02EC028F02FC029F0120061C033
:1018700026F062C027F063C028F064C029F012008F
:10188000000E0001BB6F000EBA6F3B50D8A473D09E
:10189000000EBC6F080EBC6501D01200BC51010DDA
:1018A000420EF324F66E060EF420F76E0800F55093
:1018B00051EC1FF018C0B3F019C0B4F0000E0001D5
:1018C000A36F200EA46F410EA56F000EA06F000E37
:1018D000A16F400EA26FF2EC0DF0A0C0B7F0A1C056
:1018E000B8F0A2C0B9F0C00E00016C6F500E6D6F61
:1018F000450E6E6FB7C02CF0B8C02DF0B9C02EF0F9
:10190000B3C020F0B4C021F033EC20F020C029F0A7
:1019100021C02AF022C02BF00FEC13F029C069F08F
:101920002AC06AF02BC06BF094EC12F069C078F01A
:101930006AC079F06BC07AF018EC12F078C0BAF097
:1019400079C0BBF0BAC02DF0BBC02EF00001BC299D
:101950002F6E1EEC11F0030E0001B26F8A0EB16FF4
:10196000550EE82EFED7B12FFCD7B22FFAD700D0F4
:101970000001BC2B8FD73B04D8A41200F551010DF8
:10198000420EF324F66E060EF420F76E0800F550B2
:1019900051EC1FF018C0B5F019C0B6F0000E0001F0
:1019A000A36F200EA46F410EA56F000EA06F000E56
:1019B000A16F400EA26FF2EC0DF0A0C0B7F0A1C075
:1019C000B8F0A2C0B9F0C00E00016C6F500E6D6F80
:1019D000450E6E6FB7C02CF0B8C02DF0B9C02EF018
:1019E000B5C020F0B6C021F033EC20F020C029F0C3
:1019F00021C02AF022C02BF00FEC13F029C069F0AF
:101A00002AC06AF02BC06BF094EC12F069C078F039
:101A10006AC079F06BC07AF018EC12F078C0BAF0B6
:101A200079C0BBF0BAC02DF0BBC02EF0010E2F6EF6
:101A30001EEC11F012007AC07EF000017F6B806B0B
:101A400079357E3701E37F817E51836F7DC07EF0E3
:101A50007F6B806B7C357E3701E37F817E51826FA7
:101A60008351D8B40BD08251835DD8B00ED083514E
:101A7000000882257E6F180E7E6507D07BC078F047
:101A80007CC079F07DC07AF012008251D8B40BD0BE
:101A90008351825DD8B00ED08251000883257E6FBD
:101AA000180E7E6507D078C078F079C079F07AC0DA
:101AB0007AF01200060E816F7ABF818F7DBF818D13
:101AC000798FFF0E7817FF0E7917000E7A177C8F2B
:101AD000FF0E7B17FF0E7C17000E7D178251835D72
:101AE000D8B01BD0D8907B377C377D3782078351A5
:101AF0008219D8B40DD0810781C07EF0070E7E1701
:101B0000D8B406D0EFD7D8907A3379337833832B93
:101B100082518319D8B41FD0F6D78351825DD8B0D3
:101B20001AD0D890783779377A378307835182195A
:101B3000D8B40DD0810781C07EF0070E7E17D8B4CF
:101B400006D0EFD7D8907D337C337B33822B825104
:101B50008319D8A4F7D781AF0CD0FF0E781BFF0EE6
:101B6000791BFF0E7A1B010E7827000E7923000ED9
:101B70007A2381AD0CD0FF0E7B1BFF0E7C1BFF0E6A
:101B80007D1B010E7B27000E7C23000E7D23000EA3
:101B9000816F78517B2779517C237A517D237DAFEA
:101BA0000ED0FF0E7B1BFF0E7C1BFF0E7D1B010E5C
:101BB0007B27000E7C23000E7D23010E816F7BC0EE
:101BC00018F07CC019F07DC01AF083C01BF081C0F2
:101BD0001CF02EEC17F018C078F019C079F01AC07C
:101BE0007AF01200000E0001AC6FA051A111A211F9
:101BF000D8A41DD0000E186E000E196E000E1A6EBD
:101C0000A3C01BF0A4C01CF0A5C01DF008EC19F087
:101C1000D8A005D0000E01016F6F210E6E6F000E6F
:101C20000001A06F000EA16F000EA26F1200A35161
:101C3000A411A511D8A407D0000EA06F800EA16F2B
:101C40003F0EA26F1200A2AF43D0A3C078F0A4C091
:101C500079F0A5C07AF018EC12F078C0ADF079C038
:101C6000AEF07AC0AFF07BC0B0F0ADC020F0AEC037
:101C700021F0AFC022F0B0C023F0B2EC1BF00001A5
:101C8000A351201807E1A451211804E1A5512218FD
:101C9000D8B40DD0000E01016F6F210E6E6F000ED3
:101CA0000001A06F000EA16F000EA26F1200AD51D7
:101CB000010BAC6FA0C018F0A1C019F0A2C01AF0BF
:101CC00021EC20F018C0A0F019C0A1F01AC0A2F0B9
:101CD000A0C08EF0A1C08FF0A2C090F070EC0FF009
:101CE0008EC0A6F08FC0A7F090C0A8F0A6C069F083
:101CF000A7C06AF0A8C06BF0A3C06CF0A4C06DF0E0
:101D0000A5C06EF094EC12F069C0A9F06AC0AAF008
:101D10006BC0ABF0A9C097F0AAC098F0ABC099F027
:101D200071EC08F097C0A0F098C0A1F099C0A2F0A3
:101D30000001AC51D8B40FD0A0C018F0A1C019F068
:101D4000A2C01AF021EC20F018C0A0F019C0A1F038
:101D50001AC0A2F01200A0C0A0F0A1C0A1F0A2C0C1
:101D6000A2F0120000017A6F000E00017C6F000EDD
:101D70007D6F000E7E6F000E7F6F000E806F000E75
:101D8000816F000E826F000E836F000E866F000E53
:101D90007B6F700E206E000E216E000E236E0A0EF9
:101DA000226E95EC20F0000E0001866F090E86650C
:101DB00001D01DD08651010DF3506625D96EF45027
:101DC0006721DA6EDF507B6F100E7B19D8A402D02A
:101DD000862B0DD08651010D700EF324D96E000EA6
:101DE000F420DA6E7B51300FDF6E862BDFD7700E5A
:101DF000266E000E276E000E286E000E296E7A5198
:101E00002A6E2B6A2ABE2B0655EC0BF026C07CF0FE
:101E100027C07DF028C07EF029C07FF0700E206EB4
:101E2000000E216E000E236E0A0E226E95EC20F03D
:101E3000000E0001856F000E846F85BF06D08551AE
:101E40002EE10A0E845DD8B02AD0865184256E6FAB
:101E5000000E85216F6F6E516625D96E6F51672117
:101E6000DA6EDF507B6F230E7B19D8B418D0700E5A
:101E70008425D96E000E8521DA6E865184256E6F19
:101E8000000E85216F6F6E516625E16E6F516721DF
:101E9000E26EE750300FDF6E844B852BCED7700E8D
:101EA000266E000E276E000E286E000E296E7A51E7
:101EB0002A6E2B6A2ABE2B0655EC0BF026C080F04A
:101EC00027C081F028C082F029C083F020EE7CF08A
:101ED00000EE66F0070EDBCFEBFFE806FCE2120037
:101EE000000190AF0DD0000E01016F6F210E6E6FDB
:101EF000000E00018E6F000E8F6F000E906F1200AB
:101F00008E518F119011D8A40DD0000E01016F6F6A
:101F1000220E6E6F000E00018E6F000E8F6F000E8E
:101F2000906F1200000E6C6F000E6D6F400E6E6FA2
:101F3000910E1B6E000E1C6E8EC018F08FC019F033
:101F400090C01AF0C0EC18F018C069F019C06AF01F
:101F50001AC06BF094EC12F069C078F06AC079F0A6
:101F60006BC07AF0000E00017B6F800E7C6FBF0E9D
:101F70007D6F1BEC0DF078C08EF079C08FF07AC0C9
:101F800090F000019107D8A092078EC084F08FC016
:101F900085F090C086F0750E876F060E886F000E74
:101FA0008A6F080E896F4AEC15F084C08EF085C0E8
:101FB0008FF086C090F0720E00016C6F310E6D6F65
:101FC0003F0E6E6F91C020F092C021F04AEC1EF0DF
:101FD00020C069F021C06AF022C06BF094EC12F0CE
:101FE00069C078F06AC079F06BC07AF08EC07BF07F
:101FF0008FC07CF090C07DF01BEC0DF078C08EF0AF
:1020000079C08FF07AC090F012000001C26F000E0C
:102010000001C36F000EC46F000EC56F000EC66FC7
:10202000B151C25F000EC76F6DD0C751B56FB66BAF
:10203000010EB527000EB623B51FB61FB54BB62B44
:10204000B151B527B251B623D890B537B637D8902D
:10205000B537B637D890B537B637B5C020F0B6C06B
:1020600021F04AEC1EF020C0BCF021C0BDF022C01F
:10207000BEF0BCC0A3F0BDC0A4F0BEC0A5F0000E71
:102080000001A06F000EA16F400EA26FF2EC0DF0E8
:10209000A0C0BFF0A1C0C0F0A2C0C1F0BFC078F026
:1020A000C0C079F0C1C07AF018EC12F078C0B8F076
:1020B00079C0B9F07AC0BAF07BC0BBF00001C25160
:1020C000C72568EC21F00001B56FB5511A6E1B6A87
:1020D0001C6A1D6AB8C01EF0B9C01FF0BAC020F05B
:1020E000BBC021F08EEC1CF00001C3511A10C36F6D
:1020F000C4511B10C46FC5511C10C56FC6511D10B3
:10210000C66FC72BC751B56FB66BB151B55DB65130
:10211000800AB76FB251800AB759D8A086D7C3C01A
:10212000B1F0C4C0B2F0C5C0B3F0C6C0B4F0120084
:10213000280E206E000E216E000E236E090E226EF8
:1021400095EC20F0240E286E050E296E520E2A6E94
:10215000040E2B6EF00E186E3A0E196E000E1A6EEB
:10216000000E1B6E010E1C6E84EC1BF02C6EF00E2C
:10217000186E3A0E196E000E1A6E000E1B6E000ECF
:102180001C6E84EC1BF02D6E40C024F041C025F085
:1021900042C026F043C027F0241E251E261E271EFF
:1021A000242A000E252226222722F00E2424186E2F
:1021B0007F0E2520196E000E26201A6E000E272095
:1021C0001B6E010E1C6E84EC1BF02E6E40C024F0C2
:1021D00041C025F042C026F043C027F0241E251E32
:1021E000261E271E242A000E252226222722F00E34
:1021F0002424186E7F0E2520196E000E26201A6EDC
:10220000000E27201B6E000E1C6E84EC1BF02F6E40
:10221000280E186E000E196E000E1B6E080E1A6E38
:102220000BEC1DF0306E280E196E000E1A6E000EAB
:102230001C6E090E1B6E9DEC1EF012002F5000014B
:10224000606F616B0C0ED89060376137E82EFBD75A
:1022500060C062F061C063F062512D1263512E12B2
:10226000D890E435D96EE535DA6E700ED926010EB8
:10227000DA222DC0DEFF2EC0DDFFE44BE52BE4C0EB
:1022800060F0E5C061F0D89060376137615104E1DA
:10229000400E605DD8A012003BEC21F00009D8B4DC
:1022A000120040C01DF041C01EF042C01FF043C0EC
:1022B00020F0700E216E010E226E1CEC16F0400E06
:1022C0004026000E4122422243224350421006E1A2
:1022D000F00E405C7F0E4158D8A018D0000E406E22
:1022E000450E416E000E426E000E436E010E00015F
:1022F000EB6F450EFB19FA11FC11FD11D8A406D0A5
:10230000400EFA27000EFB23FC23FD23150E315C43
:10231000FF0E3258FF0E3358FF0E3458D8B006D097
:10232000010E3126000E322233223422000E00012B
:10233000E56F000EE46F12000001896F070E0001C7
:10234000EA6161D087C066F088C067F00A0EB2EC1F
:102350000EF020EE8AF0070EEBCFDBFFE806FCE282
:102360008AC026F08BC027F08CC028F08DC029F0E1
:10237000030E2A6E000189512AEC18F000018951E0
:10238000D8A41DD08AC021F08BC022F08CC023F0CD
:102390008DC024F0350E8E25F66E060E8F21F76E59
:1023A0000800F5CF25F0000E276E040E266E2EECE9
:1023B0001EF0480E246E040EE2EC1CF021D0000149
:1023C0008905D8A41DD08AC021F08BC022F08CC012
:1023D00023F08DC024F0350E8E25F66E060E8F216B
:1023E000F76E0800F5502009256E000E276E040ECA
:1023F000266E2EEC1EF0490E246E040EE2EC1CF04C
:102400000001EA2B1200000EEA6F8951D8A406D011
:10241000420E246E040EE2EC1CF01200000189054D
:10242000D8A41200430E246E040EE2EC1CF012003D
:102430007AC07CF000017D6B7E6B79357C3701E3DF
:102440007D817C51866F8651D8A409D0000E786FAB
:10245000000E796F000E7A6F000E7B6F1200170E60
:102460007C6F78C07DF079C07EF07AC07FF07C29E7
:10247000806F04D0D8907F337E337D33802FFAD79E
:1024800000017D51816F798FFF0E7817FF0E79174C
:10249000000E7A177851826F7951836F7A51846F69
:1024A000856B8E0E865F86AF16D08651800A8F0FA1
:1024B000D8B009D0000E786F000E796F000E7A6FD9
:1024C000000E7B6F1200D8908533843383338233C0
:1024D000863FF9D715D0170E86650FD0000E786F9E
:1024E000000E796F000E7A6F000E7B6F1200D8908D
:1024F000823783378437853786078651D8A4F7D744
:102500008151D8B408D0851F841F831F826D000EAF
:1025100083238423852382C078F083C079F084C02C
:102520007AF085C07BF012006BC06FF00001706B19
:10253000716B6A356F3701E370816F51726F725141
:10254000D8A407D0000E696F000E6A6F000E6B6F83
:1025500012006EC06FF0706B716B6D356F3701E3F9
:1025600070816F51776F7751D8A407D0000E696FD3
:10257000000E6A6F000E6B6F120077517B0F72278F
:102580006BC077F06E51771B800E77176A8F6D8F57
:10259000FF0E6C17FF0E6D17000E6E17000E736F97
:1025A000000E746F000E756F070E766F69A106D06E
:1025B0006C5173276D5174236E517523D8906B3312
:1025C0006A336933D8906C376D376E37762FEED714
:1025D000090E766F69A106D06C5173276D51742373
:1025E0006E517523D8906B336A336933D890753345
:1025F00074337333762FEED773C018F074C019F0AC
:1026000075C01AF072C01BF077C01CF02EEC17F0EA
:1026100018C069F019C06AF01AC06BF012002BC024
:1026200060F00001616B626B2A34603701E3618105
:102630006051676F6751D8A407D0000E296E000E55
:102640002A6E000E2B6E12002EC060F0616B626B62
:102650002D34603701E361816051686F6851D8A4FF
:1026600007D0000E296E000E2A6E000E2B6E12008F
:10267000000E646F000E656F000E666F6851890F63
:10268000675F2BC068F02E50681B800E68172A8E7B
:10269000FF0E2916FF0E2A16000E2B162D8EFF0E8A
:1026A0002C16FF0E2D16000E2E16180E636FD890E6
:1026B0006437653766372C50295C2D502A582E50C8
:1026C0002B58D8A007D02C50295E2D502A5A2E50B6
:1026D0002B5A6481D89029362A362B36632FE7D7B8
:1026E00064C018F065C019F066C01AF067C01BF02E
:1026F00068C01CF02EEC17F018C029F019C02AF0A1
:102700001AC02BF01200240E0001606F020E616FE0
:10271000210E626F040E636FE0C069F0E1C06AF0E1
:10272000E2C06BF0E3C06CF0000E6E6F000E6D6FD8
:102730006EBF06D06E5142E1040E6D5DD8B03ED042
:10274000040E6D25256E000E6E21266E600E25246A
:10275000D96E000E2620DA6E69C018F06AC019F032
:102760006BC01AF06CC01BF00A0E1C6E000E1D6EC2
:10277000000E1E6E000E1F6EC1EC1AF01850DF6EB8
:1027800069C018F06AC019F06BC01AF06CC01BF079
:102790000A0E1C6E000E1D6E000E1E6E000E1F6EC9
:1027A00096EC19F018C069F019C06AF01AC06BF005
:1027B0001BC06CF000016D4B6E2BBAD7600E186E0B
:1027C000000E196E000E1B6E080E1A6E0BEC1DF03B
:1027D0000001686F600E196E000E1A6E000E1C6EFE
:1027E000090E1B6E9DEC1EF01200000E0001CC6F56
:1027F000000ECD6FD10E206E000E216E000E236EE6
:10280000070E226E95EC20F0240E0001D16F060E0B
:10281000D26F620ED36F020ED46FC8C0D9FFC9C089
:10282000DAFFDF50D06F000EB26F020EB16FD051E1
:10283000010D530EF324F66E060EF420F76E080019
:10284000F550400905EC10F0B1C0CEF0B2C0CFF0A9
:10285000000E0001D96F000ED86FD9BF06D0D95134
:102860001FE1020ED85DD8B01BD0040ED825CA6F68
:10287000000ED921CB6FD10ECA25D96E000ECB2107
:10288000DA6ECEC018F0CFC019F01A6A1B6AD8C031
:102890001CF084EC1BF0DF6E0001D84BD92BDDD788
:1028A000D10E186E000E196E000E1B6E060E1A6EFB
:1028B0000BEC1DF00001D76FD10E196E000E1A6ED1
:1028C000000E1C6E070E1B6E9DEC1EF01200000E1B
:1028D0000001CC6FCC51800A7C0FD8B01200000EE2
:1028E000B26F020EB16FCC51010D530EF324F66E90
:1028F000060EF420F76E0800F550400905EC10F0C4
:10290000B1C0CAF0B2C0CBF00001CA2944E1CB2962
:10291000D8A441D0CC51020D4B0EF324F66E060E16
:10292000F420F76E0900F5CFC8F00900F5CFC9F023
:10293000C8C026F0C9C027F0286A296A010E2A6E8D
:10294000020E2AEC18F00001CC51020D4B0EF324BC
:10295000F66E060EF420F76E0900F5CFC8F00900F8
:10296000F5CFC9F0C8C021F0C9C022F0236A246A9B
:10297000CC51010D530EF324F66E060EF420F76EC3
:102980000800F5504009256E000E276E020E266ED7
:102990002EEC1EF00BD0CAC026F0CBC027F0286A60
:1029A000296A010E2A6E020E2AEC18F00001CC2BC7
:1029B00091D78FC018F090C019F091C01AF0950E01
:1029C0001B6E000E1C6EC0EC18F0000196AF10D00C
:1029D00091AF07D0000E8F6F800E906FBF0E916F7A
:1029E0001200000E8F6F000E906F000E916F12009C
:1029F000965104E1150E955DD8A007D08FC08FF0D9
:102A000090C090F091C091F012008FC078F090C00B
:102A100079F091C07AF018EC12F078C087F079C0A4
:102A200088F07AC089F07BC08AF015EC1AF087C074
:102A300092F088C093F089C094F08FC018F090C0D5
:102A400019F091C01AF092C01BF093C01CF094C012
:102A50001DF008EC19F0D8B016D092C078F093C0F1
:102A600079F094C07AF0000E00017B6F800E7C6FCD
:102A7000BF0E7D6F1BEC0DF078C08FF079C090F029
:102A80007AC091F0120092C08FF093C090F094C081
:102A900091F0120089C018F08AC019F0000E1B6E68
:102AA000030E1A6EFCEC1FF087C02FF088C030F0C8
:102AB00018502F26195030222FC0F6FF30C0F7FFD4
:102AC0000900F5CF8BF00900F5CF8CF00A00F5CFA7
:102AD0008DF03FD08BC06CF08CC06DF08DC06EF06F
:102AE00084C069F085C06AF086C06BF094EC12F087
:102AF00069C078F06AC079F06BC07AF0000E1B6E86
:102B0000030E1A6E00018907D8A08A0789C018F041
:102B10008AC019F0FCEC1FF087C02FF088C030F09D
:102B200018502F26195030222FC0F6FF30C0F7FF63
:102B30000900F5CF7BF00900F5CF7CF00A00F5CF56
:102B40007DF01BEC0DF078C08BF079C08CF07AC072
:102B50008DF0000189518A11D8A4BCD78BC084F0B4
:102B60008CC085F08DC086F0120000018E518F114F
:102B70009011D8A407D0000E8E6F000E8F6F000E3C
:102B8000906F120090517F0B936F946BD890933796
:102B9000943793519127945192238FAF03D0936B25
:102BA000932B02D00001936B93519127000E922337
:102BB00092AF0DD0000E01016F6F220E6E6F000EEE
:102BC00000018E6F000E8F6F000E906F120092BF8B
:102BD00017D09205D8A014D0000E01016F6F220EFD
:102BE0006E6F000190AF06D0FF0E8E6F7F0E8F6F5D
:102BF000FF0EEBD7FF0E8E6F7F0E8F6F7F0EE5D728
:102C000092359231946F9131936F90519319800B5B
:102C10009319906F91C093F0010E931793339333F0
:102C20008F5193197F0B93198F6F8EC08EF08FC0C9
:102C30008FF090C090F01200C00E236E7F0E246EB5
:102C40001DC025F01EC026F0235025162450261640
:102C500025C027F026C028F0296A2A6A000EF2BE95
:102C6000010E2B6E27501D1844E128501E1841E11B
:102C700029501F183EE12A502018D8A412001DC068
:102C800018F01EC019F01FC01AF020C01BF007EC8E
:102C90001FF01FC0F8FF1EC0F7FF1DC0F6FF000E9B
:102CA0002C6E3F0E2C6401D013D02C50010DF3502C
:102CB0002124D96EF4502220DA6EDF50F56E3F0EDB
:102CC0002C18D8A402D00C0001D00D002C2AE9D772
:102CD000A188A68EA69CA684F29E550EA76EAA0E6B
:102CE000A76EA682A6942BB002D0F29E01D0F28EDF
:102CF000120012000001856F010E0001806F000EAE
:102D0000816F000E826F000E836F600E206E000ECA
:102D1000216EA4EC20F0600E186E000E196E22C019
:102D20001AF023C01BF024C01CF025C01DF0E0ECFD
:102D30001BF0000E0001846F1F0E846501D026D0A9
:102D4000000E186E855163EC1CF000018451010DDA
:102D5000600EF324D96E000EF420DA6EDF50D8B482
:102D600006D0010E186E855138EC1CF006D0000E0E
:102D7000186E0001855138EC1CF0010E186E000130
:102D8000855163EC1CF00001842BD6D7210EE82E70
:102D9000FED700F0000E186E0001855138EC1CF0D3
:102DA000000E186E0001855163EC1CF01200E00E5D
:102DB0002C6EFF0E2D6E460E2E6E40C078F041C078
:102DC00079F042C07AF043C07BF00001781F791F90
:102DD0007A1F7B1F782B000E79237A237B23F00E3A
:102DE0007825206E7F0E7921216E000E7A21226EC9
:102DF000000E7B21236EB2EC1BF020C029F021C015
:102E00002AF022C02BF00FEC13F029C069F02AC081
:102E10006AF02BC06BF0000E00016C6FC80E6D6F76
:102E2000420E6E6F94EC12F069C07CF06AC07DF0C7
:102E30006BC07EF0000E186E960E196E420E1A6E62
:102E40007CC01BF07DC01CF07EC01DF008EC19F0AA
:102E5000D8B002D0010E1200000E12001B50D8B4E0
:102E600005D0185019101A10D8A40CD0000E186EE6
:102E7000000E196E000E1A6E12001B2AD8901A321C
:102E800019321832000E18141D6E000E19141E6E21
:102E9000FE0E1A141F6E1D501E101F10D8B40CD039
:102EA000ECD71B2A010E1826000E1922000E1A223A
:102EB000D8901A3219321832000E18141D6E000EF6
:102EC00019141E6EFF0E1A141F6E1D501E101F10B7
:102ED000D8B406D0E6D71B06D890183619361A365D
:102EE00019BE03D0020E1B60F6D71BA0199ED89006
:102EF0001B321B501A121C50D8A41A8E18C018F07E
:102F000019C019F01AC01AF01200F2944750D76E87
:102F100046C0D6FF354A362A35C001F036C002F029
:102F2000000E046E640E036E97EC1DF0015002104B
:102F3000D8A403D0010E0001F96F35C001F036C0EE
:102F400002F0000E046E640E036E97EC1DF001504B
:102F50000210D8A403D0010E0001F86F35C001F0B3
:102F600036C002F0000E046EC80E036E97EC1DF022
:102F700001500210D8A403D0010E0001F76F35C034
:102F800001F036C002F0000E046E0A0E036E97ECDC
:102F90001DF001500210D8A403D0010E0001F66FFD
:102FA000B80E355C880E3658D8A01200000E366E6A
:102FB000000E356E120087C066F088C067F0100EF4
:102FC000B2EC0EF020EE8EF0070EEBCFDBFFE80642
:102FD000FCE28EC026F08FC027F090C028F091C090
:102FE00029F0010E2A6E020E2AEC18F08EC089F02C
:102FF0008FC08AF090C08BF091C08CF00F0E06D07D
:103000000001D8908C338B338A338933E82EF8D77C
:1030100089518D6F8EC021F08FC022F090C023F0B7
:1030200091C024F08D51010D530EF324F66E060E5F
:10303000F420F76E0800F5504009256E000E276E4B
:10304000020E266E2EEC1EF0610E246E060EE2ECD1
:103050001CF012002E6EF29E2E50D8B403D02E0417
:10306000D8A416D0000E186E2E50F4EC1DF026C019
:1030700022F027C023F028C024F029C025F02E50CC
:103080007AEC16F0010E186E2E50F4EC1DF02DD0D7
:10309000020E2E18D8A429D0000EB3EC20F0010E99
:1030A0002A242C6E2D6A000E2D222DBE1BD02D50F1
:1030B00003E12C04D8A016D026C018F027C019F0C0
:1030C00028C01AF029C01BF02C041C6E84EC1BF0E5
:1030D0002B6E2BC01AF02E500CEC1CF02C06D8A036
:1030E0002D06E3D7010EB3EC20F0F28E1200840E11
:1030F000F66E420EF76E000EF86E01EED8F010EE8E
:103100000CF00900F5CFEEFFE550E150FAE1E60ED4
:10311000F66E420EF76E000EF86E00EEFAF010EE4C
:1031200005F00900F5CFEEFFE550E150FAE1DA0EC7
:10313000F66E420EF76E000EF86E00EE40F010EEE6
:1031400006F00900F5CFEEFFE550E150FAE101EE9F
:1031500000F0D80EEE6AE806FDE100EEE0F01A0E8F
:10316000EE6AE806FDE100EE31F00F0EEE6AE806C9
:10317000FDE148904892000EF86E000152EF1AF0FF
:10318000185019101A10D8A40FD01BC0D9FF1CC09A
:10319000DAFF000EDE6E000EDD6E000E186E000E01
:1031A000196E000E1A6E12001A507F0B1D6E1E6AE9
:1031B000D8901D361E361BC0D9FF1CC0DAFF1DC0BB
:1031C000DEFF1EC0DDFF19AE03D01D6A1D2A01D02F
:1031D0001D6A1D501BC0D9FF1CC0DAFFDE12000E95
:1031E000DD121BC0D9FF1CC0DAFF820EDE26FF0EE7
:1031F000DD221A801A821A841A861A881A8A1A9C60
:10320000199E18C018F019C019F01AC01AF012004F
:103210001AAE16D018C01EF019C01FF01AC020F048
:103220001E1E1F1E201E1E2A000E1F222022000E00
:103230001E24186E000E1F20196E800E20201A6E9C
:103240001DAE16D01BC01EF01CC01FF01DC020F00C
:103250001E1E1F1E201E1E2A000E1F222022000ED0
:103260001E241B6E000E1F201C6E800E20201D6E63
:10327000000E181A000E191A800E1A1A000E1B1AC8
:10328000000E1C1A800E1D1A1B50185C1C50195879
:103290001D501A58D8B002D0D8901200D880120011
:1032A0000001DC6F28D0DAC087F0DBC088F0000EA8
:1032B0009CEC11F01200DAC087F0DBC088F0010E40
:1032C0009CEC11F01200010ED7EC19F01200000E68
:1032D000D7EC19F01200DAC0C8F0DBC0C9F0010E5B
:1032E00066EC0AF01200DAC0C8F0DBC0C9F0000ECC
:1032F00066EC0AF012000001DC51400AD8B412005A
:10330000010AD8B41200030AD8B4CDD7010AD8B440
:10331000D2D7070AD8B4D7D7010AD8B4D8D7030A66
:10332000D8B4D9D7010AD8A41200DDD7000E206E78
:10333000000E216E000E226E000E236E1C501D101A
:103340001E101F10D8B42AD0010E246E06D0D890BB
:103350001C361D361E361F36242A1FAEF8D7D890CD
:1033600020362136223623361C50185C1D50195841
:103370001E501A581F501B58D8A009D01C50185E58
:103380001D50195A1E501A5A1F501B5A2080D8908F
:103390001F321E321D321C32242EE1D720C018F0FD
:1033A00021C019F022C01AF023C01BF01200000146
:1033B000CF6F0001CF51D8A41AD04550D8A402D065
:1033C000010E01D0000E456E4550D8B404D0CF5147
:1033D00036EC07F006D0000E186E0001CF51D6EC87
:1033E0001DF0450E246E040EE2EC1CF012000001EC
:1033F000CF05D8A412004450D8A402D0010E01D0A9
:10340000000E446E4450D8B404D0CF5136EC07F0CF
:1034100006D0000E186E0001CF51D6EC1DF0440E00
:10342000246E040EE2EC1CF01200000E306E8E0EC4
:103430002F6E00018AAF11D08A1F891F881F876DE8
:10344000000E882389238A23010E306E06D0D8907F
:103450008A338933883387332F2A000E87158B6F81
:10346000000E88158C6F000E89158D6FFF0E8A1562
:103470008E6F8B518C118D118E11D8A4E8D787C017
:1034800018F088C019F089C01AF02FC01BF030C0A6
:103490001CF02EEC17F018C087F019C088F01AC085
:1034A00089F0120054EC21F0E5EC20F04EEC21F014
:1034B000030E55EC1BF06CEC09F00001F605D8A4E6
:1034C00006D054EC1DF0000E0001F66FF4D7F8059D
:1034D000D8A410D0CEEC20F0D7EC16F0E806D8A493
:1034E00003D0040E26EC1BF040EC0CF0000E0001A3
:1034F000F86FE1D7F705D8A406D048EC21F0000E0C
:103500000001F76FD8D7F905D8A4D5D769EC1FF01B
:10351000000E0001F96FCFD7000E2E6E000E2D6E3B
:103520002EBE06D02E5027E10A0E2D5CD8B023D037
:103530008B80820E2C6EDE0EE82EFED72C2EFCD752
:103540008A88820E2C6EDE0EE82EFED72C2EFCD73B
:103550008B90820E2C6EDE0EE82EFED72C2EFCD722
:103560008A98820E2C6EDE0EE82EFED72C2EFCD70B
:103570002D4A2E2AD5D7140E246E010EE2EC1CF033
:1035800012001C501D101E101F10D8B424D0010EA4
:10359000206E06D0D8901C361D361E361F36202AC7
:1035A0001FAEF8D71C50185C1D5019581E501A58E1
:1035B0001F501B58D8A008D01C50185E1D50195A17
:1035C0001E501A5A1F501B5AD8901F321E321D32DD
:1035D0001C32202EE7D718C018F019C019F01AC0F5
:1035E0001AF01BC01BF01200000E8D6E000E8C6EC8
:1035F000060E896E000E8A6E000E8B6E070E966E9A
:10360000E10E926EEF0E936E800E946EF20E956E3A
:10361000340E0F013A6F3E0E396FE40E3B6F070E0A
:103620003C6F2F0E386FC30E616EF19E6288628A06
:10363000FA0E186E420E196E63EC21F0F80E186E39
:10364000420E196E5EEC21F0F28612001B6E000E27
:103650001D6E000E1C6E1B50186E196A18501C5CF3
:103660001D50800A1A6E1950800A1A58D8B01200DC
:103670008A98020E196E040E186EBA0EE82EFED746
:10368000182EFCD7192EFAD700D08A88020E196E90
:10369000040E186EBA0EE82EFED7182EFCD7192E7F
:1036A000FAD700D01C4A1D2AD6D71B6E000E1D6EFD
:1036B000000E1C6E1B50186E196A18501C5C1D50B1
:1036C000800A1A6E1950800A1A58D8B012008B90CE
:1036D000020E196E040E186EBA0EE82EFED7182EC2
:1036E000FCD7192EFAD700D08B80020E196E040E6B
:1036F000186EBA0EE82EFED7182EFCD7192EFAD760
:1037000000D01C4A1D2AD6D71FD0185012001950BD
:1037100012001A501200000E18141D6E000E19141B
:103720001E6E000E1A141F6EFF0E1B14206E190E53
:1037300005D0D89020321F321E321D32E82EF9D724
:103740001D501200000E12001C50000AD8B4DDD724
:10375000010AD8B4DCD7030AD8B4DBD7010AD8B43D
:10376000DAD7F0D78E0E286E06D0D89023322232C8
:1037700021322032282A000E2014246E000E21143B
:10378000256E000E2214266EFF0E2314276E245081
:10379000251026102710D8A4E8D720C018F021C083
:1037A00019F022C01AF028C01BF0000E1C6E2EEC7F
:1037B00017F018C020F019C021F01AC022F0120032
:1037C000000E216E000E206E21BE06D0215023E196
:1037D000210E205CD8B01200010E20241E6E000EB7
:1037E00021201F6E1E1E1F1E1E4A1F2A200E1E266F
:1037F000000E1F221E501824D96E1F501920DA6E99
:103800001A50010BDF6ED8901D321C321B321A3257
:10381000204A212AD9D712001C6E080E1B6E1AD01E
:10382000010E186E1C5063EC1CF01AAE06D0010E8F
:10383000186E1C5038EC1CF005D0000E186E1C5091
:1038400038EC1CF0000E186E1C5063EC1CF01B06CC
:10385000D8901A361B50D8A4E3D7000E186E1C500F
:1038600038EC1CF0000E186E1C5063EC1CF01200BB
:10387000196E1ED01804D8A402D08C8012001850E3
:10388000D8A412008C9012001804D8A402D08B8AFD
:1038900012001850D8A412008B9A12001804D8A451
:1038A00002D0898812001850D8A4120089981200FA
:1038B0001950000AD8B4DED7010AD8B4E5D7030AF4
:1038C000D8A41200EBD7196E1ED01804D8A402D0C9
:1038D0008B8612001850D8A412008B961200180480
:1038E000D8A402D08B8812001850D8A412008B984C
:1038F00012001804D8A402D0898612001850D8A447
:103900001200899612001950000AD8B4DED7010AB5
:10391000D8B4E5D7030AD8A41200EBD7000E226E64
:10392000000E236E000E246E000E256E1AA008D025
:103930001E5022261F5023222050242221502522AF
:10394000D8901E361F3620362136D8901D321C32B4
:103950001B321A321A501B101C101D10D8A4E6D7A7
:1039600022C01AF023C01BF024C01CF025C01DF09B
:103970001200000E406E450E416E000E426E000EAB
:10398000436E000E0001FA6F450EFB6F000EFC6FD8
:10399000000EFD6F000E316E000E326E000E336EA3
:1039A000000E346E700E206E010E216E000E236E1E
:1039B000200E226E95EC20F0510E246E050EE2ECE6
:1039C0001CF01200256E260E206E000E216E000ED9
:1039D000236E060E226E95EC20F0240E266E25C076
:1039E00027F024C028F0000E296E260E186E000E57
:1039F000196E000E1B6E050E1A6E0BEC1DF02B6E71
:103A0000260E196E000E1A6E000E1C6E060E1B6E30
:103A10009DEC1EF01200000E1E6E000E1D6E000EBC
:103A2000206E000E1F6E0ED01F501824D96E20502D
:103A30001920DA6EDF501C6E1C501D26000E1E224F
:103A40001F4A202A1A501F5C2050800A1C6E1B50EF
:103A5000800A1C58D8A0E8D7FF0E1D16000E1E16AF
:103A60001D501200000E1A6E000E196E0001F45166
:103A7000D8A402D0195012003750010D460EF3247D
:103A8000D96E010EF420DA6EDF50186E1850196EE0
:103A90001A6A372A270E376402D0000E376E9D9AB5
:103AA000F4079D8A19501200010E0001E027000E54
:103AB000E123E223E323E0C018F0E1C019F0E2C003
:103AC0001AF0E3C01BF0800E1C6E430E1D6E000E3C
:103AD0001E6E000E1F6EC1EC1AF018C0E0F019C087
:103AE000E1F01AC0E2F01BC0E3F0120000018751C0
:103AF00088118911D8B406D0000E871B000E881BD0
:103B0000800E891B84C078F085C079F086C07AF079
:103B100087C07BF088C07CF089C07DF01BEC0DF085
:103B200078C084F079C085F07AC086F01200035026
:103B30000410D8B418D0010E056E04D0D890033606
:103B40000436052A04AEFAD70350015C045002582B
:103B5000D8A004D00350015E0450025AD890043219
:103B60000332052EF1D701C001F002C002F01200AD
:103B7000186E0001FF51D8B4FCD79DB803D018C00F
:103B8000ADFF12D09D983A50010D000EF324D96E6E
:103B9000010EF420DA6E18C0DFFF3A2A450E3A64AF
:103BA00002D0000E3A6EFF079D881200196E14D0E5
:103BB0001804D8A402D08B8212001850D8A4120086
:103BC0008B9212001804D8A402D08C8412001850D2
:103BD000D8A412008B9212001950000AD8B4E8D76A
:103BE000010AD8A41200EED7196E14D01804D8A474
:103BF00002D08B8412001850D8A412008B941200AB
:103C00001804D8A402D08C8612001850D8A4120030
:103C10008C9612001950000AD8B4E8D7010AD8A42B
:103C20001200EED70001DC6F0DD0B9EC1CF01200D1
:103C300098EC10F01200DAC02CF0DBC02DF04BEC49
:103C400005F012000001DC51510AD8B4EED7030A86
:103C5000D8B4EED7010AD8A41200EDD726C029F0B7
:103C600015D021C018F022C019F023C01AF024C0CA
:103C70001BF029041C6E84EC1BF0286E28C01BF07E
:103C800029500008252434EC21F029062950D8B405
:103C90001200E7D7000E236E21AE06D0206C211E45
:103CA000D8B0212A010E236E20C018F021C019F0CF
:103CB0001A6A8E0E1B6E23C01CF02EEC17F018C073
:103CC00020F019C021F01AC022F01200460E0001A7
:103CD000FF6112D03950010D000EF324D96E010E90
:103CE000F420DA6EDF50AD6E392A450E396402D009
:103CF000000E396EFF2B12009D98000E396E000EDB
:103D00003A6E12009D9A9D98080EB86E900EAB6E9A
:103D1000240EAC6E100EAF6E000EB06E000E3A6E3A
:103D2000000E396E460E0001FF6F000E386E000E59
:103D3000376E000EF46F9D8A1200000E1F6E000E8B
:103D40001E6E0BD01E501924D96E1F501A20DA6E29
:103D5000DF50B8EC1DF01E4A1F2A1B501E5C1F507E
:103D6000800A1D6E1C50800A1D58D8B01200EAD778
:103D7000196E000EF2BE010E1A6E19C0A9FF18C00E
:103D8000A8FFA69EA69CA684F29E550EA76EAA0E1C
:103D9000A76EA682A6B2FED7A6941AB002D0F29E53
:103DA00001D0F28E12000001DC6F0ED0DAC087F075
:103DB000DBC088F0DBEC17F01200DAC0C8F0DBC023
:103DC000C9F0F5EC13F012000001DC51610AD8B41F
:103DD000EDD7030AD8A41200F0D7F80ED76E2F0E35
:103DE000D66ED650D7CF1AF01B6A1AC01BF01A6ACB
:103DF0001A10466E1B50476EF294F28A000E186E2F
:103E0000000E196E59EC21F0900ED56E1200000EC6
:103E1000F2BE010E1C6E1AC0F8FF19C0F7FF18C0E1
:103E2000F6FFA68EA69CA684A688F29E550EA76EC7
:103E3000AA0EA76EA6821CB002D0F29E01D0F28E0E
:103E400012000001DD6F06D08CEC1AF012001FEC9E
:103E500021F012000001DD51110AD8B4F8D7030A8D
:103E6000D8B41200010AD8B41200070AD8A412006C
:103E7000EBD72CC0D9FF2DC0DAFFDF503B6E3B04DF
:103E8000D8A409D020EE01F02C50D9262D50DA22EA
:103E9000DF500001F56F320E246E030EE2EC1CF0D1
:103EA00012001C6E1CC01AF01A461A46C2501A188C
:103EB000830B1A18C26EC280C282C2B2FED7C4502F
:103EC0001B6E1A6AC3501A24186E000E1B20196E3E
:103ED000120083B80FD00001FE51800A7F0FD8A0D6
:103EE00006D0010E36EC07F00001FE0703D0080EE5
:103EF00026EC1BF083A81200010E0001E96F1200EE
:103F0000ABA202D0AB98AB883850010D460EF3241B
:103F1000D96E010EF420DA6EAECFDFFF382A270EFD
:103F2000386402D0000E386E0001F42B120018C065
:103F30001EF019C01FF008D01EC0D9FF1FC0DAFF45
:103F40001AC0DFFF1E4A1F2A1C06D8A01D061C2807
:103F5000F3E11D28D8B41200EFD7000E0001F06F76
:103F6000000EEE6F000EED6F000EEC6FC40E206EB3
:103F7000010E216E000E236E140E226E95EC20F0C1
:103F8000120019AE0DD018C01AF019C01BF01A1E7D
:103F90001B1E1A4A1B2A1AC018F01BC019F0120067
:103FA00018C018F019C019F012001D6E010E1C6E19
:103FB0007B0E1D6003D0610E1D6007D01D5086EC86
:103FC00020F0D8B002D0000E1C6E1CC01BF01B30BD
:103FD00012001A6E010E196E200E1A18D8B408D0ED
:103FE0000E0E1A6003D0090E1A6002D0000E196E70
:103FF00019C018F01830120018501A02F3CF1CF034
:10400000F4CF1DF018501B02F3501D2619501A0250
:10401000F3501D261CC018F01DC019F0120000013D
:10402000DD6F06D053EC03F0120083EC13F01200A6
:104030000001DD51210AD8B4F8D7030AD8A4120030
:10404000F1D7185019101A10D8B406D0000E181A4B
:10405000000E191A800E1A1A18C018F019C019F09B
:104060001AC01AF0120020C018F021C019F01A6A04
:104070008E0E1B6E000E1C6E2EEC17F018C020F07A
:1040800019C021F01AC022F012000101E651E71117
:10409000D8B4120001D812000500FA6EE651FD6E88
:1040A000E751FE6EF850FF6EFA5012000101E85120
:1040B000E911D8B4120001D812000500FA6EE851D7
:1040C000FD6EE951FE6EF850FF6EFA5012000001CD
:1040D000DC6F07D0DAC02CF0DBC02DF039EC1FF01C
:1040E00012000001DC51320AD8A41200F3D71A6E74
:1040F000000E196E3A0E1A6005D02F0E1A6402D007
:10410000010E196E19C018F0183012001A6E000E48
:10411000196E5B0E1A6005D0400E1A6402D0010EB3
:10412000196E19C018F01830120020C018F021C004
:1041300019F0000E1B6E000E1A6E22C01CF023C078
:104140001DF097EC1FF0120020C018F021C019F0EC
:10415000000E1B6E000E1A6E000E1D6E200E1C6EE1
:1041600097EC1FF01200186E04D089941200898415
:1041700012001850000AD8B4F8D7010AD8A41200C7
:10418000F6D776EC21F0F4EC1AF026EC21F0DAEC1C
:1041900020F0EDEC1EF082EC1EF012008BB003D08C
:1041A000186A182A01D0186A8B501818FE0B1818B4
:1041B0008B6E1200050EC26E000EC16E870EC06EB1
:1041C000000EC36E000EC46E120070EC21F078EC8D
:1041D00021F02DEC21F004EC21F067EC14F012003A
:1041E000186E7B0E186004D0600E186401D0189A07
:1041F00018501200186E18C0A9FFA69CA69EA68093
:1042000000F000F0A8501200000E0001E06F000E58
:10421000E16F000EE26F000EE36F12001AC0F8FFAC
:1042200019C0F7FF18C0F6FF0800F550120062B879
:1042300056EC20F062BA45EC20F0F2901200110E1C
:10424000246E010EE2EC1CF0FF001200600ED36E33
:10425000040ED26E800E9B6E1200000E36EC07F03C
:10426000010E36EC07F012001C6E1BC018F01C503B
:10427000B8EC1EF01200A6A201D002D0010E12006E
:10428000000E1200423E1E40CE40A032243CA63D0D
:10429000150E246E010EE2EC1CF01200100E246EBE
:1042A000010EE2EC1CF01200C1EC20F0F28EF28C58
:1042B000120018C0E4F119C0E5F1120018C0E6F1CF
:1042C00019C0E7F1120018C0E8F119C0E9F11200B5
:1042D000196E1950FAEC20F012000045000001019F
:0B42E000000E3B6E12000045000002C3
:1042EC00D09E1200D58E1200A1981200120012005E
:020000040020DA
:08000000FFFFFFFFFFFFFFFF00
:020000040030CA
:0E000000FF281838FFBF80FF0FC00FE00F4031
:00000001FF
