:040000006EEF00F0AF
:100008004882FACF06F0FBCF07F0E9CF08F0EACF35
:1000180009F0E1CF0AF0E2CF0BF0D9CF0CF0DACF3C
:100028000DF0F3CF0EF0F4CF0FF0F6CF10F0F7CFBE
:1000380011F0F8CF12F0F5CF13F048C014F049C012
:1000480015F04AC016F04BC017F0F2B6F2A003D074
:1000580016EC22F019D0F2BAF2A403D0CBEC17F0C8
:1000680013D0F2AC11D0A0B8A1A803D072EC22F042
:100078000BD09DB89EA803D085EC1FF005D09DBA83
:100088009EAA02D06DEC20F017C04BF016C04AF0C3
:1000980015C049F014C048F013C0F5FF12C0F8FFAE
:1000A80011C0F7FF10C0F6FF0FC0F4FF0EC0F3FF3A
:1000B8000DC0DAFF0CC0D9FF0BC0E2FF0AC0E1FF98
:1000C80009C0EAFF08C0E9FF07C0FBFF06C0FAFF46
:0800D8004892110076EF18F0C8
:10060000001C0401000B3061003A19C000C9FC1045
:100610001128042D10E700001276600035250080B7
:100620000084BF0008030000001200000001000069
:100630000C8006200004080C0010001400000018B4
:1006400000000405060708090A0D19442344634401
:10065000A344E30204060800803F72313FFE753E6A
:1006600058633D951D3CC5AE3A7921399480379346
:10067000A73556153400000000803FF0FFBEE2A908
:100680003E8376BEAE2B3E3CC3BDD2133D78D3BB7A
:100690004D617220323220323031380031363A34F6
:1006A000323A35340000000E0201566F000E556FCD
:1006B000000E5A6F000E596F87C066F088C067F051
:1006C0000A0EF0EC0EF022EE45F0070EEBCFDBFF4A
:1006D000E806FCE245C25BF246C25CF2000E206E08
:1006E000020E216E000E236E450E226E95EC21F057
:1006F00033EC22F00009D8B412003C503D103E10FB
:100700003F10D8B4FBD03150321033103410D8B46D
:10071000A4D05BC289F05CC28AF0000E00018ABFDF
:10072000FF0E8B6F8C6F3150895D32508A59335078
:100730008B5934508C59D8B002D0010E01D0000E24
:100740008D6F8E6B8F6B906B8D1F8E1F8F1F901F09
:100750008D2B000E8E238F23902331508D25916F8A
:1007600032508E21926F33508F21936F34509021ED
:10077000946F9151921193119411D8A40BD05BC234
:100780004DF25CC24EF20201000E4EBFFF0E4F6FE3
:10079000506F08D031C04DF232C04EF233C04FF22C
:1007A00034C050F24DC259F24EC25AF202015AAF51
:1007B0009BD059C218F05AC219F0AEEC20F018C004
:1007C00089F019C08AF0000E00018ABFFF0E8B6FFE
:1007D0008C6F89513C5C8A513D588B513E588C51ED
:1007E0003F58D8B01ED03C50020159250001896FF6
:1007F0003D5002015A2100018A6F895102015B2795
:1008000000018A5102015C233CC089F03DC08AF09E
:100810000001891F8A1F894B8A2B89C059F28AC01F
:100820005AF259C289F05AC28AF0060ED890893716
:100830008A37E82EFBD789C08BF08AC08CF0000E77
:100840008CBFFF0E8D6F8E6F8B51F4278C51F5236B
:100850008D51F6238E51F72347D05BC289F05CC2DD
:100860008AF0000E00018ABFFF0E8B6F8C6F3C5028
:10087000895D3D508A593E508B593F508C59D8A0C4
:1008800009D03CC051F23DC052F23EC053F23FC0CD
:1008900054F20AD05BC251F25CC252F20201000E65
:1008A00052BFFF0E536F546F51C25BF252C25CF2E3
:1008B0005BC289F05CC28AF0060ED89000018937CD
:1008C0008A37E82EFAD789C08BF08AC08CF0000EE8
:1008D0008CBFFF0E8D6F8E6F8B51F45F8C51F55B6B
:1008E0008D51F65B8E51F75B0001F751F6113EE139
:1008F000F405450EF559D8B039D023D00001E651A2
:10090000D8B428D0F451405CF5514158F6514258C2
:10091000F7514358D8A01ED0400E4024F46F000E6B
:100920004120F56F000E4220F66F000E4320F76F56
:10093000F751F61106E1F00EF45D7F0EF559D8A0DF
:1009400015D0000EF46F450EF56F000EF66F000E19
:10095000F76F0CD03150321033103410D8A406D0B9
:10096000550E246E050EE5EC1DF01200240E02015A
:10097000006F050E016F540E026F400E036F000EE4
:10098000566F000E556F8AD0000E0201586F000E90
:10099000576F58BF06D058512FE1400E575DD8B061
:1009A0002BD0040E57250001896F000E020158213B
:1009B00000018A6F000E8925D96E020E8A21DA6E37
:1009C00057C28BF058C28CF0000E8CBFFF0E8D6F9B
:1009D0008E6FF4518B25186EF5518C21196EF651DE
:1009E0008D211A6EF7518E211B6E0DEC22F0DF6EF9
:1009F0000201574B582BCDD7400E0001F427000EB3
:100A0000F523F623F723F751F61106E1F00EF45D16
:100A10007F0EF559D8A008D0000EF46F450EF56F83
:100A2000000EF66F000EF76F000E186E020E196EB4
:100A3000000E1B6E440E1A6E0EEC1EF00201446F87
:100A4000000E196E020E1A6E000E1C6E450E1B6E05
:100A5000A1EC1FF03150321033103410D8B41BD039
:100A6000150E3C5CFF0E3D58FF0E3E58FF0E3F58E2
:100A7000D8B006D0010E3C26000E3D223E223F2279
:100A80003150321033103410D8B405D03106000E76
:100A9000325A335A345A0201554B562B5B51555D2D
:100AA0005651800A0001896F02015C51800A0001E1
:100AB0008959D8B0120068D7000E0001606F000E8F
:100AC000616F000E626F000E636F640E206E000E89
:100AD000216E000E236E120E226E95EC21F0240E74
:100AE0000001646F020E656F220E666F0D0E676F58
:100AF000D00E246EFF0E256E970EF66E060EF76E64
:100B00000800F5CF26F0D00E2624186E196AFF0EC5
:100B10001922030E1B6EE80E1A6EFCEC20F09A0EE2
:100B2000F66E060EF76E0800F550276E286A18500C
:100B3000272619502822980EF66E060EF76E08002A
:100B4000F5CF29F0D00E2924186E196AFF0E19224C
:100B5000000E1B6E640E1A6EFCEC20F01850272657
:100B600019502822990EF66E060EF76E0800F5CF82
:100B70002AF0D00E2A24186E196AFF0E1922000ED0
:100B80001B6E0A0E1A6EFCEC20F018502726195026
:100B90002822245027262550282228C027F0286AFA
:100BA00027500001686F9A0EF66E060EF76E080069
:100BB000F5CF24F0990EF66E060EF76E0800F5508C
:100BC000D00F0A0DF3CF25F0980EF66E060EF76ED5
:100BD0000800F5CF26F0D00E2624186E196AFF0EF5
:100BE0001922000E1B6E640E1A6EFCEC20F0970E9C
:100BF000F66E060EF76E0800F550D00FE80DF350B4
:100C0000182425242424D00F0001696F900EF66E5D
:100C1000060EF76E0800F5CF6AF0910EF66E060E1E
:100C2000F76E0800F5CF6BF0920EF66E060EF76EBB
:100C30000800F5CF6CF0940EF66E060EF76E300ECF
:100C40000800F56005D0000E776F000E766F17D0A4
:100C5000940EF66E060EF76E0800F5CF24F0D00E57
:100C60002424186E196AFF0E1922000E1B6E0A0E3C
:100C70001A6EFCEC20F018C076F019C077F0D00E98
:100C8000246EFF0E256E950EF66E060EF76E0800AA
:100C9000F55000017625266E000E7721276E245030
:100CA00026262550272227C026F0276A26506D6F5A
:100CB000940EF66E060EF76E300E0800F56005D045
:100CC000000E796F000E786F17D0940EF66E060E38
:100CD000F76E0800F5CF24F0D00E2424186E196AA0
:100CE000FF0E1922000E1B6E0A0E1A6EFCEC20F08D
:100CF00018C078F019C079F0950EF66E060EF76EF2
:100D00000800F55000017825D00F6E6FD00E246ECC
:100D1000FF0E256E9C0EF66E060EF76E0800F5CFE0
:100D200026F0D00E2624186E196AFF0E1922000E26
:100D30001B6E0A0E1A6EFCEC20F09D0EF66E060E6F
:100D4000F76E0800F5501826000E192224501826B8
:100D50002550192219C018F0196A185000016F6F38
:100D60009D0EF66E060EF76E0800F5CF24F09C0E71
:100D7000F66E060EF76E0800F550D00F0A0DF35010
:100D80002424D00F706FD00E246EFF0E256E9F0EA0
:100D9000F66E060EF76E0800F5CF26F0D00E26246C
:100DA000186E196AFF0E1922000E1B6E0A0E1A6EBB
:100DB000FCEC20F0A00EF66E060EF76E0800F55063
:100DC0001826000E1922245018262550192219C061
:100DD00018F0196A18500001716FA00EF66E060E19
:100DE000F76E0800F5CF24F09F0EF66E060EF76E34
:100DF0000800F550D00F0A0DF3502424D00F726F65
:100E0000D00E246EFF0E256EA20EF66E060EF76E45
:100E10000800F5CF26F0D00E2624186E196AFF0EB2
:100E20001922000E1B6E0A0E1A6EFCEC20F0A30EA7
:100E3000F66E060EF76E0800F5501826000E192201
:100E4000245018262550192219C018F0196A185074
:100E50000001736FA30EF66E060EF76E0800F5CF55
:100E600024F0A20EF66E060EF76E0800F550D00FB5
:100E70000A0DF3502424D00F746F640E186E000E08
:100E8000196E000E1B6E110E1A6E0EEC1EF0000194
:100E9000756F640E196E000E1A6E000E1C6E120E27
:100EA0001B6EA1EC1FF012000001CC6F010E186E3A
:100EB0000001CC51D9EC1EF0000E0001CE6F000EE7
:100EC000C86F000EC96F000ECA6F000ECB6F000E08
:100ED000CD6F0C0ECD6501D01200CD2900080D0F8D
:100EE000CE6FCE51D8B413D0CE05D8B410D0020EE8
:100EF000CE19D8B40CD0040ECE19D8B408D0060E32
:100F0000CE19D8B404D00A0ECE19D8A4EBD0CC5147
:100F1000D8A471D0000EB26F040EB16FCE51010D86
:100F2000350EF324F66E060EF420F76E0800F55029
:100F300043EC10F0B1C0C8F0B2C0C9F0B3C0CAF001
:100F4000B4C0CBF00001C82947E1C92945E1CA294D
:100F500043E1CB29D8A440D0CD51040D010EF32498
:100F6000F66E060EF420F76E0900F5CF29F00900A1
:100F7000F5CF2AF00900F5CF2BF00A00F5CF2CF0C1
:100F8000030E2D6ECC5121EC18F00001CD51040D53
:100F9000010EF324F66E060EF420F76E0900F5CF6D
:100FA00021F00900F5CF22F00900F5CF23F00A0067
:100FB000F5CF24F0CE51010D350EF324F66E060E5A
:100FC000F420F76E0800F5CF25F0000E276E040E12
:100FD000266E4DEC1FF0A0D0C8C029F0C9C02AF081
:100FE000CAC02BF0CBC02CF0030E2D6E0001CC51EB
:100FF00021EC18F091D00001CC05D8A48DD0000EC2
:10100000B26F040EB16FCE51010D350EF324F66EA2
:10101000060EF420F76E0800F550200943EC10F09E
:10102000B1C0C8F0B2C0C9F0B3C0CAF0B4C0CBF010
:101030000001C82948E1C92946E1CA2944E1CB2970
:10104000D8A441D0CD51040D010EF324F66E060E46
:10105000F420F76E0900F5CF29F00900F5CF2AF04A
:101060000900F5CF2BF00A00F5CF2CF0030E2D6E02
:10107000CC5121EC18F00001CD51040D010EF324E8
:10108000F66E060EF420F76E0900F5CF21F0090088
:10109000F5CF22F00900F5CF23F00A00F5CF24F0B8
:1010A000CE51010D350EF324F66E060EF420F76EC8
:1010B0000800F5502009256E000E276E040E266EDE
:1010C0004DEC1FF029D0C8C029F0C9C02AF0CAC011
:1010D0002BF0CBC02CF0030E2D6E0001CC5121EC77
:1010E00018F01AD00001CD51040D010EF324F66E54
:1010F000060EF420F76E0900F5CF29F00900F5CFB0
:101100002AF00900F5CF2BF00A00F5CF2CF0030EE2
:101110002D6ECC5121EC18F00001CD2BDAD6000E4B
:101120000001BF6F000EBE6F000EC06F3B50D8A411
:101130009AD0000EC06F080EC06501D06DD0C051AE
:10114000010D420EF324F66E060EF420F76E080031
:10115000F55055EC20F018C0B3F019C0B4F0000EF3
:101160000001A36F200EA46F410EA56F000EA06FAB
:10117000000EA16F400EA26F30EC0EF0A0C0BBF0CD
:10118000A1C0BCF0A2C0BDF0C00E00016C6F500E3B
:101190006D6F450E6E6FBBC02CF0BCC02DF0BDC096
:1011A0002EF0B3C020F0B4C021F033EC21F020C009
:1011B00029F021C02AF022C02BF04FEC13F029C0F7
:1011C00069F02AC06AF02BC06BF0D4EC12F069C051
:1011D00078F06AC079F06BC07AF058EC12F078C001
:1011E000BEF079C0BFF0BEC02DF0BFC02EF0000130
:1011F000C0292F6E5CEC11F0030E0001B26F8A0E55
:10120000B16F550EE82EFED7B12FFCD7B22FFAD70B
:1012100000D00001C02B8FD7AA0E186E010E196ED8
:1012200092EC1DF018C0B5F019C0B6F0B5C02DF0A5
:10123000B6C02EF00001C0292F6E5CEC11F09C0EA0
:10124000186E010E196E92EC1DF018C0B7F019C09F
:10125000B8F0B7C02DF0B8C02EF00001C0292F6E35
:101260005CEC11F012003B04D8A412000001EF5115
:10127000010D420EF324F66E060EF420F76E080000
:10128000F55055EC20F018C0B9F019C0BAF0000EB6
:101290000001A36F200EA46F410EA56F000EA06F7A
:1012A000000EA16F400EA26F30EC0EF0A0C0BBF09C
:1012B000A1C0BCF0A2C0BDF0C00E00016C6F500E0A
:1012C0006D6F450E6E6FBBC02CF0BCC02DF0BDC065
:1012D0002EF0B9C020F0BAC021F033EC21F020C0CC
:1012E00029F021C02AF022C02BF04FEC13F029C0C6
:1012F00069F02AC06AF02BC06BF0D4EC12F069C020
:1013000078F06AC079F06BC07AF058EC12F078C0CF
:10131000BEF079C0BFF0BEC02DF0BFC02EF0010EF0
:101320002F6E5CEC11F01200000197519811991189
:10133000D8A407D0000E976F800E986F3F0E996F5C
:101340001200720E186E310E196E440E1A6E97C08E
:101350001BF098C01CF099C01DF0A9EC19F0D8B092
:101360000DD0000E01012D6F220E2C6FFF0E00011B
:10137000976F7F0E986F7F0E996F120097C018F0CD
:1013800098C019F099C01AF0490E1B6E3A0E1C6EE7
:10139000C40E1D6EA9EC19F0D8B00DD0000E0101DD
:1013A0002D6F220E2C6F000E0001976F000E986FAC
:1013B000000E996F1200000199AF02D0010E01D00A
:1013C000000E9F6F9F51D8B40ED097C018F098C0F0
:1013D00019F099C01AF021EC21F018C097F019C04B
:1013E00098F01AC099F097C069F098C06AF099C057
:1013F0006BF0AA0E00016C6FB80E6D6F3F0E6E6F32
:10140000D4EC12F069C097F06AC098F06BC099F004
:1014100097C08FF098C090F099C091F019EC15F03A
:101420008FC09AF090C09BF091C09CF09AC078F069
:101430009BC079F09CC07AF058EC12F078C09DF017
:1014400079C09EF097C084F098C085F099C086F06E
:101450009DC020F09EC021F069EC1FF020C087F0F5
:1014600021C088F022C089F079EC1EF084C097F08A
:1014700085C098F086C099F097C084F098C085F038
:1014800099C086F0570E0001876F060E886F000E18
:101490008A6F090E896F8AEC15F084C08EF085C0C2
:1014A0008FF086C090F09DC091F09EC092F0F5EC58
:1014B00015F08EC097F08FC098F090C099F00001A1
:1014C0009F51D8B425D097290EE17F0E98190BE1D2
:1014D0007F0E9919D8A407D0000E976F000E986F51
:1014E000000E996F1200000E296E800E2A6E3F0EBC
:1014F0002B6E97C02CF098C02DF099C02EF04FECB9
:1015000013F029C097F02AC098F02BC099F0120070
:1015100097C097F098C098F099C099F01200000E0B
:101520000001E36FD2D0040EEE651200010EED6FE4
:1015300012009AEC20F0000E0001E76F010EEE653C
:101540000DD035EC1EF00001E36FE3C088F1240EEE
:10155000E319D8A41200020EED6F1200000EED6F19
:101560001200010EEE65120035EC1EF00001EC6F6A
:10157000ECC089F1030EED6F1200010EEE65120052
:1015800035EC1EF00001EB6FEBC08AF1040EED6F3D
:101590001200010EEE65120035EC1EF00001EA6F3C
:1015A000EAC08BF1EA51D8A403D0060EED6F120009
:1015B000050EED6F1200EA51EE5DD8A01200740E18
:1015C000206E010E216E000E236E140E226E95EC1D
:1015D00021F0000E0001E26F000EE16F1ED035EC2D
:1015E0001EF00001E36FE751DD6FDE6B040EDD27B7
:1015F000000EDE23880EDD25D96E010EDE21DA6EA7
:10160000E3C0DFFFE72B740EE125D96E010EE22166
:10161000DA6EE3C0DFFFE14BE22BEA51DD6FDE6BF8
:10162000DD51E15DE251800ADF6FDE51800ADF5952
:10163000D8A0D5D7060EED6F1200EE51D8B4120027
:1016400035EC1EF00001E86F880E186E010E196E61
:10165000040EE7251A6E1B6A000E1B220EEC1EF00C
:101660000001E96FE951E819D8A403D0070EED6F26
:101670001200000EED6F1200FE0EDD6FFF0EDE6F2A
:10168000EC51DF6FE06BD890DF37E037DD51DF27BB
:10169000DE51E023DA0EDF25D96E010EE021DA6E8D
:1016A00001D80FD00500FA6EDE50FD6EDE50FE6EE2
:1016B000F850FF6EFA50740EDA6F010EDB6FEB51CB
:1016C0001200000E0001ED6F1200ED51000AD8B4B7
:1016D0002AD7010AD8B42DD7030AD8B442D7010AB1
:1016E000D8B44BD7070AD8B454D7010AD8B463D7B3
:1016F000030AD8B4A2D7010AD8A41200BDD70101A9
:10170000CB6F000E0101D86F000ED96FB80E206E9E
:10171000010E216E000E236E120E226E95EC21F04A
:10172000240E0101B86F040EB96F0C0EBB6FCB51C4
:10173000D8A43AD0470EBA6F000E0001B26F040E63
:10174000B16F350EF66E060EF76E0800F55043ECDD
:1017500010F0B1C0CCF1B2C0CDF1B3C0CEF1B4C085
:10176000CFF1000E0001B26F040EB16F360EF66EAF
:10177000060EF76E0800F55043EC10F0B1C0D0F142
:10178000B2C0D1F1B3C0D2F1B4C0D3F1000E0001A8
:10179000B26F040EB16F370EF66E060EF76E0800CC
:1017A000F55043EC10F040D00101CB05D8A444D053
:1017B000460EBA6F000E0001B26F040EB16F350E07
:1017C000F66E060EF76E0800F550200943EC10F097
:1017D000B1C0CCF1B2C0CDF1B3C0CEF1B4C0CFF145
:1017E000000E0001B26F040EB16F360EF66E060EDB
:1017F000F76E0800F550200943EC10F0B1C0D0F1AD
:10180000B2C0D1F1B3C0D2F1B4C0D3F1000E000127
:10181000B26F040EB16F370EF66E060EF76E08004B
:10182000F550200943EC10F0B1C0D4F1B2C0D5F1AD
:10183000B3C0D6F1B4C0D7F1000E0101D86F020ECB
:10184000D86501D032D0000ED96F040ED96501D011
:101850002AD0D851040DCC0EF324D96E010EF420F9
:10186000DA6EDECF18F0DECF19F0DECF1AF0DECF61
:101870001BF0D9C11CF05DEC1CF00101CA6FD851FE
:10188000040DD951F326000EF422040EF326000EA7
:10189000F422B80EF324D96E010EF420DA6ECAC118
:1018A000DFFFD92BD2D7D82BCAD7090EC86FB80EF5
:1018B000186E010E196E000E1B6E110E1A6E0EECD4
:1018C0001EF00101C96FB80E196E010E1A6E000EDE
:1018D0001C6E120E1B6EA1EC1FF0120026C0D9FF69
:1018E00027C0DAFFDF500001656F264A272A6551BD
:1018F000D6EC20F0D8B0F2D7000E0001616F000ED8
:10190000626F000E636F000E646F000E606F2D0E2D
:101910006519D8A403D0010E606F04D02B0E651991
:10192000D8A408D026C0D9FF27C0DAFFDF50656FE2
:10193000264A272A300E6519D8A42ED026C0D9FFF2
:1019400027C0DAFFDF50656F264A272A2A502B105E
:10195000D8B405D0100E2A182B10D8A415D0780EA4
:101960006519D8B404D0580E6519D8A40DD0000E4E
:101970002B6E100E2A6E26C0D9FF27C0DAFFDF506B
:10198000656F264A272A08D02A502B10D8A404D0E5
:10199000000E2B6E080E2A6E2A502B10D8A404D0ED
:1019A000000E2B6E0A0E2A6E6551C2EC20F0D8A0F4
:1019B00008D000016551EFEC21F0C90F0001656FFF
:1019C00009D00001655177EC21F0D8A039D0300E54
:1019D0000001655F65512C6E2D6A2A502C5C2D50DC
:1019E000800A2E6E2B50800A2E58D8B029D02AC0DB
:1019F0001AF02BC01BF0000E1BBEFF0E1C6E1D6EDE
:101A000061C01EF062C01FF063C020F064C021F00E
:101A100067EC1DF0000165511A24616F000E1B2058
:101A2000626F000E1C20636F000E1D20646F26C0C5
:101A3000D9FF27C0DAFFDF50656F264A272AB4D7BF
:101A400028502910D8B40ED0FF0E26242C6EFF0E7D
:101A500027202D6E28C0D9FF29C0DAFF2CC0DEFF59
:101A60002DC0DDFF00016051D8B41AD061C02CF048
:101A700062C02DF063C02EF064C02FF02C1E2D1E0E
:101A80002E1E2F1E2C2A000E2D222E222F222CC07D
:101A900026F02DC027F02EC028F02FC029F012000C
:101AA00061C026F062C027F063C028F064C029F04E
:101AB00012007AC07EF000017F6B806B79357E3733
:101AC00001E37F817E51836F7DC07EF07F6B806BF1
:101AD0007C357E3701E37F817E51826F8351D8B49C
:101AE0000BD08251835DD8B00ED08351000882257F
:101AF0007E6F180E7E6507D07BC078F07CC079F0D1
:101B00007DC07AF012008251D8B40BD08351825D2F
:101B1000D8B00ED08251000883257E6F180E7E65E6
:101B200007D078C078F079C079F07AC07AF01200E6
:101B3000060E816F7ABF818F7DBF818D798FFF0EF9
:101B40007817FF0E7917000E7A177C8FFF0E7B1720
:101B5000FF0E7C17000E7D178251835DD8B01BD01D
:101B6000D8907B377C377D37820783518219D8B470
:101B70000DD0810781C07EF0070E7E17D8B406D045
:101B8000EFD7D8907A3379337833832B8251831906
:101B9000D8B41FD0F6D78351825DD8B01AD0D89070
:101BA000783779377A37830783518219D8B40DD0C3
:101BB000810781C07EF0070E7E17D8B406D0EFD71C
:101BC000D8907D337C337B33822B82518319D8A408
:101BD000F7D781AF0CD0FF0E781BFF0E791BFF0EDD
:101BE0007A1B010E7827000E7923000E7A2381AD2F
:101BF0000CD0FF0E7B1BFF0E7C1BFF0E7D1B010E0E
:101C00007B27000E7C23000E7D23000E816F785110
:101C10007B2779517C237A517D237DAF0ED0FF0E37
:101C20007B1BFF0E7C1BFF0E7D1B010E7B27000E16
:101C30007C23000E7D23010E816F7BC018F07CC0D9
:101C400019F07DC01AF083C01BF081C01CF074EC49
:101C500017F018C078F019C079F01AC07AF01200A5
:101C6000000E0001AC6FA051A111A211D8A41DD08B
:101C7000000E186E000E196E000E1A6EA3C01BF037
:101C8000A4C01CF0A5C01DF0A9EC19F0D8A005D087
:101C9000000E01012D6F210E2C6F000E0001A06FB0
:101CA000000EA16F000EA26F1200A351A411A51186
:101CB000D8A407D0000EA06F800EA16F3F0EA26FB8
:101CC0001200A2AF43D0A3C078F0A4C079F0A5C0A1
:101CD0007AF058EC12F078C0ADF079C0AEF07AC06E
:101CE000AFF07BC0B0F0ADC020F0AEC021F0AFC00F
:101CF00022F0B0C023F08BEC1CF00001A35120189F
:101D000007E1A451211804E1A5512218D8B40DD03F
:101D1000000E01012D6F210E2C6F000E0001A06F2F
:101D2000000EA16F000EA26F1200AD51010BAC6F3F
:101D3000A0C018F0A1C019F0A2C01AF021EC21F047
:101D400018C0A0F019C0A1F01AC0A2F0A0C08EF077
:101D5000A1C08FF0A2C090F0AEEC0FF08EC0A6F044
:101D60008FC0A7F090C0A8F0A6C069F0A7C06AF025
:101D7000A8C06BF0A3C06CF0A4C06DF0A5C06EF05D
:101D8000D4EC12F069C0A9F06AC0AAF06BC0ABF045
:101D9000A9C097F0AAC098F0ABC099F094EC09F0F4
:101DA00097C0A0F098C0A1F099C0A2F00001AC517A
:101DB000D8B40FD0A0C018F0A1C019F0A2C01AF07A
:101DC00021EC21F018C0A0F019C0A1F01AC0A2F0B7
:101DD0001200A0C0A0F0A1C0A1F0A2C0A2F0120009
:101DE00000017A6F000E00017C6F000E7D6F000E07
:101DF0007E6F000E7F6F000E806F000E816F000EF1
:101E0000826F000E836F000E866F000E7B6F700E68
:101E1000206E000E216E000E236E0A0E226E95ECCF
:101E200021F0000E0001866F090E866501D01DD0DD
:101E30008651010DF3506625D96EF4506721DA6E94
:101E4000DF507B6F100E7B19D8A402D0862B0DD0EB
:101E50008651010D700EF324D96E000EF420DA6E57
:101E60007B51300FDF6E862BDFD7700E266E000E93
:101E7000276E000E286E000E296E7A512A6E2B6A8C
:101E80002ABE2B066EEC0CF026C07CF027C07DF03D
:101E900028C07EF029C07FF0700E206E000E216EEB
:101EA000000E236E0A0E226E95EC21F0000E00014A
:101EB000856F000E846F85BF06D085512EE10A0E16
:101EC000845DD8B02AD0865184256E6F000E85219E
:101ED0006F6F6E516625D96E6F516721DA6EDF50D4
:101EE0007B6F230E7B19D8B418D0700E8425D96E61
:101EF000000E8521DA6E865184256E6F000E8521D5
:101F00006F6F6E516625E16E6F516721E26EE7508B
:101F1000300FDF6E844B852BCED7700E266E000EF1
:101F2000276E000E286E000E296E7A512A6E2B6ADB
:101F30002ABE2B066EEC0CF026C080F027C081F084
:101F400028C082F029C083F020EE7CF000EE66F01D
:101F5000070EDBCFEBFFE806FCE21200000190AFBA
:101F60000DD0000E01012D6F210E2C6F000E00010F
:101F70008E6F000E8F6F000E906F12008E518F11BA
:101F80009011D8A40DD0000E01012D6F220E2C6FE0
:101F9000000E00018E6F000E8F6F000E906F12000A
:101FA000000E6C6F000E6D6F400E6E6F910E1B6E0B
:101FB000000E1C6E8EC018F08FC019F090C01AF081
:101FC00061EC19F018C069F019C06AF01AC06BF022
:101FD000D4EC12F069C078F06AC079F06BC07AF086
:101FE000000E00017B6F800E7C6FBF0E7D6F59EC81
:101FF0000DF078C08EF079C08FF07AC090F00001BB
:102000009107D8A092078EC084F08FC085F090C051
:1020100086F0750E876F060E886F000E8A6F080EA9
:10202000896F8AEC15F084C08EF085C08FF086C071
:1020300090F0720E00016C6F310E6D6F3F0E6E6F7F
:1020400091C020F092C021F069EC1FF020C069F02F
:1020500021C06AF022C06BF0D4EC12F069C078F0B5
:102060006AC079F06BC07AF08EC07BF08FC07CF0D4
:1020700090C07DF059EC0DF078C08EF079C08FF0F3
:102080007AC090F012000001C26F000E0001C36F11
:10209000000EC46F000EC56F000EC66FB151C25F57
:1020A000000EC76F6DD0C751B56FB66B010EB52767
:1020B000000EB623B51FB61FB54BB62BB151B527D1
:1020C000B251B623D890B537B637D890B537B637B2
:1020D000D890B537B637B5C020F0B6C021F069EC5E
:1020E0001FF020C0BCF021C0BDF022C0BEF0BCC0BB
:1020F000A3F0BDC0A4F0BEC0A5F0000E0001A06F0B
:10210000000EA16F400EA26F30EC0EF0A0C0BFF029
:10211000A1C0C0F0A2C0C1F0BFC078F0C0C079F0CB
:10212000C1C07AF058EC12F078C0B8F079C0B9F0BC
:102130007AC0BAF07BC0BBF00001C251C72560EC89
:1021400022F00001B56FB5511A6E1B6A1C6A1D6A38
:10215000B8C01EF0B9C01FF0BAC020F0BBC021F05B
:1021600067EC1DF00001C3511A10C36FC4511B105E
:10217000C46FC5511C10C56FC6511D10C66FC72B4B
:10218000C751B56FB66BB151B55DB651800AB76F27
:10219000B251800AB759D8A086D7C3C0B1F0C4C025
:1021A000B2F0C5C0B3F0C6C0B4F01200280E206E65
:1021B000000E216E000E236E090E226E95EC21F0AA
:1021C000240E286E050E296E520E2A6E040E2B6EFA
:1021D000F00E186E3A0E196E000E1A6E000E1B6E7F
:1021E000010E1C6E5DEC1CF02C6EF00E186E3A0E9B
:1021F000196E000E1A6E000E1B6E000E1C6E5DEC4A
:102200001CF02D6E40C024F041C025F042C026F0E5
:1022100043C027F0241E251E261E271E242A000E3A
:10222000252226222722F00E2424186E7F0E252038
:10223000196E000E26201A6E000E27201B6E010E4E
:102240001C6E5DEC1CF02E6E40C024F041C025F0E9
:1022500042C026F043C027F0241E251E261E271E3E
:10226000242A000E252226222722F00E2424186E6E
:102270007F0E2520196E000E26201A6E000E2720D4
:102280001B6E000E1C6E5DEC1CF02F6E280E186E7F
:10229000000E196E000E1B6E080E1A6E0EEC1EF06C
:1022A000306E280E196E000E1A6E000E1C6E090E8E
:1022B0001B6EA1EC1FF012002F500001606F616BCC
:1022C0000C0ED89060376137E82EFBD760C062F003
:1022D00061C063F062512D1263512E12D89001013A
:1022E0002E35D96E2F35DA6E340ED926010EDA224C
:1022F0002DC0DEFF2EC0DDFF2E4B2F2B2EC160F038
:102300002FC161F0D890000160376137615104E15D
:10231000400E605DD8A0120033EC22F00009D8B462
:10232000120040C01DF041C01EF042C01FF043C06B
:1023300020F0340E216E010E226EBFEC16F0400E1E
:102340004026000E4122422243224350421006E121
:10235000F00E405C7F0E4158D8A018D0000E406EA1
:10236000450E416E000E426E000E436E010E0001DE
:10237000E66F450EF519F411F611F711D8A406D041
:10238000400EF427000EF523F623F723150E315CDB
:10239000FF0E3258FF0E3358FF0E3458D8B006D017
:1023A000010E3126000E322233223422000E0101AA
:1023B0002F6F000E2E6F120000018C6F070E0001B0
:1023C000E56161D08AC066F08BC067F00A0EF0EC60
:1023D0000EF020EE8DF0070EEBCFDBFFE806FCE2FF
:1023E0008DC029F08EC02AF08FC02BF090C02CF049
:1023F000030E2D6E00018C5121EC18F000018C5160
:10240000D8A41DD08DC021F08EC022F08FC023F043
:1024100090C024F0350E9125F66E060E9221F76ECF
:102420000800F5CF25F0000E276E040E266E4DEC49
:102430001FF0480E246E040EE5EC1DF021D00001C3
:102440008C05D8A41DD08DC021F08EC022F08FC085
:1024500023F090C024F0350E9125F66E060E9221E1
:10246000F76E0800F5502009256E000E276E040E49
:10247000266E4DEC1FF0490E246E040EE5EC1DF0A7
:102480000001E52B1200000EE56F8C51D8A406D098
:10249000420E246E040EE5EC1DF0120000018C05C6
:1024A000D8A41200430E246E040EE5EC1DF01200B9
:1024B0007AC07CF000017D6B7E6B79357C3701E35F
:1024C0007D817C51866F8651D8A409D0000E786F2B
:1024D000000E796F000E7A6F000E7B6F1200170EE0
:1024E0007C6F78C07DF079C07EF07AC07FF07C2967
:1024F000806F04D0D8907F337E337D33802FFAD71E
:1025000000017D51816F798FFF0E7817FF0E7917CB
:10251000000E7A177851826F7951836F7A51846FE8
:10252000856B8E0E865F86AF16D08651800A8F0F20
:10253000D8B009D0000E786F000E796F000E7A6F58
:10254000000E7B6F1200D89085338433833382333F
:10255000863FF9D715D0170E86650FD0000E786F1D
:10256000000E796F000E7A6F000E7B6F1200D8900C
:10257000823783378437853786078651D8A4F7D7C3
:102580008151D8B408D0851F841F831F826D000E2F
:1025900083238423852382C078F083C079F084C0AC
:1025A0007AF085C07BF012006BC06FF00001706B99
:1025B000716B6A356F3701E370816F51726F7251C1
:1025C000D8A407D0000E696F000E6A6F000E6B6F03
:1025D00012006EC06FF0706B716B6D356F3701E379
:1025E00070816F51776F7751D8A407D0000E696F53
:1025F000000E6A6F000E6B6F120077517B0F72270F
:102600006BC077F06E51771B800E77176A8F6D8FD6
:10261000FF0E6C17FF0E6D17000E6E17000E736F16
:10262000000E746F000E756F070E766F69A106D0ED
:102630006C5173276D5174236E517523D8906B3391
:102640006A336933D8906C376D376E37762FEED793
:10265000090E766F69A106D06C5173276D517423F2
:102660006E517523D8906B336A336933D8907533C4
:1026700074337333762FEED773C018F074C019F02B
:1026800075C01AF072C01BF077C01CF074EC17F024
:1026900018C069F019C06AF01AC06BF012002BC0A4
:1026A00060F00001616B626B2A34603701E3618185
:1026B0006051676F6751D8A407D0000E296E000ED5
:1026C0002A6E000E2B6E12002EC060F0616B626BE2
:1026D0002D34603701E361816051686F6851D8A47F
:1026E00007D0000E296E000E2A6E000E2B6E12000F
:1026F000000E646F000E656F000E666F6851890FE3
:10270000675F2BC068F02E50681B800E68172A8EFA
:10271000FF0E2916FF0E2A16000E2B162D8EFF0E09
:102720002C16FF0E2D16000E2E16180E636FD89065
:102730006437653766372C50295C2D502A582E5047
:102740002B58D8A007D02C50295E2D502A5A2E5035
:102750002B5A6481D89029362A362B36632FE7D737
:1027600064C018F065C019F066C01AF067C01BF0AD
:1027700068C01CF074EC17F018C029F019C02AF0DA
:102780001AC02BF01200240E0001606F020E616F60
:10279000210E626F040E636F28C169F029C16AF0CF
:1027A0002AC16BF02BC16CF0000E6E6F000E6D6FC6
:1027B0006EBF06D06E5142E1040E6D5DD8B03ED0C2
:1027C000040E6D25256E000E6E21266E600E2524EA
:1027D000D96E000E2620DA6E69C018F06AC019F0B2
:1027E0006BC01AF06CC01BF00A0E1C6E000E1D6E42
:1027F000000E1E6E000E1F6E9AEC1BF01850DF6E5E
:1028000069C018F06AC019F06BC01AF06CC01BF0F8
:102810000A0E1C6E000E1D6E000E1E6E000E1F6E48
:1028200037EC1AF018C069F019C06AF01AC06BF0E2
:102830001BC06CF000016D4B6E2BBAD7600E186E8A
:10284000000E196E000E1B6E080E1A6E0EEC1EF0B6
:102850000001686F600E196E000E1A6E000E1C6E7D
:10286000090E1B6EA1EC1FF01200000E0001CC6FD0
:10287000000ECD6FD10E206E000E216E000E236E65
:10288000070E226E95EC21F0240E0001D16F060E8A
:10289000D26F620ED36F020ED46FC8C0D9FFC9C009
:1028A000DAFFDF50D06F000EB26F020EB16FD05161
:1028B000010D530EF324F66E060EF420F76E080099
:1028C000F550400943EC10F0B1C0CEF0B2C0CFF0EB
:1028D000000E0001D96F000ED86FD9BF06D0D951B4
:1028E0001FE1020ED85DD8B01BD0040ED825CA6FE8
:1028F000000ED921CB6FD10ECA25D96E000ECB2187
:10290000DA6ECEC018F0CFC019F01A6A1B6AD8C0B0
:102910001CF05DEC1CF0DF6E0001D84BD92BDDD72D
:10292000D10E186E000E196E000E1B6E060E1A6E7A
:102930000EEC1EF00001D76FD10E196E000E1A6E4C
:10294000000E1C6E070E1B6EA1EC1FF01200000E95
:102950000001CC6FCC51800A7C0FD8B01200000E61
:10296000B26F020EB16FCC51010D530EF324F66E0F
:10297000060EF420F76E0800F550400943EC10F005
:10298000B1C0CAF0B2C0CBF00001CA2944E1CB29E2
:10299000D8A441D0CC51020D4B0EF324F66E060E96
:1029A000F420F76E0900F5CFC8F00900F5CFC9F0A3
:1029B000C8C029F0C9C02AF02B6A2C6A010E2D6EFE
:1029C000020E21EC18F00001CC51020D4B0EF32445
:1029D000F66E060EF420F76E0900F5CFC8F0090078
:1029E000F5CFC9F0C8C021F0C9C022F0236A246A1B
:1029F000CC51010D530EF324F66E060EF420F76E43
:102A00000800F5504009256E000E276E020E266E56
:102A10004DEC1FF00BD0CAC029F0CBC02AF02B6AB6
:102A20002C6A010E2D6E020E21EC18F00001CC2B49
:102A300091D78FC018F090C019F091C01AF0950E80
:102A40001B6E000E1C6E61EC19F0000196AF10D0E9
:102A500091AF07D0000E8F6F800E906FBF0E916FF9
:102A60001200000E8F6F000E906F000E916F12001B
:102A7000965104E1150E955DD8A007D08FC08FF058
:102A800090C090F091C091F012008FC078F090C08B
:102A900079F091C07AF058EC12F078C087F079C0E4
:102AA00088F07AC089F07BC08AF0B6EC1AF087C053
:102AB00092F088C093F089C094F08FC018F090C055
:102AC00019F091C01AF092C01BF093C01CF094C092
:102AD0001DF0A9EC19F0D8B016D092C078F093C0D0
:102AE00079F094C07AF0000E00017B6F800E7C6F4D
:102AF000BF0E7D6F59EC0DF078C08FF079C090F06B
:102B00007AC091F0120092C08FF093C090F094C000
:102B100091F0120089C018F08AC019F0000E1B6EE7
:102B2000030E1A6EFCEC20F087C02FF088C030F046
:102B300018502F26195030222FC0F6FF30C0F7FF53
:102B40000900F5CF8BF00900F5CF8CF00A00F5CF26
:102B50008DF03FD08BC06CF08CC06DF08DC06EF0EE
:102B600084C069F085C06AF086C06BF0D4EC12F0C6
:102B700069C078F06AC079F06BC07AF0000E1B6E05
:102B8000030E1A6E00018907D8A08A0789C018F0C1
:102B90008AC019F0FCEC20F087C02FF088C030F01C
:102BA00018502F26195030222FC0F6FF30C0F7FFE3
:102BB0000900F5CF7BF00900F5CF7CF00A00F5CFD6
:102BC0007DF059EC0DF078C08BF079C08CF07AC0B4
:102BD0008DF0000189518A11D8A4BCD78BC084F034
:102BE0008CC085F08DC086F0120000018E518F11CF
:102BF0009011D8A407D0000E8E6F000E8F6F000EBC
:102C0000906F120090517F0B936F946BD890933715
:102C1000943793519127945192238FAF03D0936BA4
:102C2000932B02D00001936B93519127000E9223B6
:102C300092AF0DD0000E01012D6F220E2C6F000EF1
:102C400000018E6F000E8F6F000E906F120092BF0A
:102C500017D09205D8A014D0000E01012D6F220EBE
:102C60002C6F000190AF06D0FF0E8E6F7F0E8F6F1E
:102C7000FF0EEBD7FF0E8E6F7F0E8F6F7F0EE5D7A7
:102C800092359231946F9131936F90519319800BDB
:102C90009319906F91C093F0010E93179333933370
:102CA0008F5193197F0B93198F6F8EC08EF08FC049
:102CB0008FF090C090F012000001856F010E0001AE
:102CC000806F000E816F000E826F000E836F600EAA
:102CD000206E000E216E000E236E200E226E000E5E
:102CE000246EB2EC21F0600E186E000E196E25C035
:102CF0001AF026C01BF027C01CF028C01DF0B9EC4C
:102D00001CF0000E0001846F1F0E846501D026D0D8
:102D1000000E186E85513CEC1DF000018451010D30
:102D2000600EF324D96E000EF420DA6EDF50D8B4B2
:102D300006D0010E186E855111EC1DF006D0000E64
:102D4000186E0001855111EC1DF0010E186E000186
:102D500085513CEC1DF00001842BD6D7210EE82EC6
:102D6000FED700F0000E186E0001855111EC1DF029
:102D7000000E186E000185513CEC1DF01200C00ED3
:102D8000236E7F0E246E1DC025F01EC026F023503A
:102D900025162450261625C027F026C028F0296ABB
:102DA0002A6A000EF2BE010E2B6E27501D1844E158
:102DB00028501E1841E129501F183EE12A502018C2
:102DC000D8A412001DC018F01EC019F01FC01AF0C0
:102DD00020C01BF00BEC20F01FC0F8FF1EC0F7FF57
:102DE0001DC0F6FF000E2C6E3F0E2C6401D013D0D8
:102DF0002C50010DF3502124D96EF4502220DA6EAC
:102E0000DF50F56E3F0E2C18D8A402D00C0001D074
:102E10000D002C2AE9D7A188A68EA69CA684F29E36
:102E2000550EA76EAA0EA76EA682A6942BB002D04E
:102E3000F29E01D0F28E12001200E00E2C6EFF0EF8
:102E40002D6E460E2E6E40C078F041C079F042C023
:102E50007AF043C07BF00001781F791F7A1F7B1F37
:102E6000782B000E79237A237B23F00E7825206EB1
:102E70007F0E7921216E000E7A21226E000E7B21B9
:102E8000236E8BEC1CF020C029F021C02AF022C058
:102E90002BF04FEC13F029C069F02AC06AF02BC068
:102EA0006BF0000E00016C6FC80E6D6F420E6E6FFE
:102EB000D4EC12F069C07CF06AC07DF06BC07EF08B
:102EC000000E186E960E196E420E1A6E7CC01BF024
:102ED0007DC01CF07EC01DF0A9EC19F0D8B002D066
:102EE000010E1200000E12001B50D8B405D018506D
:102EF00019101A10D8A40CD0000E186E000E196EFE
:102F0000000E1A6E12001B2AD8901A32193218328B
:102F1000000E18141D6E000E19141E6EFE0E1A14EB
:102F20001F6E1D501E101F10D8B40CD0ECD71B2ADA
:102F3000010E1826000E1922000E1A22D8901A32FD
:102F400019321832000E18141D6E000E19141E6E60
:102F5000FF0E1A141F6E1D501E101F10D8B406D07D
:102F6000E6D71B06D890183619361A3619BE03D084
:102F7000020E1B60F6D71BA0199ED8901B321B5067
:102F80001A121C50D8A41A8E18C018F019C019F0C3
:102F90001AC01AF01200F2944750D76E46C0D6FFFE
:102FA000354A362A35C001F036C002F0000E046EF4
:102FB000140E036E9AEC1EF001500210D8A403D038
:102FC000010E0001F36F35C001F036C002F0000EB3
:102FD000046E640E036E9AEC1EF001500210D8A429
:102FE00003D0010E0001F26F35C001F036C002F0CF
:102FF000000E046EC80E036E9AEC1EF00150021013
:10300000D8A403D0010E0001F16F35C001F036C025
:1030100002F0000E046E0A0E036E9AEC1EF00150D0
:103020000210D8A403D0010E0001F06FB80E355C79
:10303000880E3658D8A01200000E366E000E356E7F
:1030400012000001896FF29E00018951D8B403D0AB
:103050008905D8A418D0000E186E8951F7EC1EF01F
:1030600029C025F02AC026F02BC027F02CC028F05C
:10307000000189515CEC16F0010E186E00018951B7
:10308000F7EC1EF031D0020E00018919D8A42CD023
:10309000000EA4EC21F0010E2D240001876F886B37
:1030A000000E882388BF1DD0885103E18705D8A072
:1030B00018D029C018F02AC019F02BC01AF02CC063
:1030C0001BF087051C6E5DEC1CF00001866F86C04E
:1030D0001AF08951E5EC1CF000018707D8A0880799
:1030E000E1D7010EA4EC21F0F28E1200740EF66E00
:1030F000440EF76E000EF86E01EEDAF010EE0CF0F2
:103100000900F5CFEEFFE550E150FAE1D00EF66E82
:10311000440EF76E000EF86E00EEF4F010EE06F0BE
:103120000900F5CFEEFFE550E150FAE1CA0EF66E68
:10313000440EF76E000EF86E00EE40F010EE06F052
:103140000900F5CFEEFFE550E150FAE102EE5DF047
:10315000460EEE6AE806FDE101EE00F0B80EEE6AFA
:10316000E806FDE100EEE4F0100EEE6AE806FDE18F
:1031700000EE31F00F0EEE6AE806FDE1489048924D
:10318000000EF86E0001F3EF1AF08AC066F08BC0F3
:1031900067F0100EF0EC0EF020EE91F0070EEBCF82
:1031A000DBFFE806FCE291C029F092C02AF093C050
:1031B0002BF094C02CF0010E2D6E020E21EC18F0B5
:1031C00091C08CF092C08DF093C08EF094C08FF0BF
:1031D0000F0E06D00001D8908F338E338D338C3391
:1031E000E82EF8D78C51906F91C021F092C022F058
:1031F00093C023F094C024F09051010D530EF3249A
:10320000F66E060EF420F76E0800F5504009256EA4
:10321000000E276E020E266E4DEC1FF0610E246E1E
:10322000060EE5EC1DF0120083B820D00001F95124
:10323000800A7F0FD8A006D0010E54EC07F00001E1
:10324000F90703D0020EFFEC1BF0E4C018F0196A76
:10325000000E1B6E1D0E1A6E2DEC1BF0AA0E18240C
:10326000D96E010E1920DA6E000E13D0020E000185
:10327000F96FE4C018F0196A000E1B6E1D0E1A6E6D
:103280002DEC1BF0AA0E1824D96E010E1920DA6E4F
:10329000010EDF6E0001E42B83B20FD0F851800ADB
:1032A0007F0FD8A006D0000E54EC07F00001F807FD
:1032B0001200020EFFEC1BF01200020E0001F86F6C
:1032C0001200185019101A10D8A40FD01BC0D9FF23
:1032D0001CC0DAFF000EDE6E000EDD6E000E186EF2
:1032E000000E196E000E1A6E12001A507F0B1D6E22
:1032F0001E6AD8901D361E361BC0D9FF1CC0DAFFCF
:103300001DC0DEFF1EC0DDFF19AE03D01D6A1D2AE1
:1033100001D01D6A1D501BC0D9FF1CC0DAFFDE1290
:10332000000EDD121BC0D9FF1CC0DAFF820EDE26A4
:10333000FF0EDD221A801A821A841A861A881A8AC7
:103340001A9C199E18C018F019C019F01AC01AF06A
:1033500012001AAE16D018C01EF019C01FF01AC005
:1033600020F01E1E1F1E201E1E2A000E1F222022BD
:10337000000E1E24186E000E1F20196E800E2020D5
:103380001A6E1DAE16D01BC01EF01CC01FF01DC053
:1033900020F01E1E1F1E201E1E2A000E1F2220228D
:1033A000000E1E241B6E000E1F201C6E800E20209F
:1033B0001D6E000E181A000E191A800E1A1A000E31
:1033C0001B1A000E1C1A800E1D1A1B50185C1C5074
:1033D00019581D501A58D8B002D0D8901200D88071
:1033E00012000001DC6F28D0DAC08AF0DBC08BF05D
:1033F000000EDCEC11F01200DAC08AF0DBC08BF0BA
:10340000010EDCEC11F01200010E78EC1AF0120043
:10341000000E78EC1AF01200DAC0C8F0DBC0C9F078
:10342000010E7FEC0BF01200DAC0C8F0DBC0C9F06F
:10343000000E7FEC0BF012000001DC51400AD8B402
:103440001200010AD8B41200030AD8B4CDD7010A79
:10345000D8B4D2D7070AD8B4D7D7010AD8B4D8D7A6
:10346000030AD8B4D9D7010AD8A41200DDD7000EB8
:10347000206E000E216E000E226E000E236E1C5078
:103480001D101E101F10D8B42AD0010E246E06D0B5
:10349000D8901C361D361E361F36242A1FAEF8D78C
:1034A000D89020362136223623361C50185C1D5009
:1034B00019581E501A581F501B58D8A009D01C501C
:1034C000185E1D50195A1E501A5A1F501B5A208040
:1034D000D8901F321E321D321C32242EE1D720C05C
:1034E00018F021C019F022C01AF023C01BF01200FE
:1034F0000001CF6F0001CF51D8A41AD04550D8A4F5
:1035000002D0010E01D0000E456E4550D8B404D053
:10351000CF5154EC07F006D0000E186E0001CF51C9
:10352000D9EC1EF0450E246E040EE5EC1DF01200E1
:103530000001CF05D8A412004450D8A402D0010E37
:1035400001D0000E446E4450D8B404D0CF5154EC96
:1035500007F006D0000E186E0001CF51D9EC1EF016
:10356000440E246E040EE5EC1DF01200000E306EC9
:103570008E0E2F6E00018AAF11D08A1F891F881FFF
:10358000876D000E882389238A23010E306E06D0B2
:10359000D8908A338933883387332F2A000E8715D2
:1035A0008B6F000E88158C6F000E89158D6FFF0EC6
:1035B0008A158E6F8B518C118D118E11D8A4E8D77E
:1035C00087C018F088C019F089C01AF02FC01BF00E
:1035D00030C01CF074EC17F018C087F019C088F0E8
:1035E0001AC089F012004CEC22F0E4EC21F046EC19
:1035F00022F0030E2EEC1CF08FEC0AF00001F00517
:10360000D8A406D057EC1EF0000E0001F06FF4D7DE
:10361000F205D8A410D0CDEC21F01DEC17F0E8068F
:10362000D8A403D0020EFFEC1BF08FEC08F0000EC4
:103630000001F26FE1D7F105D8A406D040EC22F0EA
:10364000000E0001F16FD8D7F305D8A4D5D714EC3C
:1036500019F0000E0001F36FCFD7000E1D6E19AEEA
:1036600006D0186C191ED8B0192A010E1D6E1BAE9B
:1036700004D01A6C1B1ED8B01B2A1A501B10D8B4C9
:1036800018D0010E1C6E04D0D8901A361B361C2A96
:103690001BAEFAD71A50185C1B501958D8A004D08A
:1036A0001A50185E1B50195AD8901B321A321C2E11
:1036B000F1D71D50D8B404D0186C191ED8B0192AEF
:1036C00018C018F019C019F01200000E2E6E000E6E
:1036D0002D6E2EBE06D02E5027E10A0E2D5CD8B0DE
:1036E00023D08B80820E2C6EDE0EE82EFED72C2E81
:1036F000FCD78A88820E2C6EDE0EE82EFED72C2E8A
:10370000FCD78B90820E2C6EDE0EE82EFED72C2E70
:10371000FCD78A98820E2C6EDE0EE82EFED72C2E59
:10372000FCD72D4A2E2AD5D7140E246E010EE5ECB7
:103730001DF012001C501D101E101F10D8B424D0F4
:10374000010E206E06D0D8901C361D361E361F3650
:10375000202A1FAEF8D71C50185C1D5019581E5057
:103760001A581F501B58D8A008D01C50185E1D5066
:10377000195A1E501A5A1F501B5AD8901F321E3207
:103780001D321C32202EE7D718C018F019C019F0CE
:103790001AC01AF01BC01BF01200000E8D6E000E36
:1037A0008C6E060E896E000E8A6E000E8B6E070EF2
:1037B000966EE10E926EEF0E936E800E946EF20E88
:1037C000956E340E0F013A6F3E0E396FE40E3B6F6B
:1037D000070E3C6F2F0E386FC30E616EF19E62882C
:1037E000628AEA0E186E440E196E5BEC22F0E80E47
:1037F000186E440E196E56EC22F0F28612001B6E03
:10380000000E1D6E000E1C6E1B50186E196A1850AB
:103810001C5C1D50800A1A6E1950800A1A58D8B0C4
:1038200012008A98020E196E040E186EBA0EE82E57
:10383000FED7182EFCD7192EFAD700D08A88020E90
:10384000196E040E186EBA0EE82EFED7182EFCD78D
:10385000192EFAD700D01C4A1D2AD6D71B6E000E8F
:103860001D6E000E1C6E1B50186E196A18501C5CE1
:103870001D50800A1A6E1950800A1A58D8B01200CA
:103880008B90020E196E040E186EBA0EE82EFED73B
:10389000182EFCD7192EFAD700D08B80020E196E85
:1038A000040E186EBA0EE82EFED7182EFCD7192E6D
:1038B000FAD700D01C4A1D2AD6D71FD018501200A4
:1038C000195012001A501200000E18141D6E000E2E
:1038D00019141E6E000E1A141F6EFF0E1B14206E9C
:1038E000190E05D0D89020321F321E321D32E82E1C
:1038F000F9D71D501200000E12001C50000AD8B457
:10390000DDD7010AD8B4DCD7030AD8B4DBD7010A63
:10391000D8B4DAD7F0D78E0E286E06D0D8902332DE
:10392000223221322032282A000E2014246E000E6A
:103930002114256E000E2214266EFF0E2314276E0E
:103940002450251026102710D8A4E8D720C018F03E
:1039500021C019F022C01AF028C01BF0000E1C6E06
:1039600074EC17F018C020F019C021F01AC022F032
:103970001200000E216E000E206E21BE06D02150D6
:1039800023E1210E205CD8B01200010E20241E6E0F
:10399000000E21201F6E1E1E1F1E1E4A1F2A200EF3
:1039A0001E26000E1F221E501824D96E1F501920EB
:1039B000DA6E1A50010BDF6ED8901D321C321B32AA
:1039C0001A32204A212AD9D712001C6E080E1B6E0B
:1039D0001AD0010E186E1C503CEC1DF01AAE06D029
:1039E000010E186E1C5011EC1DF005D0000E186E63
:1039F0001C5011EC1DF0000E186E1C503CEC1DF01C
:103A00001B06D8901A361B50D8A4E3D7000E186EA8
:103A10001C5011EC1DF0000E186E1C503CEC1DF0FB
:103A20001200196E1ED01804D8A402D08C80120087
:103A30001850D8A412008C9012001804D8A402D0F8
:103A40008B8A12001850D8A412008B9A1200180406
:103A5000D8A402D0898812001850D8A412008998DE
:103A600012001950000AD8B4DED7010AD8B4E5D73D
:103A7000030AD8A41200EBD7196E1ED01804D8A4DC
:103A800002D08B8612001850D8A412008B96120018
:103A90001804D8A402D08B8812001850D8A41200A1
:103AA0008B9812001804D8A402D0898612001850EE
:103AB000D8A41200899612001950000AD8B4DED793
:103AC000010AD8B4E5D7030AD8A41200EBD7000E38
:103AD000226E000E236E000E246E000E256E1AA0BC
:103AE00008D01E5022261F5023222050242221506D
:103AF0002522D8901E361F3620362136D8901D320A
:103B00001C321B321A321A501B101C101D10D8A464
:103B1000E6D722C01AF023C01BF024C01CF025C039
:103B20001DF01200000E1E6E000E1D6E000E206EA7
:103B3000000E1F6E100E1F182010D8B412001F5058
:103B40001824D96E20501920DA6EDF50D8B411D065
:103B50001FC01AF0010E1B6E000E1C6E1A2A03D035
:103B6000D8901B361C361A2EFBD71B501D121C502A
:103B70001E121F4A202ADED7000E406E450E416EEF
:103B8000000E426E000E436E000E0001F46F450EF3
:103B9000F56F000EF66F000EF76F000E316E000E1F
:103BA000326E000E336E000E346E340E206E010E37
:103BB000216E000E236E200E226E95EC21F0510E28
:103BC000246E050EE5EC1DF01200256E260E206E0B
:103BD000000E216E000E236E060E226E95EC21F073
:103BE000240E266E25C027F024C028F0000E296E72
:103BF000260E186E000E196E000E1B6E050E1A6E44
:103C00000EEC1EF02B6E260E196E000E1A6E000EB4
:103C10001C6E060E1B6EA1EC1FF01200000E1E6E35
:103C2000000E1D6E000E206E000E1F6E0ED01F5077
:103C30001824D96E20501920DA6EDF501C6E1C50EB
:103C40001D26000E1E221F4A202A1A501F5C2050DB
:103C5000800A1C6E1B50800A1C58D8A0E8D7FF0EA3
:103C60001D16000E1E161D501200000E1A6E000EBC
:103C7000196E0001EE51D8A402D01950120037502D
:103C8000010D000EF324D96E010EF420DA6EDF5020
:103C9000186E1850196E1A6A372A270E376402D028
:103CA000000E376E9D9AEE079D8A19501200010E84
:103CB00001012827000E29232A232B2328C118F0CD
:103CC00029C119F02AC11AF02BC11BF0800E1C6EFD
:103CD000430E1D6E000E1E6E000E1F6E9AEC1BF042
:103CE00018C028F119C029F11AC02AF11BC02BF104
:103CF00012000001875188118911D8B406D0000E36
:103D0000871B000E881B800E891B84C078F085C03D
:103D100079F086C07AF087C07BF088C07CF089C0DB
:103D20007DF059EC0DF078C084F079C085F07AC050
:103D300086F0120003500410D8B418D0010E056E9E
:103D400004D0D89003360436052A04AEFAD70350BF
:103D5000015C04500258D8A004D00350015E045006
:103D6000025AD89004320332052EF1D701C001F077
:103D700002C002F01200186E0101EC51D8B4FCD759
:103D80009DB803D018C0ADFF12D09D983A50010DD8
:103D90005D0EF324D96E020EF420DA6E18C0DFFF38
:103DA0003A2A450E3A6402D0000E3A6EEC079D881E
:103DB0001200196E14D01804D8A402D08B821200FD
:103DC0001850D8A412008B9212001804D8A402D064
:103DD0008C8412001850D8A412008C941200195030
:103DE000000AD8B4E8D7010AD8A41200EED7196E99
:103DF00014D01804D8A402D08B8412001850D8A470
:103E000012008B9412001804D8A402D08C861200E1
:103E10001850D8A412008C9612001950000AD8B479
:103E2000E8D7010AD8A41200EED70001DC6F0DD04C
:103E3000BCEC1DF01200D6EC10F01200DAC087F0D6
:103E4000DBC088F053EC03F012000001DC51510A92
:103E5000D8B4EED7030AD8B4EED7010AD8A412001A
:103E6000EDD79D9A9D98080EB86E900EAB6E240EFD
:103E7000AC6E100EAF6E000EB06E000E3A6E000EFD
:103E8000396E460E0101EC6F000E386E000E376E73
:103E9000000E0001EE6F9D8A120026C029F015D099
:103EA00021C018F022C019F023C01AF024C01BF062
:103EB00029041C6E5DEC1CF0286E28C01BF02950F4
:103EC000000825242CEC22F029062950D8B4120031
:103ED000E7D7000E236E21AE06D0206C211ED8B08D
:103EE000212A010E236E20C018F021C019F01A6A91
:103EF0008E0E1B6E23C01CF074EC17F018C020F05F
:103F000019C021F01AC022F01200460E0101EC6126
:103F100012D03950010D5D0EF324D96E020EF4203B
:103F2000DA6EDF50AD6E392A450E396402D0000ECC
:103F3000396EEC2B12009D98000E396E000E3A6E11
:103F40001200000E1F6E000E1E6E0BD01E501924A4
:103F5000D96E1F501A20DA6EDF50BBEC1EF01E4ADD
:103F60001F2A1B501E5C1F50800A1D6E1C50800AA9
:103F70001D58D8B01200EAD7196E000EF2BE010E1D
:103F80001A6E19C0A9FF18C0A8FFA69EA69CA684F9
:103F9000F29E550EA76EAA0EA76EA682A6B2FED7F7
:103FA000A6941AB002D0F29E01D0F28E1200000147
:103FB000DC6F0ED0DAC08AF0DBC08BF0C5EC18F0F5
:103FC0001200DAC0C8F0DBC0C9F035EC14F0120002
:103FD0000001DC51610AD8B4EDD7030AD8A412005D
:103FE000F0D7F80ED76E2F0ED66ED650D7CF1AF068
:103FF0001B6A1AC01BF01A6A1A10466E1B50476ED5
:10400000F294F28A000E186E000E196E51EC22F036
:10401000900ED56E1200000EF2BE010E1C6E1AC07C
:10402000F8FF19C0F7FF18C0F6FFA68EA69CA6845D
:10403000A688F29E550EA76EAA0EA76EA6821CB089
:1040400002D0F29E01D0F28E12000001DD6F06D088
:1040500065EC1BF012001EEC22F012000001DD5195
:10406000110AD8B4F8D7030AD8B41200010AD8B498
:104070001200070AD8A41200EBD72CC0D9FF2DC01C
:10408000DAFFDF503B6E3B04D8A409D020EE01F0EC
:104090002C50D9262D50DA22DF500001EF6F320E5E
:1040A000246E030EE5EC1DF012001C6E1CC01AF00D
:1040B0001A461A46C2501A18830B1A18C26EC280CA
:1040C000C282C2B2FED7C4501B6E1A6AC3501A24F1
:1040D000186E000E1B20196E1200ABA202D0AB9816
:1040E000AB883850010D000EF324D96E010EF42078
:1040F000DA6EAECFDFFF382A270E386402D0000E0A
:10410000386E0001EE2B120018C01EF019C01FF00F
:1041100008D01EC0D9FF1FC0DAFF1AC0DFFF1E4A39
:104120001F2A1C06D8A01D061C28F3E11D28D8B4A0
:104130001200EFD7000E0001EA6F000EE96F000ECB
:10414000E86F000EE76F880E206E010E216E000EE4
:10415000236E140E226E95EC21F0120019AE0DD0D4
:1041600018C01AF019C01BF01A1E1B1E1A4A1B2A6F
:104170001AC018F01BC019F0120018C018F019C0AE
:1041800019F012001D6E010E1C6E7B0E1D6003D017
:10419000610E1D6007D01D5086EC21F0D8B002D012
:1041A000000E1C6E1CC01BF01B3012001A6E010E9C
:1041B000196E200E1A18D8B408D00E0E1A6003D04B
:1041C000090E1A6002D0000E196E19C018F01830CE
:1041D0001200000E54EC07F0010E54EC07F0AA0E8A
:1041E000206E010E216E000E236E0E0E226EFF0E4B
:1041F000246EB2EC21F0120018501A02F3CF1CF01A
:10420000F4CF1DF018501B02F3501D2619501A024E
:10421000F3501D261CC018F01DC019F0120000013B
:10422000DD6F06D05CEC05F01200C3EC13F0120059
:104230000001DD51210AD8B4F8D7030AD8A412002E
:10424000F1D7185019101A10D8B406D0000E181A49
:10425000000E191A800E1A1A18C018F019C019F099
:104260001AC01AF0120020C018F021C019F01A6A02
:104270008E0E1B6E000E1C6E74EC17F018C020F032
:1042800019C021F01AC022F012000101E851E91111
:10429000D8B4120001D812000500FA6EE851FD6E84
:1042A000E951FE6EF850FF6EFA5012000101EA511A
:1042B000EB11D8B4120001D812000500FA6EEA51D1
:1042C000FD6EEB51FE6EF850FF6EFA5012000001C9
:1042D000DC6F07D0DAC02CF0DBC02DF03DEC20F015
:1042E00012000001DC51320AD8A41200F3D71A6E72
:1042F000000E196E3A0E1A6005D02F0E1A6402D005
:10430000010E196E19C018F0183012001A6E000E46
:10431000196E5B0E1A6005D0400E1A6402D0010EB1
:10432000196E19C018F01830120020C018F021C002
:1043300019F0000E1B6E000E1A6E22C01CF023C076
:104340001DF084EC20F01200186E04D08994120045
:10435000898412001850000AD8B4F8D7010AD8A4EA
:104360001200F6D720C018F021C019F024C01AF0AE
:104370001B6A22C01CF023C01DF084EC20F0120048
:104380006EEC22F0CDEC1BF025EC22F0F1EC1FF0EE
:10439000D9EC21F031EC1FF012008BB003D0186A79
:1043A000182A01D0186A8B501818FE0B18188B6E3B
:1043B0001200050EC26E000EC16E870EC06E000E9A
:1043C000C36E000EC46E12006BEC22F070EC22F093
:1043D000E9EC20F003EC22F0A7EC14F01200186EC8
:1043E0007B0E186004D0600E186401D0189A185023
:1043F0001200186E18C0A9FFA69CA69EA68000F009
:1044000000F0A8501200000E0101286F000E296F65
:10441000000E2A6F000E2B6F12001AC0F8FF19C091
:10442000F7FF18C0F6FF0800F550120062B856EC0E
:1044300021F062BA45EC21F0F2901200110E246EC8
:10444000010EE5EC1DF0FF001200600ED36E040EAD
:10445000D26E800E9B6E12001C6E1BC018F01C509A
:10446000BCEC1FF01200A6A201D002D0010E120077
:10447000000E12004A401E42CE42E2332A3EAE3FB8
:10448000150E246E010EE5EC1DF01200100E246EC8
:10449000010EE5EC1DF01200C0EC21F0F28EF28C62
:1044A000120018C0E6F119C0E7F1120018C0E8F1D7
:1044B00019C0E9F1120018C0EAF119C0EBF11200BD
:1044C000196E1950F9EC21F01200004500000101AD
:1044D000004500000202000E3B6E1200D09E12004A
:0C44E000D58E1200A198120012001200EC
:020000040020DA
:08000000FFFFFFFFFFFFFFFF00
:020000040030CA
:0E000000FF281838FFBF80FF0FC00FE00F4031
:00000001FF
