:040000006EEF00F0AF
:100008004882FACF06F0FBCF07F0E9CF08F0EACF35
:1000180009F0E1CF0AF0E2CF0BF0D9CF0CF0DACF3C
:100028000DF0F3CF0EF0F4CF0FF0F6CF10F0F7CFBE
:1000380011F0F8CF12F0F5CF13F048C014F049C012
:1000480015F04AC016F04BC017F0F2B6F2A003D074
:10005800B4EC1CF019D0F2BAF2A403D02DEC13F0D2
:1000680013D0F2AC11D0A0B8A1A803D0B6EC1CF004
:100078000BD09DB89EA803D0ADEC19F005D09DBA61
:100088009EAA02D0C6EC1AF017C04BF016C04AF070
:1000980015C049F014C048F013C0F5FF12C0F8FFAE
:1000A80011C0F7FF10C0F6FF0FC0F4FF0EC0F3FF3A
:1000B8000DC0DAFF0CC0D9FF0BC0E2FF0AC0E1FF98
:1000C80009C0EAFF08C0E9FF07C0FBFF06C0FAFF46
:0800D80048921100CCEF14F076
:10060000001C0401000B3061003A19C000C9FC1045
:100610001128042D10E700001276600035250080B7
:10062000008483003003000000120000000100007D
:100630000C8006200004080C0010001400000018B4
:1006400000004423446344A344E307060504190A55
:100650000D0204060800803F72313FFE753E58636C
:100660003D951D3CC5AE3A79213994803793A73525
:1006700056153400000000803FF0FFBEE2A93E8323
:1006800076BEAE2B3E3CC3BDD2133D78D3BB4D618D
:100690007220313820323031380031353A31323A37
:1006A00034350000000E0001BA6F000EB96F000E65
:1006B000BE6F000EBD6F6C0E206E000E216E000E20
:1006C000236E450E226ECBEC1BF079EC1CF000097A
:1006D000D8B412003C503D103E103F10D8B4EED0BC
:1006E0003050311032103310D8B49AD02CC060F092
:1006F0002DC061F0000E000161BFFF0E626F636FDD
:100700003050605D315061593250625933506359F5
:10071000D8B002D0010E01D0000E646F656B666B1D
:10072000676B641F651F661F671F642B000E6523C0
:100730006623672330506425686F31506521696FE7
:10074000325066216A6F335067216B6F68516911AF
:100750006A116B11D8A40AD02CC0B1F02DC0B2F030
:10076000000EB2BFFF0EB36FB46F08D030C0B1F04F
:1007700031C0B2F032C0B3F033C0B4F0B1C0BDF09C
:10078000B2C0BEF0BEAF91D0BDC018F0BEC019F06F
:100790001BEC1BF018C060F019C061F0000E0001E6
:1007A00061BFFF0E626F636F60513C5C61513D58E9
:1007B00062513E5863513F58D8B016D03C50BD25C9
:1007C000606F3D50BE21616F60512C2661512D221A
:1007D0003CC060F03DC061F0601F611F604B612B49
:1007E00060C0BDF061C0BEF0BDC060F0BEC061F0D1
:1007F000060ED89060376137E82EFBD760C062F0F4
:1008000061C063F0000E63BFFF0E646F656F6251DD
:10081000F9276351FA236451FB236551FC2345D02A
:100820002CC060F02DC061F0000E000161BFFF0E12
:10083000626F636F3C50605D3D5061593E5062593C
:100840003F506359D8A009D03CC0B5F03DC0B6F0C8
:100850003EC0B7F03FC0B8F009D02CC0B5F02DC0F5
:10086000B6F0000EB6BFFF0EB76FB86FB5C02CF074
:10087000B6C02DF02CC060F02DC061F0060ED890EF
:1008800060376137E82EFBD760C062F061C063F06B
:10089000000E63BFFF0E646F656F6251F95F6351B5
:1008A000FA5B6451FB5B6551FC5BFC51FB113EE163
:1008B000F905400EFA59D8B039D023D00001CA51F9
:1008C000D8B428D0F951405CFA514158FB514258F4
:1008D000FC514358D8A01ED0400E4024F96F000EA2
:1008E0004120FA6F000E4220FB6F000E4320FC6F88
:1008F000FC51FB1106E1F00EF95D7F0EFA59D8A00C
:1009000015D0000EF96F400EFA6F000EFB6F000E4F
:10091000FC6F0CD03050311032103310D8A406D0F8
:10092000550E246E050E8FEC17F01200240E0001F8
:100930006C6F050E6D6F540E6E6F400E6F6F000E74
:10094000BA6F000EB96F84D0000EBC6F000EBB6F83
:10095000BCBF06D0BC512CE1400EBB5DD8B028D046
:10096000040EBB25606F000EBC21616F6C0E60250C
:10097000D96E000E6121DA6EBBC062F0BCC063F0BC
:10098000000E63BFFF0E646F656FF9516225186E2C
:10099000FA516321196EFB5164211A6EFC516521D5
:1009A0001B6E44EC1CF0DF6E0001BB4BBC2BD0D7A0
:1009B000400EF927000EFA23FB23FC23FC51FB1108
:1009C00006E1F00EF95D7F0EFA59D8A008D0000EAE
:1009D000F96F400EFA6F000EFB6F000EFC6F6C0E8D
:1009E000186E000E196E000E1B6E440E1A6EB8ECD7
:1009F00017F00001B06F6C0E196E000E1A6E000E2B
:100A00001C6E450E1B6EFFEC19F030503110321089
:100A10003310D8B41AD03C04FF0E3D58FF0E3E5898
:100A2000FF0E3F58D8B006D0010E3C26000E3D22E6
:100A30003E223F223050311032103310D8B405D04E
:100A40003006000E315A325A335A0001B94BBA2BD4
:100A50002C50B95DBA51800A606F2D50800A6059E0
:100A6000D8B0120071D7000E0101CB6FDFD0040E99
:100A70000001D3651200010ED26F1200F3EC1AF0E0
:100A8000000E0001CB6F010ED3650ED095EC18F06F
:100A90000101CB6FCBC1D9F0240ECB19D8A4120021
:100AA000020E0001D26F1200000ED26F1200010E72
:100AB000D365120095EC18F00001D16FD1C0DAF0C7
:100AC000030ED26F1200010ED365120095EC18F0E0
:100AD0000001D06FD0C0DBF0040ED26F1200010E07
:100AE000D365120095EC18F00001CF6FCFC0DCF099
:100AF000CF51D8A403D0060ED26F1200050ED26FCC
:100B00001200CF51D35DD8A01200AE0E206E010EA0
:100B1000216E000E236E140E226ECBEC1BF0000E25
:100B20000101CA6F000EC96F22D095EC18F00101C7
:100B3000CB6F0001CB510101C56FC66B040EC527F9
:100B4000000EC623D90EC525D96E000EC621DA6E59
:100B5000CBC1DFFF0001CB2BAE0E0101C925D96E41
:100B6000010ECA21DA6ECBC1DFFFC94BCA2B0001CF
:100B7000CF510101C56FC66BC551C95DCA51800A0D
:100B8000C76FC651800AC759D8A0CFD7060E00013B
:100B9000D26F1200D351D8B4120095EC18F00001B6
:100BA000CC6FD90E186E000E196E040ECB251A6E7E
:100BB0001B6A000E1B22B8EC17F00001CD6FCD515F
:100BC000CC19D8A403D0070ED26F1200000ED26F3A
:100BD0001200FE0E0101C56FFF0EC66F0001D1515C
:100BE0000101C76FC86BD890C737C837C551C72731
:100BF000C651C823ED0EC725D96E000EC821DA6E86
:100C000001D810D00500FA6EDE50FD6EDE50FE6E8B
:100C1000F850FF6EFA50AE0EC26F010EC36F0001A6
:100C2000D0511200000E0001D26F12000001D2510B
:100C3000000AD8B41CD7010AD8B420D7030AD8B404
:100C400036D7010AD8B43FD7070AD8B448D7010A23
:100C5000D8B457D7030AD8B49DD7010AD8A4120034
:100C6000B8D7000199519A119B11D8A407D0000E52
:100C7000996F800E9A6F3F0E9B6F1200720E186E66
:100C8000310E196E440E1A6E99C01BF09AC01CF0FA
:100C90009BC01DF006EC14F0D8B00CD0000E000183
:100CA000C56F220EC46FFF0E996F7F0E9A6F7F0E75
:100CB0009B6F120099C018F09AC019F09BC01AF0EF
:100CC000490E1B6E3A0E1C6EC40E1D6E06EC14F01F
:100CD000D8B00CD0000E0001C56F220EC46F000EFC
:100CE000996F000E9A6F000E9B6F120000019BAF70
:100CF00002D0010E01D0000EA16FA151D8B40ED0C8
:100D000099C018F09AC019F09BC01AF079EC1BF04A
:100D100018C099F019C09AF01AC09BF099C069F0F8
:100D20009AC06AF09BC06BF0AA0E00016C6FB80EFF
:100D30006D6F3F0E6E6FF1EC0DF069C099F06AC0F7
:100D40009AF06BC09BF099C091F09AC092F09BC052
:100D500093F052EC0FF091C09CF092C09DF093C0C4
:100D60009EF09CC078F09DC079F09EC07AF075EC42
:100D70000DF078C09FF079C0A0F099C084F09AC0BF
:100D800085F09BC086F09FC020F0A0C021F091ECC0
:100D900019F020C087F021C088F022C089F0D9EC7A
:100DA00018F084C099F085C09AF086C09BF099C075
:100DB00084F09AC085F09BC086F0550E0001876FC5
:100DC000060E886F000E8A6F090E896FC3EC0FF054
:100DD00084C090F085C091F086C092F09FC093F0DF
:100DE000A0C094F030EC10F090C099F091C09AF04F
:100DF00092C09BF00001A151D8B425D099290EE1F1
:100E00007F0E9A190BE17F0E9B19D8A407D0000E14
:100E1000996F000E9A6F000E9B6F1200000E296EE4
:100E2000800E2A6E3F0E2B6E99C02CF09AC02DF0CA
:100E30009BC02EF06CEC0EF029C099F02AC09AF0FD
:100E40002BC09BF0120099C099F09AC09AF09BC0F9
:100E50009BF0120026C0D9FF27C0DAFFDF50000147
:100E6000656F264A272A65512FEC1BF0D8B0F2D7C0
:100E7000000E0001616F000E626F000E636F000EC6
:100E8000646F000E606F2D0E6519D8A403D0010E9B
:100E9000606F04D02B0E6519D8A408D026C0D9FFE6
:100EA00027C0DAFFDF50656F264A272A300E651902
:100EB000D8A42ED026C0D9FF27C0DAFFDF50656F37
:100EC000264A272A2A502B10D8B405D0100E2A18EB
:100ED0002B10D8A415D0780E6519D8B404D0580EAC
:100EE0006519D8A40DD0000E2B6E100E2A6E26C0E8
:100EF000D9FF27C0DAFFDF50656F264A272A08D0BE
:100F00002A502B10D8A404D0000E2B6E080E2A6E87
:100F10002A502B10D8A404D0000E2B6E0A0E2A6E75
:100F2000655107EC1BF0D8A008D00001655126ECF4
:100F30001CF0C90F0001656F09D000016551ADECCF
:100F40001BF0D8A039D0300E0001655F65512C6EC2
:100F50002D6A2A502C5C2D50800A2E6E2B50800A50
:100F60002E58D8B029D02AC01AF02BC01BF0000E82
:100F70001BBEFF0E1C6E1D6E61C01EF062C01FF016
:100F800063C020F064C021F03BEC17F00001655114
:100F90001A24616F000E1B20626F000E1C20636F0D
:100FA000000E1D20646F26C0D9FF27C0DAFFDF5076
:100FB000656F264A272AB4D728502910D8B40ED0F6
:100FC000FF0E26242C6EFF0E27202D6E28C0D9FF81
:100FD00029C0DAFF2CC0DEFF2DC0DDFF000160510B
:100FE000D8B41AD061C02CF062C02DF063C02EF0CE
:100FF00064C02FF02C1E2D1E2E1E2F1E2C2A000E1C
:101000002D222E222F222CC026F02DC027F02EC0FC
:1010100028F02FC029F0120061C026F062C027F02E
:1010200063C028F064C029F01200000E0001BD6FFB
:10103000000EBC6F3B50D8A473D0000EBE6F060EDE
:10104000BE6501D01200BE51010D4A0EF324F66EAA
:10105000060EF420F76E0800F550AEEC1AF018C03A
:10106000B5F019C0B6F0000E0001A56F200EA66FF6
:10107000410EA76F000EA26F000EA36F400EA46F6B
:1010800085EC0AF0A2C0B9F0A3C0BAF0A4C0BBF0CE
:10109000C00E00016C6F500E6D6F450E6E6FB9C0C3
:1010A0002CF0BAC02DF0BBC02EF0B5C020F0B6C0F9
:1010B00021F08BEC1BF020C029F021C02AF022C0C7
:1010C0002BF06CEC0EF029C069F02AC06AF02BC03E
:1010D0006BF0F1EC0DF069C078F06AC079F06BC08C
:1010E0007AF075EC0DF078C0BCF079C0BDF0BCC0F2
:1010F0002DF0BDC02EF00001BE292F6EF8EC0CF0D3
:10110000030E0001B46F8A0EB36F550EE82EFED7A2
:10111000B32FFCD7B42FFAD700D00001BE2B8FD746
:101120003B04D8A41200D451010D4A0EF324F66EEC
:10113000060EF420F76E0800F550AEEC1AF018C059
:10114000B7F019C0B8F0000E0001A56F200EA66F11
:10115000410EA76F000EA26F000EA36F400EA46F8A
:1011600085EC0AF0A2C0B9F0A3C0BAF0A4C0BBF0ED
:10117000C00E00016C6F500E6D6F450E6E6FB9C0E2
:101180002CF0BAC02DF0BBC02EF0B7C020F0B8C014
:1011900021F08BEC1BF020C029F021C02AF022C0E6
:1011A0002BF06CEC0EF029C069F02AC06AF02BC05D
:1011B0006BF0F1EC0DF069C078F06AC079F06BC0AB
:1011C0007AF075EC0DF078C0BCF079C0BDF0BCC011
:1011D0002DF0BDC02EF0010E2F6EF8EC0CF01200B9
:1011E0007AC07EF000017F6B806B79357E3701E33A
:1011F0007F817E51836F7DC07EF07F6B806B7C35FD
:101200007E3701E37F817E51826F8351D8B40BD04A
:101210008251835DD8B00ED08351000882257E6F45
:10122000180E7E6507D07BC078F07CC079F07DC059
:101230007AF012008251D8B40BD08351825DD8B0BD
:101240000ED08251000883257E6F180E7E6507D070
:1012500078C078F079C079F07AC07AF01200060E82
:10126000816F7ABF818F7DBF818D798FFF0E781757
:10127000FF0E7917000E7A177C8FFF0E7B17FF0E7B
:101280007C17000E7D178251835DD8B01BD0D8909B
:101290007B377C377D37820783518219D8B40DD0D4
:1012A000810781C07EF0070E7E17D8B406D0EFD735
:1012B000D8907A3379337833832B82518319D8B419
:1012C0001FD0F6D78351825DD8B01AD0D890783726
:1012D00079377A37830783518219D8B40DD08107C3
:1012E00081C07EF0070E7E17D8B406D0EFD7D89015
:1012F0007D337C337B33822B82518319D8A4F7D77B
:1013000081AF0CD0FF0E781BFF0E791BFF0E7A1BEE
:10131000010E7827000E7923000E7A2381AD0CD0C0
:10132000FF0E7B1BFF0E7C1BFF0E7D1B010E7B2720
:10133000000E7C23000E7D23000E816F78517B27E9
:1013400079517C237A517D237DAF0ED0FF0E7B1B1C
:10135000FF0E7C1BFF0E7D1B010E7B27000E7C23E6
:10136000000E7D23010E816F7BC018F07CC019F048
:101370007DC01AF083C01BF081C01CF0A5EC11F0F9
:1013800018C078F019C079F01AC07AF01200000184
:101390007A6F000E00017C6F000E7D6F000E7E6F75
:1013A000000E7F6F000E806F000E816F000E826F47
:1013B000000E836F000E866F000E7B6F700E206E26
:1013C000000E216E000E236E0A0E226ECBEC1BF077
:1013D000000E0001866F090E866501D01DD0865172
:1013E000010DF3506625D96EF4506721DA6EDF5097
:1013F0007B6F100E7B19D8A402D0862B0DD086519E
:10140000010D700EF324D96E000EF420DA6E7B51BC
:10141000300FDF6E862BDFD7700E266E000E276E24
:10142000000E286E000E296E7A512A6E2B6A2ABE93
:101430002B062AEC07F026C07CF027C07DF028C0E0
:101440007EF029C07FF0700E206E000E216E000E1F
:10145000236E0A0E226ECBEC1BF0000E0001856F8E
:10146000000E846F85BF06D085512EE10A0E845D83
:10147000D8B02AD0865184256E6F000E85216F6FFB
:101480006E516625D96E6F516721DA6EDF507B6F22
:10149000230E7B19D8B418D0700E8425D96E000E97
:1014A0008521DA6E865184256E6F000E85216F6F5F
:1014B0006E516625E16E6F516721E26EE750300F85
:1014C000DF6E844B852BCED7700E266E000E276EF6
:1014D000000E286E000E296E7A512A6E2B6A2ABEE3
:1014E0002B062AEC07F026C080F027C081F028C028
:1014F00082F029C083F020EE7CF000EE66F0070E4B
:10150000DBCFEBFFE806FCE21200000E0001AE6F3D
:10151000A251A311A411D8A41DD0000E186E000E64
:10152000196E000E1A6EA5C01BF0A6C01CF0A7C055
:101530001DF006EC14F0D8A005D0000E0001C56F18
:10154000210EC46F000E0001A26F000EA36F000EEB
:10155000A46F1200A551A611A711D8A407D0000EA0
:10156000A26F800EA36F3F0EA46F1200A4AF41D0F4
:10157000A5C078F0A6C079F0A7C07AF075EC0DF0A0
:1015800078C0AFF079C0B0F07AC0B1F07BC0B2F0F3
:10159000AFC020F0B0C021F0B1C022F0B2C023F043
:1015A0005FEC16F00001A551201807E1A6512118A3
:1015B00004E1A7512218D8B40BD0000EC56F210E3C
:1015C000C46F000EA26F000EA36F000EA46F120076
:1015D000AF51010BAE6FA2C018F0A3C019F0A4C0A8
:1015E0001AF079EC1BF018C0A2F019C0A3F01AC0D1
:1015F000A4F0A2C090F0A3C091F0A4C092F0DBECE4
:101600000BF090C0A8F091C0A9F092C0AAF0A8C0B9
:1016100069F0A9C06AF0AAC06BF0A5C06CF0A6C0C2
:101620006DF0A7C06EF0F1EC0DF069C0ABF06AC0D0
:10163000ACF06BC0ADF0ABC099F0ACC09AF0ADC0EF
:101640009BF031EC06F099C0A2F09AC0A3F09BC0C9
:10165000A4F00001AE51D8B40FD0A2C018F0A3C0BE
:1016600019F0A4C01AF079EC1BF018C0A2F019C050
:10167000A3F01AC0A4F01200A2C0A2F0A3C0A3F06D
:10168000A4C0A4F012000101CC6F000E0101CD6FC7
:10169000000ECE6F000ECF6F000ED06F0001B35161
:1016A0000101CC5F000ED16F6FD00101D15100015B
:1016B000B76FB86B010EB727000EB823B71FB81F5E
:1016C000B74BB82BB351B727B451B823D890B7371D
:1016D000B837D890B737B837D890B737B837B7C01A
:1016E00020F0B8C021F091EC19F020C0C6F121C063
:1016F000C7F122C0C8F1C6C1A5F0C7C1A6F0C8C1D4
:10170000A7F0000E0001A26F000EA36F400EA46FA1
:1017100085EC0AF0A2C0C9F1A3C0CAF1A4C0CBF104
:10172000C9C178F0CAC179F0CBC17AF075EC0DF07F
:1017300078C0C2F179C0C3F17AC0C4F17BC0C5F1F1
:101740000101CC51D125A8EC1CF00001B76FB751B5
:101750001A6E1B6A1C6A1D6AC2C11EF0C3C11FF04B
:10176000C4C120F0C5C121F03BEC17F00101CD51FF
:101770001A10CD6FCE511B10CE6FCF511C10CF6FF2
:10178000D0511D10D06FD12BD1510001B76FB86B64
:10179000B351B75DB851800AB96FB451800AB959D5
:1017A000D8A083D7CDC1B3F0CEC1B4F0CFC1B5F0CE
:1017B000D0C1B6F01200000192AF0BD0000EC56F81
:1017C000210EC46F000E906F000E916F000E926F8D
:1017D0001200905191119211D8A40BD0000EC56F38
:1017E000220EC46F000E906F000E916F000E926F6C
:1017F0001200000E6C6F000E6D6F400E6E6F930E38
:101800001B6E000E1C6E90C018F091C019F092C0B3
:101810001AF0BEEC13F018C069F019C06AF01AC0D3
:101820006BF0F1EC0DF069C078F06AC079F06BC034
:101830007AF0000E00017B6F800E7C6FBF0E7D6F13
:10184000F0EC08F078C090F079C091F07AC092F096
:1018500000019307D8A0940790C084F091C085F050
:1018600092C086F0730E876F060E886F000E8A6F27
:10187000080E896FC3EC0FF084C090F085C091F022
:1018800086C092F0720E00016C6F310E6D6F3F0ECC
:101890006E6F93C020F094C021F091EC19F020C03D
:1018A00069F021C06AF022C06BF0F1EC0DF069C064
:1018B00078F06AC079F06BC07AF090C07BF091C08C
:1018C0007CF092C07DF0F0EC08F078C090F079C028
:1018D00091F07AC092F01200600E206E000E216E20
:1018E000000E236E090E226ECBEC1BF0240E0001BD
:1018F000606F050E616F520E626F040E636FF00E23
:10190000186E3F0E196E000E1A6E000E1B6E010E41
:101910001C6E31EC16F00001646FF00E186E3F0E75
:10192000196E000E1A6E000E1B6E000E1C6E31EC4E
:1019300016F00001656F40C024F041C025F042C0A0
:1019400026F043C027F0241E251E261E271E242A0B
:10195000000E252226222722F00E2424186E7F0E48
:101960002520196E000E26201A6E000E27201B6EF1
:10197000010E1C6E31EC16F00001666F40C024F0C1
:1019800041C025F042C026F043C027F0241E251E8A
:10199000261E271E242A000E252226222722F00E8C
:1019A0002424186E7F0E2520196E000E26201A6E34
:1019B000000E27201B6E000E1C6E31EC16F000018D
:1019C000676F600E186E000E196E000E1B6E080E0B
:1019D0001A6EB8EC17F00001686F600E196E000EF9
:1019E0001A6E000E1C6E090E1B6EFFEC19F0120031
:1019F0002F500001606F616B0C0ED890603761371B
:101A0000E82EFBD760C062F061C063F062512D1216
:101A100063512E12D890C635D96EC735DA6E6E0E68
:101A2000D926010EDA222DC0DEFF2EC0DDFFC64B07
:101A3000C72BC6C060F0C7C061F0D890603761376F
:101A4000615104E1400E605DD8A0120079EC1CF0F9
:101A50000009D8B4120040C01DF041C01EF042C0C1
:101A60001FF043C020F06E0E216E010E226E93EC2B
:101A700010F0400E4026000E4122422243224350E5
:101A8000421006E1F00E405C7F0E4158D8A018D0FD
:101A9000000E406E400E416E000E426E000E436E10
:101AA000010E0001CA6F400EFA19F911FB11FC1169
:101AB000D8A406D0400EF927000EFA23FB23FC23FE
:101AC0003004FF0E3158FF0E3258FF0E3358D8B095
:101AD00006D0010E3026000E312232223322000EB3
:101AE0000001C76F000EC66F12007AC07CF00001C3
:101AF0007D6B7E6B79357C3701E37D817C51866F10
:101B00008651D8A409D0000E786F000E796F000EB0
:101B10007A6F000E7B6F1200170E7C6F78C07DF01D
:101B200079C07EF07AC07FF07C29806F04D0D89095
:101B30007F337E337D33802FFAD700017D51816F53
:101B4000798FFF0E7817FF0E7917000E7A177851EC
:101B5000826F7951836F7A51846F856B8E0E865FA9
:101B600086AF16D08651800A8F0FD8B009D0000EEC
:101B7000786F000E796F000E7A6F000E7B6F120087
:101B8000D8908533843383338233863FF9D715D099
:101B9000170E86650FD0000E786F000E796F000E5D
:101BA0007A6F000E7B6F1200D890823783378437AC
:101BB000853786078651D8A4F7D78151D8B408D085
:101BC000851F841F831F826D000E8323842385233A
:101BD00082C078F083C079F084C07AF085C07BF051
:101BE00012006BC06FF00001706B716B6A356F375C
:101BF00001E370816F51726F7251D8A407D0000E4B
:101C0000696F000E6A6F000E6B6F12006EC06FF08E
:101C1000706B716B6D356F3701E370816F51776F4A
:101C20007751D8A407D0000E696F000E6A6F000EBE
:101C30006B6F120077517B0F72276BC077F06E517C
:101C4000771B800E77176A8F6D8FFF0E6C17FF0E54
:101C50006D17000E6E17000E736F000E746F000E7E
:101C6000756F070E766F69A106D06C5173276D51A1
:101C700074236E517523D8906B336A336933D890CF
:101C80006C376D376E37762FEED7090E766F69A1F8
:101C900006D06C5173276D5174236E517523D89003
:101CA0006B336A336933D890753374337333762F5B
:101CB000EED773C018F074C019F075C01AF072C076
:101CC0001BF077C01CF0A5EC11F018C069F019C02A
:101CD0006AF01AC06BF012002BC060F00001616B5B
:101CE000626B2A34603701E361816051676F67512D
:101CF000D8A407D0000E296E000E2A6E000E2B6E9F
:101D000012002EC060F0616B626B2D34603701E30E
:101D100061816051686F6851D8A407D0000E296EA8
:101D2000000E2A6E000E2B6E1200000E646F000E65
:101D3000656F000E666F6851890F675F2BC068F092
:101D40002E50681B800E68172A8EFF0E2916FF0E74
:101D50002A16000E2B162D8EFF0E2C16FF0E2D169A
:101D6000000E2E16180E636FD890643765376637ED
:101D70002C50295C2D502A582E502B58D8A007D013
:101D80002C50295E2D502A5A2E502B5A6481D890FF
:101D900029362A362B36632FE7D764C018F065C082
:101DA00019F066C01AF067C01BF068C01CF0A5EC03
:101DB00011F018C029F019C02AF01AC02BF0120037
:101DC000240E0001606F020E616F210E626F040E1F
:101DD000636FC0C069F0C1C06AF0C2C06BF0C3C01D
:101DE0006CF0000E6E6F000E6D6F6EBF06D06E5100
:101DF00042E1040E6D5DD8B03ED0040E6D25256E17
:101E0000000E6E21266E600E2524D96E000E26204F
:101E1000DA6E69C018F06AC019F06BC01AF06CC0B5
:101E20001BF00A0E1C6E000E1D6E000E1E6E000EC4
:101E30001F6E6FEC15F01850DF6E69C018F06AC0A5
:101E400019F06BC01AF06CC01BF00A0E1C6E000E6D
:101E50001D6E000E1E6E000E1F6E4EEC14F018C0AC
:101E600069F019C06AF01AC06BF01BC06CF0000179
:101E70006D4B6E2BBAD7600E186E000E196E000EE9
:101E80001B6E080E1A6EB8EC17F00001686F600E3A
:101E9000196E000E1A6E000E1C6E090E1B6EFFEC02
:101EA00019F0120091C018F092C019F093C01AF006
:101EB000970E1B6E000E1C6EBEEC13F0000198AF67
:101EC00010D093AF07D0000E916F800E926FBF0EAF
:101ED000936F1200000E916F000E926F000E936FC1
:101EE0001200985104E1150E975DD8A007D091C05B
:101EF00091F092C092F093C093F0120091C078F0EC
:101F000092C079F093C07AF075EC0DF078C087F04C
:101F100079C088F07AC089F07BC08AF08FEC14F029
:101F200087C094F088C095F089C096F091C018F0F1
:101F300092C019F093C01AF094C01BF095C01CF029
:101F400096C01DF006EC14F0D8B016D094C078F00E
:101F500095C079F096C07AF0000E00017B6F800E7C
:101F60007C6FBF0E7D6FF0EC08F078C091F079C007
:101F700092F07AC093F0120094C091F095C092F064
:101F800096C093F0120089C018F08AC019F0000EB4
:101F90001B6E030E1A6E42EC1BF087C08BF088C0DC
:101FA0008CF0185000018B2719508C238BC0F6FF42
:101FB0008CC0F7FF0900F5CF8DF00900F5CF8EF04A
:101FC0000A00F5CF8FF040D08DC06CF08EC06DF060
:101FD0008FC06EF084C069F085C06AF086C06BF077
:101FE000F1EC0DF069C078F06AC079F06BC07AF05E
:101FF000000E1B6E030E1A6E00018907D8A08A0717
:1020000089C018F08AC019F042EC1BF087C08BF031
:1020100088C08CF0185000018B2719508C238BC07E
:10202000F6FF8CC0F7FF0900F5CF7BF00900F5CF74
:102030007CF00A00F5CF7DF0F0EC08F078C08DF070
:1020400079C08EF07AC08FF0000189518A11D8A42E
:10205000BBD78DC084F08EC085F08FC086F0120093
:102060000001905191119211D8A407D0000E906FE9
:10207000000E916F000E926F120092517F0B956FC0
:10208000966BD89095379637955193279651942310
:1020900091AF03D0956B952B02D00001956B9551B4
:1020A0009327000E942394AF0BD0000EC56F220E21
:1020B000C46F000E906F000E916F000E926F1200B1
:1020C00094BF15D09405D8A012D0000EC56F220E73
:1020D000C46F92AF06D0FF0E906F7F0E916FFF0E10
:1020E000EDD7FF0E906F7F0E916F7F0EE7D794357F
:1020F0009431966F9331956F92519519800B951984
:10210000926F93C095F0010E9517953395339151C9
:1021100095197F0B9519916F90C090F091C091F037
:1021200092C092F01200C00E236E7F0E246E1DC06E
:1021300025F01EC026F0235025162450261625C053
:1021400027F026C028F0296A2A6A000EF2BE010E86
:102150002B6E27501D1844E128501E1841E12950CC
:102160001F183EE12A502018D8A412001DC018F0F4
:102170001EC019F01FC01AF020C01BF034EC1AF07A
:102180001FC0F8FF1EC0F7FF1DC0F6FF000E2C6E2B
:102190003F0E2C6401D013D02C50010DF35021249C
:1021A000D96EF4502220DA6EDF50F56E3F0E2C18F7
:1021B000D8A402D00C0001D00D002C2AE9D7A188A8
:1021C000A68EA69CA684F29E550EA76EAA0EA76E9A
:1021D000A682A6942BB002D0F29E01D0F28E1200FD
:1021E00012000001856F010E0001806F000E816FEB
:1021F000000E826F000E836F600E206E000E216E47
:10220000DAEC1BF0600E186E000E196E22C01AF088
:1022100023C01BF024C01CF025C01DF08DEC16F06F
:10222000000E0001846F1F0E846501D026D0000EC1
:10223000186E855110EC17F000018451010D600EED
:10224000F324D96E000EF420DA6EDF50D8B406D035
:10225000010E186E8551E5EC16F006D0000E186ED2
:1022600000018551E5EC16F0010E186E0001855154
:1022700010EC17F00001842BD6D7210EE82EFED7E4
:1022800000F0000E186E00018551E5EC16F0000E0E
:10229000186E0001855110EC17F01200E00E2C6E44
:1022A000FF0E2D6E460E2E6E40C078F041C079F0C4
:1022B00042C07AF043C07BF00001781F791F7A1F7B
:1022C0007B1F782B000E79237A237B23F00E782551
:1022D000206E7F0E7921216E000E7A21226E000E73
:1022E0007B21236E5FEC16F020C029F021C02AF07C
:1022F00022C02BF06CEC0EF029C069F02AC06AF005
:102300002BC06BF0000E00016C6FC80E6D6F420E9B
:102310006E6FF1EC0DF069C07CF06AC07DF06BC0AF
:102320007EF0000E186E960E196E420E1A6E7CC06C
:102330001BF07DC01CF07EC01DF006EC14F0D8B080
:1023400002D0010E1200000E12001B50D8B405D0AE
:10235000185019101A10D8A40CD0000E186E000EC8
:10236000196E000E1A6E12001B2AD8901A321932FA
:102370001832000E18141D6E000E19141E6EFE0E7B
:102380001A141F6E1D501E101F10D8B40CD0ECD79D
:102390001B2A010E1826000E1922000E1A22D890B0
:1023A0001A3219321832000E18141D6E000E19144C
:1023B0001E6EFF0E1A141F6E1D501E101F10D8B473
:1023C00006D0E6D71B06D890183619361A3619BE2D
:1023D00003D0020E1B60F6D71BA0199ED8901B32AB
:1023E0001B501A121C50D8A41A8E18C018F019C00D
:1023F00019F01AC01AF012000001BF6F30D0C2C12C
:1024000018F0C3C119F0B8EC1CF01200C2C118F0EA
:10241000C3C119F0B8EC1CF01200C2C187F0C3C1EF
:1024200088F076EC13F01200C2C12CF0C3C12DF07D
:1024300067EC1BF012007EEC1AF0120066EC1AF04A
:102440001200C2C124F0C3C125F005EC15F0120042
:10245000C2C124F0C3C125F005EC15F01200000143
:10246000BF51400AD8B4CBD7010AD8B4CFD7030A9A
:10247000D8B4D3D7010AD8B4D7D7070AD8B4DBD792
:10248000010AD8B4DBD7030AD8B4DBD7010AD8A431
:102490001200DED72E6EF29E2E50D8B403D02E043A
:1024A000D8A416D0000E186E2E5057EC19F026C086
:1024B00022F027C023F028C024F029C025F02E5098
:1024C000F1EC10F0010E186E2E5057EC19F02DD0D3
:1024D000020E2E18D8A429D0000EE9EC1BF0010E34
:1024E0002A242C6E2D6A000E2D222DBE1BD02D50BD
:1024F00003E12C04D8A016D026C018F027C019F08C
:1025000028C01AF029C01BF02C041C6E31EC16F008
:102510002B6E2BC01AF02E50B9EC16F02C06D8A05A
:102520002D06E3D7010EE9EC1BF0F28E1200000E2F
:102530000001696F000E6A6F000E6B6F000E6C6F0A
:10254000600E206E000E216E000E236E090E226EAC
:10255000CBEC1BF0240E0001606F020E616F220EA7
:10256000626F040E636F8E0E696F060E6A6F000E47
:102570006B6F000E6C6F6AC064F069C065F09A0EF4
:10258000696F060E6A6F000E6B6F000E6C6F6AC08B
:1025900066F069C067F0600E186E000E196E000ECE
:1025A0001B6E080E1A6EB8EC17F00001686F600E13
:1025B000196E000E1A6E000E1C6E090E1B6EFFECDB
:1025C00019F01200000E0001BE6FBE51800A7C0F90
:1025D000D8B01200000EB46F020EB36FBE51010DE1
:1025E000510EF324F66E060EF420F76E0800F55037
:1025F000400943EC0BF0B3C0BCF0B4C0BDF0000127
:10260000BC291DE1BD29D8A41AD0BE51020D420E2D
:10261000F324F66E060EF420F76E0900F5CFBAF03B
:102620000900F5CFBBF0BAC026F0BBC027F0286A7E
:10263000296A010E2A6E020E4AEC12F00BD0BCC0C1
:1026400026F0BDC027F0286A296A010E2A6E020E04
:102650004AEC12F00001BE2BB8D7F2944750D76E67
:1026600046C0D6FF344A352A34C001F035C002F0E6
:10267000000E046E140E036EFAEC18F001500210F6
:10268000D8A403D0010E0001D86F34C001F035C0CA
:1026900002F0000E046E320E036EFAEC18F00150D8
:1026A0000210D8A403D0010E0001D76F34C001F08E
:1026B00035C002F0010E046E2C0E036EFAEC18F019
:1026C00001500210D8A403D0010E0001D66F34C00F
:1026D00001F035C002F0010E046E2C0E036EFAEC10
:1026E00018F001C034F002C035F01200000E0001F5
:1026F000896F070E3A603AD087C066F088C067F0ED
:102700000A0EC7EC09F020EE8AF0070EEBCFDBFFD4
:10271000E806FCE28AC026F08BC027F08CC028F0C7
:102720008DC029F0030E2A6E000E4AEC12F08AC00A
:1027300021F08BC022F08CC023F08DC024F0350E28
:1027400000018E25F66E060E8F21F76E0800F5CF7C
:1027500025F0000E276E040E266E75EC19F03A2A4D
:10276000480E246E040E8FEC17F01200000E3A6E25
:10277000420E246E040E8FEC17F012001850191040
:102780001A10D8A40FD01BC0D9FF1CC0DAFF000E4E
:10279000DE6E000EDD6E000E186E000E196E000E5D
:1027A0001A6E12001A507F0B1D6E1E6AD8901D36CD
:1027B0001E361BC0D9FF1CC0DAFF1DC0DEFF1EC0C5
:1027C000DDFF19AE03D01D6A1D2A01D01D6A1D5000
:1027D0001BC0D9FF1CC0DAFFDE12000EDD121BC0C9
:1027E000D9FF1CC0DAFF820EDE26FF0EDD221A8022
:1027F0001A821A841A861A881A8A1A9C199E18C074
:1028000018F019C019F01AC01AF012001AAE16D03A
:1028100018C01EF019C01FF01AC020F01E1E1F1E87
:10282000201E1E2A000E1F222022000E1E24186EBB
:10283000000E1F20196E800E20201A6E1DAE16D0BD
:102840001BC01EF01CC01FF01DC020F01E1E1F1E4E
:10285000201E1E2A000E1F222022000E1E241B6E88
:10286000000E1F201C6E800E20201D6E000E181AF8
:10287000000E191A800E1A1A000E1B1A000E1C1ACE
:10288000800E1D1A1B50185C1C5019581D501A58E8
:10289000D8B002D0D8901200D8801200000E206E5E
:1028A000000E216E000E226E000E236E1C501D10B5
:1028B0001E101F10D8B42AD0010E246E06D0D89056
:1028C0001C361D361E361F36242A1FAEF8D7D89068
:1028D00020362136223623361C50185C1D501958DC
:1028E0001E501A581F501B58D8A009D01C50185EF3
:1028F0001D50195A1E501A5A1F501B5A2080D8902A
:102900001F321E321D321C32242EE1D720C018F097
:1029100021C019F022C01AF023C01BF01200000ED3
:102920000001906F8E0E8F6F8AAF11D08A1F891FA2
:10293000881F876D000E882389238A23010E906FDC
:1029400006D0D8908A338933883387338F2B000E93
:1029500087158B6F000E88158C6F000E89158D6F93
:10296000FF0E8A158E6F8B518C118D118E11D8A48C
:10297000E8D787C018F088C019F089C01AF08FC056
:102980001BF090C01CF0A5EC11F018C087F019C026
:1029900088F01AC089F012009A0EF66E380EF76EA3
:1029A000000EF86E00EEEDF010EE10F00900F5CF1D
:1029B000EEFFE550E150FAE15A0EF66E390EF76E71
:1029C000000EF86E00EE40F010EE06F00900F5CFB4
:1029D000EEFFE550E150FAE101EE00F0C20EEE6AC2
:1029E000E806FDE100EEC0F02D0EEE6AE806FDE11E
:1029F00000EE30F0100EEE6AE806FDE148904892D5
:102A0000000EF86E0001A2EF15F0600E206E000EB1
:102A1000216E000E236E1B0E226ECBEC1BF0240EDB
:102A20000001606F040E616F160E636F24C0D9FF42
:102A300025C0DAFFDF507B6F7B51D8A402D0460E51
:102A400001D0470E626F600E186E000E196E000EF8
:102A50001B6E1A0E1A6EB8EC17F000017A6F600E3A
:102A6000196E000E1A6E000E1C6E1B0E1B6EFFEC14
:102A700019F01200000E2E6E000E2D6E2EBE06D026
:102A80002E5027E10A0E2D5CD8B023D08B80820E09
:102A90002C6EDE0EE82EFED72C2EFCD78A88820EF6
:102AA0002C6EDE0EE82EFED72C2EFCD78B90820EDD
:102AB0002C6EDE0EE82EFED72C2EFCD78A98820EC6
:102AC0002C6EDE0EE82EFED72C2EFCD72D4A2E2A99
:102AD000D5D7140E246E010E8FEC17F012001C5087
:102AE0001D101E101F10D8B424D0010E206E06D069
:102AF000D8901C361D361E361F36202A1FAEF8D73A
:102B00001C50185C1D5019581E501A581F501B5845
:102B1000D8A008D01C50185E1D50195A1E501A5AC1
:102B20001F501B5AD8901F321E321D321C32202ECD
:102B3000E7D718C018F019C019F01AC01AF01BC056
:102B40001BF012009EEC1CF01BEC1CF098EC1CF02F
:102B5000030ED3EC15F033EC05F00001D805D8A432
:102B600006D0B7EC18F0000E0001D86FF4D7D705E7
:102B7000D8A410D004EC1CF04EEC11F0E806D8A458
:102B800003D0040E02EC16F015EC08F0000E000164
:102B9000D76FE1D7D605D8A4DED792EC1CF0000E93
:102BA0000001D66FD8D71B6E000E1D6E000E1C6E76
:102BB0001B50186E196A18501C5C1D50800A1A6E42
:102BC0001950800A1A58D8B012008B90020E196E54
:102BD000040E186EBA0EE82EFED7182EFCD7192E4A
:102BE000FAD700D08B80020E196E040E186EBA0E42
:102BF000E82EFED7182EFCD7192EFAD700D01C4A83
:102C00001D2AD6D71B6E000E1D6E000E1C6E1B50AB
:102C1000186E196A18501C5C1D50800A1A6E1950E3
:102C2000800A1A58D8B012008A98020E196E040E43
:102C3000186EBA0EE82EFED7182EFCD7192EFAD72A
:102C400000D08A88020E196E040E186EBA0EE82E95
:102C5000FED7182EFCD7192EFAD700D01C4A1D2AF1
:102C6000D6D71FD018501200195012001A50120057
:102C7000000E18141D6E000E19141E6E000E1A148C
:102C80001F6EFF0E1B14206E190E05D0D890203237
:102C90001F321E321D32E82EF9D71D501200000ED1
:102CA00012001C50000AD8B4DDD7010AD8B4DCD712
:102CB000030AD8B4DBD7010AD8B4DAD7F0D78E0E1E
:102CC000286E06D0D8902332223221322032282A90
:102CD000000E2014246E000E2114256E000E221406
:102CE000266EFF0E2314276E245025102610271061
:102CF000D8A4E8D720C018F021C019F022C01AF0DB
:102D000028C01BF0000E1C6EA5EC11F018C020F0BE
:102D100019C021F01AC022F01200000E216E000E20
:102D2000206E21BE06D0215023E1210E205CD8B0B8
:102D30001200010E20241E6E000E21201F6E1E1E8A
:102D40001F1E1E4A1F2A200E1E26000E1F221E5066
:102D50001824D96E1F501920DA6E1A50010BDF6E3D
:102D6000D8901D321C321B321A32204A212AD9D760
:102D700012001C6E080E1B6E1AD0010E186E1C502D
:102D800010EC17F01AAE06D0010E186E1C50E5ECD0
:102D900016F005D0000E186E1C50E5EC16F0000E73
:102DA000186E1C5010EC17F01B06D8901A361B50EA
:102DB000D8A4E3D7000E186E1C50E5EC16F0000EF8
:102DC000186E1C5010EC17F01200196E1ED018046B
:102DD000D8A402D08C8012001850D8A412008C9075
:102DE00012001804D8A402D08B8A12001850D8A45C
:102DF00012008B9A12001804D8A402D089881200FD
:102E00001850D8A41200899812001950000AD8B49A
:102E1000DED7010AD8B4E5D7030AD8A41200EBD74D
:102E2000196E1ED01804D8A402D08B861200185038
:102E3000D8A412008B9612001804D8A402D08B8854
:102E400012001850D8A412008B9812001804D8A4AD
:102E500002D0898612001850D8A412008996120058
:102E60001950000AD8B4DED7010AD8B4E5D7030A4E
:102E7000D8A41200EBD7000E226E000E236E000EB7
:102E8000246E000E256E1AA008D01E5022261F5058
:102E900023222050242221502522D8901E361F366E
:102EA00020362136D8901D321C321B321A321A506D
:102EB0001B101C101D10D8A4E6D722C01AF023C086
:102EC0001BF024C01CF025C01DF01200000E406E47
:102ED000400E416E000E426E000E436E000E000169
:102EE000F96F400EFA6F000EFB6F000EFC6F000EC4
:102EF000306E000E316E000E326E000E336E6E0EAE
:102F0000206E010E216E000E236E200E226ECBEC81
:102F10001BF0510E246E050E8FEC17F01200256E7B
:102F2000260E206E000E216E000E236E060E226EFF
:102F3000CBEC1BF0240E266E25C027F024C028F011
:102F4000000E296E260E186E000E196E000E1B6EF6
:102F5000050E1A6EB8EC17F02B6E260E196E000EC9
:102F60001A6E000E1C6E060E1B6EFFEC19F012009E
:102F7000000E1E6E000E1D6E000E206E000E1F6EE7
:102F80000ED01F501824D96E20501920DA6EDF5051
:102F90001C6E1C501D26000E1E221F4A202A1A508D
:102FA0001F5C2050800A1C6E1B50800A1C58D8A041
:102FB000E8D7FF0E1D16000E1E161D501200010E42
:102FC000186E000E39EC19F0000E2F6E0C0E2F64E7
:102FD00001D012002F50040D010EF324F66E060EE0
:102FE000F420F76E0900F5CF26F00900F5CF27F0A1
:102FF0000900F5CF28F00A00F5CF29F0030E2A6E5C
:10300000000E4AEC12F02F2AE1D7010E186E010EC5
:1030100039EC19F0000E2F6E0C0E2F6401D0120047
:103020002F50040D010EF324F66E060EF420F76EF9
:103030000900F5CF26F00900F5CF27F00900F5CFFC
:1030400028F00A00F5CF29F0030E2A6E010E4AEC93
:1030500012F02F2AE1D70001BF6F15D0C2C12CF0AA
:10306000C3C12DF08CEC1CF01200C2C12CF0C3C106
:103070002DF096EC1AF01200C2C12CF0C3C12DF055
:1030800086EC1CF012000001BF51310AD8B4E6D71B
:10309000030AD8B4EAD7010AD8A41200EDD7000E6B
:1030A0008D6E000E8C6E060E896E000E8A6E000EFE
:1030B0008B6E070E966EE10E926EEF0E936E800E83
:1030C000946EF20E956E340E0F013A6F320E396F18
:1030D000E40E3B6F070E3C6F2F0E386FC30E616E10
:1030E000F19EF28612000101C46F13D066EC17F056
:1030F00012006CEC0CF01200C2C1D9FFC3C1DAFFA0
:10310000DF500001BF6FBF512C6E2D6A52EC03F0EF
:1031100012000101C451510AD8B4E8D7030AD8B447
:10312000E8D7010AD8A41200E7D7000E1A6E000EE5
:10313000196E0001D351D8A402D019501200365094
:10314000010D460EF324D96E010EF420DA6EDF5025
:10315000186E1850196E1A6A362A270E366402D075
:10316000000E366E9D9AD3079D8A19501200010EEB
:103170000001C027000EC123C223C323C0C018F022
:10318000C1C019F0C2C01AF0C3C01BF0800E1C6E83
:10319000430E1D6E000E1E6E000E1F6E6FEC15F0BE
:1031A00018C0C0F019C0C1F01AC0C2F01BC0C3F0F3
:1031B00012000001875188118911D8B406D0000E81
:1031C000871B000E881B800E891B84C078F085C089
:1031D00079F086C07AF087C07BF088C07CF089C027
:1031E0007DF0F0EC08F078C084F079C085F07AC00A
:1031F00086F0120003500410D8B418D0010E056EEA
:1032000004D0D89003360436052A04AEFAD703500A
:10321000015C04500258D8A004D00350015E045051
:10322000025AD89004320332052EF1D701C001F0C2
:1032300002C002F01200186E0001FF51D8B4FCD792
:103240009DB803D018C0ADFF12D09D983950010D24
:10325000000EF324D96E010EF420DA6E18C0DFFFE1
:10326000392A450E396402D0000E396EFF079D8859
:103270001200196E14D01804D8A402D08B82120048
:103280001850D8A412008B9212001804D8A402D0AF
:103290008C8412001850D8A412008B92120019507E
:1032A000000AD8B4E8D7010AD8A41200EED7196EE4
:1032B00014D01804D8A402D08B8412001850D8A4BB
:1032C00012008B9412001804D8A402D08C8612002D
:1032D0001850D8A412008C9612001950000AD8B4C5
:1032E000E8D7010AD8A41200EED726C029F015D0DD
:1032F00021C018F022C019F023C01AF024C01BF01E
:1033000029041C6E31EC16F0286E28C01BF02950E1
:10331000000825245DEC1CF029062950D8B41200C1
:10332000E7D7000E236E21AE06D0206C211ED8B048
:10333000212A010E236E20C018F021C019F01A6A4C
:103340008E0E1B6E23C01CF0A5EC11F018C020F0EF
:1033500019C021F01AC022F01200460E0001FF61D0
:1033600012D03850010D000EF324D96E010EF42056
:10337000DA6EDF50AD6E382A450E386402D0000E8A
:10338000386EFF2B12009D98000E386E000E396EBD
:103390001200196E000EF2BE010E1A6E19C0A9FFBE
:1033A00018C0A8FFA69EA69CA684F29E550EA76EE6
:1033B000AA0EA76EA682A6B2FED7A6941AB002D015
:1033C000F29E01D0F28E12009D9A9D98080EB86E62
:1033D000900EAB6E240EAC6E100EAF6E000EB06E83
:1033E000000E396E000E386E460E0001FF6F000EA3
:1033F000376E000E366E000ED36F9D8A1200000EDF
:103400001F6E000E1E6E0BD01E501924D96E1F5059
:103410001A20DA6EDF501BEC19F01E4A1F2A1B50CF
:103420001E5C1F50800A1D6E1C50800A1D58D8B0AB
:103430001200EAD73C0ED76EAF0ED66ED650D7CF5D
:103440001AF01B6A1AC01BF01A6A1A10466E1B503B
:10345000476EF294F28A000E186E000E196EA3ECFD
:103460001CF0900ED56E1200000EF2BE010E1C6E06
:103470001AC0F8FF19C0F7FF18C0F6FFA68EA69C69
:10348000A684A688F29E550EA76EAA0EA76EA682E7
:103490001CB002D0F29E01D0F28E12000001BF6F6C
:1034A00006D03AEC15F0120064EC1CF0120000019A
:1034B000BF51110AD8B4F8D7030AD8B41200010AD0
:1034C000D8B41200070AD8A41200EBD74550D8A4EC
:1034D00002D0010E01D0000E456E4550D8B403D085
:1034E000DFEC17F005D0000E186E000E39EC19F065
:1034F000450E246E040E8FEC17F012004450D8A431
:1035000002D0010E01D0000E446E4450D8B403D056
:1035100005EC18F005D0000E186E010E39EC19F00C
:10352000440E246E040E8FEC17F012002CC0D9FF4D
:103530002DC0DAFFDF503B6E3B04D8A409D020EE4B
:1035400001F02C50D9262D50DA22DF500001D46F23
:10355000320E246E030E8FEC17F012001C6E1CC08E
:103560001AF01A461A46C2501A18830B1A18C26E5D
:10357000C280C282C2B2FED7C4501B6E1A6AC35048
:103580001A24186E000E1B20196E1200ABA202D076
:10359000AB98AB883750010D460EF324D96E010E5F
:1035A000F420DA6EAECFDFFF372A270E376402D061
:1035B000000E376E0001D32B120018C01EF019C088
:1035C0001FF008D01EC0D9FF1FC0DAFF1AC0DFFFEE
:1035D0001E4A1F2A1C06D8A01D061C28F3E11D2820
:1035E000D8B41200EFD7000E0001CF6F000ECD6FE0
:1035F000000ECC6F000ECB6FD90E206E000E216E28
:10360000000E236E140E226ECBEC1BF012001D6E0A
:10361000010E1C6E7B0E1D6003D0610E1D6007D075
:103620001D50BCEC1BF0D8B002D0000E1C6E1CC0AC
:103630001BF01B30120019AE0DD018C01AF019C0C3
:103640001BF01A1E1B1E1A4A1B2A1AC018F01BC098
:1036500019F0120018C018F019C019F012001A6EF3
:10366000010E196E200E1A18D8B408D00E0E1A606A
:1036700003D0090E1A6002D0000E196E19C018F09E
:103680001830120018501A02F3CF1CF0F4CF1DF0BE
:1036900018501B02F3501D2619501A02F3501D2614
:1036A0001CC018F01DC019F012000001BF6F06D039
:1036B00097EC12F01200E0EC0EF012000001BF5186
:1036C000210AD8B4F8D7030AD8A41200F1D7070EFC
:1036D0003A6007D03A2A490E246E040E8FEC17F098
:1036E0001200000E3A6E430E246E040E8FEC17F09B
:1036F0001200185019101A10D8B406D0000E181A5B
:10370000000E191A800E1A1A18C018F019C019F0F4
:103710001AC01AF0120020C018F021C019F01A6A5D
:103720008E0E1B6E000E1C6EA5EC11F018C020F062
:1037300019C021F01AC022F012000001BF6F07D09B
:10374000C2C12CF0C3C12DF080EC1CF012000001AE
:10375000BF51610AD8A41200F3D71A6E000E196E79
:103760003A0E1A6005D02F0E1A6402D0010E196E9F
:1037700019C018F0183012001A6E000E196E5B0E88
:103780001A6005D0400E1A6402D0010E196E19C0DD
:1037900018F01830120020C018F021C019F0000EE7
:1037A0001B6E000E1A6E22C01CF023C01DF0DDEC53
:1037B0001AF0120020C018F021C019F0000E1B6E84
:1037C000000E1A6E000E1D6E200E1C6EDDEC1AF03F
:1037D0001200186E04D089941200898412001850C7
:1037E000000AD8B4F8D7010AD8A41200F6D7B0EC72
:1037F0001CF04FEC18F06BEC1CF010EC1CF01AEC09
:103800001AF0E4EC19F012008BB003D0186A182AF1
:1038100001D0186A8B501818FE0B18188B6E120006
:10382000050EC26E000EC16E870EC06E000EC36E16
:10383000000EC46E120055EC1CF0B2EC1CF072ECE1
:103840001CF03AEC1CF0E2EC12F01200186E7B0E49
:10385000186004D0600E186401D0189A1850120035
:10386000186E18C0A9FFA69CA69EA68000F000F0C6
:10387000A8501200000E0001C06F000EC16F000EB4
:10388000C26F000EC36F12001AC0F8FF19C0F7FF15
:1038900018C0F6FF0800F55012009C34AA365630C6
:1038A000F823E6303A3700400000000E0001D56FE3
:1038B000000E3B6E000E186E12001C6E1BC018F03E
:1038C0001C50C9EC19F01200110E246E010E8FEC81
:1038D00017F0FF001200600ED36E040ED26E800E41
:1038E0009B6E1200800E626EDFEC17F005EC18F094
:1038F0001200A6A201D002D0010E1200000E12008A
:10390000610E246E060E8FEC17F01200330E246E3B
:10391000030E8FEC17F01200310E246E030E8FECA5
:1039200017F01200150E246E010E8FEC17F0120026
:10393000100E246E010E8FEC17F01200F7EC1BF046
:10394000F28EF28C120018C0FDF019C0FEF01200C9
:10395000196E195030EC1CF01200004000000101FB
:10396000D09E1200D58E1200F2901200A198120083
:02397000120043
:020000040020DA
:08000000FFFFFFFFFFFFFFFF00
:020000040030CA
:0E000000FF281838FFBF80FF0FC00FE00F4031
:00000001FF
